{
  "transactions": [
    {
      "hash": "0xcb7f88869094adbddeba41c459c8690a835d7cba30db3fcc56d9230040cd24ab",
      "transactionType": "CALL",
      "contractName": null,
      "contractAddress": "0x4200000000000000000000000000000000000006",
      "function": "approve(address,uint256)",
      "arguments": [
        "0xA6C02dFDF1150252A97Fc287F657359673bb66A1",
        "115792089237316195423570985008687907853269984665640564039457584007913129639935"
      ],
      "transaction": {
        "from": "0x95606236867c2d3391f3dd2d3004efab08e819e4",
        "to": "0x4200000000000000000000000000000000000006",
        "gas": "0x8f54",
        "value": "0x0",
        "input": "0x095ea7b3000000000000000000000000a6c02dfdf1150252a97fc287f657359673bb66a1ffffffffffffffffffffffffffffffffffffffffffffffffffffffffffffffff",
        "nonce": "0xe3",
        "chainId": "0x515"
      },
      "additionalContracts": [],
      "isFixedGasLimit": false
    },
    {
      "hash": "0x61ce3beea186e5e092a1e80c24ec79dc007af08ab9a98c23bb84576f9f1ac564",
      "transactionType": "CALL",
      "contractName": null,
      "contractAddress": "0x7a8c0742314fccc2ad8117c4c1c72f07f9cd9f41",
      "function": "submitIntent((uint64,uint64,uint32,uint32,bytes32[4],uint8,uint256,bytes32),uint256)",
      "arguments": [
        "(43716694, 43716794, 0, 0, [0x07eb7aa970922aad3a3116688e325f1c55de6b2d1f4c3da05a4d9ef591e5178b, 0x0000000000000000000000000000000000000000000000000000000000000000, 0x0000000000000000000000000000000000000000000000000000000000000000, 0x0000000000000000000000000000000000000000000000000000000000000000], 1, 0, 0x0000000000000000000000000000000000000000000000000000000000000000)",
        "500000000000000"
      ],
      "transaction": {
        "from": "0x95606236867c2d3391f3dd2d3004efab08e819e4",
        "to": "0x7a8c0742314fccc2ad8117c4c1c72f07f9cd9f41",
        "gas": "0x4616e",
        "value": "0x0",
        "input": "0xed82a00e00000000000000000000000000000000000000000000000000000000029b105600000000000000000000000000000000000000000000000000000000029b10ba0000000000000000000000000000000000000000000000000000000000000000000000000000000000000000000000000000000000000000000000000000000007eb7aa970922aad3a3116688e325f1c55de6b2d1f4c3da05a4d9ef591e5178b0000000000000000000000000000000000000000000000000000000000000000000000000000000000000000000000000000000000000000000000000000000000000000000000000000000000000000000000000000000000000000000000000000000000000000000000000000000000000000000000000000000000000001000000000000000000000000000000000000000000000000000000000000000000000000000000000000000000000000000000000000000000000000000000000000000000000000000000000000000000000000000000000001c6bf52634000",
        "nonce": "0xe4",
        "chainId": "0x515"
      },
      "additionalContracts": [],
      "isFixedGasLimit": false
    },
    {
      "hash": "0x656e1295b19488d4925864a3904afc73536e674380dde4b566dc1d843d2d48e8",
      "transactionType": "CALL",
      "contractName": null,
      "contractAddress": "0xa6c02dfdf1150252a97fc287f657359673bb66a1",
      "function": "executeIntent(uint256,(address,address,uint24,int24,address),uint160)",
      "arguments": [
        "0",
        "(0x31d0220469e10c4E71834a79b1f276d740d3768F, 0x4200000000000000000000000000000000000006, 3000, 60, 0x2131def8AF1b70cF1B9b7525e525945e465AC6C0)",
        "158456325028528675187087900672"
      ],
      "transaction": {
        "from": "0x95606236867c2d3391f3dd2d3004efab08e819e4",
        "to": "0xa6c02dfdf1150252a97fc287f657359673bb66a1",
        "gas": "0x73ed3",
        "value": "0x0",
        "input": "0xd9c8ec22000000000000000000000000000000000000000000000000000000000000000000000000000000000000000031d0220469e10c4e71834a79b1f276d740d3768f00000000000000000000000042000000000000000000000000000000000000060000000000000000000000000000000000000000000000000000000000000bb8000000000000000000000000000000000000000000000000000000000000003c0000000000000000000000002131def8af1b70cf1b9b7525e525945e465ac6c00000000000000000000000000000000000000002000000000000000000000000",
        "nonce": "0xe5",
        "chainId": "0x515"
      },
      "additionalContracts": [],
      "isFixedGasLimit": false
    }
  ],
  "receipts": [
    {
      "status": "0x1",
      "cumulativeGasUsed": "0x5c239",
      "logs": [
        {
          "address": "0x4200000000000000000000000000000000000006",
          "topics": [
            "0x8c5be1e5ebec7d5bd14f71427d1e84f3dd0314c0f7b2291e5b200ac8c7c3b925",
            "0x00000000000000000000000095606236867c2d3391f3dd2d3004efab08e819e4",
            "0x000000000000000000000000a6c02dfdf1150252a97fc287f657359673bb66a1"
          ],
          "data": "0xffffffffffffffffffffffffffffffffffffffffffffffffffffffffffffffff",
          "blockHash": "0x3e051a11adebe59bee28edf5fe7e847b8cf2faea282ec811b47c4adf0f17201c",
          "blockNumber": "0x29b106e",
          "blockTimestamp": "0x6988bdba",
          "transactionHash": "0xcb7f88869094adbddeba41c459c8690a835d7cba30db3fcc56d9230040cd24ab",
          "transactionIndex": "0x5",
          "logIndex": "0x3",
          "removed": false
        }
      ],
      "logsBloom": "0x00000001000000000000000000000000000000002040000000040000000000004000000000000000000000100000000000000000000000002000000000200000000000000000000000000000000000000000000000000000000000000000000000000000000000000000000000000000000000000000000000000000000000000000000000000000000000000000000000000000002000000000000000000000020000000000000000000000000000000000000000000000000000000000000000000000000000000000000000000000000000200000000000000000000000000010000000000000000000000000000000000000000000000000000000000000",
      "type": "0x2",
      "transactionHash": "0xcb7f88869094adbddeba41c459c8690a835d7cba30db3fcc56d9230040cd24ab",
      "transactionIndex": "0x5",
      "blockHash": "0x3e051a11adebe59bee28edf5fe7e847b8cf2faea282ec811b47c4adf0f17201c",
      "blockNumber": "0x29b106e",
      "gasUsed": "0x67c5",
      "effectiveGasPrice": "0x7a121",
      "blobGasUsed": "0x9c40",
      "from": "0x95606236867c2d3391f3dd2d3004efab08e819e4",
      "to": "0x4200000000000000000000000000000000000006",
      "contractAddress": null,
      "daFootprintGasScalar": "0x190",
      "l1BaseFeeScalar": "0x7d0",
      "l1BlobBaseFee": "0x3c947f0",
      "l1BlobBaseFeeScalar": "0xdbba0",
      "l1Fee": "0x216808380",
      "l1GasPrice": "0x3c8b21da",
      "l1GasUsed": "0x640"
    },
    {
      "status": "0x1",
      "cumulativeGasUsed": "0x8c104",
      "logs": [
        {
          "address": "0x7a8c0742314fccc2ad8117c4c1c72f07f9cd9f41",
          "topics": [
            "0x69ed47713df78c91050b377d2f52abaea3dbc2bbe31c32b290c288c61ce079fc",
            "0x0000000000000000000000000000000000000000000000000000000000000000",
            "0x00000000000000000000000095606236867c2d3391f3dd2d3004efab08e819e4"
          ],
          "data": "0x00000000000000000000000000000000000000000000000000000000029b105600000000000000000000000000000000000000000000000000000000029b10ba",
          "blockHash": "0x3e051a11adebe59bee28edf5fe7e847b8cf2faea282ec811b47c4adf0f17201c",
          "blockNumber": "0x29b106e",
          "blockTimestamp": "0x6988bdba",
          "transactionHash": "0x61ce3beea186e5e092a1e80c24ec79dc007af08ab9a98c23bb84576f9f1ac564",
          "transactionIndex": "0x6",
          "logIndex": "0x4",
          "removed": false
        }
      ],
      "logsBloom": "0x00000001000000000000000000000000000000000040000000000000000000000000000000000000000000000000000000000000000000000000000000000000000001000000000000000000000000000000000000000000000000000000000000000000020000000000000000000800000000000000000000000000000000000000000000000000000000000000000000000000000080000000000000000000000000000000000000000000000000000000000040000000200000000000000000000000000000000000000000000000000000200000000000000000000020000000002000000000000000000000000000000000080000000000000000000000",
      "type": "0x2",
      "transactionHash": "0x61ce3beea186e5e092a1e80c24ec79dc007af08ab9a98c23bb84576f9f1ac564",
      "transactionIndex": "0x6",
      "blockHash": "0x3e051a11adebe59bee28edf5fe7e847b8cf2faea282ec811b47c4adf0f17201c",
      "blockNumber": "0x29b106e",
      "gasUsed": "0x2fecb",
      "effectiveGasPrice": "0x7a121",
      "blobGasUsed": "0xbb80",
      "from": "0x95606236867c2d3391f3dd2d3004efab08e819e4",
      "to": "0x7a8c0742314fccc2ad8117c4c1c72f07f9cd9f41",
      "contractAddress": null,
      "daFootprintGasScalar": "0x190",
      "l1BaseFeeScalar": "0x7d0",
      "l1BlobBaseFee": "0x3c947f0",
      "l1BlobBaseFeeScalar": "0xdbba0",
      "l1Fee": "0x2843ed41b",
      "l1GasPrice": "0x3c8b21da",
      "l1GasUsed": "0x788"
    },
    {
      "status": "0x1",
      "cumulativeGasUsed": "0xdffe1",
      "logs": [
        {
          "address": "0x4200000000000000000000000000000000000006",
          "topics": [
            "0xddf252ad1be2c89b69c2b068fc378daa952ba7f163c4a11628f55a4df523b3ef",
            "0x00000000000000000000000095606236867c2d3391f3dd2d3004efab08e819e4",
            "0x000000000000000000000000a6c02dfdf1150252a97fc287f657359673bb66a1"
          ],
          "data": "0x0000000000000000000000000000000000000000000000000001c6bf52634000",
          "blockHash": "0x3e051a11adebe59bee28edf5fe7e847b8cf2faea282ec811b47c4adf0f17201c",
          "blockNumber": "0x29b106e",
          "blockTimestamp": "0x6988bdba",
          "transactionHash": "0x656e1295b19488d4925864a3904afc73536e674380dde4b566dc1d843d2d48e8",
          "transactionIndex": "0x7",
          "logIndex": "0x5",
          "removed": false
        },
        {
          "address": "0x4200000000000000000000000000000000000006",
          "topics": [
            "0x8c5be1e5ebec7d5bd14f71427d1e84f3dd0314c0f7b2291e5b200ac8c7c3b925",
            "0x000000000000000000000000a6c02dfdf1150252a97fc287f657359673bb66a1",
            "0x00000000000000000000000061869c2eca69eeb0f10b7cbd1f0d8070d9954e05"
          ],
          "data": "0x0000000000000000000000000000000000000000000000000001c6bf52634000",
          "blockHash": "0x3e051a11adebe59bee28edf5fe7e847b8cf2faea282ec811b47c4adf0f17201c",
          "blockNumber": "0x29b106e",
          "blockTimestamp": "0x6988bdba",
          "transactionHash": "0x656e1295b19488d4925864a3904afc73536e674380dde4b566dc1d843d2d48e8",
          "transactionIndex": "0x7",
          "logIndex": "0x6",
          "removed": false
        },
        {
          "address": "0x00b036b58a818b1bc34d502d3fe730db729e62ac",
          "topics": [
            "0x40e9cecb9f5f1f1c5b9c97dec2917b7ee92e57ba5563708daca94dd84ad7112f",
            "0x07eb7aa970922aad3a3116688e325f1c55de6b2d1f4c3da05a4d9ef591e5178b",
            "0x00000000000000000000000061869c2eca69eeb0f10b7cbd1f0d8070d9954e05"
          ],
          "data": "0x0000000000000000000000000000000000000000000000000000000000bfacf1ffffffffffffffffffffffffffffffffffffffffffffffffffffffffff3e973c0000000000000000000000000000000000000002000000000000000000000000000000000000000000000000000000000000000000000000000000000000000000000000000000000000000000000000000000000000000000000000000036270000000000000000000000000000000000000000000000000000000000000bb8",
          "blockHash": "0x3e051a11adebe59bee28edf5fe7e847b8cf2faea282ec811b47c4adf0f17201c",
          "blockNumber": "0x29b106e",
          "blockTimestamp": "0x6988bdba",
          "transactionHash": "0x656e1295b19488d4925864a3904afc73536e674380dde4b566dc1d843d2d48e8",
          "transactionIndex": "0x7",
          "logIndex": "0x7",
          "removed": false
        },
        {
          "address": "0x2131def8af1b70cf1b9b7525e525945e465ac6c0",
          "topics": [
            "0x22421962bfaa39dd537a12f6e9a519f79eea832ac6dfd20e0dc3d125c8eac299",
            "0x07eb7aa970922aad3a3116688e325f1c55de6b2d1f4c3da05a4d9ef591e5178b",
            "0x00000000000000000000000061869c2eca69eeb0f10b7cbd1f0d8070d9954e05"
          ],
          "data": "0x00000000000000000000000000000000000000000000000000000000029b106e",
          "blockHash": "0x3e051a11adebe59bee28edf5fe7e847b8cf2faea282ec811b47c4adf0f17201c",
          "blockNumber": "0x29b106e",
          "blockTimestamp": "0x6988bdba",
          "transactionHash": "0x656e1295b19488d4925864a3904afc73536e674380dde4b566dc1d843d2d48e8",
          "transactionIndex": "0x7",
          "logIndex": "0x8",
          "removed": false
        },
        {
          "address": "0x4200000000000000000000000000000000000006",
          "topics": [
            "0xddf252ad1be2c89b69c2b068fc378daa952ba7f163c4a11628f55a4df523b3ef",
            "0x000000000000000000000000a6c02dfdf1150252a97fc287f657359673bb66a1",
            "0x00000000000000000000000000b036b58a818b1bc34d502d3fe730db729e62ac"
          ],
          "data": "0x0000000000000000000000000000000000000000000000000000000000c168c4",
          "blockHash": "0x3e051a11adebe59bee28edf5fe7e847b8cf2faea282ec811b47c4adf0f17201c",
          "blockNumber": "0x29b106e",
          "blockTimestamp": "0x6988bdba",
          "transactionHash": "0x656e1295b19488d4925864a3904afc73536e674380dde4b566dc1d843d2d48e8",
          "transactionIndex": "0x7",
          "logIndex": "0x9",
          "removed": false
        },
        {
          "address": "0x31d0220469e10c4e71834a79b1f276d740d3768f",
          "topics": [
            "0xddf252ad1be2c89b69c2b068fc378daa952ba7f163c4a11628f55a4df523b3ef",
            "0x00000000000000000000000000b036b58a818b1bc34d502d3fe730db729e62ac",
            "0x000000000000000000000000a6c02dfdf1150252a97fc287f657359673bb66a1"
          ],
          "data": "0x0000000000000000000000000000000000000000000000000000000000bfacf1",
          "blockHash": "0x3e051a11adebe59bee28edf5fe7e847b8cf2faea282ec811b47c4adf0f17201c",
          "blockNumber": "0x29b106e",
          "blockTimestamp": "0x6988bdba",
          "transactionHash": "0x656e1295b19488d4925864a3904afc73536e674380dde4b566dc1d843d2d48e8",
          "transactionIndex": "0x7",
          "logIndex": "0xa",
          "removed": false
        },
        {
          "address": "0x7a8c0742314fccc2ad8117c4c1c72f07f9cd9f41",
          "topics": [
            "0xf0c6c99b11035113bf510013043afc18365a61a112c542b9f7491fd1574cfc5b",
            "0x0000000000000000000000000000000000000000000000000000000000000000"
          ],
          "data": "0x",
          "blockHash": "0x3e051a11adebe59bee28edf5fe7e847b8cf2faea282ec811b47c4adf0f17201c",
          "blockNumber": "0x29b106e",
          "blockTimestamp": "0x6988bdba",
          "transactionHash": "0x656e1295b19488d4925864a3904afc73536e674380dde4b566dc1d843d2d48e8",
          "transactionIndex": "0x7",
          "logIndex": "0xb",
          "removed": false
        },
        {
          "address": "0x31d0220469e10c4e71834a79b1f276d740d3768f",
          "topics": [
            "0xddf252ad1be2c89b69c2b068fc378daa952ba7f163c4a11628f55a4df523b3ef",
            "0x000000000000000000000000a6c02dfdf1150252a97fc287f657359673bb66a1",
            "0x00000000000000000000000095606236867c2d3391f3dd2d3004efab08e819e4"
          ],
          "data": "0x0000000000000000000000000000000000000000000000000000000000bfacf1",
          "blockHash": "0x3e051a11adebe59bee28edf5fe7e847b8cf2faea282ec811b47c4adf0f17201c",
          "blockNumber": "0x29b106e",
          "blockTimestamp": "0x6988bdba",
          "transactionHash": "0x656e1295b19488d4925864a3904afc73536e674380dde4b566dc1d843d2d48e8",
          "transactionIndex": "0x7",
          "logIndex": "0xc",
          "removed": false
        }
      ],
      "logsBloom": "0x00000001000000000000000000000000800000002040000000040000000000004040000000000000000000120000000000000000041000002000000000200000000001000000000002000008000000000000408000001022000000000004000000000000020000000000000000004800000000000000002000000010000000000000000000000000002000000008000000000010002080000000000000000001020000000001000080000000000000000000004040000020008000000000000000000002000000000000000000000000000000200000000000000000000020000010000000000000004000000000000000000000000002010000000000000010",
      "type": "0x2",
      "transactionHash": "0x656e1295b19488d4925864a3904afc73536e674380dde4b566dc1d843d2d48e8",
      "transactionIndex": "0x7",
      "blockHash": "0x3e051a11adebe59bee28edf5fe7e847b8cf2faea282ec811b47c4adf0f17201c",
      "blockNumber": "0x29b106e",
      "gasUsed": "0x53edd",
      "effectiveGasPrice": "0x7a121",
      "blobGasUsed": "0xc990",
      "from": "0x95606236867c2d3391f3dd2d3004efab08e819e4",
      "to": "0xa6c02dfdf1150252a97fc287f657359673bb66a1",
      "contractAddress": null,
      "daFootprintGasScalar": "0x190",
      "l1BaseFeeScalar": "0x7d0",
      "l1BlobBaseFee": "0x3c947f0",
      "l1BlobBaseFeeScalar": "0xdbba0",
      "l1Fee": "0x2b56d78e8",
      "l1GasPrice": "0x3c8b21da",
      "l1GasUsed": "0x81b"
    }
  ],
  "libraries": [],
  "pending": [],
  "returns": {},
  "timestamp": 1770569147096,
  "chain": 1301,
  "commit": "61046f0"
}