{
  "transactions": [
    {
      "hash": "0xb8949ceb79b30881cbe1efdd522284b3e00ef4aeec33c5f0fad2e32be602876c",
      "transactionType": "CALL",
      "contractName": null,
      "contractAddress": "0x4200000000000000000000000000000000000006",
      "function": "approve(address,uint256)",
      "arguments": [
        "0x6AC8D1042654009BCe4e4B675444F97237E42DA4",
        "115792089237316195423570985008687907853269984665640564039457584007913129639935"
      ],
      "transaction": {
        "from": "0x95606236867c2d3391f3dd2d3004efab08e819e4",
        "to": "0x4200000000000000000000000000000000000006",
        "gas": "0x97b1",
        "value": "0x0",
        "input": "0x095ea7b30000000000000000000000006ac8d1042654009bce4e4b675444f97237e42da4ffffffffffffffffffffffffffffffffffffffffffffffffffffffffffffffff",
        "nonce": "0xf5",
        "chainId": "0x515"
      },
      "additionalContracts": [],
      "isFixedGasLimit": false
    },
    {
      "hash": "0xc62a435e939cea2c554daff5bd5c9dacb457c977f11ed7e71ecc89b4d069f0da",
      "transactionType": "CALL",
      "contractName": null,
      "contractAddress": "0x9d31b88e6f8fb540691db84adc1e3a556040115b",
      "function": "submitIntent((uint64,uint64,uint32,uint32,bytes32[4],uint8,uint256,bytes32),uint256)",
      "arguments": [
        "(43716874, 43716974, 0, 0, [0xfa3942143f4ba5a085a2ba372b5300c7cb368f60260d4dd7acec833c8f29ea04, 0x0000000000000000000000000000000000000000000000000000000000000000, 0x0000000000000000000000000000000000000000000000000000000000000000, 0x0000000000000000000000000000000000000000000000000000000000000000], 1, 0, 0x0000000000000000000000000000000000000000000000000000000000000000)",
        "500000000000000"
      ],
      "transaction": {
        "from": "0x95606236867c2d3391f3dd2d3004efab08e819e4",
        "to": "0x9d31b88e6f8fb540691db84adc1e3a556040115b",
        "gas": "0x42310",
        "value": "0x0",
        "input": "0xed82a00e00000000000000000000000000000000000000000000000000000000029b110a00000000000000000000000000000000000000000000000000000000029b116e00000000000000000000000000000000000000000000000000000000000000000000000000000000000000000000000000000000000000000000000000000000fa3942143f4ba5a085a2ba372b5300c7cb368f60260d4dd7acec833c8f29ea040000000000000000000000000000000000000000000000000000000000000000000000000000000000000000000000000000000000000000000000000000000000000000000000000000000000000000000000000000000000000000000000000000000000000000000000000000000000000000000000000000000000000001000000000000000000000000000000000000000000000000000000000000000000000000000000000000000000000000000000000000000000000000000000000000000000000000000000000000000000000000000000000001c6bf52634000",
        "nonce": "0xf6",
        "chainId": "0x515"
      },
      "additionalContracts": [],
      "isFixedGasLimit": false
    },
    {
      "hash": "0x13b1dbef72e6b81ffa9a9cb4a094e9ace2e177fe92fec0c623f02df52b99bf42",
      "transactionType": "CALL",
      "contractName": null,
      "contractAddress": "0x6ac8d1042654009bce4e4b675444f97237e42da4",
      "function": "executeIntent(uint256,(address,address,uint24,int24,address),uint160)",
      "arguments": [
        "0",
        "(0x31d0220469e10c4E71834a79b1f276d740d3768F, 0x4200000000000000000000000000000000000006, 3000, 60, 0x1e327572F8f19e3C49D8857813D7B98Ef243C6c0)",
        "158456325028528675187087900672"
      ],
      "transaction": {
        "from": "0x95606236867c2d3391f3dd2d3004efab08e819e4",
        "to": "0x6ac8d1042654009bce4e4b675444f97237e42da4",
        "gas": "0x73ed3",
        "value": "0x0",
        "input": "0xd9c8ec22000000000000000000000000000000000000000000000000000000000000000000000000000000000000000031d0220469e10c4e71834a79b1f276d740d3768f00000000000000000000000042000000000000000000000000000000000000060000000000000000000000000000000000000000000000000000000000000bb8000000000000000000000000000000000000000000000000000000000000003c0000000000000000000000001e327572f8f19e3c49d8857813d7b98ef243c6c00000000000000000000000000000000000000002000000000000000000000000",
        "nonce": "0xf7",
        "chainId": "0x515"
      },
      "additionalContracts": [],
      "isFixedGasLimit": false
    }
  ],
  "receipts": [
    {
      "status": "0x1",
      "cumulativeGasUsed": "0x8a279",
      "logs": [
        {
          "address": "0x4200000000000000000000000000000000000006",
          "topics": [
            "0x8c5be1e5ebec7d5bd14f71427d1e84f3dd0314c0f7b2291e5b200ac8c7c3b925",
            "0x00000000000000000000000095606236867c2d3391f3dd2d3004efab08e819e4",
            "0x0000000000000000000000006ac8d1042654009bce4e4b675444f97237e42da4"
          ],
          "data": "0xffffffffffffffffffffffffffffffffffffffffffffffffffffffffffffffff",
          "blockHash": "0xd216ddaa79e9c81f1bbcacde9652d38f6e39cde9d24bf593f43bca024dfc9a4a",
          "blockNumber": "0x29b1121",
          "blockTimestamp": "0x6988be6d",
          "transactionHash": "0x13b1dbef72e6b81ffa9a9cb4a094e9ace2e177fe92fec0c623f02df52b99bf42",
          "transactionIndex": "0x7",
          "logIndex": "0x5",
          "removed": false
        }
      ],
      "logsBloom": "0x00000001000000000000000000000000000000000040000000040000000000000020000000000000000000100000000000000000000000000000000000200000000000000000000000000000000000000000000000000000000000000000000000000000000000000000001000000000000000000000000000000000000000000000000000000000000000000000000000000000002000000000000000000000020000000000000000000000000000000000000000000000000000000000000000000000000000000000000000000000000000200000000100000000000000000010000000000000000000000000000000000000000000000000000000000000",
      "type": "0x2",
      "transactionHash": "0x13b1dbef72e6b81ffa9a9cb4a094e9ace2e177fe92fec0c623f02df52b99bf42",
      "transactionIndex": "0x7",
      "blockHash": "0xd216ddaa79e9c81f1bbcacde9652d38f6e39cde9d24bf593f43bca024dfc9a4a",
      "blockNumber": "0x29b1121",
      "gasUsed": "0x67b9",
      "effectiveGasPrice": "0x7a121",
      "blobGasUsed": "0x9c40",
      "from": "0x95606236867c2d3391f3dd2d3004efab08e819e4",
      "to": "0x4200000000000000000000000000000000000006",
      "contractAddress": null,
      "daFootprintGasScalar": "0x190",
      "l1BaseFeeScalar": "0x7d0",
      "l1BlobBaseFee": "0x36c33dd",
      "l1BlobBaseFeeScalar": "0xdbba0",
      "l1Fee": "0x1feddaa52",
      "l1GasPrice": "0x3f621292",
      "l1GasUsed": "0x640"
    },
    {
      "status": "0x1",
      "cumulativeGasUsed": "0xba138",
      "logs": [
        {
          "address": "0x9d31b88e6f8fb540691db84adc1e3a556040115b",
          "topics": [
            "0x69ed47713df78c91050b377d2f52abaea3dbc2bbe31c32b290c288c61ce079fc",
            "0x0000000000000000000000000000000000000000000000000000000000000000",
            "0x00000000000000000000000095606236867c2d3391f3dd2d3004efab08e819e4"
          ],
          "data": "0x00000000000000000000000000000000000000000000000000000000029b110a00000000000000000000000000000000000000000000000000000000029b116e",
          "blockHash": "0xd216ddaa79e9c81f1bbcacde9652d38f6e39cde9d24bf593f43bca024dfc9a4a",
          "blockNumber": "0x29b1121",
          "blockTimestamp": "0x6988be6d",
          "transactionHash": "0xc62a435e939cea2c554daff5bd5c9dacb457c977f11ed7e71ecc89b4d069f0da",
          "transactionIndex": "0x8",
          "logIndex": "0x6",
          "removed": false
        }
      ],
      "logsBloom": "0x00000001000000000000000000000000000000000040000000000000000000000000000000000000000000000000000000000000000000000000000000000000000000000000000000000000000000000000000000000000000010000000000000000000020000000000000000000800000000000000000000000000000008000000000000000000000000000000000000000000000000000000000000000000000000000000000000000000000000000000000000000000200000000000000000000000000000000000000002000000000000200000000000000000000020000000002000000000000000000000000000000000080000000000000000000000",
      "type": "0x2",
      "transactionHash": "0xc62a435e939cea2c554daff5bd5c9dacb457c977f11ed7e71ecc89b4d069f0da",
      "transactionIndex": "0x8",
      "blockHash": "0xd216ddaa79e9c81f1bbcacde9652d38f6e39cde9d24bf593f43bca024dfc9a4a",
      "blockNumber": "0x29b1121",
      "gasUsed": "0x2febf",
      "effectiveGasPrice": "0x7a121",
      "blobGasUsed": "0xbb80",
      "from": "0x95606236867c2d3391f3dd2d3004efab08e819e4",
      "to": "0x9d31b88e6f8fb540691db84adc1e3a556040115b",
      "contractAddress": null,
      "daFootprintGasScalar": "0x190",
      "l1BaseFeeScalar": "0x7d0",
      "l1BlobBaseFee": "0x36c33dd",
      "l1BlobBaseFeeScalar": "0xdbba0",
      "l1Fee": "0x267c1a045",
      "l1GasPrice": "0x3f621292",
      "l1GasUsed": "0x788"
    },
    {
      "status": "0x1",
      "cumulativeGasUsed": "0x10e015",
      "logs": [
        {
          "address": "0x4200000000000000000000000000000000000006",
          "topics": [
            "0xddf252ad1be2c89b69c2b068fc378daa952ba7f163c4a11628f55a4df523b3ef",
            "0x00000000000000000000000095606236867c2d3391f3dd2d3004efab08e819e4",
            "0x0000000000000000000000006ac8d1042654009bce4e4b675444f97237e42da4"
          ],
          "data": "0x0000000000000000000000000000000000000000000000000001c6bf52634000",
          "blockHash": "0xd216ddaa79e9c81f1bbcacde9652d38f6e39cde9d24bf593f43bca024dfc9a4a",
          "blockNumber": "0x29b1121",
          "blockTimestamp": "0x6988be6d",
          "transactionHash": "0xb8949ceb79b30881cbe1efdd522284b3e00ef4aeec33c5f0fad2e32be602876c",
          "transactionIndex": "0x9",
          "logIndex": "0x7",
          "removed": false
        },
        {
          "address": "0x4200000000000000000000000000000000000006",
          "topics": [
            "0x8c5be1e5ebec7d5bd14f71427d1e84f3dd0314c0f7b2291e5b200ac8c7c3b925",
            "0x0000000000000000000000006ac8d1042654009bce4e4b675444f97237e42da4",
            "0x0000000000000000000000006ce9c06332a8d21d593071662d63f82380878098"
          ],
          "data": "0x0000000000000000000000000000000000000000000000000001c6bf52634000",
          "blockHash": "0xd216ddaa79e9c81f1bbcacde9652d38f6e39cde9d24bf593f43bca024dfc9a4a",
          "blockNumber": "0x29b1121",
          "blockTimestamp": "0x6988be6d",
          "transactionHash": "0xb8949ceb79b30881cbe1efdd522284b3e00ef4aeec33c5f0fad2e32be602876c",
          "transactionIndex": "0x9",
          "logIndex": "0x8",
          "removed": false
        },
        {
          "address": "0x00b036b58a818b1bc34d502d3fe730db729e62ac",
          "topics": [
            "0x40e9cecb9f5f1f1c5b9c97dec2917b7ee92e57ba5563708daca94dd84ad7112f",
            "0xfa3942143f4ba5a085a2ba372b5300c7cb368f60260d4dd7acec833c8f29ea04",
            "0x0000000000000000000000006ce9c06332a8d21d593071662d63f82380878098"
          ],
          "data": "0x0000000000000000000000000000000000000000000000000000000000bfacf1ffffffffffffffffffffffffffffffffffffffffffffffffffffffffff3e973c0000000000000000000000000000000000000002000000000000000000000000000000000000000000000000000000000000000000000000000000000000000000000000000000000000000000000000000000000000000000000000000036270000000000000000000000000000000000000000000000000000000000000bb8",
          "blockHash": "0xd216ddaa79e9c81f1bbcacde9652d38f6e39cde9d24bf593f43bca024dfc9a4a",
          "blockNumber": "0x29b1121",
          "blockTimestamp": "0x6988be6d",
          "transactionHash": "0xb8949ceb79b30881cbe1efdd522284b3e00ef4aeec33c5f0fad2e32be602876c",
          "transactionIndex": "0x9",
          "logIndex": "0x9",
          "removed": false
        },
        {
          "address": "0x1e327572f8f19e3c49d8857813d7b98ef243c6c0",
          "topics": [
            "0x22421962bfaa39dd537a12f6e9a519f79eea832ac6dfd20e0dc3d125c8eac299",
            "0xfa3942143f4ba5a085a2ba372b5300c7cb368f60260d4dd7acec833c8f29ea04",
            "0x0000000000000000000000006ce9c06332a8d21d593071662d63f82380878098"
          ],
          "data": "0x00000000000000000000000000000000000000000000000000000000029b1121",
          "blockHash": "0xd216ddaa79e9c81f1bbcacde9652d38f6e39cde9d24bf593f43bca024dfc9a4a",
          "blockNumber": "0x29b1121",
          "blockTimestamp": "0x6988be6d",
          "transactionHash": "0xb8949ceb79b30881cbe1efdd522284b3e00ef4aeec33c5f0fad2e32be602876c",
          "transactionIndex": "0x9",
          "logIndex": "0xa",
          "removed": false
        },
        {
          "address": "0x4200000000000000000000000000000000000006",
          "topics": [
            "0xddf252ad1be2c89b69c2b068fc378daa952ba7f163c4a11628f55a4df523b3ef",
            "0x0000000000000000000000006ac8d1042654009bce4e4b675444f97237e42da4",
            "0x00000000000000000000000000b036b58a818b1bc34d502d3fe730db729e62ac"
          ],
          "data": "0x0000000000000000000000000000000000000000000000000000000000c168c4",
          "blockHash": "0xd216ddaa79e9c81f1bbcacde9652d38f6e39cde9d24bf593f43bca024dfc9a4a",
          "blockNumber": "0x29b1121",
          "blockTimestamp": "0x6988be6d",
          "transactionHash": "0xb8949ceb79b30881cbe1efdd522284b3e00ef4aeec33c5f0fad2e32be602876c",
          "transactionIndex": "0x9",
          "logIndex": "0xb",
          "removed": false
        },
        {
          "address": "0x31d0220469e10c4e71834a79b1f276d740d3768f",
          "topics": [
            "0xddf252ad1be2c89b69c2b068fc378daa952ba7f163c4a11628f55a4df523b3ef",
            "0x00000000000000000000000000b036b58a818b1bc34d502d3fe730db729e62ac",
            "0x0000000000000000000000006ac8d1042654009bce4e4b675444f97237e42da4"
          ],
          "data": "0x0000000000000000000000000000000000000000000000000000000000bfacf1",
          "blockHash": "0xd216ddaa79e9c81f1bbcacde9652d38f6e39cde9d24bf593f43bca024dfc9a4a",
          "blockNumber": "0x29b1121",
          "blockTimestamp": "0x6988be6d",
          "transactionHash": "0xb8949ceb79b30881cbe1efdd522284b3e00ef4aeec33c5f0fad2e32be602876c",
          "transactionIndex": "0x9",
          "logIndex": "0xc",
          "removed": false
        },
        {
          "address": "0x9d31b88e6f8fb540691db84adc1e3a556040115b",
          "topics": [
            "0xf0c6c99b11035113bf510013043afc18365a61a112c542b9f7491fd1574cfc5b",
            "0x0000000000000000000000000000000000000000000000000000000000000000"
          ],
          "data": "0x",
          "blockHash": "0xd216ddaa79e9c81f1bbcacde9652d38f6e39cde9d24bf593f43bca024dfc9a4a",
          "blockNumber": "0x29b1121",
          "blockTimestamp": "0x6988be6d",
          "transactionHash": "0xb8949ceb79b30881cbe1efdd522284b3e00ef4aeec33c5f0fad2e32be602876c",
          "transactionIndex": "0x9",
          "logIndex": "0xd",
          "removed": false
        },
        {
          "address": "0x31d0220469e10c4e71834a79b1f276d740d3768f",
          "topics": [
            "0xddf252ad1be2c89b69c2b068fc378daa952ba7f163c4a11628f55a4df523b3ef",
            "0x0000000000000000000000006ac8d1042654009bce4e4b675444f97237e42da4",
            "0x00000000000000000000000095606236867c2d3391f3dd2d3004efab08e819e4"
          ],
          "data": "0x0000000000000000000000000000000000000000000000000000000000bfacf1",
          "blockHash": "0xd216ddaa79e9c81f1bbcacde9652d38f6e39cde9d24bf593f43bca024dfc9a4a",
          "blockNumber": "0x29b1121",
          "blockTimestamp": "0x6988be6d",
          "transactionHash": "0xb8949ceb79b30881cbe1efdd522284b3e00ef4aeec33c5f0fad2e32be602876c",
          "transactionIndex": "0x9",
          "logIndex": "0xe",
          "removed": false
        }
      ],
      "logsBloom": "0x00000001000000000000002000000000800000000040000000040000000000000060000000000000200000120000000000000000041000000000000000200000000002000000000000000008040000000000400000001020000010000000000000000000020000000000001000004800000000000000000000000010000008000000000000000000020000000008000000000000002000000000000000000000020000000001000080000000000000000000004000000020008000000000000000000002000000000000000002000000000000200000000100000100040028000010000000000000004000000000000000000000800002000000000000000010",
      "type": "0x2",
      "transactionHash": "0xb8949ceb79b30881cbe1efdd522284b3e00ef4aeec33c5f0fad2e32be602876c",
      "transactionIndex": "0x9",
      "blockHash": "0xd216ddaa79e9c81f1bbcacde9652d38f6e39cde9d24bf593f43bca024dfc9a4a",
      "blockNumber": "0x29b1121",
      "gasUsed": "0x53edd",
      "effectiveGasPrice": "0x7a121",
      "blobGasUsed": "0xc990",
      "from": "0x95606236867c2d3391f3dd2d3004efab08e819e4",
      "to": "0x6ac8d1042654009bce4e4b675444f97237e42da4",
      "contractAddress": null,
      "daFootprintGasScalar": "0x190",
      "l1BaseFeeScalar": "0x7d0",
      "l1BlobBaseFee": "0x36c33dd",
      "l1BlobBaseFeeScalar": "0xdbba0",
      "l1Fee": "0x296c38040",
      "l1GasPrice": "0x3f621292",
      "l1GasUsed": "0x81b"
    }
  ],
  "libraries": [],
  "pending": [],
  "returns": {},
  "timestamp": 1770569325442,
  "chain": 1301,
  "commit": "de14f42"
}