{
  "transactions": [
    {
      "hash": "0x6bfb1df00176efd1947ccdfdcb48bc2dfdf4900d6f166efdc4d402b2d9130ea1",
      "transactionType": "CALL",
      "contractName": null,
      "contractAddress": "0x4200000000000000000000000000000000000006",
      "function": "approve(address,uint256)",
      "arguments": [
        "0xBbab2f4FBCa109aa2685Dc114931165A77F85b39",
        "115792089237316195423570985008687907853269984665640564039457584007913129639935"
      ],
      "transaction": {
        "from": "0x95606236867c2d3391f3dd2d3004efab08e819e4",
        "to": "0x4200000000000000000000000000000000000006",
        "gas": "0x8f54",
        "value": "0x0",
        "input": "0x095ea7b3000000000000000000000000bbab2f4fbca109aa2685dc114931165a77f85b39ffffffffffffffffffffffffffffffffffffffffffffffffffffffffffffffff",
        "nonce": "0xb1",
        "chainId": "0x515"
      },
      "additionalContracts": [],
      "isFixedGasLimit": false
    },
    {
      "hash": "0x2a9d39becb11efb7acff644040442e122bc86126afbc0dd5b2f9e6ed789cfb4d",
      "transactionType": "CALL",
      "contractName": null,
      "contractAddress": "0xaa7e9349c34b58ab52ede397b6a30e3d77461ed5",
      "function": "submitIntent((uint64,uint64,uint32,uint32,bytes32[4],uint8,uint256,bytes32),uint256)",
      "arguments": [
        "(43713368, 43713467, 1, 0, [0xbd3a755a124094253e2f80944b6a8ba472d7febdeef4e787eedc2809c83f2339, 0x0000000000000000000000000000000000000000000000000000000000000000, 0x0000000000000000000000000000000000000000000000000000000000000000, 0x0000000000000000000000000000000000000000000000000000000000000000], 1, 0, 0x0000000000000000000000000000000000000000000000000000000000000000)",
        "5000000000000000"
      ],
      "transaction": {
        "from": "0x95606236867c2d3391f3dd2d3004efab08e819e4",
        "to": "0xaa7e9349c34b58ab52ede397b6a30e3d77461ed5",
        "gas": "0x461b2",
        "value": "0x0",
        "input": "0xed82a00e00000000000000000000000000000000000000000000000000000000029b035800000000000000000000000000000000000000000000000000000000029b03bb00000000000000000000000000000000000000000000000000000000000000010000000000000000000000000000000000000000000000000000000000000000bd3a755a124094253e2f80944b6a8ba472d7febdeef4e787eedc2809c83f23390000000000000000000000000000000000000000000000000000000000000000000000000000000000000000000000000000000000000000000000000000000000000000000000000000000000000000000000000000000000000000000000000000000000000000000000000000000000000000000000000000000000000001000000000000000000000000000000000000000000000000000000000000000000000000000000000000000000000000000000000000000000000000000000000000000000000000000000000000000000000000000000000011c37937e08000",
        "nonce": "0xb2",
        "chainId": "0x515"
      },
      "additionalContracts": [],
      "isFixedGasLimit": false
    },
    {
      "hash": "0x4961be53c9da2959426397b9319d06b27061a754b64291e3ea194b16942d504a",
      "transactionType": "CALL",
      "contractName": null,
      "contractAddress": "0xbbab2f4fbca109aa2685dc114931165a77f85b39",
      "function": "executeIntent(uint256,(address,address,uint24,int24,address),uint160)",
      "arguments": [
        "0",
        "(0x31d0220469e10c4E71834a79b1f276d740d3768F, 0x4200000000000000000000000000000000000006, 3000, 60, 0x5129AFa06a9f8c8114daCE8fC8979EaA749C06C0)",
        "158456325028528675187087900672"
      ],
      "transaction": {
        "from": "0x95606236867c2d3391f3dd2d3004efab08e819e4",
        "to": "0xbbab2f4fbca109aa2685dc114931165a77f85b39",
        "gas": "0x73d96",
        "value": "0x0",
        "input": "0xd9c8ec22000000000000000000000000000000000000000000000000000000000000000000000000000000000000000031d0220469e10c4e71834a79b1f276d740d3768f00000000000000000000000042000000000000000000000000000000000000060000000000000000000000000000000000000000000000000000000000000bb8000000000000000000000000000000000000000000000000000000000000003c0000000000000000000000005129afa06a9f8c8114dace8fc8979eaa749c06c00000000000000000000000000000000000000002000000000000000000000000",
        "nonce": "0xb3",
        "chainId": "0x515"
      },
      "additionalContracts": [],
      "isFixedGasLimit": false
    }
  ],
  "receipts": [
    {
      "status": "0x1",
      "cumulativeGasUsed": "0x2e1f9",
      "logs": [
        {
          "address": "0x4200000000000000000000000000000000000006",
          "topics": [
            "0x8c5be1e5ebec7d5bd14f71427d1e84f3dd0314c0f7b2291e5b200ac8c7c3b925",
            "0x00000000000000000000000095606236867c2d3391f3dd2d3004efab08e819e4",
            "0x000000000000000000000000bbab2f4fbca109aa2685dc114931165a77f85b39"
          ],
          "data": "0xffffffffffffffffffffffffffffffffffffffffffffffffffffffffffffffff",
          "blockHash": "0x7110ffdc071c673a2acda92fe6ea238ff5122827902bb862ac4bbd61b06fd10f",
          "blockNumber": "0x29b0370",
          "blockTimestamp": "0x6988b0bc",
          "transactionHash": "0x4961be53c9da2959426397b9319d06b27061a754b64291e3ea194b16942d504a",
          "transactionIndex": "0x3",
          "logIndex": "0x1",
          "removed": false
        }
      ],
      "logsBloom": "0x00000001000000000000000000000000000000000040000000040000000000000000000000000000000000100000000000000000000000000000000000600000400000000000000000000000000000000000000000000000000000000000000000000000000000000000000000000000000000000000000000000000000000000000000000000000000000000000000000000000002000000000000000000000020000000000000000000000000000000000000000000000000000000000000000000000000000000000000000000000000000200040000000000000000000000010000000000000000000000000000000000000000000000000000000000000",
      "type": "0x2",
      "transactionHash": "0x4961be53c9da2959426397b9319d06b27061a754b64291e3ea194b16942d504a",
      "transactionIndex": "0x3",
      "blockHash": "0x7110ffdc071c673a2acda92fe6ea238ff5122827902bb862ac4bbd61b06fd10f",
      "blockNumber": "0x29b0370",
      "gasUsed": "0x67c5",
      "effectiveGasPrice": "0x7a121",
      "blobGasUsed": "0x9c40",
      "from": "0x95606236867c2d3391f3dd2d3004efab08e819e4",
      "to": "0x4200000000000000000000000000000000000006",
      "contractAddress": null,
      "daFootprintGasScalar": "0x190",
      "l1BaseFeeScalar": "0x7d0",
      "l1BlobBaseFee": "0x3bae5bf",
      "l1BlobBaseFeeScalar": "0xdbba0",
      "l1Fee": "0x204231f0f",
      "l1GasPrice": "0x38627c19",
      "l1GasUsed": "0x640"
    },
    {
      "status": "0x1",
      "cumulativeGasUsed": "0x5e0f2",
      "logs": [
        {
          "address": "0xaa7e9349c34b58ab52ede397b6a30e3d77461ed5",
          "topics": [
            "0x69ed47713df78c91050b377d2f52abaea3dbc2bbe31c32b290c288c61ce079fc",
            "0x0000000000000000000000000000000000000000000000000000000000000000",
            "0x00000000000000000000000095606236867c2d3391f3dd2d3004efab08e819e4"
          ],
          "data": "0x00000000000000000000000000000000000000000000000000000000029b035800000000000000000000000000000000000000000000000000000000029b03bb",
          "blockHash": "0x0000000000000000000000000000000000000000000000000000000000000000",
          "blockNumber": "0x29b0370",
          "blockTimestamp": "0x6988b0bc",
          "transactionHash": "0x2a9d39becb11efb7acff644040442e122bc86126afbc0dd5b2f9e6ed789cfb4d",
          "transactionIndex": "0x4",
          "logIndex": "0x2",
          "removed": false
        }
      ],
      "logsBloom": "0x00000001000000000200000000000000000000000040004000000000000000000000000000000000200000000000000000000000000000000000000000000000000000000000000000000000000000000000000000000000000000000000000000000000020000000000000000000800000000000000000000000000000000000000000000000000000000000000000000000000000000000000000000000000000000000000000000000000000000000000000000000000200000000000000000000000000000000000000000000000000000200000000000000000000020000000002000000000000000000000000000000000080000000000000000000000",
      "type": "0x2",
      "transactionHash": "0x2a9d39becb11efb7acff644040442e122bc86126afbc0dd5b2f9e6ed789cfb4d",
      "transactionIndex": "0x4",
      "blockHash": "0x0000000000000000000000000000000000000000000000000000000000000000",
      "blockNumber": "0x29b0370",
      "gasUsed": "0x2fef9",
      "effectiveGasPrice": "0x7a121",
      "blobGasUsed": "0xc030",
      "from": "0x95606236867c2d3391f3dd2d3004efab08e819e4",
      "to": "0xaa7e9349c34b58ab52ede397b6a30e3d77461ed5",
      "contractAddress": null,
      "daFootprintGasScalar": "0x190",
      "l1BaseFeeScalar": "0x7d0",
      "l1BlobBaseFee": "0x3bae5bf",
      "l1BlobBaseFeeScalar": "0xdbba0",
      "l1Fee": "0x2c8c6f6e6",
      "l1GasPrice": "0x38627c19",
      "l1GasUsed": "0x7be"
    },
    {
      "status": "0x1",
      "cumulativeGasUsed": "0xb1ee9",
      "logs": [
        {
          "address": "0x4200000000000000000000000000000000000006",
          "topics": [
            "0xddf252ad1be2c89b69c2b068fc378daa952ba7f163c4a11628f55a4df523b3ef",
            "0x00000000000000000000000095606236867c2d3391f3dd2d3004efab08e819e4",
            "0x000000000000000000000000bbab2f4fbca109aa2685dc114931165a77f85b39"
          ],
          "data": "0x0000000000000000000000000000000000000000000000000011c37937e08000",
          "blockHash": "0x7110ffdc071c673a2acda92fe6ea238ff5122827902bb862ac4bbd61b06fd10f",
          "blockNumber": "0x29b0370",
          "blockTimestamp": "0x6988b0bc",
          "transactionHash": "0x6bfb1df00176efd1947ccdfdcb48bc2dfdf4900d6f166efdc4d402b2d9130ea1",
          "transactionIndex": "0x5",
          "logIndex": "0x3",
          "removed": false
        },
        {
          "address": "0x4200000000000000000000000000000000000006",
          "topics": [
            "0x8c5be1e5ebec7d5bd14f71427d1e84f3dd0314c0f7b2291e5b200ac8c7c3b925",
            "0x000000000000000000000000bbab2f4fbca109aa2685dc114931165a77f85b39",
            "0x0000000000000000000000000f5f9332ecf47f85f2292c80f7fffe23a2361163"
          ],
          "data": "0x0000000000000000000000000000000000000000000000000011c37937e08000",
          "blockHash": "0x7110ffdc071c673a2acda92fe6ea238ff5122827902bb862ac4bbd61b06fd10f",
          "blockNumber": "0x29b0370",
          "blockTimestamp": "0x6988b0bc",
          "transactionHash": "0x6bfb1df00176efd1947ccdfdcb48bc2dfdf4900d6f166efdc4d402b2d9130ea1",
          "transactionIndex": "0x5",
          "logIndex": "0x4",
          "removed": false
        },
        {
          "address": "0x00b036b58a818b1bc34d502d3fe730db729e62ac",
          "topics": [
            "0x40e9cecb9f5f1f1c5b9c97dec2917b7ee92e57ba5563708daca94dd84ad7112f",
            "0xbd3a755a124094253e2f80944b6a8ba472d7febdeef4e787eedc2809c83f2339",
            "0x0000000000000000000000000f5f9332ecf47f85f2292c80f7fffe23a2361163"
          ],
          "data": "0x000000000000000000000000000000000000000000000000000000000223a4fafffffffffffffffffffffffffffffffffffffffffffffffffffffffffdd766f40000000000000000000000000000000000000002000000000000000000000000000000000000000000000000000000000000000000000000000000000000000000000000000000000000000000000000000000000000000000000000000036270000000000000000000000000000000000000000000000000000000000000bb8",
          "blockHash": "0x7110ffdc071c673a2acda92fe6ea238ff5122827902bb862ac4bbd61b06fd10f",
          "blockNumber": "0x29b0370",
          "blockTimestamp": "0x6988b0bc",
          "transactionHash": "0x6bfb1df00176efd1947ccdfdcb48bc2dfdf4900d6f166efdc4d402b2d9130ea1",
          "transactionIndex": "0x5",
          "logIndex": "0x5",
          "removed": false
        },
        {
          "address": "0x5129afa06a9f8c8114dace8fc8979eaa749c06c0",
          "topics": [
            "0x22421962bfaa39dd537a12f6e9a519f79eea832ac6dfd20e0dc3d125c8eac299",
            "0xbd3a755a124094253e2f80944b6a8ba472d7febdeef4e787eedc2809c83f2339",
            "0x0000000000000000000000000f5f9332ecf47f85f2292c80f7fffe23a2361163"
          ],
          "data": "0x00000000000000000000000000000000000000000000000000000000029b0370",
          "blockHash": "0x7110ffdc071c673a2acda92fe6ea238ff5122827902bb862ac4bbd61b06fd10f",
          "blockNumber": "0x29b0370",
          "blockTimestamp": "0x6988b0bc",
          "transactionHash": "0x6bfb1df00176efd1947ccdfdcb48bc2dfdf4900d6f166efdc4d402b2d9130ea1",
          "transactionIndex": "0x5",
          "logIndex": "0x6",
          "removed": false
        },
        {
          "address": "0x4200000000000000000000000000000000000006",
          "topics": [
            "0xddf252ad1be2c89b69c2b068fc378daa952ba7f163c4a11628f55a4df523b3ef",
            "0x000000000000000000000000bbab2f4fbca109aa2685dc114931165a77f85b39",
            "0x00000000000000000000000000b036b58a818b1bc34d502d3fe730db729e62ac"
          ],
          "data": "0x000000000000000000000000000000000000000000000000000000000228990c",
          "blockHash": "0x7110ffdc071c673a2acda92fe6ea238ff5122827902bb862ac4bbd61b06fd10f",
          "blockNumber": "0x29b0370",
          "blockTimestamp": "0x6988b0bc",
          "transactionHash": "0x6bfb1df00176efd1947ccdfdcb48bc2dfdf4900d6f166efdc4d402b2d9130ea1",
          "transactionIndex": "0x5",
          "logIndex": "0x7",
          "removed": false
        },
        {
          "address": "0x31d0220469e10c4e71834a79b1f276d740d3768f",
          "topics": [
            "0xddf252ad1be2c89b69c2b068fc378daa952ba7f163c4a11628f55a4df523b3ef",
            "0x00000000000000000000000000b036b58a818b1bc34d502d3fe730db729e62ac",
            "0x000000000000000000000000bbab2f4fbca109aa2685dc114931165a77f85b39"
          ],
          "data": "0x000000000000000000000000000000000000000000000000000000000223a4fa",
          "blockHash": "0x7110ffdc071c673a2acda92fe6ea238ff5122827902bb862ac4bbd61b06fd10f",
          "blockNumber": "0x29b0370",
          "blockTimestamp": "0x6988b0bc",
          "transactionHash": "0x6bfb1df00176efd1947ccdfdcb48bc2dfdf4900d6f166efdc4d402b2d9130ea1",
          "transactionIndex": "0x5",
          "logIndex": "0x8",
          "removed": false
        },
        {
          "address": "0xaa7e9349c34b58ab52ede397b6a30e3d77461ed5",
          "topics": [
            "0xf0c6c99b11035113bf510013043afc18365a61a112c542b9f7491fd1574cfc5b",
            "0x0000000000000000000000000000000000000000000000000000000000000000"
          ],
          "data": "0x",
          "blockHash": "0x7110ffdc071c673a2acda92fe6ea238ff5122827902bb862ac4bbd61b06fd10f",
          "blockNumber": "0x29b0370",
          "blockTimestamp": "0x6988b0bc",
          "transactionHash": "0x6bfb1df00176efd1947ccdfdcb48bc2dfdf4900d6f166efdc4d402b2d9130ea1",
          "transactionIndex": "0x5",
          "logIndex": "0x9",
          "removed": false
        },
        {
          "address": "0x31d0220469e10c4e71834a79b1f276d740d3768f",
          "topics": [
            "0xddf252ad1be2c89b69c2b068fc378daa952ba7f163c4a11628f55a4df523b3ef",
            "0x000000000000000000000000bbab2f4fbca109aa2685dc114931165a77f85b39",
            "0x00000000000000000000000095606236867c2d3391f3dd2d3004efab08e819e4"
          ],
          "data": "0x000000000000000000000000000000000000000000000000000000000223a4fa",
          "blockHash": "0x7110ffdc071c673a2acda92fe6ea238ff5122827902bb862ac4bbd61b06fd10f",
          "blockNumber": "0x29b0370",
          "blockTimestamp": "0x6988b0bc",
          "transactionHash": "0x6bfb1df00176efd1947ccdfdcb48bc2dfdf4900d6f166efdc4d402b2d9130ea1",
          "transactionIndex": "0x5",
          "logIndex": "0xa",
          "removed": false
        }
      ],
      "logsBloom": "0x00000001000002000200000000000000800000000040004000040000000200000040000000000000200000120000000000000000041000000000000000600000400000000000000000000008000000000000400000001020000000040000000000100000020000000000000000004800000000000000000000000050000000000000000000000000000000000008000000100000002000000000000000000008020000000001000080000000000000000000004000000020008000000000000000000002000000000000001000000000000000200040000000040000000020000010000000000000004000000000000000000000000002000000000000000010",
      "type": "0x2",
      "transactionHash": "0x6bfb1df00176efd1947ccdfdcb48bc2dfdf4900d6f166efdc4d402b2d9130ea1",
      "transactionIndex": "0x5",
      "blockHash": "0x7110ffdc071c673a2acda92fe6ea238ff5122827902bb862ac4bbd61b06fd10f",
      "blockNumber": "0x29b0370",
      "gasUsed": "0x53df7",
      "effectiveGasPrice": "0x7a121",
      "blobGasUsed": "0xc990",
      "from": "0x95606236867c2d3391f3dd2d3004efab08e819e4",
      "to": "0xbbab2f4fbca109aa2685dc114931165a77f85b39",
      "contractAddress": null,
      "daFootprintGasScalar": "0x190",
      "l1BaseFeeScalar": "0x7d0",
      "l1BlobBaseFee": "0x3bae5bf",
      "l1BlobBaseFeeScalar": "0xdbba0",
      "l1Fee": "0x29d9a3237",
      "l1GasPrice": "0x38627c19",
      "l1GasUsed": "0x81b"
    }
  ],
  "libraries": [],
  "pending": [],
  "returns": {},
  "timestamp": 1770565821412,
  "chain": 1301,
  "commit": null
}