{
  "transactions": [
    {
      "hash": "0xce361a936cfa039870efe4c5d668205beddc983993c2865e0334e514d850651b",
      "transactionType": "CREATE2",
      "contractName": "PrivacySwapHook",
      "contractAddress": "0x4b2a81ccf2d7c7532191846b517fd4f082f906c0",
      "function": null,
      "arguments": [
        "0x00B036B58a818B1BC34d502D3fE730Db729e62AC",
        "5",
        "0x95606236867C2D3391F3dd2D3004EFAB08e819e4"
      ],
      "transaction": {
        "from": "0x95606236867c2d3391f3dd2d3004efab08e819e4",
        "to": "0x4e59b44847b379578588920ca78fbf26c0b4956c",
        "gas": "0x1755b6",
        "value": "0x0",
        "input": "0x000000000000000000000000000000000000000000000000000000000001422560a03461011d57601f61135638819003918201601f19168301916001600160401b038311848410176101215780849260609460405283398101031261011d5780516001600160a01b038116919082810361011d5760208201519263ffffffff84169283850361011d5760400151916001600160a01b0383169182840361011d571561010e5760805215610107575b5f80546001600160a01b0319166001600160a01b03929092169190911790556100fc575063ffffffff60015b1663ffffffff1960025416176002556040516112209081610136823960805181818161021a015281816104910152818161056301528181610836015261096f0152f35b63ffffffff906100b9565b503361008d565b63d92e233d60e01b5f5260045ffd5b5f80fd5b634e487b7160e01b5f52604160045260245ffdfe60806040526004361015610011575f80fd5b5f3560e01c806321d0ee701461095a57806324ca984e146108e4578063259982e5146108c2578063575e24b4146107e05780636ae0b154146107725780636c2bbe7e1461074e5780636fe7e6eb1461071657806375829def146106bc5780639f063efc1461054c578063b47b2fb11461043b578063b6a8b0fa146101c2578063b9662c8314610411578063c4e833ce146102a9578063c5b7cf9e14610286578063c646aee214610249578063dc4c90d314610205578063dc98354e146101c7578063e1b4af69146101c2578063e9702d2714610198578063f102391c1461012b5763f851a44014610100575f80fd5b34610127575f366003190112610127575f546040516001600160a01b039091168152602090f35b5f80fd5b346101275760203660031901126101275760043563ffffffff8116808203610127575f546001600160a01b031633036101895761017e575063ffffffff60015b1663ffffffff1960025416176002555f80f35b63ffffffff9061016b565b637bfa4b9f60e01b5f5260045ffd5b34610127576020366003190112610127576004355f526004602052602060405f2054604051908152f35b610b05565b346101275760e0366003190112610127576101e06109bc565b5060a0366023190112610127576101f5610adf565b5063d623472560e01b5f5260045ffd5b34610127575f366003190112610127576040517f00000000000000000000000000000000000000000000000000000000000000006001600160a01b03168152602090f35b34610127576020366003190112610127576001600160a01b0361026a6109bc565b165f526001602052602060ff60405f2054166040519015158152f35b34610127575f36600319011261012757602063ffffffff60025416604051908152f35b34610127575f366003190112610127575f6101a06040516102c981610b7b565b8281528260208201528260408201528260608201528260808201528260a08201528260c08201528260e0820152826101008201528261012082015282610140820152826101608201528261018082015201526101c0602060405161032c81610b7b565b5f8152818101905f8252604081015f81526060820160018152608083016001815260a084015f815260c085016001815260e0860190600182526101008701925f84526101208801945f86526101408901965f88526101608a01985f8a526101a06101808c019b5f8d52019b5f8d526040519d8e915f835251151591015251151560408d015251151560608c015251151560808b015251151560a08a015251151560c089015251151560e08801525115156101008701525115156101208601525115156101408501525115156101608401525115156101808301525115156101a0820152f35b34610127576020366003190112610127576004355f526003602052602060405f2054604051908152f35b3461012757610160366003190112610127576104556109bc565b60a03660231901126101275760603660c319011261012757610144356001600160401b0381116101275761048d9036906004016109e6565b90507f00000000000000000000000000000000000000000000000000000000000000006001600160a01b0316330361053d576104da575b6040805163b47b2fb160e01b81525f6020820152f35b60a06104e536610c03565b205f5260046020524360405f205560a06104fe36610c03565b206040514381526001600160a01b03909216917f22421962bfaa39dd537a12f6e9a519f79eea832ac6dfd20e0dc3d125c8eac29990602090a3806104c4565b63570c108560e11b5f5260045ffd5b346101275761055a36610a76565b509293925050507f00000000000000000000000000000000000000000000000000000000000000006001600160a01b0316330361053d575f6040830135136105b3575b604080516327c18fbf60e21b81525f6020820152f35b6105bd3682610c8a565b60a090206105ca83610d09565b938060208501956105da87610d09565b60408051602081019687526001600160a01b039490941690840152600291820b606080850191909152910b608083015285013560a08083018290528252929061062460c082610be2565b51902091825f52600360205260405f20541561067b60a06106747fbfa58399b4447e933d353f718fb884c25d8d9937694b69fac7df73e7c677fb3397606097610681956106a9575b503690610c8a565b2096610d09565b96610d09565b6040519660020b875260020b6020870152604086015260018060a01b031693a380808061059d565b5f5260036020524360405f20558b61066c565b34610127576020366003190112610127576106d56109bc565b5f54906001600160a01b0382163303610189576001600160a01b0316908115610707576001600160a01b031916175f55005b63d92e233d60e01b5f5260045ffd5b3461012757610100366003190112610127576107306109bc565b5060a036602319011261012757610745610adf565b506101f5610af5565b346101275761075c36610a76565b5050505050505063d623472560e01b5f5260045ffd5b346101275760203660031901126101275761078b6109bc565b5f546001600160a01b03163303610189576001600160a01b03165f818152600160205260408120805460ff191690557fbd6d178d515bf811c86f393b42367076da766033c8ebd94ea5a7e3eaf69d1c469080a2005b3461012757610140366003190112610127576107fa6109bc565b60a03660231901126101275760603660c319011261012757610124356001600160401b038111610127576108329036906004016109e6565b90917f00000000000000000000000000000000000000000000000000000000000000006001600160a01b0316330361053d576001600160a01b03165f9081526001602052604090205460ff16156108b35761089362ffffff91606093610e51565b906040939293519363ffffffff60e01b1684526020840152166040820152f35b63cec13f7b60e01b5f5260045ffd5b34610127576108d036610a13565b505050505063d623472560e01b5f5260045ffd5b34610127576020366003190112610127576108fd6109bc565b5f546001600160a01b03163303610189576001600160a01b0316801561070757805f52600160205260405f20600160ff198254161790557f81639ab8f3fbb025b1e08849071d6ba211e0153cc8c447680595775116b67a1a5f80a2005b346101275761096836610a13565b50919291507f00000000000000000000000000000000000000000000000000000000000000006001600160a01b0316330361053d576020926109a992610d38565b6040516001600160e01b03199091168152f35b600435906001600160a01b038216820361012757565b35906001600160a01b038216820361012757565b9181601f84011215610127578235916001600160401b038311610127576020838186019501011161012757565b90610160600319830112610127576004356001600160a01b0381168103610127579160a060231982011261012757602491608060c3198301126101275760c49161014435906001600160401b03821161012757610a72916004016109e6565b9091565b906101a0600319830112610127576004356001600160a01b0381168103610127579160a060231982011261012757602491608060c3198301126101275760c4916101443591610164359161018435906001600160401b03821161012757610a72916004016109e6565b60c435906001600160a01b038216820361012757565b60e435908160020b820361012757565b3461012757610120366003190112610127576004356001600160a01b0381168103610127575060a036602319011261012757610104356001600160401b03811161012757610b579036906004016109e6565b505063d623472560e01b5f908152600490fd5b359063ffffffff8216820361012757565b6101c081019081106001600160401b03821117610b9757604052565b634e487b7160e01b5f52604160045260245ffd5b60a081019081106001600160401b03821117610b9757604052565b61010081019081106001600160401b03821117610b9757604052565b90601f801991011681019081106001600160401b03821117610b9757604052565b60a09060231901126101275760405190610c1c82610bab565b816024356001600160a01b03811681036101275781526044356001600160a01b038116810361012757602082015260643562ffffff811681036101275760408201526084358060020b810361012757606082015260a435906001600160a01b03821682036101275760800152565b91908260a091031261012757604051610ca281610bab565b8092610cad816109d2565b8252610cbb602082016109d2565b6020830152604081013562ffffff811681036101275760408301526060810135908160020b820361012757606083019190915260800135906001600160a01b03821682036101275760800152565b358060020b81036101275790565b91908203918211610d2457565b634e487b7160e01b5f52601160045260245ffd5b905f60408401351215610e425760a0610d513683610c8a565b205f52600460205260405f20544314610e335760a0610d74610de0923690610c8a565b2091610dd2610d8285610d09565b93610d8f60208701610d09565b60408051602081019384526001600160a01b0390951690850152600295860b606080860191909152950b6080840152949093013560a082015291829060c0820190565b03601f198101835282610be2565b5190205f52600360205260405f20548015610e2757610dff9043610d17565b63ffffffff6002541611610e185763021d0ee760e41b90565b633853638b60e01b5f5260045ffd5b5063021d0ee760e41b90565b63228d82db60e21b5f5260045ffd5b5063021d0ee760e41b92915050565b81156110865760405191610e6483610bc6565b5f83525f60208401525f60408401525f60608401525f60e0608094604051610e8c8782610be2565b86368237868201528260a08201528260c08201520152810191610160828403126101275760405192610ebd84610bc6565b610ec683611097565b8452610ed460208401611097565b9060208501918252610ee860408501610b6a565b9260408601938452610efc60608601610b6a565b606087015281609f860112156101275760405190610f1a8183610be2565b81610100870193841161012757818701905b848210611076575050860152359260ff84168403610127576101409060a0860194855261012081013560c0870152013560e08501526001600160401b038151166001600160401b0385511610156110675760026001600160401b03610f988184511682885116906110ab565b1610611067576001600160401b03610fba8161010093511682875116906110ab565b16116110675763ffffffff9051166001811090811561105c575b5061104d575160ff168015908115611042575b506110335760a0610ff9366024610c8a565b206110044383611156565b03611024576110149043906110cb565b506315d7892d60e21b905f908190565b63f31017e560e01b5f5260045ffd5b6368c4312b60e11b5f5260045ffd5b60049150115f610fe7565b63184774cd60e01b5f5260045ffd5b60649150115f610fd4565b631777743d60e21b5f5260045ffd5b8135815260209182019101610f2c565b506315d7892d60e21b915f91508190565b35906001600160401b038216820361012757565b906001600160401b03809116911603906001600160401b038211610d2457565b906001600160401b038251168110611147576001600160401b0360208301511681116111385763ffffffff60608301511680156111305761111360409163ffffffff93610d17565b920151161161112157600190565b63a965618960e01b5f5260045ffd5b505050600190565b633c09dd1160e01b5f5260045ffd5b637cd4c09b60e11b5f5260045ffd5b9060a082019060ff82511680156111e2576001146111d85780156111ce575f198101908111610d245760ff90915b511680156111ba5760809140069101519060048110156111a65760051b015190565b634e487b7160e01b5f52603260045260245ffd5b634e487b7160e01b5f52601260045260245ffd5b5060ff5f91611184565b5050608001515190565b505050505f9056fea2646970667358221220834162673203dc45e19ef9288a9200eb6f93edad8a1a3cfae5df1bbb51410efe64736f6c634300081a003300000000000000000000000000b036b58a818b1bc34d502d3fe730db729e62ac000000000000000000000000000000000000000000000000000000000000000500000000000000000000000095606236867c2d3391f3dd2d3004efab08e819e4",
        "nonce": "0xb4",
        "chainId": "0x515"
      },
      "additionalContracts": [],
      "isFixedGasLimit": false
    },
    {
      "hash": "0x467868d67ca41085e62a974e9c2ffb26ab24b13b3337b73cca782d09c24ccebb",
      "transactionType": "CREATE",
      "contractName": "PoolSwapTest",
      "contractAddress": "0x4da7f7cfa267aeb3a76b758eff6ee95bcfa285c7",
      "function": null,
      "arguments": [
        "0x00B036B58a818B1BC34d502D3fE730Db729e62AC"
      ],
      "transaction": {
        "from": "0x95606236867c2d3391f3dd2d3004efab08e819e4",
        "gas": "0x16ad87",
        "value": "0x0",
        "input": "0x60a034607a57601f61143e38819003918201601f19168301916001600160401b03831184841017607e57808492602094604052833981010312607a57516001600160a01b0381168103607a576080526040516113ab90816100938239608051818181608d0152818161096e01528181610bb90152610f780152f35b5f80fd5b634e487b7160e01b5f52604160045260245ffdfe60806040526004361015610011575f80fd5b5f3560e01c80632229d0b41461099d578063481c6a7514610959576391dd73461461003a575f80fd5b346108b85760203660031901126108b85760043567ffffffffffffffff81116108b857366023820112156108b857806004013567ffffffffffffffff81116108b85781019060248201913683116108b8577f0000000000000000000000000000000000000000000000000000000000000000926001600160a01b03841692338490036108b8576020818403126108b85760248101359067ffffffffffffffff82116108b8570190610180828403126108b857604051916100f983610d02565b61010560248201610d8c565b83526040601f1982860301126108b8576040519061012282610d4e565b61012e60448201610da0565b825261013c60648201610da0565b60208301526020840191825260a060246083198388030101126108b8576040519461016686610d02565b61017260848301610d8c565b865261018060a48301610d8c565b602087015260c482013562ffffff811681036108b857604087015260e48201358060020b81036108b85760608701526101048201356001600160a01b03811681036108b85760808701526040850195865260609082900360ff1901126108b857604051926101ed84610d32565b6101fa6101248301610da0565b845261014482013560208501526101648201356001600160a01b03811681036108b8576040850152606085019384526101848201359167ffffffffffffffff83116108b85761024c9201602401610dc9565b6080840190815284515184519196916102739130916001600160a01b039081169116610f69565b8751602001518751919350610297925030916001600160a01b039081169116610f69565b92915050610914576108cf576102fc956020916102d55f8851610310885195516040519c8d9788968795633cf3645360e21b87526004870190610e33565b8051151560a4860152602081015160c4860152604001516001600160a01b031660e4850152565b610120610104840152610124830190610e0f565b03925af19485156108c4575f9561088c575b5083515183516103409130916001600160a01b039081169116610f69565b865160200151865191999350610365925030916001600160a01b039081169116610f69565b855180519196935091501561068657505f602082510151125f1461058a575160200151871261050f5761039f878760801d600f0b14610e85565b5f83126104b4576103fa965b5f8112610490575b5f8412610459575b5f811361042d575b505f83136103fe575b8686604051906020820152602081526103e6604082610d6a565b604051918291602083526020830190610e0f565b0390f35b935160200151925190515161042394901515936001600160a01b039283169216611279565b5f808080806103cc565b8551518551845151610453939015159290916001600160a01b0390811691869116611279565b5f6103c3565b855160200151855161048b916001600160a01b03908116911661047b87610f45565b9085602088510151151593611039565b6103bb565b85515185516104af916001600160a01b03908116911661047b84610f45565b6103b3565b60405162461bcd60e51b815260206004820152602d60248201527f64656c7461416674657231206973206e6f742067726561746572207468616e2060448201526c06f7220657175616c20746f203609c1b6064820152608490fd5b60405162461bcd60e51b815260206004820152604760248201527f64656c7461416674657230206973206e6f742067726561746572207468616e2060448201527f6f7220657175616c20746f20646174612e706172616d732e616d6f756e7453706064820152661958da599a595960ca1b608482015260a490fd5b5f881361062b576020906105a28589600f0b14610ee5565b51015183136105b4576103fa966103ab565b60a460405162461bcd60e51b815260206004820152604460248201527f64656c7461416674657231206973206e6f74206c657373207468616e206f722060448201527f657175616c20746f20646174612e706172616d732e616d6f756e745370656369606482015263199a595960e21b6084820152fd5b60405162461bcd60e51b815260206004820152602d60248201527f64656c7461416674657230206973206e6f74206c657373207468616e206f722060448201526c657175616c20746f207a65726f60981b6064820152608490fd5b602001515f13156107905751602001518312610715576106aa8387600f0b14610ee5565b5f87126106ba576103fa966103ab565b60405162461bcd60e51b815260206004820152602d60248201527f64656c7461416674657230206973206e6f742067726561746572207468616e2060448201526c06f7220657175616c20746f203609c1b6064820152608490fd5b60405162461bcd60e51b815260206004820152604760248201527f64656c7461416674657231206973206e6f742067726561746572207468616e2060448201527f6f7220657175616c20746f20646174612e706172616d732e616d6f756e7453706064820152661958da599a595960ca1b608482015260a490fd5b5f8413610834576020906107ab898960801d600f0b14610e85565b51015187136107bd576103fa966103ab565b60a460405162461bcd60e51b815260206004820152604460248201527f64656c7461416674657230206973206e6f74206c657373207468616e206f722060448201527f657175616c20746f20646174612e706172616d732e616d6f756e745370656369606482015263199a595960e21b6084820152fd5b60405162461bcd60e51b815260206004820152602a60248201527f64656c7461416674657231206973206e6f74206c657373207468616e206f72206044820152690657175616c20746f20360b41b6064820152608490fd5b9094506020813d6020116108bc575b816108a860209383610d6a565b810103126108b85751935f610322565b5f80fd5b3d915061089b565b6040513d5f823e3d90fd5b60405162461bcd60e51b815260206004820152601e60248201527f64656c74614265666f726531206973206e6f7420657175616c20746f203000006044820152606490fd5b60405162461bcd60e51b815260206004820152601e60248201527f64656c74614265666f726530206973206e6f7420657175616c20746f203000006044820152606490fd5b346108b8575f3660031901126108b8576040517f00000000000000000000000000000000000000000000000000000000000000006001600160a01b03168152602090f35b366003190161016081126108b85760a0136108b8576040516109be81610d02565b6004356001600160a01b03811681036108b85781526024356001600160a01b03811681036108b857602082015260443562ffffff811681036108b85760408201526064358060020b81036108b85760608201526084356001600160a01b03811681036108b857608082015260603660a31901126108b857604051610a4181610d32565b60a43580151581036108b857815260c435602082015260e4356001600160a01b03811681036108b85760408201526040610103193601126108b857604051610a8881610d4e565b6101043580151581036108b85781526101243580151581036108b8576020820152610144359167ffffffffffffffff83116108b857610bb493610b84610b9292610b6f610ada5f973690600401610dc9565b91610b4460405195610aeb87610d02565b338752602087019889526040870190815260608701928352608087019485526020604051998a9882808b015260018060a01b0390511660408a0152518051151560608a01520151151560808801525160a0870190610e33565b51805115156101408601526020810151610160860152604001516001600160a01b0316610180850152565b516101806101a08401526101c0830190610e0f565b03601f198101835282610d6a565b604051809381926348c8949160e01b8352602060048401526024830190610e0f565b0381837f00000000000000000000000000000000000000000000000000000000000000006001600160a01b03165af19081156108c4575f91610c88575b50602081519181808201938492010103126108b857514780610c19575b602082604051908152f35b5f80808093335af115610c2c5781610c0e565b601f19601f3d0116604051906390bfb86560e01b82523360048301525f6024830152608060448301528060a00160648301523d60848301523d5f60a484013e808201600460a482015260c4633d2cec6f60e21b91015260e40190fd5b90503d805f833e610c998183610d6a565b8101906020818303126108b85780519067ffffffffffffffff82116108b8570181601f820112156108b857805190610cd082610dad565b92610cde6040519485610d6a565b828452602083830101116108b857815f9260208093018386015e8301015281610bf1565b60a0810190811067ffffffffffffffff821117610d1e57604052565b634e487b7160e01b5f52604160045260245ffd5b6060810190811067ffffffffffffffff821117610d1e57604052565b6040810190811067ffffffffffffffff821117610d1e57604052565b90601f8019910116810190811067ffffffffffffffff821117610d1e57604052565b35906001600160a01b03821682036108b857565b359081151582036108b857565b67ffffffffffffffff8111610d1e57601f01601f191660200190565b81601f820112156108b857803590610de082610dad565b92610dee6040519485610d6a565b828452602083830101116108b857815f926020809301838601378301015290565b805180835260209291819084018484015e5f828201840152601f01601f1916010190565b80516001600160a01b03908116835260208083015182169084015260408083015162ffffff169084015260608083015160020b9084015260809182015116910152565b908160209103126108b8575190565b15610e8c57565b60405162461bcd60e51b815260206004820152602b60248201527f64656c74612e616d6f756e74302829206973206e6f7420657175616c20746f2060448201526a064656c74614166746572360ac1b6064820152608490fd5b15610eec57565b60405162461bcd60e51b815260206004820152602b60248201527f64656c74612e616d6f756e74312829206973206e6f7420657175616c20746f2060448201526a64656c746141667465723160a81b6064820152608490fd5b600160ff1b8114610f55575f0390565b634e487b7160e01b5f52601160045260245ffd5b9290610f759084611328565b927f00000000000000000000000000000000000000000000000000000000000000006001600160a01b031690610fab8282611328565b9360018060a01b03165f5260018060a01b0316602052602060405f2060246040518094819363789add5560e11b835260048301525afa9081156108c4575f91610ff2575090565b90506020813d602011611019575b8161100d60209383610d6a565b810103126108b8575190565b3d9150611000565b908160209103126108b8575180151581036108b85790565b9291935f146110a6576001600160a01b0316803b156108b857604051637a94c56560e11b81526001600160a01b03948516600482015293909216602484015260448301525f908290818381606481015b03925af180156108c45761109a5750565b5f6110a491610d6a565b565b90916001600160a01b0316806111135750604051630476982d60e21b81529250602091839160049183916001600160a01b03165af180156108c4576110e85750565b6111099060203d60201161110c575b6111018183610d6a565b810190610e76565b50565b503d6110f7565b6001600160a01b0390911691823b156108b857604051632961046560e21b8152600481018390525f9490858160248183895af180156108c457611264575b506001600160a01b031684308214611209576020929160649160405195869485936323b872dd60e01b8552600485015288602485015260448401525af180156111fe579160209184936111d1575b505b600460405180958193630476982d60e21b83525af19081156111c557506110e85750565b604051903d90823e3d90fd5b6111f090833d85116111f7575b6111e88183610d6a565b810190611021565b505f61119f565b503d6111de565b6040513d85823e3d90fd5b9290506044602092604051948593849263a9059cbb60e01b845288600485015260248401525af180156111fe57916020918493611247575b506111a1565b61125d90833d85116111f7576111e88183610d6a565b505f611241565b6112719195505f90610d6a565b5f935f611151565b9291935f146112cd576001600160a01b0316803b156108b857604051630ab714fb60e11b81526001600160a01b03948516600482015293909216602484015260448301525f90829081838160648101611089565b9092906001600160a01b0316803b156108b857604051630b0d9c0960e01b81526001600160a01b03938416600482015291909216602482015260448101929092525f908290606490829084905af180156108c45761109a5750565b6001600160a01b03168061133b57503190565b6040516370a0823160e01b81526001600160a01b039092166004830152602090829060249082905afa9081156108c4575f91610ff257509056fea26469706673582212208e78b20e569015ce3a773ebbeed8542eb0f6feff5bfb0df61af47f660cbd210f64736f6c634300081a003300000000000000000000000000b036b58a818b1bc34d502d3fe730db729e62ac",
        "nonce": "0xb5",
        "chainId": "0x515"
      },
      "additionalContracts": [],
      "isFixedGasLimit": false
    },
    {
      "hash": "0x0f77afe0ca055e99322516849d25b51b198c6571ca487968bbb30708f5476497",
      "transactionType": "CREATE",
      "contractName": "BatchModifyLiquidityRouter",
      "contractAddress": "0xc4d6d0f105a4327daf5eb08e8755fea88b6c12f7",
      "function": null,
      "arguments": [
        "0x00B036B58a818B1BC34d502D3fE730Db729e62AC"
      ],
      "transaction": {
        "from": "0x95606236867c2d3391f3dd2d3004efab08e819e4",
        "gas": "0x12e232",
        "value": "0x0",
        "input": "0x60a034607a57601f6110cd38819003918201601f19168301916001600160401b03831184841017607e57808492602094604052833981010312607a57516001600160a01b0381168103607a5760805260405161103a9081610093823960805181818160b5015281816105cc0152818161078e0152610cac0152f35b5f80fd5b634e487b7160e01b5f52604160045260245ffdfe60806040526004361015610011575f80fd5b5f3560e01c80633c285eef146105fb578063481c6a75146105b757806391dd7346146100645763cfdbf25414610045575f80fd5b34610060575f36600319011261006057602060405160108152f35b5f80fd5b34610060576020366003190112610060576004356001600160401b03811161006057366023820112156100605780600401356001600160401b038111610060578101906024820190368211610060577f00000000000000000000000000000000000000000000000000000000000000006001600160a01b038116913383900361058057602081860312610060576024810135906001600160401b0382116100605701610100818603126100605760a0602460405196610122886108f1565b61012d82850161095c565b8852839003016043190112610060576040519061014982610920565b6101556044820161095c565b82526101636064820161095c565b6020830152608481013562ffffff8116810361006057604083015261018a60a48201610970565b606083015260c48101356001600160a01b03811681036100605760808301526020860191825260e48101356001600160401b038111610060578560246101d292840101610995565b9460408701958652610104820135916001600160401b038311610060576101fc9201602401610a53565b60608601908152601085515111610549575f5b855180518210156104105761025f9061022d8360a087512092610b00565b515160020b602061023f858b51610b00565b51015160020b906060610253868c51610b00565b51015192309089610b38565b505083516040610298610273858b51610b00565b51926102da87516102c685519687958695632d35e7ed60e11b87526004870190610abd565b8051600290810b60a48701526020820151900b60c4860152604081015160e486015260600151610104850152565b610140610124840152610144830190610a99565b03815f8b5af18015610405576103da575b506001600160801b0361033960a086512089610308868251610b00565b515160020b606061032d886020610320828751610b00565b51015160020b9451610b00565b5101519230908b610b38565b50509116600f0b90604061034e848a51610b00565b510151915f83820193841291129080158216911516176103c6576001600160801b0316600f0b036103815760010161020f565b60405162461bcd60e51b815260206004820152601a60248201527f6c6971756964697479206368616e676520696e636f72726563740000000000006044820152606490fd5b634e487b7160e01b5f52601160045260245ffd5b604090813d81116103fe575b6103f0818361093b565b8101031261006057886102eb565b503d6103e6565b6040513d5f823e3d90fd5b8351518851859187918b916104339130916001600160a01b039182169116610c9d565b855160200151845191959350610458925030916001600160a01b039081169116610c9d565b949150505f8112610524575b5f84126104f6575b5f81136104d2575b505f83136104a9575b6104a560405161048e60208261093b565b5f8152604051918291602083526020830190610a99565b0390f35b92516020015190516104c9936001600160a01b0391821692909116610f51565b8080808061047d565b84515183516104f092916001600160a01b0391821691859116610f51565b84610474565b845160200151835161051f916001600160a01b0390811691168461051988610b28565b92610d7c565b61046c565b8451518351610544916001600160a01b0390811691168461051985610b28565b610464565b60405162461bcd60e51b815260206004820152600f60248201526e426174636820746f6f206c6172676560881b6044820152606490fd5b60405162461bcd60e51b815260206004820152600f60248201526e2737ba102837b7b626b0b730b3b2b960891b6044820152606490fd5b34610060575f366003190112610060576040517f00000000000000000000000000000000000000000000000000000000000000006001600160a01b03168152602090f35b366003190160e081126100605760a0136100605760405161061b81610920565b6004356001600160a01b03811681036100605781526024356001600160a01b038116810361006057602082015260443562ffffff811681036100605760408201526064358060020b81036100605760608201526084356001600160a01b038116810361006057608082015260a4356001600160401b038111610060576106a5903690600401610995565b9060c4356001600160401b038111610060576106c5903690600401610a53565b604051926106d2846108f1565b3384526020840192835260408401908152606084019182526107176040519360208086015261014085019560018060a01b039051166040860152516060850190610abd565b5192610100808401528351809152602061016084019401905f5b8181106108ad576107895f86610767816107598b8a51603f1984830301610120850152610a99565b03601f19810183528261093b565b604051809381926348c8949160e01b8352602060048401526024830190610a99565b0381837f00000000000000000000000000000000000000000000000000000000000000006001600160a01b03165af1801561040557610837575b5047806107cc57005b5f80808093335af1156107db57005b601f19601f3d0116604051906390bfb86560e01b82523360048301525f6024830152608060448301528060a00160648301523d60848301523d5f60a484013e808201600460a482015260c4633d2cec6f60e21b91015260e40190fd5b3d805f833e610846818361093b565b810190602081830312610060578051906001600160401b038211610060570181601f820112156100605780519061087c82610a38565b9261088a604051948561093b565b8284526020838301011161006057815f9260208093018386015e830101526107c3565b90919460206080826108e66001948a5160608091805160020b8452602081015160020b6020850152604081015160408501520151910152565b019601929101610731565b608081019081106001600160401b0382111761090c57604052565b634e487b7160e01b5f52604160045260245ffd5b60a081019081106001600160401b0382111761090c57604052565b90601f801991011681019081106001600160401b0382111761090c57604052565b35906001600160a01b038216820361006057565b35908160020b820361006057565b6001600160401b03811161090c5760051b60200190565b81601f82011215610060578035906109ac8261097e565b926109ba604051948561093b565b82845260208085019360071b8301019181831161006057602001925b8284106109e4575050505090565b6080848303126100605760206080916040516109ff816108f1565b610a0887610970565b8152610a15838801610970565b8382015260408701356040820152606087013560608201528152019301926109d6565b6001600160401b03811161090c57601f01601f191660200190565b81601f8201121561006057803590610a6a82610a38565b92610a78604051948561093b565b8284526020838301011161006057815f926020809301838601378301015290565b805180835260209291819084018484015e5f828201840152601f01601f1916010190565b80516001600160a01b03908116835260208083015182169084015260408083015162ffffff169084015260608083015160020b9084015260809182015116910152565b8051821015610b145760209160051b010190565b634e487b7160e01b5f52603260045260245ffd5b600160ff1b81146103c6575f0390565b94939290926040519460268601526006850152600384015282525f603a600c8401209281604082015281602082015252604051602081019182526006604082015260408152610b8860608261093b565b51902090600682018092116103c6575f916040519060208201928352604082015260408152610bb860608261093b565b519020604051631afeb18d60e11b815260048101919091526003602482015291829060449082906001600160a01b03165afa908115610405575f91610c0d575b50602081015160408201516060909201519092565b90503d805f833e610c1e818361093b565b810190602081830312610060578051906001600160401b03821161006057019080601f83011215610060578151610c548161097e565b92610c62604051948561093b565b81845260208085019260051b82010192831161006057602001905b828210610c8d575050505f610bf8565b8151815260209182019101610c7d565b9290610ca99084610fb7565b927f00000000000000000000000000000000000000000000000000000000000000006001600160a01b031690610cdf8282610fb7565b9360018060a01b03165f5260018060a01b0316602052602060405f2060246040518094819363789add5560e11b835260048301525afa908115610405575f91610d26575090565b90506020813d602011610d4d575b81610d416020938361093b565b81010312610060575190565b3d9150610d34565b90816020910312610060575180151581036100605790565b90816020910312610060575190565b9192916001600160a01b031680610dea5750604051630476982d60e21b81529250602091839160049183916001600160a01b03165af1801561040557610dbf5750565b610de09060203d602011610de3575b610dd8818361093b565b810190610d6d565b50565b503d610dce565b6001600160a01b0390911691823b1561006057604051632961046560e21b815260048101839052935a945f816024818389819bf1801561040557610f3c575b506001600160a01b031684308214610ee1576020929160649160405195869485936323b872dd60e01b8552600485015288602485015260448401525af18015610ed657916020918493610ea9575b505b600460405180958193630476982d60e21b83525af1908115610e9d5750610dbf5750565b604051903d90823e3d90fd5b610ec890833d8511610ecf575b610ec0818361093b565b810190610d55565b505f610e77565b503d610eb6565b6040513d85823e3d90fd5b9290506044602092604051948593849263a9059cbb60e01b845288600485015260248401525af18015610ed657916020918493610f1f575b50610e79565b610f3590833d8511610ecf57610ec0818361093b565b505f610f19565b610f499195505f9061093b565b5f935f610e29565b91906001600160a01b0316803b1561006057604051630b0d9c0960e01b81526001600160a01b03938416600482015291909216602482015260448101929092525f908290606490829084905af1801561040557610fab5750565b5f610fb59161093b565b565b6001600160a01b031680610fca57503190565b6040516370a0823160e01b81526001600160a01b039092166004830152602090829060249082905afa908115610405575f91610d2657509056fea2646970667358221220e225d751da61a44a3beff2546408eb6e38576b4e63a11e4d51c58dbed581542e64736f6c634300081a003300000000000000000000000000b036b58a818b1bc34d502d3fe730db729e62ac",
        "nonce": "0xb6",
        "chainId": "0x515"
      },
      "additionalContracts": [],
      "isFixedGasLimit": false
    },
    {
      "hash": "0xe9290c7c6d18518794c13895b8dd25967b2d015dc3190478786abf317c9abcea",
      "transactionType": "CREATE",
      "contractName": "IntentStore",
      "contractAddress": "0x0ad44ccdbcff9ca679e1013e8c7f0f5a10626ad4",
      "function": null,
      "arguments": [
        "0x0000000000000000000000000000000000000000"
      ],
      "transaction": {
        "from": "0x95606236867c2d3391f3dd2d3004efab08e819e4",
        "gas": "0xce90e",
        "value": "0x0",
        "input": "0x608034606f57601f610b4038819003918201601f19168301916001600160401b03831184841017607357808492602094604052833981010312606f57516001600160a01b03811690819003606f575f80546001600160a01b031916919091179055604051610ab890816100888239f35b5f80fd5b634e487b7160e01b5f52604160045260245ffdfe6080806040526004361015610012575f80fd5b5f3560e01c9081631c3c0ea8146107a15750806346a1a0951461071a5780634e395e2a146106f2578063906e277b14610589578063c34c08e514610562578063ed82a00e146101695763f640511914610069575f80fd5b34610165576020366003190112610165575f54600435906001600160a01b0316330361013057600154811080610118575b156100dd57600b6100aa82610839565b5001805460ff191660011790557ff0c6c99b11035113bf510013043afc18365a61a112c542b9f7491fd1574cfc5b5f80a2005b60405162461bcd60e51b81526020600482015260136024820152721a5b9d985b1a59081bdc88195e1958dd5d1959606a1b6044820152606490fd5b5060ff600b61012683610839565b500154161561009a565b60405162461bcd60e51b815260206004820152600d60248201526c37b7363c9032bc32b1baba37b960991b6044820152606490fd5b5f80fd5b34610165573660031901610180811261016557610160136101655760405161019081610884565b6004356001600160401b0381168103610165578152602435906001600160401b038216820361016557602081019182526044359163ffffffff8316830361016557604082019283526064359163ffffffff8316830361016557606081019283523660a3121561016557608060405161020882826108a0565b803661010411610165576084905b6101048210610552575050818301526101043560ff811681036101655760a083019081526101243560c08401526101443560e084015261016435956001600160401b038551166001600160401b0385511610156105435760026001600160401b03610288818851168288511690610a4e565b1610610543576101006001600160401b036102aa818851168288511690610a4e565b16116105435763ffffffff90511660018110908115610538575b50610529575160ff16801590811561051e575b5061050f5784156104d3576001549363ffffffff43169052604051946102fc86610869565b82865260208601338152604087019033825260608801928352838801935f8552680100000000000000008810156104bf576001880160015561033d88610839565b9990996104ac575180518a54602083015160408085015160608601516001600160c01b03199094166001600160401b03959095169490941791901b6fffffffffffffffff0000000000000000161791841b63ffffffff60801b169190911760a09190911b63ffffffff60a01b16178a55908101515f905b6004821061049457505060a081015160058a01805460ff1990811660ff9384161790915560c083015160068c015560e09092015160078b0155915160088a0180546001600160a01b03199081166001600160a01b0393841617909155935160098b0180549095169116179092559151600a8801559151600b9096018054961515909116959091169490941790935591519151604080516001600160401b0394851681529190931660208281019190915292339183917f69ed47713df78c91050b377d2f52abaea3dbc2bbe31c32b290c288c61ce079fc91a3604051908152f35b818160018d94602082955193019501015501906103b4565b634e487b7160e01b5f525f60045260245ffd5b634e487b7160e01b5f52604160045260245ffd5b60405162461bcd60e51b81526020600482015260146024820152730616d6f756e74496e206d757374206265203e20360641b6044820152606490fd5b6368c4312b60e11b5f5260045ffd5b6004915011866102d7565b63184774cd60e01b5f5260045ffd5b6064915011876102c4565b631777743d60e21b5f5260045ffd5b8135815260209182019101610216565b34610165575f366003190112610165575f546040516001600160a01b039091168152602090f35b34610165576020366003190112610165576004356040516105a981610869565b5f6040516105b681610884565b81815281602082015281604082015281606082015260809283916040516105dd84826108a0565b83368237838201528360a08201528360c08201528360e0820152815282602082015282604082015282606082015201526001548210156106bc576106236101e092610839565b506040519061063182610869565b61063a816108c1565b9283835260018060a01b036008830154166020840190815260018060a01b03600984015416916040850192835260ff600b600a86015495606088019687520154169401931515845261068f604051809661096a565b516001600160a01b03908116610160860152905116610180840152516101a08301525115156101c0820152f35b60405162461bcd60e51b815260206004820152600e60248201526d1a5b9d985b1a59081a5b9d195b9d60921b6044820152606490fd5b346101655760203660031901126101655760206107106004356109fd565b6040519015158152f35b3461016557602036600319011261016557600435600154811015610165576107446101e091610839565b5061074e816108c1565b9060018060a01b036008820154169060018060a01b0360098201541660ff600b600a8401549301541692610785604051809661096a565b6101608501526101808401526101a083015215156101c0820152f35b34610165576020366003190112610165576004356001600160a01b0381169190829003610165575f54906001600160a01b038216801590811561082f575b50156107f557506001600160a01b031916175f55005b62461bcd60e51b81526020600482015260156024820152741bdb9b1e48195e1958dd5d1bdc881bdc881a5b9a5d605a1b6044820152606490fd5b90503314846107df565b6001548110156108555760015f52600c60205f20910201905f90565b634e487b7160e01b5f52603260045260245ffd5b60a081019081106001600160401b038211176104bf57604052565b61010081019081106001600160401b038211176104bf57604052565b90601f801991011681019081106001600160401b038211176104bf57604052565b906040516108ce81610884565b809263ffffffff81546001600160401b03811684526001600160401b038160401c166020850152818160801c16604085015260a01c1660608301526040518060018301905f905b600482106109545750505060e0918161093160806007946108a0565b608085015260ff60058201541660a0850152600681015460c08501520154910152565b6001602081928554815201930191019091610915565b6001600160401b0381511682526001600160401b03602082015116602083015263ffffffff604082015116604083015263ffffffff60608201511660608301526080810151608083015f905b600482106109e75750505060e08160ff60a06101409401511661010085015260c08101516101208501520151910152565b60208060019285518152019301910190916109b6565b600154811015610a4957610a1090610839565b5060ff600b82015416610a4957546001600160401b0381164310610a495760401c6001600160401b03164311610a4557600190565b5f90565b505f90565b906001600160401b03809116911603906001600160401b038211610a6e57565b634e487b7160e01b5f52601160045260245ffdfea26469706673582212207b07a4fb0554e2a23f157ef8eb85a15b687300dff9dc43584224c7d67d5f97b464736f6c634300081a00330000000000000000000000000000000000000000000000000000000000000000",
        "nonce": "0xb7",
        "chainId": "0x515"
      },
      "additionalContracts": [],
      "isFixedGasLimit": false
    },
    {
      "hash": "0xda85304d540db2fbd11a6c2fc7ae6186c08cdcb24417453b486e1d52fbae8a86",
      "transactionType": "CREATE",
      "contractName": "PrivacySwapExecutor",
      "contractAddress": "0x7a642d521829b080e5fb34120bccf777e485a365",
      "function": null,
      "arguments": [
        "0x0aD44cCdbCff9Ca679e1013e8C7F0F5A10626Ad4",
        "0x4Da7f7CFA267AeB3A76B758eFF6eE95bCFa285c7"
      ],
      "transaction": {
        "from": "0x95606236867c2d3391f3dd2d3004efab08e819e4",
        "gas": "0x11762c",
        "value": "0x0",
        "input": "0x60c03460b857601f610fbe38819003918201601f19168301916001600160401b0383118484101760bc57808492604094855283398101031260b8578051906001600160a01b038216820360b85760200151906001600160a01b038216820360b85760805260a052604051610eed90816100d182396080518181816103040152818161044d015281816104ac015281816107b9015281816108040152610b51015260a051818181610577015281816107890152610b100152f35b5f80fd5b634e487b7160e01b5f52604160045260245ffdfe6080806040526004361015610012575f80fd5b5f905f3560e01c908163368202a514610b3f57508063c31c9c0714610afb578063d9c8ec2214610385578063da9d05d7146102d45763e082278914610055575f80fd5b346102d15760603660031901126102d1576004356001600160401b0381116102cd57610085903690600401610bd0565b602435906001600160401b03821161022d573660238301121561022d578160040135916001600160401b0383116102295736602460a0850283010111610229576044356001600160401b0381116102c9576100e4903690600401610bd0565b919092848114806102c0575b156102835780151580610278575b1561024557865b818110610110578780f35b61011b818389610d8b565b358682101561023157889060a08302850161013784888a610d8b565b356001600160a01b038116919082900361022d57303b1561022d57604051636ce4761160e11b815260048101939093526001600160a01b0361017b60248301610bbc565b1660248401526001600160a01b0361019560448301610bbc565b166044840152606481013562ffffff811680910361022957606484015260848101358060020b8091036102295760848401526001600160a01b03906101dc9060a401610bbc565b1660a483015260c4820152818160e48183305af1801561021e57610205575b5050600101610105565b8161020f91610b9b565b61021a57875f6101fb565b8780fd5b6040513d84823e3d90fd5b8480fd5b8380fd5b634e487b7160e01b89526032600452602489fd5b60405162461bcd60e51b815260206004820152600b60248201526a312d3820696e74656e747360a81b6044820152606490fd5b5060088111156100fe565b60405162461bcd60e51b81526020600482015260156024820152740c2e4e4c2f240d8cadccee8d040dad2e6dac2e8c6d605b1b6044820152606490fd5b508281146100f0565b8580fd5b5080fd5b80fd5b50346102d15760403660031901126102d15760405163906e277b60e01b815260048035908201526101e0816024817f00000000000000000000000000000000000000000000000000000000000000006001600160a01b03165afa90811561021e579061034e9160209391610356575b506024359051610e37565b604051908152f35b61037891506101e03d811161037e575b6103708183610b9b565b810190610c46565b5f610343565b503d610366565b503461098a5760e036600319011261098a5760a036602319011261098a576040516103af81610b80565b6024356001600160a01b038116810361098a5781526044356001600160a01b038116810361098a57602082015260643562ffffff8116810361098a5760408201526084358060020b810361098a57606082015260a4356001600160a01b038116810361098a57608082015260c4356001600160a01b0381169081900361098a5760405163906e277b60e01b815260048035908201526101e0816024817f00000000000000000000000000000000000000000000000000000000000000006001600160a01b03165afa90811561097f575f91610adc575b506080810151610acd5760405163271caf1560e11b815260048035908201526020816024817f00000000000000000000000000000000000000000000000000000000000000006001600160a01b03165afa90811561097f575f91610a93575b5015610a845780519260a081206104fb4386610e37565b03610a755761050a4385610daf565b50602081810151825160408581015160608701805192516323b872dd60e01b81526001600160a01b0392831660048201523060248201526044810193909352928116979492931691816064815f865af1801561097f57610a32575b50815160405163095ea7b360e01b81527f00000000000000000000000000000000000000000000000000000000000000006001600160a01b031660048201526024810191909152906020908290815f81604481015b03925af1801561097f576109fb575b505190600160ff1b82146109e75760405191606083018381106001600160401b038211176109d3576040525f83525f036020830152604082015260405191604083018381106001600160401b038211176109d3576040525f83525f60208401526040516001600160401b0387511660208201526001600160401b03602088015116604082015263ffffffff604088015116606082015263ffffffff6060880151166080820152608087015160a082015f905b600482106109bd5750505060209291836101849260ff60a08b01511661012082015260c08a015161014082015260e08a015161016082015261016081526106c461018082610b9b565b6040805163088a742d60e21b815284516001600160a01b03908116600483015285850151811660248301528583015162ffffff166044830152606086015160020b6064830152608090950151851660848201528651151560a48201528684015160c482015295015190921660e4850152855115156101048501529485015115156101248401526101606101448401528051610164840181905292948593849290918291018484015e5f838284010152601f801991011681010301815f60018060a01b037f0000000000000000000000000000000000000000000000000000000000000000165af1801561097f5761098e575b507f00000000000000000000000000000000000000000000000000000000000000006001600160a01b03163b1561098a5760405163f640511960e01b815260048035908201525f81602481837f00000000000000000000000000000000000000000000000000000000000000006001600160a01b03165af1801561097f5761096a575b506040516370a0823160e01b815230600482015292602084602481865afa93841561095f57859461092b575b50831561091c5760c00151831061090d5760209081015160405163a9059cbb60e01b81526001600160a01b0390911660048201526024810193909352908290604490829086905af190811561021e5782916108d3575b50156108c45780f35b6312171d8360e31b8152600490fd5b90506020813d602011610905575b816108ee60209383610b9b565b810103126102cd576108ff90610c39565b5f6108bb565b3d91506108e1565b63bb2875c360e01b8452600484fd5b63730c31bf60e11b8552600485fd5b9093506020813d602011610957575b8161094760209383610b9b565b810103126102295751925f610865565b3d915061093a565b6040513d87823e3d90fd5b6109779194505f90610b9b565b5f925f610839565b6040513d5f823e3d90fd5b5f80fd5b6020813d6020116109b5575b816109a760209383610b9b565b8101031261098a57516107b6565b3d915061099a565b602080600192855181520193019101909161067b565b634e487b7160e01b5f52604160045260245ffd5b634e487b7160e01b5f52601160045260245ffd5b6020813d602011610a2a575b81610a1460209383610b9b565b8101031261098a57610a2590610c39565b6105c9565b3d9150610a07565b906020823d602011610a6d575b81610a4c60209383610b9b565b8101031261098a576105ba602091610a645f94610c39565b50925050610565565b3d9150610a3f565b63f31017e560e01b5f5260045ffd5b6397e97fab60e01b5f5260045ffd5b90506020813d602011610ac5575b81610aae60209383610b9b565b8101031261098a57610abf90610c39565b5f6104e4565b3d9150610aa1565b633b68b0fd60e01b5f5260045ffd5b610af591506101e03d811161037e576103708183610b9b565b5f610485565b3461098a575f36600319011261098a576040517f00000000000000000000000000000000000000000000000000000000000000006001600160a01b03168152602090f35b3461098a575f36600319011261098a577f00000000000000000000000000000000000000000000000000000000000000006001600160a01b03168152602090f35b60a081019081106001600160401b038211176109d357604052565b90601f801991011681019081106001600160401b038211176109d357604052565b35906001600160a01b038216820361098a57565b9181601f8401121561098a578235916001600160401b03831161098a576020808501948460051b01011161098a57565b51906001600160401b038216820361098a57565b519063ffffffff8216820361098a57565b51906001600160a01b038216820361098a57565b5190811515820361098a57565b90818103916101e0831261098a5761016060405193610c6485610b80565b1261098a576040519161010083018381106001600160401b038211176109d357604052610c9082610c00565b8352610c9e60208301610c00565b6020840152610caf60408301610c14565b6040840152610cc060608301610c14565b606084015280609f8301121561098a57604051608081018181106001600160401b038211176109d35760405280610100840192831161098a5760808401905b838210610d7b5750506080840152519060ff8216820361098a57826101c09260a0610d7395015261012082015160c082015261014082015160e08201528452610d4b6101608201610c25565b6020850152610d5d6101808201610c25565b60408501526101a0810151606085015201610c39565b608082015290565b8151815260209182019101610cff565b9190811015610d9b5760051b0190565b634e487b7160e01b5f52603260045260245ffd5b6001600160401b038151168210610e28576001600160401b036020820151168211610e195763ffffffff6060820151168015610e115782039182116109e7576040015163ffffffff1611610e0257600190565b63a965618960e01b5f5260045ffd5b505050600190565b633c09dd1160e01b5f5260045ffd5b637cd4c09b60e11b5f5260045ffd5b9060a082019060ff8251168015610eaf57600114610ea5578015610e9b575f1981019081116109e75760ff90915b51168015610e87576080914006910151906004811015610d9b5760051b015190565b634e487b7160e01b5f52601260045260245ffd5b5060ff5f91610e65565b5050608001515190565b505050505f9056fea2646970667358221220bc16db5e8e13614391590572a0d2f31c2208f1e06b28ec483d2cd2b396b9ce8964736f6c634300081a00330000000000000000000000000ad44ccdbcff9ca679e1013e8c7f0f5a10626ad40000000000000000000000004da7f7cfa267aeb3a76b758eff6ee95bcfa285c7",
        "nonce": "0xb8",
        "chainId": "0x515"
      },
      "additionalContracts": [],
      "isFixedGasLimit": false
    },
    {
      "hash": "0xe63670df495e424a25bd5bf912d06d4d42cf43cf4950e1363ad1877937f98865",
      "transactionType": "CALL",
      "contractName": "IntentStore",
      "contractAddress": "0x0ad44ccdbcff9ca679e1013e8c7f0f5a10626ad4",
      "function": "setExecutor(address)",
      "arguments": [
        "0x7a642D521829b080e5FB34120BcCF777e485A365"
      ],
      "transaction": {
        "from": "0x95606236867c2d3391f3dd2d3004efab08e819e4",
        "to": "0x0ad44ccdbcff9ca679e1013e8c7f0f5a10626ad4",
        "gas": "0xec68",
        "value": "0x0",
        "input": "0x1c3c0ea80000000000000000000000007a642d521829b080e5fb34120bccf777e485a365",
        "nonce": "0xb9",
        "chainId": "0x515"
      },
      "additionalContracts": [],
      "isFixedGasLimit": false
    },
    {
      "hash": "0x2ea7e291d32fe8e3b930c0ba02284539e6d0fc6665122288653f871e8bbe6e22",
      "transactionType": "CALL",
      "contractName": "PrivacySwapHook",
      "contractAddress": "0x4b2a81ccf2d7c7532191846b517fd4f082f906c0",
      "function": "addRouter(address)",
      "arguments": [
        "0x4Da7f7CFA267AeB3A76B758eFF6eE95bCFa285c7"
      ],
      "transaction": {
        "from": "0x95606236867c2d3391f3dd2d3004efab08e819e4",
        "to": "0x4b2a81ccf2d7c7532191846b517fd4f082f906c0",
        "gas": "0xfe5a",
        "value": "0x0",
        "input": "0x24ca984e0000000000000000000000004da7f7cfa267aeb3a76b758eff6ee95bcfa285c7",
        "nonce": "0xba",
        "chainId": "0x515"
      },
      "additionalContracts": [],
      "isFixedGasLimit": false
    },
    {
      "hash": "0xb0864f7a9034e6b178e0bc1424a015aee4bf99ee2a693665ca1bef09c2e071f7",
      "transactionType": "CALL",
      "contractName": "PrivacySwapHook",
      "contractAddress": "0x4b2a81ccf2d7c7532191846b517fd4f082f906c0",
      "function": "addRouter(address)",
      "arguments": [
        "0xc4d6d0F105a4327daf5eb08e8755fea88B6c12f7"
      ],
      "transaction": {
        "from": "0x95606236867c2d3391f3dd2d3004efab08e819e4",
        "to": "0x4b2a81ccf2d7c7532191846b517fd4f082f906c0",
        "gas": "0xfe5a",
        "value": "0x0",
        "input": "0x24ca984e000000000000000000000000c4d6d0f105a4327daf5eb08e8755fea88b6c12f7",
        "nonce": "0xbb",
        "chainId": "0x515"
      },
      "additionalContracts": [],
      "isFixedGasLimit": false
    },
    {
      "hash": "0xa75e13863e1dd411cfeeb082891a3d5cfa3ba74297ea184f0f1a2da8d5e2f58c",
      "transactionType": "CALL",
      "contractName": null,
      "contractAddress": "0x4200000000000000000000000000000000000006",
      "function": null,
      "arguments": null,
      "transaction": {
        "from": "0x95606236867c2d3391f3dd2d3004efab08e819e4",
        "to": "0x4200000000000000000000000000000000000006",
        "gas": "0x962a",
        "value": "0x6a94d74f430000",
        "input": "0xd0e30db0",
        "nonce": "0xbc",
        "chainId": "0x515"
      },
      "additionalContracts": [],
      "isFixedGasLimit": false
    },
    {
      "hash": "0xd41f2cc0566069b35badd6fd6c29032e02d7f4e7e28c9a09a7a5f2b5b9b96c52",
      "transactionType": "CALL",
      "contractName": null,
      "contractAddress": "0x4200000000000000000000000000000000000006",
      "function": "approve(address,uint256)",
      "arguments": [
        "0x4Da7f7CFA267AeB3A76B758eFF6eE95bCFa285c7",
        "115792089237316195423570985008687907853269984665640564039457584007913129639935"
      ],
      "transaction": {
        "from": "0x95606236867c2d3391f3dd2d3004efab08e819e4",
        "to": "0x4200000000000000000000000000000000000006",
        "gas": "0x10972",
        "value": "0x0",
        "input": "0x095ea7b30000000000000000000000004da7f7cfa267aeb3a76b758eff6ee95bcfa285c7ffffffffffffffffffffffffffffffffffffffffffffffffffffffffffffffff",
        "nonce": "0xbd",
        "chainId": "0x515"
      },
      "additionalContracts": [],
      "isFixedGasLimit": false
    },
    {
      "hash": "0x9777adba2cdc5cfa7f661e94d7482d8e071a2701fee92670210e657e979488f3",
      "transactionType": "CALL",
      "contractName": null,
      "contractAddress": "0x31d0220469e10c4e71834a79b1f276d740d3768f",
      "function": "approve(address,uint256)",
      "arguments": [
        "0x4Da7f7CFA267AeB3A76B758eFF6eE95bCFa285c7",
        "115792089237316195423570985008687907853269984665640564039457584007913129639935"
      ],
      "transaction": {
        "from": "0x95606236867c2d3391f3dd2d3004efab08e819e4",
        "to": "0x31d0220469e10c4e71834a79b1f276d740d3768f",
        "gas": "0x13eb1",
        "value": "0x0",
        "input": "0x095ea7b30000000000000000000000004da7f7cfa267aeb3a76b758eff6ee95bcfa285c7ffffffffffffffffffffffffffffffffffffffffffffffffffffffffffffffff",
        "nonce": "0xbe",
        "chainId": "0x515"
      },
      "additionalContracts": [],
      "isFixedGasLimit": false
    },
    {
      "hash": "0x273d4c6800445e591c27b3eb6489137b6cad00cbbd5702b384e8d5c57a0d17fe",
      "transactionType": "CALL",
      "contractName": null,
      "contractAddress": "0x4200000000000000000000000000000000000006",
      "function": "approve(address,uint256)",
      "arguments": [
        "0xc4d6d0F105a4327daf5eb08e8755fea88B6c12f7",
        "115792089237316195423570985008687907853269984665640564039457584007913129639935"
      ],
      "transaction": {
        "from": "0x95606236867c2d3391f3dd2d3004efab08e819e4",
        "to": "0x4200000000000000000000000000000000000006",
        "gas": "0x10972",
        "value": "0x0",
        "input": "0x095ea7b3000000000000000000000000c4d6d0f105a4327daf5eb08e8755fea88b6c12f7ffffffffffffffffffffffffffffffffffffffffffffffffffffffffffffffff",
        "nonce": "0xbf",
        "chainId": "0x515"
      },
      "additionalContracts": [],
      "isFixedGasLimit": false
    },
    {
      "hash": "0x6076bcb291b396b6964a9e21f40769430661fe10e2def71876f0903d10ffc78c",
      "transactionType": "CALL",
      "contractName": null,
      "contractAddress": "0x31d0220469e10c4e71834a79b1f276d740d3768f",
      "function": "approve(address,uint256)",
      "arguments": [
        "0xc4d6d0F105a4327daf5eb08e8755fea88B6c12f7",
        "115792089237316195423570985008687907853269984665640564039457584007913129639935"
      ],
      "transaction": {
        "from": "0x95606236867c2d3391f3dd2d3004efab08e819e4",
        "to": "0x31d0220469e10c4e71834a79b1f276d740d3768f",
        "gas": "0x13eb1",
        "value": "0x0",
        "input": "0x095ea7b3000000000000000000000000c4d6d0f105a4327daf5eb08e8755fea88b6c12f7ffffffffffffffffffffffffffffffffffffffffffffffffffffffffffffffff",
        "nonce": "0xc0",
        "chainId": "0x515"
      },
      "additionalContracts": [],
      "isFixedGasLimit": false
    },
    {
      "hash": "0x385bb694bef235e0c0d6ae0ecb340627354f503cc44b6b1e8454d18fe9f80063",
      "transactionType": "CALL",
      "contractName": null,
      "contractAddress": "0x4200000000000000000000000000000000000006",
      "function": "approve(address,uint256)",
      "arguments": [
        "0x7a642D521829b080e5FB34120BcCF777e485A365",
        "115792089237316195423570985008687907853269984665640564039457584007913129639935"
      ],
      "transaction": {
        "from": "0x95606236867c2d3391f3dd2d3004efab08e819e4",
        "to": "0x4200000000000000000000000000000000000006",
        "gas": "0x10972",
        "value": "0x0",
        "input": "0x095ea7b30000000000000000000000007a642d521829b080e5fb34120bccf777e485a365ffffffffffffffffffffffffffffffffffffffffffffffffffffffffffffffff",
        "nonce": "0xc1",
        "chainId": "0x515"
      },
      "additionalContracts": [],
      "isFixedGasLimit": false
    },
    {
      "hash": "0x5377745c3e0864d91dfa546801cb982e315a5376994f4855acb2b3ba6a105c2a",
      "transactionType": "CALL",
      "contractName": null,
      "contractAddress": "0x00b036b58a818b1bc34d502d3fe730db729e62ac",
      "function": "initialize((address,address,uint24,int24,address),uint160)",
      "arguments": [
        "(0x31d0220469e10c4E71834a79b1f276d740d3768F, 0x4200000000000000000000000000000000000006, 3000, 60, 0x4B2A81cCf2D7C7532191846b517FD4F082f906c0)",
        "79228162514264337593543950336"
      ],
      "transaction": {
        "from": "0x95606236867c2d3391f3dd2d3004efab08e819e4",
        "to": "0x00b036b58a818b1bc34d502d3fe730db729e62ac",
        "gas": "0x12626",
        "value": "0x0",
        "input": "0x6276cbbe00000000000000000000000031d0220469e10c4e71834a79b1f276d740d3768f00000000000000000000000042000000000000000000000000000000000000060000000000000000000000000000000000000000000000000000000000000bb8000000000000000000000000000000000000000000000000000000000000003c0000000000000000000000004b2a81ccf2d7c7532191846b517fd4f082f906c00000000000000000000000000000000000000001000000000000000000000000",
        "nonce": "0xc2",
        "chainId": "0x515"
      },
      "additionalContracts": [],
      "isFixedGasLimit": false
    },
    {
      "hash": "0xe2c4b09cfe73ef79eb382df0c751b475785aab15a1e49f7a6a0b8919012243f8",
      "transactionType": "CALL",
      "contractName": "BatchModifyLiquidityRouter",
      "contractAddress": "0xc4d6d0f105a4327daf5eb08e8755fea88b6c12f7",
      "function": "batchModifyLiquidity((address,address,uint24,int24,address),(int24,int24,int256,bytes32)[],bytes)",
      "arguments": [
        "(0x31d0220469e10c4E71834a79b1f276d740d3768F, 0x4200000000000000000000000000000000000006, 3000, 60, 0x4B2A81cCf2D7C7532191846b517FD4F082f906c0)",
        "[(-120, 120, 2000000000, 0x0000000000000000000000000000000000000000000000000000000000000001), (-120, 120, 2000000000, 0x0000000000000000000000000000000000000000000000000000000000000002), (-120, 120, 2000000000, 0x0000000000000000000000000000000000000000000000000000000000000003)]",
        "0x"
      ],
      "transaction": {
        "from": "0x95606236867c2d3391f3dd2d3004efab08e819e4",
        "to": "0xc4d6d0f105a4327daf5eb08e8755fea88b6c12f7",
        "gas": "0x9e066",
        "value": "0x0",
        "input": "0x3c285eef00000000000000000000000031d0220469e10c4e71834a79b1f276d740d3768f00000000000000000000000042000000000000000000000000000000000000060000000000000000000000000000000000000000000000000000000000000bb8000000000000000000000000000000000000000000000000000000000000003c0000000000000000000000004b2a81ccf2d7c7532191846b517fd4f082f906c000000000000000000000000000000000000000000000000000000000000000e000000000000000000000000000000000000000000000000000000000000002800000000000000000000000000000000000000000000000000000000000000003ffffffffffffffffffffffffffffffffffffffffffffffffffffffffffffff88000000000000000000000000000000000000000000000000000000000000007800000000000000000000000000000000000000000000000000000000773594000000000000000000000000000000000000000000000000000000000000000001ffffffffffffffffffffffffffffffffffffffffffffffffffffffffffffff88000000000000000000000000000000000000000000000000000000000000007800000000000000000000000000000000000000000000000000000000773594000000000000000000000000000000000000000000000000000000000000000002ffffffffffffffffffffffffffffffffffffffffffffffffffffffffffffff880000000000000000000000000000000000000000000000000000000000000078000000000000000000000000000000000000000000000000000000007735940000000000000000000000000000000000000000000000000000000000000000030000000000000000000000000000000000000000000000000000000000000000",
        "nonce": "0xc3",
        "chainId": "0x515"
      },
      "additionalContracts": [],
      "isFixedGasLimit": false
    }
  ],
  "receipts": [
    {
      "status": "0x1",
      "cumulativeGasUsed": "0x138ac5",
      "logs": [],
      "logsBloom": "0x00000000000000000000000000000000000000000000000000000000000000000000000000000000000000000000000000000000000000000000000000000000000000000000000000000000000000000000000000000000000000000000000000000000000000000000000000000000000000000000000000000000000000000000000000000000000000000000000000000000000000000000000000000000000000000000000000000000000000000000000000000000000000000000000000000000000000000000000000000000000000000000000000000000000000000000000000000000000000000000000000000000000000000000000000000000",
      "type": "0x2",
      "transactionHash": "0xce361a936cfa039870efe4c5d668205beddc983993c2865e0334e514d850651b",
      "transactionIndex": "0x3",
      "blockHash": "0xda09b3dd03f450c893f95f86713647c88ea4b6f0f68b894a8ed844fd4e694076",
      "blockNumber": "0x29b07bf",
      "gasUsed": "0x10e4dd",
      "effectiveGasPrice": "0x7a121",
      "blobGasUsed": "0x111ed0",
      "from": "0x95606236867c2d3391f3dd2d3004efab08e819e4",
      "to": "0x4e59b44847b379578588920ca78fbf26c0b4956c",
      "contractAddress": null,
      "daFootprintGasScalar": "0x190",
      "l1BaseFeeScalar": "0x7d0",
      "l1BlobBaseFee": "0x3f1fbb3",
      "l1BlobBaseFeeScalar": "0xdbba0",
      "l1Fee": "0x3c94b145f7",
      "l1GasPrice": "0x3dc6cd09",
      "l1GasUsed": "0xaf5b"
    },
    {
      "status": "0x1",
      "cumulativeGasUsed": "0x24fc90",
      "logs": [],
      "logsBloom": "0x00000000000000000000000000000000000000000000000000000000000000000000000000000000000000000000000000000000000000000000000000000000000000000000000000000000000000000000000000000000000000000000000000000000000000000000000000000000000000000000000000000000000000000000000000000000000000000000000000000000000000000000000000000000000000000000000000000000000000000000000000000000000000000000000000000000000000000000000000000000000000000000000000000000000000000000000000000000000000000000000000000000000000000000000000000000",
      "type": "0x2",
      "transactionHash": "0x0f77afe0ca055e99322516849d25b51b198c6571ca487968bbb30708f5476497",
      "transactionIndex": "0x4",
      "blockHash": "0xda09b3dd03f450c893f95f86713647c88ea4b6f0f68b894a8ed844fd4e694076",
      "blockNumber": "0x29b07bf",
      "gasUsed": "0x1171cb",
      "effectiveGasPrice": "0x7a121",
      "blobGasUsed": "0x105860",
      "from": "0x95606236867c2d3391f3dd2d3004efab08e819e4",
      "to": null,
      "contractAddress": "0x4da7f7cfa267aeb3a76b758eff6ee95bcfa285c7",
      "daFootprintGasScalar": "0x190",
      "l1BaseFeeScalar": "0x7d0",
      "l1BlobBaseFee": "0x3f1fbb3",
      "l1BlobBaseFeeScalar": "0xdbba0",
      "l1Fee": "0x39d5df69f8",
      "l1GasPrice": "0x3dc6cd09",
      "l1GasUsed": "0xa768"
    },
    {
      "status": "0x1",
      "cumulativeGasUsed": "0x33832d",
      "logs": [],
      "logsBloom": "0x00000000000000000000000000000000000000000000000000000000000000000000000000000000000000000000000000000000000000000000000000000000000000000000000000000000000000000000000000000000000000000000000000000000000000000000000000000000000000000000000000000000000000000000000000000000000000000000000000000000000000000000000000000000000000000000000000000000000000000000000000000000000000000000000000000000000000000000000000000000000000000000000000000000000000000000000000000000000000000000000000000000000000000000000000000000",
      "type": "0x2",
      "transactionHash": "0xe9290c7c6d18518794c13895b8dd25967b2d015dc3190478786abf317c9abcea",
      "transactionIndex": "0x5",
      "blockHash": "0xda09b3dd03f450c893f95f86713647c88ea4b6f0f68b894a8ed844fd4e694076",
      "blockNumber": "0x29b07bf",
      "gasUsed": "0xe869d",
      "effectiveGasPrice": "0x7a121",
      "blobGasUsed": "0x100d60",
      "from": "0x95606236867c2d3391f3dd2d3004efab08e819e4",
      "to": null,
      "contractAddress": "0xc4d6d0f105a4327daf5eb08e8755fea88b6c12f7",
      "daFootprintGasScalar": "0x190",
      "l1BaseFeeScalar": "0x7d0",
      "l1BlobBaseFee": "0x3f1fbb3",
      "l1BlobBaseFeeScalar": "0xdbba0",
      "l1Fee": "0x38c9b1052e",
      "l1GasPrice": "0x3dc6cd09",
      "l1GasUsed": "0xa460"
    },
    {
      "status": "0x1",
      "cumulativeGasUsed": "0x3d7187",
      "logs": [],
      "logsBloom": "0x00000000000000000000000000000000000000000000000000000000000000000000000000000000000000000000000000000000000000000000000000000000000000000000000000000000000000000000000000000000000000000000000000000000000000000000000000000000000000000000000000000000000000000000000000000000000000000000000000000000000000000000000000000000000000000000000000000000000000000000000000000000000000000000000000000000000000000000000000000000000000000000000000000000000000000000000000000000000000000000000000000000000000000000000000000000",
      "type": "0x2",
      "transactionHash": "0x467868d67ca41085e62a974e9c2ffb26ab24b13b3337b73cca782d09c24ccebb",
      "transactionIndex": "0x6",
      "blockHash": "0xda09b3dd03f450c893f95f86713647c88ea4b6f0f68b894a8ed844fd4e694076",
      "blockNumber": "0x29b07bf",
      "gasUsed": "0x9ee5a",
      "effectiveGasPrice": "0x7a121",
      "blobGasUsed": "0xb6850",
      "from": "0x95606236867c2d3391f3dd2d3004efab08e819e4",
      "to": null,
      "contractAddress": "0x0ad44ccdbcff9ca679e1013e8c7f0f5a10626ad4",
      "daFootprintGasScalar": "0x190",
      "l1BaseFeeScalar": "0x7d0",
      "l1BlobBaseFee": "0x3f1fbb3",
      "l1BlobBaseFeeScalar": "0xdbba0",
      "l1Fee": "0x285ea4f412",
      "l1GasPrice": "0x3dc6cd09",
      "l1GasUsed": "0x74da"
    },
    {
      "status": "0x1",
      "cumulativeGasUsed": "0x4f3091",
      "logs": [],
      "logsBloom": "0x00000000000000000000000000000000000000000000000000000000000000000000000000000000000000000000000000000000000000000000000000000000000000000000000000000000000000000000000000000000000000000000000000000000000000000000000000000000000000000000000000000000000000000000000000000000000000000000000000000000000000000000000000000000000000000000000000000000000000000000000000000000000000000000000000000000000000000000000000000000000000000000000000000000000000000000000000000000000000000000000000000000000000000000000000000000",
      "type": "0x2",
      "transactionHash": "0x273d4c6800445e591c27b3eb6489137b6cad00cbbd5702b384e8d5c57a0d17fe",
      "transactionIndex": "0xa",
      "blockHash": "0xda09b3dd03f450c893f95f86713647c88ea4b6f0f68b894a8ed844fd4e694076",
      "blockNumber": "0x29b07bf",
      "gasUsed": "0xd6e98",
      "effectiveGasPrice": "0x7a121",
      "blobGasUsed": "0xe5010",
      "from": "0x95606236867c2d3391f3dd2d3004efab08e819e4",
      "to": null,
      "contractAddress": "0x7a642d521829b080e5fb34120bccf777e485a365",
      "daFootprintGasScalar": "0x190",
      "l1BaseFeeScalar": "0x7d0",
      "l1BlobBaseFee": "0x3f1fbb3",
      "l1BlobBaseFeeScalar": "0xdbba0",
      "l1Fee": "0x32a5983ac5",
      "l1GasPrice": "0x3dc6cd09",
      "l1GasUsed": "0x9299"
    },
    {
      "status": "0x1",
      "cumulativeGasUsed": "0x4fdbb9",
      "logs": [],
      "logsBloom": "0x00000000000000000000000000000000000000000000000000000000000000000000000000000000000000000000000000000000000000000000000000000000000000000000000000000000000000000000000000000000000000000000000000000000000000000000000000000000000000000000000000000000000000000000000000000000000000000000000000000000000000000000000000000000000000000000000000000000000000000000000000000000000000000000000000000000000000000000000000000000000000000000000000000000000000000000000000000000000000000000000000000000000000000000000000000000",
      "type": "0x2",
      "transactionHash": "0xda85304d540db2fbd11a6c2fc7ae6186c08cdcb24417453b486e1d52fbae8a86",
      "transactionIndex": "0xb",
      "blockHash": "0xda09b3dd03f450c893f95f86713647c88ea4b6f0f68b894a8ed844fd4e694076",
      "blockNumber": "0x29b07bf",
      "gasUsed": "0xab28",
      "effectiveGasPrice": "0x7a121",
      "blobGasUsed": "0x9c40",
      "from": "0x95606236867c2d3391f3dd2d3004efab08e819e4",
      "to": "0x0ad44ccdbcff9ca679e1013e8c7f0f5a10626ad4",
      "contractAddress": null,
      "daFootprintGasScalar": "0x190",
      "l1BaseFeeScalar": "0x7d0",
      "l1BlobBaseFee": "0x3f1fbb3",
      "l1BlobBaseFeeScalar": "0xdbba0",
      "l1Fee": "0x228c1d9d7",
      "l1GasPrice": "0x3dc6cd09",
      "l1GasUsed": "0x640"
    },
    {
      "status": "0x1",
      "cumulativeGasUsed": "0x520405",
      "logs": [
        {
          "address": "0x4b2a81ccf2d7c7532191846b517fd4f082f906c0",
          "topics": [
            "0x81639ab8f3fbb025b1e08849071d6ba211e0153cc8c447680595775116b67a1a",
            "0x0000000000000000000000004da7f7cfa267aeb3a76b758eff6ee95bcfa285c7"
          ],
          "data": "0x",
          "blockHash": "0xda09b3dd03f450c893f95f86713647c88ea4b6f0f68b894a8ed844fd4e694076",
          "blockNumber": "0x29b07bf",
          "blockTimestamp": "0x6988b50b",
          "transactionHash": "0x5377745c3e0864d91dfa546801cb982e315a5376994f4855acb2b3ba6a105c2a",
          "transactionIndex": "0xd",
          "logIndex": "0x5",
          "removed": false
        }
      ],
      "logsBloom": "0x00000000000000004000000000000000000800000020000000000000000000000001000000000000000000000000000000000000000000008000000000000000000000000000000000000000000000000000000000000000000000000000000000000000000000000000000000000000000000000000000000000000000000000000000000000000000800000000000000000000000000000000000000000000000000000000000000000000080000000000000000000000000000000000000000000000000040000000000000000000000000100000000000000000000000000000000000000000000000000000000000000000000000000000000000000000",
      "type": "0x2",
      "transactionHash": "0x5377745c3e0864d91dfa546801cb982e315a5376994f4855acb2b3ba6a105c2a",
      "transactionIndex": "0xd",
      "blockHash": "0xda09b3dd03f450c893f95f86713647c88ea4b6f0f68b894a8ed844fd4e694076",
      "blockNumber": "0x29b07bf",
      "gasUsed": "0xb826",
      "effectiveGasPrice": "0x7a121",
      "blobGasUsed": "0x9c40",
      "from": "0x95606236867c2d3391f3dd2d3004efab08e819e4",
      "to": "0x4b2a81ccf2d7c7532191846b517fd4f082f906c0",
      "contractAddress": null,
      "daFootprintGasScalar": "0x190",
      "l1BaseFeeScalar": "0x7d0",
      "l1BlobBaseFee": "0x3f1fbb3",
      "l1BlobBaseFeeScalar": "0xdbba0",
      "l1Fee": "0x228c1d9d7",
      "l1GasPrice": "0x3dc6cd09",
      "l1GasUsed": "0x640"
    },
    {
      "status": "0x1",
      "cumulativeGasUsed": "0x52bc2b",
      "logs": [
        {
          "address": "0x4b2a81ccf2d7c7532191846b517fd4f082f906c0",
          "topics": [
            "0x81639ab8f3fbb025b1e08849071d6ba211e0153cc8c447680595775116b67a1a",
            "0x000000000000000000000000c4d6d0f105a4327daf5eb08e8755fea88b6c12f7"
          ],
          "data": "0x",
          "blockHash": "0xda09b3dd03f450c893f95f86713647c88ea4b6f0f68b894a8ed844fd4e694076",
          "blockNumber": "0x29b07bf",
          "blockTimestamp": "0x6988b50b",
          "transactionHash": "0x385bb694bef235e0c0d6ae0ecb340627354f503cc44b6b1e8454d18fe9f80063",
          "transactionIndex": "0xe",
          "logIndex": "0x6",
          "removed": false
        }
      ],
      "logsBloom": "0x00000000000000004000000000000000000800000020000000000000000000000000000000000000000000000000000000000000000000000000000000000000000000000000000000000000000000000000000000000000000000000000000000000000000000000000000000000000000000000000000000000000000000000000000000000000000004000000000000000000000000000000000000000000000000000000000000000000080000000000000000000080000000000000000000000000000040000000000000000000000001100000000000000000000000000000000000000000000000000000000000000000000000000000000000000000",
      "type": "0x2",
      "transactionHash": "0x385bb694bef235e0c0d6ae0ecb340627354f503cc44b6b1e8454d18fe9f80063",
      "transactionIndex": "0xe",
      "blockHash": "0xda09b3dd03f450c893f95f86713647c88ea4b6f0f68b894a8ed844fd4e694076",
      "blockNumber": "0x29b07bf",
      "gasUsed": "0xb826",
      "effectiveGasPrice": "0x7a121",
      "blobGasUsed": "0x9c40",
      "from": "0x95606236867c2d3391f3dd2d3004efab08e819e4",
      "to": "0x4b2a81ccf2d7c7532191846b517fd4f082f906c0",
      "contractAddress": null,
      "daFootprintGasScalar": "0x190",
      "l1BaseFeeScalar": "0x7d0",
      "l1BlobBaseFee": "0x3f1fbb3",
      "l1BlobBaseFeeScalar": "0xdbba0",
      "l1Fee": "0x228c1d9d7",
      "l1GasPrice": "0x3dc6cd09",
      "l1GasUsed": "0x640"
    },
    {
      "status": "0x1",
      "cumulativeGasUsed": "0x5328e3",
      "logs": [
        {
          "address": "0x4200000000000000000000000000000000000006",
          "topics": [
            "0xe1fffcc4923d04b559f4d29a8bfc6cda04eb5b0d3c460751c2402c5c5cc9109c",
            "0x00000000000000000000000095606236867c2d3391f3dd2d3004efab08e819e4"
          ],
          "data": "0x000000000000000000000000000000000000000000000000006a94d74f430000",
          "blockHash": "0xda09b3dd03f450c893f95f86713647c88ea4b6f0f68b894a8ed844fd4e694076",
          "blockNumber": "0x29b07bf",
          "blockTimestamp": "0x6988b50b",
          "transactionHash": "0x9777adba2cdc5cfa7f661e94d7482d8e071a2701fee92670210e657e979488f3",
          "transactionIndex": "0xf",
          "logIndex": "0x7",
          "removed": false
        }
      ],
      "logsBloom": "0x00000001000000000000000000000000000000000040000000040000000000000000000000000000000000100000000000000000000000000000000000000000000000000000000000000000000000000000000000000000000000008000000000000000000000000000000000000000000000000000000000000000000000000000000000000000000000000000000000000001002000000000000000000000000000000000000000000000000000000000000000000000000000000000000000000000000000000000000000000000000000200000000000000000000000000000000000000000000000000000000000000000000000400000000000000000",
      "type": "0x2",
      "transactionHash": "0x9777adba2cdc5cfa7f661e94d7482d8e071a2701fee92670210e657e979488f3",
      "transactionIndex": "0xf",
      "blockHash": "0xda09b3dd03f450c893f95f86713647c88ea4b6f0f68b894a8ed844fd4e694076",
      "blockNumber": "0x29b07bf",
      "gasUsed": "0x6cb8",
      "effectiveGasPrice": "0x7a121",
      "blobGasUsed": "0x9c40",
      "from": "0x95606236867c2d3391f3dd2d3004efab08e819e4",
      "to": "0x4200000000000000000000000000000000000006",
      "contractAddress": null,
      "daFootprintGasScalar": "0x190",
      "l1BaseFeeScalar": "0x7d0",
      "l1BlobBaseFee": "0x3f1fbb3",
      "l1BlobBaseFeeScalar": "0xdbba0",
      "l1Fee": "0x228c1d9d7",
      "l1GasPrice": "0x3dc6cd09",
      "l1GasUsed": "0x640"
    },
    {
      "status": "0x1",
      "cumulativeGasUsed": "0x53de64",
      "logs": [
        {
          "address": "0x4200000000000000000000000000000000000006",
          "topics": [
            "0x8c5be1e5ebec7d5bd14f71427d1e84f3dd0314c0f7b2291e5b200ac8c7c3b925",
            "0x00000000000000000000000095606236867c2d3391f3dd2d3004efab08e819e4",
            "0x0000000000000000000000004da7f7cfa267aeb3a76b758eff6ee95bcfa285c7"
          ],
          "data": "0xffffffffffffffffffffffffffffffffffffffffffffffffffffffffffffffff",
          "blockHash": "0xda09b3dd03f450c893f95f86713647c88ea4b6f0f68b894a8ed844fd4e694076",
          "blockNumber": "0x29b07bf",
          "blockTimestamp": "0x6988b50b",
          "transactionHash": "0xb0864f7a9034e6b178e0bc1424a015aee4bf99ee2a693665ca1bef09c2e071f7",
          "transactionIndex": "0x10",
          "logIndex": "0x8",
          "removed": false
        }
      ],
      "logsBloom": "0x00000001000000000000000000000000000000000040000000040000000000000001000000000000000000100000000000000000000000008000000000200000000000000000000000000000000000000000000000000000000000000000000000000000000000000000000000000000000000000000000000000000000000000000000000000000000800000000000000000000002000000000000000000000020000000000000000000000000000000000000000000000000000000000000000000000000000000000000000000000000000200000000000000000000000000010000000000000000000000000000000000000000000000000000000000000",
      "type": "0x2",
      "transactionHash": "0xb0864f7a9034e6b178e0bc1424a015aee4bf99ee2a693665ca1bef09c2e071f7",
      "transactionIndex": "0x10",
      "blockHash": "0xda09b3dd03f450c893f95f86713647c88ea4b6f0f68b894a8ed844fd4e694076",
      "blockNumber": "0x29b07bf",
      "gasUsed": "0xb581",
      "effectiveGasPrice": "0x7a121",
      "blobGasUsed": "0x9c40",
      "from": "0x95606236867c2d3391f3dd2d3004efab08e819e4",
      "to": "0x4200000000000000000000000000000000000006",
      "contractAddress": null,
      "daFootprintGasScalar": "0x190",
      "l1BaseFeeScalar": "0x7d0",
      "l1BlobBaseFee": "0x3f1fbb3",
      "l1BlobBaseFeeScalar": "0xdbba0",
      "l1Fee": "0x228c1d9d7",
      "l1GasPrice": "0x3dc6cd09",
      "l1GasUsed": "0x640"
    },
    {
      "status": "0x1",
      "cumulativeGasUsed": "0x54b84d",
      "logs": [
        {
          "address": "0x31d0220469e10c4e71834a79b1f276d740d3768f",
          "topics": [
            "0x8c5be1e5ebec7d5bd14f71427d1e84f3dd0314c0f7b2291e5b200ac8c7c3b925",
            "0x00000000000000000000000095606236867c2d3391f3dd2d3004efab08e819e4",
            "0x0000000000000000000000004da7f7cfa267aeb3a76b758eff6ee95bcfa285c7"
          ],
          "data": "0xffffffffffffffffffffffffffffffffffffffffffffffffffffffffffffffff",
          "blockHash": "0xda09b3dd03f450c893f95f86713647c88ea4b6f0f68b894a8ed844fd4e694076",
          "blockNumber": "0x29b07bf",
          "blockTimestamp": "0x6988b50b",
          "transactionHash": "0x2ea7e291d32fe8e3b930c0ba02284539e6d0fc6665122288653f871e8bbe6e22",
          "transactionIndex": "0x11",
          "logIndex": "0x9",
          "removed": false
        }
      ],
      "logsBloom": "0x00000001000000000000000000000000000000000040000000000000000000000001000000000000000000000000000000000000000000008000000000200000000000000000000000000000000000000000000000001000000000000000000000000000000000000000000000000000000000000000000000000000000000000000000000000000000800000000000000000000000000000000000000000000020000000001000080000000000000000000000000000000000000000000000000000000000000000000000000000000000000200000000000000000000000000010000000000000000000000000000000000000000000000000000000000000",
      "type": "0x2",
      "transactionHash": "0x2ea7e291d32fe8e3b930c0ba02284539e6d0fc6665122288653f871e8bbe6e22",
      "transactionIndex": "0x11",
      "blockHash": "0xda09b3dd03f450c893f95f86713647c88ea4b6f0f68b894a8ed844fd4e694076",
      "blockNumber": "0x29b07bf",
      "gasUsed": "0xd9e9",
      "effectiveGasPrice": "0x7a121",
      "blobGasUsed": "0x9c40",
      "from": "0x95606236867c2d3391f3dd2d3004efab08e819e4",
      "to": "0x31d0220469e10c4e71834a79b1f276d740d3768f",
      "contractAddress": null,
      "daFootprintGasScalar": "0x190",
      "l1BaseFeeScalar": "0x7d0",
      "l1BlobBaseFee": "0x3f1fbb3",
      "l1BlobBaseFeeScalar": "0xdbba0",
      "l1Fee": "0x228c1d9d7",
      "l1GasPrice": "0x3dc6cd09",
      "l1GasUsed": "0x640"
    },
    {
      "status": "0x1",
      "cumulativeGasUsed": "0x556dce",
      "logs": [
        {
          "address": "0x4200000000000000000000000000000000000006",
          "topics": [
            "0x8c5be1e5ebec7d5bd14f71427d1e84f3dd0314c0f7b2291e5b200ac8c7c3b925",
            "0x00000000000000000000000095606236867c2d3391f3dd2d3004efab08e819e4",
            "0x000000000000000000000000c4d6d0f105a4327daf5eb08e8755fea88b6c12f7"
          ],
          "data": "0xffffffffffffffffffffffffffffffffffffffffffffffffffffffffffffffff",
          "blockHash": "0xda09b3dd03f450c893f95f86713647c88ea4b6f0f68b894a8ed844fd4e694076",
          "blockNumber": "0x29b07bf",
          "blockTimestamp": "0x6988b50b",
          "transactionHash": "0xe63670df495e424a25bd5bf912d06d4d42cf43cf4950e1363ad1877937f98865",
          "transactionIndex": "0x12",
          "logIndex": "0xa",
          "removed": false
        }
      ],
      "logsBloom": "0x00000001000000000000000000000000000000000040000000040000000000000000000000000000000000100000000000000000000000000000000000200000000000000000000000000000000000000000000000000000000000000000000000000000000000000000000000000000000000000000000000000000000000000000000000000000000004000000000000000000002000000000000000000000020000000000000000000000000000000000000000000080000000000000000000000000000000000000000000000000000001200000000000000000000000000010000000000000000000000000000000000000000000000000000000000000",
      "type": "0x2",
      "transactionHash": "0xe63670df495e424a25bd5bf912d06d4d42cf43cf4950e1363ad1877937f98865",
      "transactionIndex": "0x12",
      "blockHash": "0xda09b3dd03f450c893f95f86713647c88ea4b6f0f68b894a8ed844fd4e694076",
      "blockNumber": "0x29b07bf",
      "gasUsed": "0xb581",
      "effectiveGasPrice": "0x7a121",
      "blobGasUsed": "0x9c40",
      "from": "0x95606236867c2d3391f3dd2d3004efab08e819e4",
      "to": "0x4200000000000000000000000000000000000006",
      "contractAddress": null,
      "daFootprintGasScalar": "0x190",
      "l1BaseFeeScalar": "0x7d0",
      "l1BlobBaseFee": "0x3f1fbb3",
      "l1BlobBaseFeeScalar": "0xdbba0",
      "l1Fee": "0x228c1d9d7",
      "l1GasPrice": "0x3dc6cd09",
      "l1GasUsed": "0x640"
    },
    {
      "status": "0x1",
      "cumulativeGasUsed": "0x5647b7",
      "logs": [
        {
          "address": "0x31d0220469e10c4e71834a79b1f276d740d3768f",
          "topics": [
            "0x8c5be1e5ebec7d5bd14f71427d1e84f3dd0314c0f7b2291e5b200ac8c7c3b925",
            "0x00000000000000000000000095606236867c2d3391f3dd2d3004efab08e819e4",
            "0x000000000000000000000000c4d6d0f105a4327daf5eb08e8755fea88b6c12f7"
          ],
          "data": "0xffffffffffffffffffffffffffffffffffffffffffffffffffffffffffffffff",
          "blockHash": "0xda09b3dd03f450c893f95f86713647c88ea4b6f0f68b894a8ed844fd4e694076",
          "blockNumber": "0x29b07bf",
          "blockTimestamp": "0x6988b50b",
          "transactionHash": "0x6076bcb291b396b6964a9e21f40769430661fe10e2def71876f0903d10ffc78c",
          "transactionIndex": "0x13",
          "logIndex": "0xb",
          "removed": false
        }
      ],
      "logsBloom": "0x00000001000000000000000000000000000000000040000000000000000000000000000000000000000000000000000000000000000000000000000000200000000000000000000000000000000000000000000000001000000000000000000000000000000000000000000000000000000000000000000000000000000000000000000000000000000004000000000000000000000000000000000000000000020000000001000080000000000000000000000000000080000000000000000000000000000000000000000000000000000001200000000000000000000000000010000000000000000000000000000000000000000000000000000000000000",
      "type": "0x2",
      "transactionHash": "0x6076bcb291b396b6964a9e21f40769430661fe10e2def71876f0903d10ffc78c",
      "transactionIndex": "0x13",
      "blockHash": "0xda09b3dd03f450c893f95f86713647c88ea4b6f0f68b894a8ed844fd4e694076",
      "blockNumber": "0x29b07bf",
      "gasUsed": "0xd9e9",
      "effectiveGasPrice": "0x7a121",
      "blobGasUsed": "0x9c40",
      "from": "0x95606236867c2d3391f3dd2d3004efab08e819e4",
      "to": "0x31d0220469e10c4e71834a79b1f276d740d3768f",
      "contractAddress": null,
      "daFootprintGasScalar": "0x190",
      "l1BaseFeeScalar": "0x7d0",
      "l1BlobBaseFee": "0x3f1fbb3",
      "l1BlobBaseFeeScalar": "0xdbba0",
      "l1Fee": "0x228c1d9d7",
      "l1GasPrice": "0x3dc6cd09",
      "l1GasUsed": "0x640"
    },
    {
      "status": "0x1",
      "cumulativeGasUsed": "0x56fd38",
      "logs": [
        {
          "address": "0x4200000000000000000000000000000000000006",
          "topics": [
            "0x8c5be1e5ebec7d5bd14f71427d1e84f3dd0314c0f7b2291e5b200ac8c7c3b925",
            "0x00000000000000000000000095606236867c2d3391f3dd2d3004efab08e819e4",
            "0x0000000000000000000000007a642d521829b080e5fb34120bccf777e485a365"
          ],
          "data": "0xffffffffffffffffffffffffffffffffffffffffffffffffffffffffffffffff",
          "blockHash": "0xda09b3dd03f450c893f95f86713647c88ea4b6f0f68b894a8ed844fd4e694076",
          "blockNumber": "0x29b07bf",
          "blockTimestamp": "0x6988b50b",
          "transactionHash": "0xd41f2cc0566069b35badd6fd6c29032e02d7f4e7e28c9a09a7a5f2b5b9b96c52",
          "transactionIndex": "0x14",
          "logIndex": "0xc",
          "removed": false
        }
      ],
      "logsBloom": "0x00000001000000000008000000000000000000000040000000040000000000000000000000000000000000100000000000000000000000000000000000200000000000000000000000000000000000000000000000000000000000000000000000000000000000000000000000000000000000000000000000000000000000000000000000000000000000000000000000000000002000000000000000000000020000000000000002000000000000000000000000000008000000000000000000000000000000000000000000000000000000200000000000000000000000000010000000000000000000000000000000000000000000000000000000000000",
      "type": "0x2",
      "transactionHash": "0xd41f2cc0566069b35badd6fd6c29032e02d7f4e7e28c9a09a7a5f2b5b9b96c52",
      "transactionIndex": "0x14",
      "blockHash": "0xda09b3dd03f450c893f95f86713647c88ea4b6f0f68b894a8ed844fd4e694076",
      "blockNumber": "0x29b07bf",
      "gasUsed": "0xb581",
      "effectiveGasPrice": "0x7a121",
      "blobGasUsed": "0x9c40",
      "from": "0x95606236867c2d3391f3dd2d3004efab08e819e4",
      "to": "0x4200000000000000000000000000000000000006",
      "contractAddress": null,
      "daFootprintGasScalar": "0x190",
      "l1BaseFeeScalar": "0x7d0",
      "l1BlobBaseFee": "0x3f1fbb3",
      "l1BlobBaseFeeScalar": "0xdbba0",
      "l1Fee": "0x228c1d9d7",
      "l1GasPrice": "0x3dc6cd09",
      "l1GasUsed": "0x640"
    },
    {
      "status": "0x1",
      "cumulativeGasUsed": "0x57c659",
      "logs": [
        {
          "address": "0x00b036b58a818b1bc34d502d3fe730db729e62ac",
          "topics": [
            "0xdd466e674ea557f56295e2d0218a125ea4b4f0f6f3307b95f85e6110838d6438",
            "0x29c498b10478eaf8868b41aa6cae5885d037a56f989020c0791c15e22c82a669",
            "0x00000000000000000000000031d0220469e10c4e71834a79b1f276d740d3768f",
            "0x0000000000000000000000004200000000000000000000000000000000000006"
          ],
          "data": "0x0000000000000000000000000000000000000000000000000000000000000bb8000000000000000000000000000000000000000000000000000000000000003c0000000000000000000000004b2a81ccf2d7c7532191846b517fd4f082f906c000000000000000000000000000000000000000010000000000000000000000000000000000000000000000000000000000000000000000000000000000000000",
          "blockHash": "0xda09b3dd03f450c893f95f86713647c88ea4b6f0f68b894a8ed844fd4e694076",
          "blockNumber": "0x29b07bf",
          "blockTimestamp": "0x6988b50b",
          "transactionHash": "0xa75e13863e1dd411cfeeb082891a3d5cfa3ba74297ea184f0f1a2da8d5e2f58c",
          "transactionIndex": "0x15",
          "logIndex": "0xd",
          "removed": false
        }
      ],
      "logsBloom": "0x00000000000000000000000000000000000000000000000000000000000000000000000000000080000000000000000000000000000000000020000000000000000000000000000000000000000000000000000000000000000000000000000000000000000000000000000000000000000010000000000000000000000000000000000000000008001000000008000000000001000000000000000000200000000000000000000000000000000000000001000000000000000000000000000000000000000004008000000000000000000000010000000000000000000000000000000000001000000000000000000000000000000002000000000000000010",
      "type": "0x2",
      "transactionHash": "0xa75e13863e1dd411cfeeb082891a3d5cfa3ba74297ea184f0f1a2da8d5e2f58c",
      "transactionIndex": "0x15",
      "blockHash": "0xda09b3dd03f450c893f95f86713647c88ea4b6f0f68b894a8ed844fd4e694076",
      "blockNumber": "0x29b07bf",
      "gasUsed": "0xc921",
      "effectiveGasPrice": "0x7a121",
      "blobGasUsed": "0xce40",
      "from": "0x95606236867c2d3391f3dd2d3004efab08e819e4",
      "to": "0x00b036b58a818b1bc34d502d3fe730db729e62ac",
      "contractAddress": null,
      "daFootprintGasScalar": "0x190",
      "l1BaseFeeScalar": "0x7d0",
      "l1BlobBaseFee": "0x3f1fbb3",
      "l1BlobBaseFeeScalar": "0xdbba0",
      "l1Fee": "0x2dafb70e2",
      "l1GasPrice": "0x3dc6cd09",
      "l1GasUsed": "0x843"
    },
    {
      "status": "0x1",
      "cumulativeGasUsed": "0x5eecdd",
      "logs": [
        {
          "address": "0x00b036b58a818b1bc34d502d3fe730db729e62ac",
          "topics": [
            "0xf208f4912782fd25c7f114ca3723a2d5dd6f3bcc3ac8db5af63baa85f711d5ec",
            "0x29c498b10478eaf8868b41aa6cae5885d037a56f989020c0791c15e22c82a669",
            "0x000000000000000000000000c4d6d0f105a4327daf5eb08e8755fea88b6c12f7"
          ],
          "data": "0xffffffffffffffffffffffffffffffffffffffffffffffffffffffffffffff88000000000000000000000000000000000000000000000000000000000000007800000000000000000000000000000000000000000000000000000000773594000000000000000000000000000000000000000000000000000000000000000001",
          "blockHash": "0xda09b3dd03f450c893f95f86713647c88ea4b6f0f68b894a8ed844fd4e694076",
          "blockNumber": "0x29b07bf",
          "blockTimestamp": "0x6988b50b",
          "transactionHash": "0xe2c4b09cfe73ef79eb382df0c751b475785aab15a1e49f7a6a0b8919012243f8",
          "transactionIndex": "0x16",
          "logIndex": "0xe",
          "removed": false
        },
        {
          "address": "0x4b2a81ccf2d7c7532191846b517fd4f082f906c0",
          "topics": [
            "0xbfa58399b4447e933d353f718fb884c25d8d9937694b69fac7df73e7c677fb33",
            "0x29c498b10478eaf8868b41aa6cae5885d037a56f989020c0791c15e22c82a669",
            "0x000000000000000000000000c4d6d0f105a4327daf5eb08e8755fea88b6c12f7"
          ],
          "data": "0xffffffffffffffffffffffffffffffffffffffffffffffffffffffffffffff8800000000000000000000000000000000000000000000000000000000000000780000000000000000000000000000000000000000000000000000000000000001",
          "blockHash": "0xda09b3dd03f450c893f95f86713647c88ea4b6f0f68b894a8ed844fd4e694076",
          "blockNumber": "0x29b07bf",
          "blockTimestamp": "0x6988b50b",
          "transactionHash": "0xe2c4b09cfe73ef79eb382df0c751b475785aab15a1e49f7a6a0b8919012243f8",
          "transactionIndex": "0x16",
          "logIndex": "0xf",
          "removed": false
        },
        {
          "address": "0x00b036b58a818b1bc34d502d3fe730db729e62ac",
          "topics": [
            "0xf208f4912782fd25c7f114ca3723a2d5dd6f3bcc3ac8db5af63baa85f711d5ec",
            "0x29c498b10478eaf8868b41aa6cae5885d037a56f989020c0791c15e22c82a669",
            "0x000000000000000000000000c4d6d0f105a4327daf5eb08e8755fea88b6c12f7"
          ],
          "data": "0xffffffffffffffffffffffffffffffffffffffffffffffffffffffffffffff88000000000000000000000000000000000000000000000000000000000000007800000000000000000000000000000000000000000000000000000000773594000000000000000000000000000000000000000000000000000000000000000002",
          "blockHash": "0xda09b3dd03f450c893f95f86713647c88ea4b6f0f68b894a8ed844fd4e694076",
          "blockNumber": "0x29b07bf",
          "blockTimestamp": "0x6988b50b",
          "transactionHash": "0xe2c4b09cfe73ef79eb382df0c751b475785aab15a1e49f7a6a0b8919012243f8",
          "transactionIndex": "0x16",
          "logIndex": "0x10",
          "removed": false
        },
        {
          "address": "0x4b2a81ccf2d7c7532191846b517fd4f082f906c0",
          "topics": [
            "0xbfa58399b4447e933d353f718fb884c25d8d9937694b69fac7df73e7c677fb33",
            "0x29c498b10478eaf8868b41aa6cae5885d037a56f989020c0791c15e22c82a669",
            "0x000000000000000000000000c4d6d0f105a4327daf5eb08e8755fea88b6c12f7"
          ],
          "data": "0xffffffffffffffffffffffffffffffffffffffffffffffffffffffffffffff8800000000000000000000000000000000000000000000000000000000000000780000000000000000000000000000000000000000000000000000000000000002",
          "blockHash": "0xda09b3dd03f450c893f95f86713647c88ea4b6f0f68b894a8ed844fd4e694076",
          "blockNumber": "0x29b07bf",
          "blockTimestamp": "0x6988b50b",
          "transactionHash": "0xe2c4b09cfe73ef79eb382df0c751b475785aab15a1e49f7a6a0b8919012243f8",
          "transactionIndex": "0x16",
          "logIndex": "0x11",
          "removed": false
        },
        {
          "address": "0x00b036b58a818b1bc34d502d3fe730db729e62ac",
          "topics": [
            "0xf208f4912782fd25c7f114ca3723a2d5dd6f3bcc3ac8db5af63baa85f711d5ec",
            "0x29c498b10478eaf8868b41aa6cae5885d037a56f989020c0791c15e22c82a669",
            "0x000000000000000000000000c4d6d0f105a4327daf5eb08e8755fea88b6c12f7"
          ],
          "data": "0xffffffffffffffffffffffffffffffffffffffffffffffffffffffffffffff88000000000000000000000000000000000000000000000000000000000000007800000000000000000000000000000000000000000000000000000000773594000000000000000000000000000000000000000000000000000000000000000003",
          "blockHash": "0xda09b3dd03f450c893f95f86713647c88ea4b6f0f68b894a8ed844fd4e694076",
          "blockNumber": "0x29b07bf",
          "blockTimestamp": "0x6988b50b",
          "transactionHash": "0xe2c4b09cfe73ef79eb382df0c751b475785aab15a1e49f7a6a0b8919012243f8",
          "transactionIndex": "0x16",
          "logIndex": "0x12",
          "removed": false
        },
        {
          "address": "0x4b2a81ccf2d7c7532191846b517fd4f082f906c0",
          "topics": [
            "0xbfa58399b4447e933d353f718fb884c25d8d9937694b69fac7df73e7c677fb33",
            "0x29c498b10478eaf8868b41aa6cae5885d037a56f989020c0791c15e22c82a669",
            "0x000000000000000000000000c4d6d0f105a4327daf5eb08e8755fea88b6c12f7"
          ],
          "data": "0xffffffffffffffffffffffffffffffffffffffffffffffffffffffffffffff8800000000000000000000000000000000000000000000000000000000000000780000000000000000000000000000000000000000000000000000000000000003",
          "blockHash": "0xda09b3dd03f450c893f95f86713647c88ea4b6f0f68b894a8ed844fd4e694076",
          "blockNumber": "0x29b07bf",
          "blockTimestamp": "0x6988b50b",
          "transactionHash": "0xe2c4b09cfe73ef79eb382df0c751b475785aab15a1e49f7a6a0b8919012243f8",
          "transactionIndex": "0x16",
          "logIndex": "0x13",
          "removed": false
        },
        {
          "address": "0x31d0220469e10c4e71834a79b1f276d740d3768f",
          "topics": [
            "0xddf252ad1be2c89b69c2b068fc378daa952ba7f163c4a11628f55a4df523b3ef",
            "0x00000000000000000000000095606236867c2d3391f3dd2d3004efab08e819e4",
            "0x00000000000000000000000000b036b58a818b1bc34d502d3fe730db729e62ac"
          ],
          "data": "0x000000000000000000000000000000000000000000000000000000000223a4fc",
          "blockHash": "0xda09b3dd03f450c893f95f86713647c88ea4b6f0f68b894a8ed844fd4e694076",
          "blockNumber": "0x29b07bf",
          "blockTimestamp": "0x6988b50b",
          "transactionHash": "0xe2c4b09cfe73ef79eb382df0c751b475785aab15a1e49f7a6a0b8919012243f8",
          "transactionIndex": "0x16",
          "logIndex": "0x14",
          "removed": false
        },
        {
          "address": "0x4200000000000000000000000000000000000006",
          "topics": [
            "0xddf252ad1be2c89b69c2b068fc378daa952ba7f163c4a11628f55a4df523b3ef",
            "0x00000000000000000000000095606236867c2d3391f3dd2d3004efab08e819e4",
            "0x00000000000000000000000000b036b58a818b1bc34d502d3fe730db729e62ac"
          ],
          "data": "0x000000000000000000000000000000000000000000000000000000000223a4fc",
          "blockHash": "0xda09b3dd03f450c893f95f86713647c88ea4b6f0f68b894a8ed844fd4e694076",
          "blockNumber": "0x29b07bf",
          "blockTimestamp": "0x6988b50b",
          "transactionHash": "0xe2c4b09cfe73ef79eb382df0c751b475785aab15a1e49f7a6a0b8919012243f8",
          "transactionIndex": "0x16",
          "logIndex": "0x15",
          "removed": false
        }
      ],
      "logsBloom": "0x000000010000000000000000000000000008000000600000000400000000000000000000000000000000001000000000000000000010000000000000000000000000000000000000000000080000000000000000000010000000000000000000000000000000000000000000020040000000000000000000000000100000000000000000010000000010040000080000000000000020000000000000000000000000040000410000800000000000000000010000000000a0000000000000000000000002000040000000000000000000000001210000000000000000000000000000000000000000000000000000000004000000000002000000000000000010",
      "type": "0x2",
      "transactionHash": "0xe2c4b09cfe73ef79eb382df0c751b475785aab15a1e49f7a6a0b8919012243f8",
      "transactionIndex": "0x16",
      "blockHash": "0xda09b3dd03f450c893f95f86713647c88ea4b6f0f68b894a8ed844fd4e694076",
      "blockNumber": "0x29b07bf",
      "gasUsed": "0x72684",
      "effectiveGasPrice": "0x7a121",
      "blobGasUsed": "0x12a70",
      "from": "0x95606236867c2d3391f3dd2d3004efab08e819e4",
      "to": "0xc4d6d0f105a4327daf5eb08e8755fea88b6c12f7",
      "contractAddress": null,
      "daFootprintGasScalar": "0x190",
      "l1BaseFeeScalar": "0x7d0",
      "l1BlobBaseFee": "0x3f1fbb3",
      "l1BlobBaseFeeScalar": "0xdbba0",
      "l1Fee": "0x42345e36f",
      "l1GasPrice": "0x3dc6cd09",
      "l1GasUsed": "0xbfa"
    }
  ],
  "libraries": [],
  "pending": [],
  "returns": {},
  "timestamp": 1770566923941,
  "chain": 1301,
  "commit": null
}