{
  "transactions": [
    {
      "hash": "0x8ac3ebe7c768dd5bdd0f31fea8d4eb4035ddea69d808b7d2ae2898c1b4c92dca",
      "transactionType": "CREATE2",
      "contractName": "PrivacySwapHook",
      "contractAddress": "0x2131def8af1b70cf1b9b7525e525945e465ac6c0",
      "function": null,
      "arguments": [
        "0x00B036B58a818B1BC34d502D3fE730Db729e62AC",
        "5",
        "0x95606236867C2D3391F3dd2D3004EFAB08e819e4"
      ],
      "transaction": {
        "from": "0x95606236867c2d3391f3dd2d3004efab08e819e4",
        "to": "0x4e59b44847b379578588920ca78fbf26c0b4956c",
        "gas": "0x199b4b",
        "value": "0x0",
        "input": "0x00000000000000000000000000000000000000000000000000000000000055f260a03461011d57601f61141038819003918201601f19168301916001600160401b038311848410176101215780849260609460405283398101031261011d5780516001600160a01b038116919082810361011d5760208201519263ffffffff84169283850361011d5760400151916001600160a01b0383169182840361011d571561010e5760805215610107575b5f80546001600160a01b0319166001600160a01b03929092169190911790556100fc575063ffffffff60015b1663ffffffff1960025416176002556040516112da9081610136823960805181818161021a015281816104910152818161056301528181610836015261096f0152f35b63ffffffff906100b9565b503361008d565b63d92e233d60e01b5f5260045ffd5b5f80fd5b634e487b7160e01b5f52604160045260245ffdfe60806040526004361015610011575f80fd5b5f3560e01c806321d0ee701461095a57806324ca984e146108e4578063259982e5146108c2578063575e24b4146107e05780636ae0b154146107725780636c2bbe7e1461074e5780636fe7e6eb1461071657806375829def146106bc5780639f063efc1461054c578063b47b2fb11461043b578063b6a8b0fa146101c2578063b9662c8314610411578063c4e833ce146102a9578063c5b7cf9e14610286578063c646aee214610249578063dc4c90d314610205578063dc98354e146101c7578063e1b4af69146101c2578063e9702d2714610198578063f102391c1461012b5763f851a44014610100575f80fd5b34610127575f366003190112610127575f546040516001600160a01b039091168152602090f35b5f80fd5b346101275760203660031901126101275760043563ffffffff8116808203610127575f546001600160a01b031633036101895761017e575063ffffffff60015b1663ffffffff1960025416176002555f80f35b63ffffffff9061016b565b637bfa4b9f60e01b5f5260045ffd5b34610127576020366003190112610127576004355f526004602052602060405f2054604051908152f35b610b05565b346101275760e0366003190112610127576101e06109bc565b5060a0366023190112610127576101f5610adf565b5063d623472560e01b5f5260045ffd5b34610127575f366003190112610127576040517f00000000000000000000000000000000000000000000000000000000000000006001600160a01b03168152602090f35b34610127576020366003190112610127576001600160a01b0361026a6109bc565b165f526001602052602060ff60405f2054166040519015158152f35b34610127575f36600319011261012757602063ffffffff60025416604051908152f35b34610127575f366003190112610127575f6101a06040516102c981610b7b565b8281528260208201528260408201528260608201528260808201528260a08201528260c08201528260e0820152826101008201528261012082015282610140820152826101608201528261018082015201526101c0602060405161032c81610b7b565b5f8152818101905f8252604081015f81526060820160018152608083016001815260a084015f815260c085016001815260e0860190600182526101008701925f84526101208801945f86526101408901965f88526101608a01985f8a526101a06101808c019b5f8d52019b5f8d526040519d8e915f835251151591015251151560408d015251151560608c015251151560808b015251151560a08a015251151560c089015251151560e08801525115156101008701525115156101208601525115156101408501525115156101608401525115156101808301525115156101a0820152f35b34610127576020366003190112610127576004355f526003602052602060405f2054604051908152f35b3461012757610160366003190112610127576104556109bc565b60a03660231901126101275760603660c319011261012757610144356001600160401b0381116101275761048d9036906004016109e6565b90507f00000000000000000000000000000000000000000000000000000000000000006001600160a01b0316330361053d576104da575b6040805163b47b2fb160e01b81525f6020820152f35b60a06104e536610c03565b205f5260046020524360405f205560a06104fe36610c03565b206040514381526001600160a01b03909216917f22421962bfaa39dd537a12f6e9a519f79eea832ac6dfd20e0dc3d125c8eac29990602090a3806104c4565b63570c108560e11b5f5260045ffd5b346101275761055a36610a76565b509293925050507f00000000000000000000000000000000000000000000000000000000000000006001600160a01b0316330361053d575f6040830135136105b3575b604080516327c18fbf60e21b81525f6020820152f35b6105bd3682610c8a565b60a090206105ca83610d09565b938060208501956105da87610d09565b60408051602081019687526001600160a01b039490941690840152600291820b606080850191909152910b608083015285013560a08083018290528252929061062460c082610be2565b51902091825f52600360205260405f20541561067b60a06106747fbfa58399b4447e933d353f718fb884c25d8d9937694b69fac7df73e7c677fb3397606097610681956106a9575b503690610c8a565b2096610d09565b96610d09565b6040519660020b875260020b6020870152604086015260018060a01b031693a380808061059d565b5f5260036020524360405f20558b61066c565b34610127576020366003190112610127576106d56109bc565b5f54906001600160a01b0382163303610189576001600160a01b0316908115610707576001600160a01b031916175f55005b63d92e233d60e01b5f5260045ffd5b3461012757610100366003190112610127576107306109bc565b5060a036602319011261012757610745610adf565b506101f5610af5565b346101275761075c36610a76565b5050505050505063d623472560e01b5f5260045ffd5b346101275760203660031901126101275761078b6109bc565b5f546001600160a01b03163303610189576001600160a01b03165f818152600160205260408120805460ff191690557fbd6d178d515bf811c86f393b42367076da766033c8ebd94ea5a7e3eaf69d1c469080a2005b3461012757610140366003190112610127576107fa6109bc565b60a03660231901126101275760603660c319011261012757610124356001600160401b038111610127576108329036906004016109e6565b90917f00000000000000000000000000000000000000000000000000000000000000006001600160a01b0316330361053d576001600160a01b03165f9081526001602052604090205460ff16156108b35761089362ffffff91606093610e51565b906040939293519363ffffffff60e01b1684526020840152166040820152f35b63cec13f7b60e01b5f5260045ffd5b34610127576108d036610a13565b505050505063d623472560e01b5f5260045ffd5b34610127576020366003190112610127576108fd6109bc565b5f546001600160a01b03163303610189576001600160a01b0316801561070757805f52600160205260405f20600160ff198254161790557f81639ab8f3fbb025b1e08849071d6ba211e0153cc8c447680595775116b67a1a5f80a2005b346101275761096836610a13565b50919291507f00000000000000000000000000000000000000000000000000000000000000006001600160a01b0316330361053d576020926109a992610d38565b6040516001600160e01b03199091168152f35b600435906001600160a01b038216820361012757565b35906001600160a01b038216820361012757565b9181601f84011215610127578235916001600160401b038311610127576020838186019501011161012757565b90610160600319830112610127576004356001600160a01b0381168103610127579160a060231982011261012757602491608060c3198301126101275760c49161014435906001600160401b03821161012757610a72916004016109e6565b9091565b906101a0600319830112610127576004356001600160a01b0381168103610127579160a060231982011261012757602491608060c3198301126101275760c4916101443591610164359161018435906001600160401b03821161012757610a72916004016109e6565b60c435906001600160a01b038216820361012757565b60e435908160020b820361012757565b3461012757610120366003190112610127576004356001600160a01b0381168103610127575060a036602319011261012757610104356001600160401b03811161012757610b579036906004016109e6565b505063d623472560e01b5f908152600490fd5b359063ffffffff8216820361012757565b6101c081019081106001600160401b03821117610b9757604052565b634e487b7160e01b5f52604160045260245ffd5b60a081019081106001600160401b03821117610b9757604052565b61010081019081106001600160401b03821117610b9757604052565b90601f801991011681019081106001600160401b03821117610b9757604052565b60a09060231901126101275760405190610c1c82610bab565b816024356001600160a01b03811681036101275781526044356001600160a01b038116810361012757602082015260643562ffffff811681036101275760408201526084358060020b810361012757606082015260a435906001600160a01b03821682036101275760800152565b91908260a091031261012757604051610ca281610bab565b8092610cad816109d2565b8252610cbb602082016109d2565b6020830152604081013562ffffff811681036101275760408301526060810135908160020b820361012757606083019190915260800135906001600160a01b03821682036101275760800152565b358060020b81036101275790565b91908203918211610d2457565b634e487b7160e01b5f52601160045260245ffd5b905f60408401351215610e425760a0610d513683610c8a565b205f52600460205260405f20544314610e335760a0610d74610de0923690610c8a565b2091610dd2610d8285610d09565b93610d8f60208701610d09565b60408051602081019384526001600160a01b0390951690850152600295860b606080860191909152950b6080840152949093013560a082015291829060c0820190565b03601f198101835282610be2565b5190205f52600360205260405f20548015610e2757610dff9043610d17565b63ffffffff6002541611610e185763021d0ee760e41b90565b633853638b60e01b5f5260045ffd5b5063021d0ee760e41b90565b63228d82db60e21b5f5260045ffd5b5063021d0ee760e41b92915050565b81156110715760405191610e6483610bc6565b5f83525f60208401525f60408401525f60608401525f60e0608094604051610e8c8782610be2565b86368237868201528260a08201528260c08201520152810191610160828403126101275760405192610ebd84610bc6565b610ec683611082565b8452610ed460208401611082565b9060208501918252610ee860408501610b6a565b9260408601938452610efc60608601610b6a565b606087015281609f860112156101275760405190610f1a8183610be2565b81610100870193841161012757818701905b848210611061575050860152359260ff84168403610127576101409060a0860194855261012081013560c0870152013560e08501526001600160401b038151166001600160401b0385511610156110525760026001600160401b03610f98818451168288511690611096565b1610611052576001600160401b03610fba816101009351168287511690611096565b16116110525763ffffffff606491511611611043575160ff168015908115611038575b506110295760a0610fef366024610c8a565b20610ffa4383611141565b0361101a5761100a9043906110b6565b506315d7892d60e21b905f908190565b63f31017e560e01b5f5260045ffd5b6368c4312b60e11b5f5260045ffd5b60049150115f610fdd565b63184774cd60e01b5f5260045ffd5b631777743d60e21b5f5260045ffd5b8135815260209182019101610f2c565b506315d7892d60e21b915f91508190565b35906001600160401b038216820361012757565b906001600160401b03809116911603906001600160401b038211610d2457565b906001600160401b038251168110611132576001600160401b0360208301511681116111235763ffffffff606083015116801561111b576110fe60409163ffffffff93610d17565b920151161161110c57600190565b63a965618960e01b5f5260045ffd5b505050600190565b633c09dd1160e01b5f5260045ffd5b637cd4c09b60e11b5f5260045ffd5b919060a083019060ff825116801561129c57600114611291578015611289575f198101908111610d2457905b60405191602083016001600160401b0386511681526001600160401b03602087015116604085015263ffffffff604087015116606085015263ffffffff6060870151166080850152608086019384519660a082015f905b60048210611273575050849596975060e09060ff8096511661012084015260c08101516101408401520151610160820152610160815261120661018082610be2565b519020604051906020820192408352604082015260408152611229606082610be2565b51902091511690811561125f5706905190600481101561124b5760051b015190565b634e487b7160e01b5f52603260045260245ffd5b634e487b7160e01b5f52601260045260245ffd5b6020806001928c518152019a01910190986111c4565b505f9061116d565b505090608001515190565b505f9350505056fea2646970667358221220e6f2980bbb4b8f0b70b3398f351541b513dec200d4c5aa0ab1adf449b67cd20d64736f6c634300081a003300000000000000000000000000b036b58a818b1bc34d502d3fe730db729e62ac000000000000000000000000000000000000000000000000000000000000000500000000000000000000000095606236867c2d3391f3dd2d3004efab08e819e4",
        "nonce": "0xd4",
        "chainId": "0x515"
      },
      "additionalContracts": [],
      "isFixedGasLimit": false
    },
    {
      "hash": "0x75771bc03ae368c2b72521d0de139b5dd5cd5ee343d1dc39c9cde75319eda1a3",
      "transactionType": "CREATE",
      "contractName": "PoolSwapTest",
      "contractAddress": "0x61869c2eca69eeb0f10b7cbd1f0d8070d9954e05",
      "function": null,
      "arguments": [
        "0x00B036B58a818B1BC34d502D3fE730Db729e62AC"
      ],
      "transaction": {
        "from": "0x95606236867c2d3391f3dd2d3004efab08e819e4",
        "gas": "0x16ad87",
        "value": "0x0",
        "input": "0x60a034607a57601f61143e38819003918201601f19168301916001600160401b03831184841017607e57808492602094604052833981010312607a57516001600160a01b0381168103607a576080526040516113ab90816100938239608051818181608d0152818161096e01528181610bb90152610f780152f35b5f80fd5b634e487b7160e01b5f52604160045260245ffdfe60806040526004361015610011575f80fd5b5f3560e01c80632229d0b41461099d578063481c6a7514610959576391dd73461461003a575f80fd5b346108b85760203660031901126108b85760043567ffffffffffffffff81116108b857366023820112156108b857806004013567ffffffffffffffff81116108b85781019060248201913683116108b8577f0000000000000000000000000000000000000000000000000000000000000000926001600160a01b03841692338490036108b8576020818403126108b85760248101359067ffffffffffffffff82116108b8570190610180828403126108b857604051916100f983610d02565b61010560248201610d8c565b83526040601f1982860301126108b8576040519061012282610d4e565b61012e60448201610da0565b825261013c60648201610da0565b60208301526020840191825260a060246083198388030101126108b8576040519461016686610d02565b61017260848301610d8c565b865261018060a48301610d8c565b602087015260c482013562ffffff811681036108b857604087015260e48201358060020b81036108b85760608701526101048201356001600160a01b03811681036108b85760808701526040850195865260609082900360ff1901126108b857604051926101ed84610d32565b6101fa6101248301610da0565b845261014482013560208501526101648201356001600160a01b03811681036108b8576040850152606085019384526101848201359167ffffffffffffffff83116108b85761024c9201602401610dc9565b6080840190815284515184519196916102739130916001600160a01b039081169116610f69565b8751602001518751919350610297925030916001600160a01b039081169116610f69565b92915050610914576108cf576102fc956020916102d55f8851610310885195516040519c8d9788968795633cf3645360e21b87526004870190610e33565b8051151560a4860152602081015160c4860152604001516001600160a01b031660e4850152565b610120610104840152610124830190610e0f565b03925af19485156108c4575f9561088c575b5083515183516103409130916001600160a01b039081169116610f69565b865160200151865191999350610365925030916001600160a01b039081169116610f69565b855180519196935091501561068657505f602082510151125f1461058a575160200151871261050f5761039f878760801d600f0b14610e85565b5f83126104b4576103fa965b5f8112610490575b5f8412610459575b5f811361042d575b505f83136103fe575b8686604051906020820152602081526103e6604082610d6a565b604051918291602083526020830190610e0f565b0390f35b935160200151925190515161042394901515936001600160a01b039283169216611279565b5f808080806103cc565b8551518551845151610453939015159290916001600160a01b0390811691869116611279565b5f6103c3565b855160200151855161048b916001600160a01b03908116911661047b87610f45565b9085602088510151151593611039565b6103bb565b85515185516104af916001600160a01b03908116911661047b84610f45565b6103b3565b60405162461bcd60e51b815260206004820152602d60248201527f64656c7461416674657231206973206e6f742067726561746572207468616e2060448201526c06f7220657175616c20746f203609c1b6064820152608490fd5b60405162461bcd60e51b815260206004820152604760248201527f64656c7461416674657230206973206e6f742067726561746572207468616e2060448201527f6f7220657175616c20746f20646174612e706172616d732e616d6f756e7453706064820152661958da599a595960ca1b608482015260a490fd5b5f881361062b576020906105a28589600f0b14610ee5565b51015183136105b4576103fa966103ab565b60a460405162461bcd60e51b815260206004820152604460248201527f64656c7461416674657231206973206e6f74206c657373207468616e206f722060448201527f657175616c20746f20646174612e706172616d732e616d6f756e745370656369606482015263199a595960e21b6084820152fd5b60405162461bcd60e51b815260206004820152602d60248201527f64656c7461416674657230206973206e6f74206c657373207468616e206f722060448201526c657175616c20746f207a65726f60981b6064820152608490fd5b602001515f13156107905751602001518312610715576106aa8387600f0b14610ee5565b5f87126106ba576103fa966103ab565b60405162461bcd60e51b815260206004820152602d60248201527f64656c7461416674657230206973206e6f742067726561746572207468616e2060448201526c06f7220657175616c20746f203609c1b6064820152608490fd5b60405162461bcd60e51b815260206004820152604760248201527f64656c7461416674657231206973206e6f742067726561746572207468616e2060448201527f6f7220657175616c20746f20646174612e706172616d732e616d6f756e7453706064820152661958da599a595960ca1b608482015260a490fd5b5f8413610834576020906107ab898960801d600f0b14610e85565b51015187136107bd576103fa966103ab565b60a460405162461bcd60e51b815260206004820152604460248201527f64656c7461416674657230206973206e6f74206c657373207468616e206f722060448201527f657175616c20746f20646174612e706172616d732e616d6f756e745370656369606482015263199a595960e21b6084820152fd5b60405162461bcd60e51b815260206004820152602a60248201527f64656c7461416674657231206973206e6f74206c657373207468616e206f72206044820152690657175616c20746f20360b41b6064820152608490fd5b9094506020813d6020116108bc575b816108a860209383610d6a565b810103126108b85751935f610322565b5f80fd5b3d915061089b565b6040513d5f823e3d90fd5b60405162461bcd60e51b815260206004820152601e60248201527f64656c74614265666f726531206973206e6f7420657175616c20746f203000006044820152606490fd5b60405162461bcd60e51b815260206004820152601e60248201527f64656c74614265666f726530206973206e6f7420657175616c20746f203000006044820152606490fd5b346108b8575f3660031901126108b8576040517f00000000000000000000000000000000000000000000000000000000000000006001600160a01b03168152602090f35b366003190161016081126108b85760a0136108b8576040516109be81610d02565b6004356001600160a01b03811681036108b85781526024356001600160a01b03811681036108b857602082015260443562ffffff811681036108b85760408201526064358060020b81036108b85760608201526084356001600160a01b03811681036108b857608082015260603660a31901126108b857604051610a4181610d32565b60a43580151581036108b857815260c435602082015260e4356001600160a01b03811681036108b85760408201526040610103193601126108b857604051610a8881610d4e565b6101043580151581036108b85781526101243580151581036108b8576020820152610144359167ffffffffffffffff83116108b857610bb493610b84610b9292610b6f610ada5f973690600401610dc9565b91610b4460405195610aeb87610d02565b338752602087019889526040870190815260608701928352608087019485526020604051998a9882808b015260018060a01b0390511660408a0152518051151560608a01520151151560808801525160a0870190610e33565b51805115156101408601526020810151610160860152604001516001600160a01b0316610180850152565b516101806101a08401526101c0830190610e0f565b03601f198101835282610d6a565b604051809381926348c8949160e01b8352602060048401526024830190610e0f565b0381837f00000000000000000000000000000000000000000000000000000000000000006001600160a01b03165af19081156108c4575f91610c88575b50602081519181808201938492010103126108b857514780610c19575b602082604051908152f35b5f80808093335af115610c2c5781610c0e565b601f19601f3d0116604051906390bfb86560e01b82523360048301525f6024830152608060448301528060a00160648301523d60848301523d5f60a484013e808201600460a482015260c4633d2cec6f60e21b91015260e40190fd5b90503d805f833e610c998183610d6a565b8101906020818303126108b85780519067ffffffffffffffff82116108b8570181601f820112156108b857805190610cd082610dad565b92610cde6040519485610d6a565b828452602083830101116108b857815f9260208093018386015e8301015281610bf1565b60a0810190811067ffffffffffffffff821117610d1e57604052565b634e487b7160e01b5f52604160045260245ffd5b6060810190811067ffffffffffffffff821117610d1e57604052565b6040810190811067ffffffffffffffff821117610d1e57604052565b90601f8019910116810190811067ffffffffffffffff821117610d1e57604052565b35906001600160a01b03821682036108b857565b359081151582036108b857565b67ffffffffffffffff8111610d1e57601f01601f191660200190565b81601f820112156108b857803590610de082610dad565b92610dee6040519485610d6a565b828452602083830101116108b857815f926020809301838601378301015290565b805180835260209291819084018484015e5f828201840152601f01601f1916010190565b80516001600160a01b03908116835260208083015182169084015260408083015162ffffff169084015260608083015160020b9084015260809182015116910152565b908160209103126108b8575190565b15610e8c57565b60405162461bcd60e51b815260206004820152602b60248201527f64656c74612e616d6f756e74302829206973206e6f7420657175616c20746f2060448201526a064656c74614166746572360ac1b6064820152608490fd5b15610eec57565b60405162461bcd60e51b815260206004820152602b60248201527f64656c74612e616d6f756e74312829206973206e6f7420657175616c20746f2060448201526a64656c746141667465723160a81b6064820152608490fd5b600160ff1b8114610f55575f0390565b634e487b7160e01b5f52601160045260245ffd5b9290610f759084611328565b927f00000000000000000000000000000000000000000000000000000000000000006001600160a01b031690610fab8282611328565b9360018060a01b03165f5260018060a01b0316602052602060405f2060246040518094819363789add5560e11b835260048301525afa9081156108c4575f91610ff2575090565b90506020813d602011611019575b8161100d60209383610d6a565b810103126108b8575190565b3d9150611000565b908160209103126108b8575180151581036108b85790565b9291935f146110a6576001600160a01b0316803b156108b857604051637a94c56560e11b81526001600160a01b03948516600482015293909216602484015260448301525f908290818381606481015b03925af180156108c45761109a5750565b5f6110a491610d6a565b565b90916001600160a01b0316806111135750604051630476982d60e21b81529250602091839160049183916001600160a01b03165af180156108c4576110e85750565b6111099060203d60201161110c575b6111018183610d6a565b810190610e76565b50565b503d6110f7565b6001600160a01b0390911691823b156108b857604051632961046560e21b8152600481018390525f9490858160248183895af180156108c457611264575b506001600160a01b031684308214611209576020929160649160405195869485936323b872dd60e01b8552600485015288602485015260448401525af180156111fe579160209184936111d1575b505b600460405180958193630476982d60e21b83525af19081156111c557506110e85750565b604051903d90823e3d90fd5b6111f090833d85116111f7575b6111e88183610d6a565b810190611021565b505f61119f565b503d6111de565b6040513d85823e3d90fd5b9290506044602092604051948593849263a9059cbb60e01b845288600485015260248401525af180156111fe57916020918493611247575b506111a1565b61125d90833d85116111f7576111e88183610d6a565b505f611241565b6112719195505f90610d6a565b5f935f611151565b9291935f146112cd576001600160a01b0316803b156108b857604051630ab714fb60e11b81526001600160a01b03948516600482015293909216602484015260448301525f90829081838160648101611089565b9092906001600160a01b0316803b156108b857604051630b0d9c0960e01b81526001600160a01b03938416600482015291909216602482015260448101929092525f908290606490829084905af180156108c45761109a5750565b6001600160a01b03168061133b57503190565b6040516370a0823160e01b81526001600160a01b039092166004830152602090829060249082905afa9081156108c4575f91610ff257509056fea26469706673582212208e78b20e569015ce3a773ebbeed8542eb0f6feff5bfb0df61af47f660cbd210f64736f6c634300081a003300000000000000000000000000b036b58a818b1bc34d502d3fe730db729e62ac",
        "nonce": "0xd5",
        "chainId": "0x515"
      },
      "additionalContracts": [],
      "isFixedGasLimit": false
    },
    {
      "hash": "0x8d04cacecbdb5304eb969f279d843925fd9e1a4fc434e3c23d1f4bcea754a844",
      "transactionType": "CREATE",
      "contractName": "BatchModifyLiquidityRouter",
      "contractAddress": "0x78f9375389524360c6dd512aaaf11763209237d6",
      "function": null,
      "arguments": [
        "0x00B036B58a818B1BC34d502D3fE730Db729e62AC"
      ],
      "transaction": {
        "from": "0x95606236867c2d3391f3dd2d3004efab08e819e4",
        "gas": "0x12e232",
        "value": "0x0",
        "input": "0x60a034607a57601f6110cd38819003918201601f19168301916001600160401b03831184841017607e57808492602094604052833981010312607a57516001600160a01b0381168103607a5760805260405161103a9081610093823960805181818160b5015281816105cc0152818161078e0152610cac0152f35b5f80fd5b634e487b7160e01b5f52604160045260245ffdfe60806040526004361015610011575f80fd5b5f3560e01c80633c285eef146105fb578063481c6a75146105b757806391dd7346146100645763cfdbf25414610045575f80fd5b34610060575f36600319011261006057602060405160108152f35b5f80fd5b34610060576020366003190112610060576004356001600160401b03811161006057366023820112156100605780600401356001600160401b038111610060578101906024820190368211610060577f00000000000000000000000000000000000000000000000000000000000000006001600160a01b038116913383900361058057602081860312610060576024810135906001600160401b0382116100605701610100818603126100605760a0602460405196610122886108f1565b61012d82850161095c565b8852839003016043190112610060576040519061014982610920565b6101556044820161095c565b82526101636064820161095c565b6020830152608481013562ffffff8116810361006057604083015261018a60a48201610970565b606083015260c48101356001600160a01b03811681036100605760808301526020860191825260e48101356001600160401b038111610060578560246101d292840101610995565b9460408701958652610104820135916001600160401b038311610060576101fc9201602401610a53565b60608601908152601085515111610549575f5b855180518210156104105761025f9061022d8360a087512092610b00565b515160020b602061023f858b51610b00565b51015160020b906060610253868c51610b00565b51015192309089610b38565b505083516040610298610273858b51610b00565b51926102da87516102c685519687958695632d35e7ed60e11b87526004870190610abd565b8051600290810b60a48701526020820151900b60c4860152604081015160e486015260600151610104850152565b610140610124840152610144830190610a99565b03815f8b5af18015610405576103da575b506001600160801b0361033960a086512089610308868251610b00565b515160020b606061032d886020610320828751610b00565b51015160020b9451610b00565b5101519230908b610b38565b50509116600f0b90604061034e848a51610b00565b510151915f83820193841291129080158216911516176103c6576001600160801b0316600f0b036103815760010161020f565b60405162461bcd60e51b815260206004820152601a60248201527f6c6971756964697479206368616e676520696e636f72726563740000000000006044820152606490fd5b634e487b7160e01b5f52601160045260245ffd5b604090813d81116103fe575b6103f0818361093b565b8101031261006057886102eb565b503d6103e6565b6040513d5f823e3d90fd5b8351518851859187918b916104339130916001600160a01b039182169116610c9d565b855160200151845191959350610458925030916001600160a01b039081169116610c9d565b949150505f8112610524575b5f84126104f6575b5f81136104d2575b505f83136104a9575b6104a560405161048e60208261093b565b5f8152604051918291602083526020830190610a99565b0390f35b92516020015190516104c9936001600160a01b0391821692909116610f51565b8080808061047d565b84515183516104f092916001600160a01b0391821691859116610f51565b84610474565b845160200151835161051f916001600160a01b0390811691168461051988610b28565b92610d7c565b61046c565b8451518351610544916001600160a01b0390811691168461051985610b28565b610464565b60405162461bcd60e51b815260206004820152600f60248201526e426174636820746f6f206c6172676560881b6044820152606490fd5b60405162461bcd60e51b815260206004820152600f60248201526e2737ba102837b7b626b0b730b3b2b960891b6044820152606490fd5b34610060575f366003190112610060576040517f00000000000000000000000000000000000000000000000000000000000000006001600160a01b03168152602090f35b366003190160e081126100605760a0136100605760405161061b81610920565b6004356001600160a01b03811681036100605781526024356001600160a01b038116810361006057602082015260443562ffffff811681036100605760408201526064358060020b81036100605760608201526084356001600160a01b038116810361006057608082015260a4356001600160401b038111610060576106a5903690600401610995565b9060c4356001600160401b038111610060576106c5903690600401610a53565b604051926106d2846108f1565b3384526020840192835260408401908152606084019182526107176040519360208086015261014085019560018060a01b039051166040860152516060850190610abd565b5192610100808401528351809152602061016084019401905f5b8181106108ad576107895f86610767816107598b8a51603f1984830301610120850152610a99565b03601f19810183528261093b565b604051809381926348c8949160e01b8352602060048401526024830190610a99565b0381837f00000000000000000000000000000000000000000000000000000000000000006001600160a01b03165af1801561040557610837575b5047806107cc57005b5f80808093335af1156107db57005b601f19601f3d0116604051906390bfb86560e01b82523360048301525f6024830152608060448301528060a00160648301523d60848301523d5f60a484013e808201600460a482015260c4633d2cec6f60e21b91015260e40190fd5b3d805f833e610846818361093b565b810190602081830312610060578051906001600160401b038211610060570181601f820112156100605780519061087c82610a38565b9261088a604051948561093b565b8284526020838301011161006057815f9260208093018386015e830101526107c3565b90919460206080826108e66001948a5160608091805160020b8452602081015160020b6020850152604081015160408501520151910152565b019601929101610731565b608081019081106001600160401b0382111761090c57604052565b634e487b7160e01b5f52604160045260245ffd5b60a081019081106001600160401b0382111761090c57604052565b90601f801991011681019081106001600160401b0382111761090c57604052565b35906001600160a01b038216820361006057565b35908160020b820361006057565b6001600160401b03811161090c5760051b60200190565b81601f82011215610060578035906109ac8261097e565b926109ba604051948561093b565b82845260208085019360071b8301019181831161006057602001925b8284106109e4575050505090565b6080848303126100605760206080916040516109ff816108f1565b610a0887610970565b8152610a15838801610970565b8382015260408701356040820152606087013560608201528152019301926109d6565b6001600160401b03811161090c57601f01601f191660200190565b81601f8201121561006057803590610a6a82610a38565b92610a78604051948561093b565b8284526020838301011161006057815f926020809301838601378301015290565b805180835260209291819084018484015e5f828201840152601f01601f1916010190565b80516001600160a01b03908116835260208083015182169084015260408083015162ffffff169084015260608083015160020b9084015260809182015116910152565b8051821015610b145760209160051b010190565b634e487b7160e01b5f52603260045260245ffd5b600160ff1b81146103c6575f0390565b94939290926040519460268601526006850152600384015282525f603a600c8401209281604082015281602082015252604051602081019182526006604082015260408152610b8860608261093b565b51902090600682018092116103c6575f916040519060208201928352604082015260408152610bb860608261093b565b519020604051631afeb18d60e11b815260048101919091526003602482015291829060449082906001600160a01b03165afa908115610405575f91610c0d575b50602081015160408201516060909201519092565b90503d805f833e610c1e818361093b565b810190602081830312610060578051906001600160401b03821161006057019080601f83011215610060578151610c548161097e565b92610c62604051948561093b565b81845260208085019260051b82010192831161006057602001905b828210610c8d575050505f610bf8565b8151815260209182019101610c7d565b9290610ca99084610fb7565b927f00000000000000000000000000000000000000000000000000000000000000006001600160a01b031690610cdf8282610fb7565b9360018060a01b03165f5260018060a01b0316602052602060405f2060246040518094819363789add5560e11b835260048301525afa908115610405575f91610d26575090565b90506020813d602011610d4d575b81610d416020938361093b565b81010312610060575190565b3d9150610d34565b90816020910312610060575180151581036100605790565b90816020910312610060575190565b9192916001600160a01b031680610dea5750604051630476982d60e21b81529250602091839160049183916001600160a01b03165af1801561040557610dbf5750565b610de09060203d602011610de3575b610dd8818361093b565b810190610d6d565b50565b503d610dce565b6001600160a01b0390911691823b1561006057604051632961046560e21b815260048101839052935a945f816024818389819bf1801561040557610f3c575b506001600160a01b031684308214610ee1576020929160649160405195869485936323b872dd60e01b8552600485015288602485015260448401525af18015610ed657916020918493610ea9575b505b600460405180958193630476982d60e21b83525af1908115610e9d5750610dbf5750565b604051903d90823e3d90fd5b610ec890833d8511610ecf575b610ec0818361093b565b810190610d55565b505f610e77565b503d610eb6565b6040513d85823e3d90fd5b9290506044602092604051948593849263a9059cbb60e01b845288600485015260248401525af18015610ed657916020918493610f1f575b50610e79565b610f3590833d8511610ecf57610ec0818361093b565b505f610f19565b610f499195505f9061093b565b5f935f610e29565b91906001600160a01b0316803b1561006057604051630b0d9c0960e01b81526001600160a01b03938416600482015291909216602482015260448101929092525f908290606490829084905af1801561040557610fab5750565b5f610fb59161093b565b565b6001600160a01b031680610fca57503190565b6040516370a0823160e01b81526001600160a01b039092166004830152602090829060249082905afa908115610405575f91610d2657509056fea2646970667358221220e225d751da61a44a3beff2546408eb6e38576b4e63a11e4d51c58dbed581542e64736f6c634300081a003300000000000000000000000000b036b58a818b1bc34d502d3fe730db729e62ac",
        "nonce": "0xd6",
        "chainId": "0x515"
      },
      "additionalContracts": [],
      "isFixedGasLimit": false
    },
    {
      "hash": "0x2c757cefad8a6902c4f3d3023841dfa947bcb52685dc0e5c04a1530f3b04d272",
      "transactionType": "CREATE",
      "contractName": "IntentStore",
      "contractAddress": "0x7a8c0742314fccc2ad8117c4c1c72f07f9cd9f41",
      "function": null,
      "arguments": [
        "0x0000000000000000000000000000000000000000"
      ],
      "transaction": {
        "from": "0x95606236867c2d3391f3dd2d3004efab08e819e4",
        "gas": "0xcd205",
        "value": "0x0",
        "input": "0x608034606f57601f610b2b38819003918201601f19168301916001600160401b03831184841017607357808492602094604052833981010312606f57516001600160a01b03811690819003606f575f80546001600160a01b031916919091179055604051610aa390816100888239f35b5f80fd5b634e487b7160e01b5f52604160045260245ffdfe6080806040526004361015610012575f80fd5b5f3560e01c9081631c3c0ea81461078c5750806346a1a095146107055780634e395e2a146106dd578063906e277b14610574578063c34c08e51461054d578063ed82a00e146101695763f640511914610069575f80fd5b34610165576020366003190112610165575f54600435906001600160a01b0316330361013057600154811080610118575b156100dd57600b6100aa82610824565b5001805460ff191660011790557ff0c6c99b11035113bf510013043afc18365a61a112c542b9f7491fd1574cfc5b5f80a2005b60405162461bcd60e51b81526020600482015260136024820152721a5b9d985b1a59081bdc88195e1958dd5d1959606a1b6044820152606490fd5b5060ff600b61012683610824565b500154161561009a565b60405162461bcd60e51b815260206004820152600d60248201526c37b7363c9032bc32b1baba37b960991b6044820152606490fd5b5f80fd5b3461016557366003190161018081126101655761016013610165576040516101908161086f565b6004356001600160401b0381168103610165578152602435906001600160401b038216820361016557602081019182526044359163ffffffff8316830361016557604082019283526064359163ffffffff8316830361016557606081019283523660a31215610165576080604051610208828261088b565b803661010411610165576084905b610104821061053d575050818301526101043560ff811681036101655760a083019081526101243560c08401526101443560e084015261016435956001600160401b038551166001600160401b03855116101561052e5760026001600160401b03610288818851168288511690610a39565b161061052e576101006001600160401b036102aa818851168288511690610a39565b161161052e5763ffffffff60649151161161051f575160ff168015908115610514575b506105055784156104c9576001549363ffffffff43169052604051946102f286610854565b82865260208601338152604087019033825260608801928352838801935f8552680100000000000000008810156104b5576001880160015561033388610824565b9990996104a2575180518a54602083015160408085015160608601516001600160c01b03199094166001600160401b03959095169490941791901b6fffffffffffffffff0000000000000000161791841b63ffffffff60801b169190911760a09190911b63ffffffff60a01b16178a55908101515f905b6004821061048a57505060a081015160058a01805460ff1990811660ff9384161790915560c083015160068c015560e09092015160078b0155915160088a0180546001600160a01b03199081166001600160a01b0393841617909155935160098b0180549095169116179092559151600a8801559151600b9096018054961515909116959091169490941790935591519151604080516001600160401b0394851681529190931660208281019190915292339183917f69ed47713df78c91050b377d2f52abaea3dbc2bbe31c32b290c288c61ce079fc91a3604051908152f35b818160018d94602082955193019501015501906103aa565b634e487b7160e01b5f525f60045260245ffd5b634e487b7160e01b5f52604160045260245ffd5b60405162461bcd60e51b81526020600482015260146024820152730616d6f756e74496e206d757374206265203e20360641b6044820152606490fd5b6368c4312b60e11b5f5260045ffd5b6004915011866102cd565b63184774cd60e01b5f5260045ffd5b631777743d60e21b5f5260045ffd5b8135815260209182019101610216565b34610165575f366003190112610165575f546040516001600160a01b039091168152602090f35b346101655760203660031901126101655760043560405161059481610854565b5f6040516105a18161086f565b81815281602082015281604082015281606082015260809283916040516105c8848261088b565b83368237838201528360a08201528360c08201528360e0820152815282602082015282604082015282606082015201526001548210156106a75761060e6101e092610824565b506040519061061c82610854565b610625816108ac565b9283835260018060a01b036008830154166020840190815260018060a01b03600984015416916040850192835260ff600b600a86015495606088019687520154169401931515845261067a6040518096610955565b516001600160a01b03908116610160860152905116610180840152516101a08301525115156101c0820152f35b60405162461bcd60e51b815260206004820152600e60248201526d1a5b9d985b1a59081a5b9d195b9d60921b6044820152606490fd5b346101655760203660031901126101655760206106fb6004356109e8565b6040519015158152f35b34610165576020366003190112610165576004356001548110156101655761072f6101e091610824565b50610739816108ac565b9060018060a01b036008820154169060018060a01b0360098201541660ff600b600a84015493015416926107706040518096610955565b6101608501526101808401526101a083015215156101c0820152f35b34610165576020366003190112610165576004356001600160a01b0381169190829003610165575f54906001600160a01b038216801590811561081a575b50156107e057506001600160a01b031916175f55005b62461bcd60e51b81526020600482015260156024820152741bdb9b1e48195e1958dd5d1bdc881bdc881a5b9a5d605a1b6044820152606490fd5b90503314846107ca565b6001548110156108405760015f52600c60205f20910201905f90565b634e487b7160e01b5f52603260045260245ffd5b60a081019081106001600160401b038211176104b557604052565b61010081019081106001600160401b038211176104b557604052565b90601f801991011681019081106001600160401b038211176104b557604052565b906040516108b98161086f565b809263ffffffff81546001600160401b03811684526001600160401b038160401c166020850152818160801c16604085015260a01c1660608301526040518060018301905f905b6004821061093f5750505060e0918161091c608060079461088b565b608085015260ff60058201541660a0850152600681015460c08501520154910152565b6001602081928554815201930191019091610900565b6001600160401b0381511682526001600160401b03602082015116602083015263ffffffff604082015116604083015263ffffffff60608201511660608301526080810151608083015f905b600482106109d25750505060e08160ff60a06101409401511661010085015260c08101516101208501520151910152565b60208060019285518152019301910190916109a1565b600154811015610a34576109fb90610824565b5060ff600b82015416610a3457546001600160401b0381164310610a345760401c6001600160401b03164311610a3057600190565b5f90565b505f90565b906001600160401b03809116911603906001600160401b038211610a5957565b634e487b7160e01b5f52601160045260245ffdfea264697066735822122040b31c86c75a88d34247828407f9a43a9d65e466aca234b7df347d31afc2a9cc64736f6c634300081a00330000000000000000000000000000000000000000000000000000000000000000",
        "nonce": "0xd7",
        "chainId": "0x515"
      },
      "additionalContracts": [],
      "isFixedGasLimit": false
    },
    {
      "hash": "0x58554377c5f1313bb42e58f1b918f3f5cf2c9489235d89b9b598a3f842b21ea9",
      "transactionType": "CREATE",
      "contractName": "PrivacySwapExecutor",
      "contractAddress": "0xa6c02dfdf1150252a97fc287f657359673bb66a1",
      "function": null,
      "arguments": [
        "0x7a8c0742314FcCC2aD8117c4c1C72F07F9cd9f41",
        "0x61869C2ECA69eEb0F10B7Cbd1F0D8070D9954E05"
      ],
      "transaction": {
        "from": "0x95606236867c2d3391f3dd2d3004efab08e819e4",
        "gas": "0x11883a",
        "value": "0x0",
        "input": "0x60c034609b57601f610fad38819003918201601f19168301916001600160401b03831184841017609f578084926040948552833981010312609b578051906001600160a01b0382168203609b5760200151906001600160a01b0382168203609b5760805260a052604051610ef990816100b48239608051818181608d015281816101ed0152610acd015260a0518181816102fe01526107600152f35b5f80fd5b634e487b7160e01b5f52604160045260245ffdfe6080806040526004361015610012575f80fd5b5f3560e01c908163368202a514610abb575080634972134a14610a9f5780635824100b1461078f578063c31c9c071461074b578063d9c8ec221461011d5763da9d05d71461005e575f80fd5b346101195760403660031901126101195760405163906e277b60e01b815260048035908201526101e0816024817f00000000000000000000000000000000000000000000000000000000000000006001600160a01b03165afa90811561010e576020916100d7915f916100df575b506024359051610dfb565b604051908152f35b61010191506101e03d8111610107575b6100f98183610b17565b810190610b92565b5f6100cc565b503d6100ef565b6040513d5f823e3d90fd5b5f80fd5b346101195760e03660031901126101195760043560a03660231901126101195760405161014981610afc565b6024356001600160a01b0381168103610119578152604435916001600160a01b038316830361011957602082019283526064359262ffffff841684036101195760408301938452608435918260020b8303610119576060840192835260a435946001600160a01b0386168603610119576080850195865260c4356001600160a01b03811694908590036101195760405163906e277b60e01b815260048101849052957f00000000000000000000000000000000000000000000000000000000000000006001600160a01b031694906101e088602481895afa97881561010e575f9861072a575b50608088015161071b5760405163271caf1560e11b8152600481018690526020816024818a5afa90811561010e575f916106e1575b50156106d25787519660a0822061027b438a610dfb565b036106c35761028a4389610d73565b508251825160408b81015160608d01805192516323b872dd60e01b81526001600160a01b03928316600482015230602482015260448101939093529281169d9316969291906020816064815f8c5af1801561010e5761068c575b50805160405163095ea7b360e01b81526001600160a01b037f0000000000000000000000000000000000000000000000000000000000000000166004820181905260248201929092529097602090829060449082905f905af1801561010e57610655575b5051600160ff1b81146106415760405193606085018581106001600160401b0382111761062d576040525f855260208501915f038252604085019081526040519160408301958387106001600160401b0388111761062d578d966040525f845260208401945f8652604051968760208101996103c4908b610cd7565b03601f19810189526103d69089610b17565b60405163088a742d60e21b815299516001600160a01b0390811660048c01529a518b1660248b01529b5162ffffff1660448a01529a5160020b60648901529951881660848801529851151560a4870152975160c4860152965190941660e48401529451151561010483015291511515610124820152610160610144820152925161016484018190528391829190819061018484015e808201610184015f9052601f1990601f011681010361018401815a6020945f91f1801561010e576105fe575b50813b15610119575f9160248392604051948593849263f640511960e01b845260048401525af1801561010e576105ee575b506040516370a0823160e01b815230600482015290602082602481875afa91821561010e575f926105ba575b5081156105ab5760c00151811061059c5760209182015160405163a9059cbb60e01b81526001600160a01b039091166004820152602481019190915291829060449082905f905af190811561010e575f91610562575b501561055357005b6312171d8360e31b5f5260045ffd5b90506020813d602011610594575b8161057d60209383610b17565b810103126101195761058e90610b85565b8161054b565b3d9150610570565b63bb2875c360e01b5f5260045ffd5b63730c31bf60e11b5f5260045ffd5b9091506020813d6020116105e6575b816105d660209383610b17565b81010312610119575190846104f5565b3d91506105c9565b5f6105f891610b17565b836104c9565b6020813d602011610625575b8161061760209383610b17565b810103126101195751610497565b3d915061060a565b634e487b7160e01b5f52604160045260245ffd5b634e487b7160e01b5f52601160045260245ffd5b6020813d602011610684575b8161066e60209383610b17565b810103126101195761067f90610b85565b610348565b3d9150610661565b6020813d6020116106bb575b816106a560209383610b17565b81010312610119576106b690610b85565b6102e4565b3d9150610698565b63f31017e560e01b5f5260045ffd5b6397e97fab60e01b5f5260045ffd5b90506020813d602011610713575b816106fc60209383610b17565b810103126101195761070d90610b85565b8a610264565b3d91506106ef565b633b68b0fd60e01b5f5260045ffd5b6107449198506101e03d8111610107576100f98183610b17565b968961022f565b34610119575f366003190112610119576040517f00000000000000000000000000000000000000000000000000000000000000006001600160a01b03168152602090f35b34610119576060366003190112610119576004356001600160401b0381116101195736602382011215610119578060040135906001600160401b038211610119578160051b3660248284010111610119576024356001600160401b0381116101195736602382011215610119578060040135906001600160401b0382116101195736602460a084028301011161011957604435916001600160401b0383116101195736602384011215610119578260040135936001600160401b0385116101195736602460608702860101116101195781871480610a96575b15610a595786151580610a4e575b15610a1b579594939291905f965b868810156109b857818810156109a45760a088028301858910156109a457606460608a02860101356001600160a01b0381169081900361011957303b156101195760405191636ce4761160e11b835260248b60051b8a010135600484015260018060a01b036108f560248301610b38565b1660248401526001600160a01b0361090f60448301610b38565b166044840152606481013562ffffff811680910361011957606484015260848101358060020b8091036101195760848401526001600160a01b03906109569060a401610b38565b1660a483015260c48201525f8160e48183305af19081610994575b506109895787631a45281160e21b5f5260045260245ffd5b600190970196610884565b5f61099e91610b17565b89610971565b634e487b7160e01b5f52603260045260245ffd5b85875f545f1981146106415760010192835f55604051916020835280602084015260018060fb1b031061011957818160409260247f590dbbd8e4c4fe2d3cf4e3621db92cfe9324fd7de4ae48dab1c0149fcda4b3489601848401378101030190a2005b60405162461bcd60e51b815260206004820152600b60248201526a312d3820696e74656e747360a81b6044820152606490fd5b506008871115610876565b60405162461bcd60e51b81526020600482015260156024820152740c2e4e4c2f240d8cadccee8d040dad2e6dac2e8c6d605b1b6044820152606490fd5b50848714610868565b34610119575f3660031901126101195760205f54604051908152f35b34610119575f366003190112610119577f00000000000000000000000000000000000000000000000000000000000000006001600160a01b03168152602090f35b60a081019081106001600160401b0382111761062d57604052565b90601f801991011681019081106001600160401b0382111761062d57604052565b35906001600160a01b038216820361011957565b51906001600160401b038216820361011957565b519063ffffffff8216820361011957565b51906001600160a01b038216820361011957565b5190811515820361011957565b90818103916101e083126101195761016060405193610bb085610afc565b12610119576040519161010083018381106001600160401b0382111761062d57604052610bdc82610b4c565b8352610bea60208301610b4c565b6020840152610bfb60408301610b60565b6040840152610c0c60608301610b60565b606084015280609f8301121561011957604051608081018181106001600160401b0382111761062d576040528061010084019283116101195760808401905b838210610cc75750506080840152519060ff8216820361011957826101c09260a0610cbf95015261012082015160c082015261014082015160e08201528452610c976101608201610b71565b6020850152610ca96101808201610b71565b60408501526101a0810151606085015201610b85565b608082015290565b8151815260209182019101610c4b565b9190916101608101926001600160401b0381511682526001600160401b03602082015116602083015263ffffffff604082015116604083015263ffffffff60608201511660608301526080810151608083015f905b60048210610d5d5750505060e08160ff60a06101409401511661010085015260c08101516101208501520151910152565b6020806001928551815201930191019091610d2c565b6001600160401b038151168210610dec576001600160401b036020820151168211610ddd5763ffffffff6060820151168015610dd5578203918211610641576040015163ffffffff1611610dc657600190565b63a965618960e01b5f5260045ffd5b505050600190565b633c09dd1160e01b5f5260045ffd5b637cd4c09b60e11b5f5260045ffd5b9060a082019060ff8251168015610ebb57600114610eb1578015610ea8575f1981019081116106415760ff905b6040516020810190610e4c81610e3e8885610cd7565b03601f198101835282610b17565b519020604051906020820192408352604082015260408152610e6f606082610b17565b5190209151168015610e9457608091069101519060048110156109a45760051b015190565b634e487b7160e01b5f52601260045260245ffd5b5060ff5f610e28565b5050608001515190565b505050505f9056fea2646970667358221220c79e1c9dadbf760029ddaa597a71ff7b5e4d2707d2a0682a5c76773ce44ff32a64736f6c634300081a00330000000000000000000000007a8c0742314fccc2ad8117c4c1c72f07f9cd9f4100000000000000000000000061869c2eca69eeb0f10b7cbd1f0d8070d9954e05",
        "nonce": "0xd8",
        "chainId": "0x515"
      },
      "additionalContracts": [],
      "isFixedGasLimit": false
    },
    {
      "hash": "0x5cb233e2b3722d629b3c9131c2303444c27c1beb5083496fae5aa53516c558c9",
      "transactionType": "CALL",
      "contractName": "IntentStore",
      "contractAddress": "0x7a8c0742314fccc2ad8117c4c1c72f07f9cd9f41",
      "function": "setExecutor(address)",
      "arguments": [
        "0xA6C02dFDF1150252A97Fc287F657359673bb66A1"
      ],
      "transaction": {
        "from": "0x95606236867c2d3391f3dd2d3004efab08e819e4",
        "to": "0x7a8c0742314fccc2ad8117c4c1c72f07f9cd9f41",
        "gas": "0xec68",
        "value": "0x0",
        "input": "0x1c3c0ea8000000000000000000000000a6c02dfdf1150252a97fc287f657359673bb66a1",
        "nonce": "0xd9",
        "chainId": "0x515"
      },
      "additionalContracts": [],
      "isFixedGasLimit": false
    },
    {
      "hash": "0x03a9c44556f8a42b6891e5e1fb8c048e22501ca903cb9ec90837d8d785489601",
      "transactionType": "CALL",
      "contractName": "PrivacySwapHook",
      "contractAddress": "0x2131def8af1b70cf1b9b7525e525945e465ac6c0",
      "function": "addRouter(address)",
      "arguments": [
        "0x61869C2ECA69eEb0F10B7Cbd1F0D8070D9954E05"
      ],
      "transaction": {
        "from": "0x95606236867c2d3391f3dd2d3004efab08e819e4",
        "to": "0x2131def8af1b70cf1b9b7525e525945e465ac6c0",
        "gas": "0xfe5a",
        "value": "0x0",
        "input": "0x24ca984e00000000000000000000000061869c2eca69eeb0f10b7cbd1f0d8070d9954e05",
        "nonce": "0xda",
        "chainId": "0x515"
      },
      "additionalContracts": [],
      "isFixedGasLimit": false
    },
    {
      "hash": "0xfbdae405ed8f923a34294cf5f0ecd0c7066e75f4386d04f38ffb125de9c18c26",
      "transactionType": "CALL",
      "contractName": "PrivacySwapHook",
      "contractAddress": "0x2131def8af1b70cf1b9b7525e525945e465ac6c0",
      "function": "addRouter(address)",
      "arguments": [
        "0x78f9375389524360C6dd512Aaaf11763209237d6"
      ],
      "transaction": {
        "from": "0x95606236867c2d3391f3dd2d3004efab08e819e4",
        "to": "0x2131def8af1b70cf1b9b7525e525945e465ac6c0",
        "gas": "0xfe5a",
        "value": "0x0",
        "input": "0x24ca984e00000000000000000000000078f9375389524360c6dd512aaaf11763209237d6",
        "nonce": "0xdb",
        "chainId": "0x515"
      },
      "additionalContracts": [],
      "isFixedGasLimit": false
    },
    {
      "hash": "0xe0cef16af6a672201f7178661ae59df6aaf8359d83eb7a9e40478b4ae7526430",
      "transactionType": "CALL",
      "contractName": null,
      "contractAddress": "0x4200000000000000000000000000000000000006",
      "function": "approve(address,uint256)",
      "arguments": [
        "0x61869C2ECA69eEb0F10B7Cbd1F0D8070D9954E05",
        "115792089237316195423570985008687907853269984665640564039457584007913129639935"
      ],
      "transaction": {
        "from": "0x95606236867c2d3391f3dd2d3004efab08e819e4",
        "to": "0x4200000000000000000000000000000000000006",
        "gas": "0x10972",
        "value": "0x0",
        "input": "0x095ea7b300000000000000000000000061869c2eca69eeb0f10b7cbd1f0d8070d9954e05ffffffffffffffffffffffffffffffffffffffffffffffffffffffffffffffff",
        "nonce": "0xdc",
        "chainId": "0x515"
      },
      "additionalContracts": [],
      "isFixedGasLimit": false
    },
    {
      "hash": "0xbd824a8839f88e403e4cee08c2e5ae362bd4d113b5c71fa32f6a28ab896d5aeb",
      "transactionType": "CALL",
      "contractName": null,
      "contractAddress": "0x31d0220469e10c4e71834a79b1f276d740d3768f",
      "function": "approve(address,uint256)",
      "arguments": [
        "0x61869C2ECA69eEb0F10B7Cbd1F0D8070D9954E05",
        "115792089237316195423570985008687907853269984665640564039457584007913129639935"
      ],
      "transaction": {
        "from": "0x95606236867c2d3391f3dd2d3004efab08e819e4",
        "to": "0x31d0220469e10c4e71834a79b1f276d740d3768f",
        "gas": "0x13eb1",
        "value": "0x0",
        "input": "0x095ea7b300000000000000000000000061869c2eca69eeb0f10b7cbd1f0d8070d9954e05ffffffffffffffffffffffffffffffffffffffffffffffffffffffffffffffff",
        "nonce": "0xdd",
        "chainId": "0x515"
      },
      "additionalContracts": [],
      "isFixedGasLimit": false
    },
    {
      "hash": "0x1fdb6c8d57f6bdf1edd07606a1734b1206f744d32a98ef07903836121cf00241",
      "transactionType": "CALL",
      "contractName": null,
      "contractAddress": "0x4200000000000000000000000000000000000006",
      "function": "approve(address,uint256)",
      "arguments": [
        "0x78f9375389524360C6dd512Aaaf11763209237d6",
        "115792089237316195423570985008687907853269984665640564039457584007913129639935"
      ],
      "transaction": {
        "from": "0x95606236867c2d3391f3dd2d3004efab08e819e4",
        "to": "0x4200000000000000000000000000000000000006",
        "gas": "0x10972",
        "value": "0x0",
        "input": "0x095ea7b300000000000000000000000078f9375389524360c6dd512aaaf11763209237d6ffffffffffffffffffffffffffffffffffffffffffffffffffffffffffffffff",
        "nonce": "0xde",
        "chainId": "0x515"
      },
      "additionalContracts": [],
      "isFixedGasLimit": false
    },
    {
      "hash": "0x6e26238e34d9c56b0353e967b5b67438c8dd9bcfaed2d444c107d5c0311e154e",
      "transactionType": "CALL",
      "contractName": null,
      "contractAddress": "0x31d0220469e10c4e71834a79b1f276d740d3768f",
      "function": "approve(address,uint256)",
      "arguments": [
        "0x78f9375389524360C6dd512Aaaf11763209237d6",
        "115792089237316195423570985008687907853269984665640564039457584007913129639935"
      ],
      "transaction": {
        "from": "0x95606236867c2d3391f3dd2d3004efab08e819e4",
        "to": "0x31d0220469e10c4e71834a79b1f276d740d3768f",
        "gas": "0x13eb1",
        "value": "0x0",
        "input": "0x095ea7b300000000000000000000000078f9375389524360c6dd512aaaf11763209237d6ffffffffffffffffffffffffffffffffffffffffffffffffffffffffffffffff",
        "nonce": "0xdf",
        "chainId": "0x515"
      },
      "additionalContracts": [],
      "isFixedGasLimit": false
    },
    {
      "hash": "0x542e1d2063213fde9aca5a774940df2d225faaa219a75f1713d105ef8f93f16f",
      "transactionType": "CALL",
      "contractName": null,
      "contractAddress": "0x4200000000000000000000000000000000000006",
      "function": "approve(address,uint256)",
      "arguments": [
        "0xA6C02dFDF1150252A97Fc287F657359673bb66A1",
        "115792089237316195423570985008687907853269984665640564039457584007913129639935"
      ],
      "transaction": {
        "from": "0x95606236867c2d3391f3dd2d3004efab08e819e4",
        "to": "0x4200000000000000000000000000000000000006",
        "gas": "0x10972",
        "value": "0x0",
        "input": "0x095ea7b3000000000000000000000000a6c02dfdf1150252a97fc287f657359673bb66a1ffffffffffffffffffffffffffffffffffffffffffffffffffffffffffffffff",
        "nonce": "0xe0",
        "chainId": "0x515"
      },
      "additionalContracts": [],
      "isFixedGasLimit": false
    },
    {
      "hash": "0xd08d8fb6c76373d3ea70113884889adeaa1bb0cc00cf98142d6b9828e87dbe0b",
      "transactionType": "CALL",
      "contractName": null,
      "contractAddress": "0x00b036b58a818b1bc34d502d3fe730db729e62ac",
      "function": "initialize((address,address,uint24,int24,address),uint160)",
      "arguments": [
        "(0x31d0220469e10c4E71834a79b1f276d740d3768F, 0x4200000000000000000000000000000000000006, 3000, 60, 0x2131def8AF1b70cF1B9b7525e525945e465AC6C0)",
        "79228162514264337593543950336"
      ],
      "transaction": {
        "from": "0x95606236867c2d3391f3dd2d3004efab08e819e4",
        "to": "0x00b036b58a818b1bc34d502d3fe730db729e62ac",
        "gas": "0x12626",
        "value": "0x0",
        "input": "0x6276cbbe00000000000000000000000031d0220469e10c4e71834a79b1f276d740d3768f00000000000000000000000042000000000000000000000000000000000000060000000000000000000000000000000000000000000000000000000000000bb8000000000000000000000000000000000000000000000000000000000000003c0000000000000000000000002131def8af1b70cf1b9b7525e525945e465ac6c00000000000000000000000000000000000000001000000000000000000000000",
        "nonce": "0xe1",
        "chainId": "0x515"
      },
      "additionalContracts": [],
      "isFixedGasLimit": false
    },
    {
      "hash": "0xfa84a6957af00cafc91503ad9cdfbd55b4cffe9c4b3821bd5915a44324c450be",
      "transactionType": "CALL",
      "contractName": "BatchModifyLiquidityRouter",
      "contractAddress": "0x78f9375389524360c6dd512aaaf11763209237d6",
      "function": "batchModifyLiquidity((address,address,uint24,int24,address),(int24,int24,int256,bytes32)[],bytes)",
      "arguments": [
        "(0x31d0220469e10c4E71834a79b1f276d740d3768F, 0x4200000000000000000000000000000000000006, 3000, 60, 0x2131def8AF1b70cF1B9b7525e525945e465AC6C0)",
        "[(-120, 120, 700000000, 0x0000000000000000000000000000000000000000000000000000000000000001), (-120, 120, 700000000, 0x0000000000000000000000000000000000000000000000000000000000000002), (-120, 120, 700000000, 0x0000000000000000000000000000000000000000000000000000000000000003)]",
        "0x"
      ],
      "transaction": {
        "from": "0x95606236867c2d3391f3dd2d3004efab08e819e4",
        "to": "0x78f9375389524360c6dd512aaaf11763209237d6",
        "gas": "0x9e066",
        "value": "0x0",
        "input": "0x3c285eef00000000000000000000000031d0220469e10c4e71834a79b1f276d740d3768f00000000000000000000000042000000000000000000000000000000000000060000000000000000000000000000000000000000000000000000000000000bb8000000000000000000000000000000000000000000000000000000000000003c0000000000000000000000002131def8af1b70cf1b9b7525e525945e465ac6c000000000000000000000000000000000000000000000000000000000000000e000000000000000000000000000000000000000000000000000000000000002800000000000000000000000000000000000000000000000000000000000000003ffffffffffffffffffffffffffffffffffffffffffffffffffffffffffffff8800000000000000000000000000000000000000000000000000000000000000780000000000000000000000000000000000000000000000000000000029b927000000000000000000000000000000000000000000000000000000000000000001ffffffffffffffffffffffffffffffffffffffffffffffffffffffffffffff8800000000000000000000000000000000000000000000000000000000000000780000000000000000000000000000000000000000000000000000000029b927000000000000000000000000000000000000000000000000000000000000000002ffffffffffffffffffffffffffffffffffffffffffffffffffffffffffffff8800000000000000000000000000000000000000000000000000000000000000780000000000000000000000000000000000000000000000000000000029b9270000000000000000000000000000000000000000000000000000000000000000030000000000000000000000000000000000000000000000000000000000000000",
        "nonce": "0xe2",
        "chainId": "0x515"
      },
      "additionalContracts": [],
      "isFixedGasLimit": false
    }
  ],
  "receipts": [
    {
      "status": "0x1",
      "cumulativeGasUsed": "0x13fc69",
      "logs": [],
      "logsBloom": "0x00000000000000000000000000000000000000000000000000000000000000000000000000000000000000000000000000000000000000000000000000000000000000000000000000000000000000000000000000000000000000000000000000000000000000000000000000000000000000000000000000000000000000000000000000000000000000000000000000000000000000000000000000000000000000000000000000000000000000000000000000000000000000000000000000000000000000000000000000000000000000000000000000000000000000000000000000000000000000000000000000000000000000000000000000000000",
      "type": "0x2",
      "transactionHash": "0x8ac3ebe7c768dd5bdd0f31fea8d4eb4035ddea69d808b7d2ae2898c1b4c92dca",
      "transactionIndex": "0x3",
      "blockHash": "0x0a3afb5c83e0e3588e2d925e03f9b0bb59fcb05fff90f10b60e9206b833340b9",
      "blockNumber": "0x29b104c",
      "gasUsed": "0x118241",
      "effectiveGasPrice": "0x7a121",
      "blobGasUsed": "0x11e090",
      "from": "0x95606236867c2d3391f3dd2d3004efab08e819e4",
      "to": "0x4e59b44847b379578588920ca78fbf26c0b4956c",
      "contractAddress": null,
      "daFootprintGasScalar": "0x190",
      "l1BaseFeeScalar": "0x7d0",
      "l1BlobBaseFee": "0x3761649",
      "l1BlobBaseFeeScalar": "0xdbba0",
      "l1Fee": "0x399b935251",
      "l1GasPrice": "0x3bf81b68",
      "l1GasUsed": "0xb717"
    },
    {
      "status": "0x1",
      "cumulativeGasUsed": "0x31a6b6",
      "logs": [],
      "logsBloom": "0x00000000000000000000000000000000000000000000000000000000000000000000000000000000000000000000000000000000000000000000000000000000000000000000000000000000000000000000000000000000000000000000000000000000000000000000000000000000000000000000000000000000000000000000000000000000000000000000000000000000000000000000000000000000000000000000000000000000000000000000000000000000000000000000000000000000000000000000000000000000000000000000000000000000000000000000000000000000000000000000000000000000000000000000000000000000",
      "type": "0x2",
      "transactionHash": "0xbd824a8839f88e403e4cee08c2e5ae362bd4d113b5c71fa32f6a28ab896d5aeb",
      "transactionIndex": "0x8",
      "blockHash": "0x0a3afb5c83e0e3588e2d925e03f9b0bb59fcb05fff90f10b60e9206b833340b9",
      "blockNumber": "0x29b104c",
      "gasUsed": "0x1171cb",
      "effectiveGasPrice": "0x7a121",
      "blobGasUsed": "0x105860",
      "from": "0x95606236867c2d3391f3dd2d3004efab08e819e4",
      "to": null,
      "contractAddress": "0x61869c2eca69eeb0f10b7cbd1f0d8070d9954e05",
      "daFootprintGasScalar": "0x190",
      "l1BaseFeeScalar": "0x7d0",
      "l1BlobBaseFee": "0x3761649",
      "l1BlobBaseFeeScalar": "0xdbba0",
      "l1Fee": "0x34ac4091ef",
      "l1GasPrice": "0x3bf81b68",
      "l1GasUsed": "0xa768"
    },
    {
      "status": "0x1",
      "cumulativeGasUsed": "0x402d53",
      "logs": [],
      "logsBloom": "0x00000000000000000000000000000000000000000000000000000000000000000000000000000000000000000000000000000000000000000000000000000000000000000000000000000000000000000000000000000000000000000000000000000000000000000000000000000000000000000000000000000000000000000000000000000000000000000000000000000000000000000000000000000000000000000000000000000000000000000000000000000000000000000000000000000000000000000000000000000000000000000000000000000000000000000000000000000000000000000000000000000000000000000000000000000000",
      "type": "0x2",
      "transactionHash": "0x5cb233e2b3722d629b3c9131c2303444c27c1beb5083496fae5aa53516c558c9",
      "transactionIndex": "0x9",
      "blockHash": "0x0a3afb5c83e0e3588e2d925e03f9b0bb59fcb05fff90f10b60e9206b833340b9",
      "blockNumber": "0x29b104c",
      "gasUsed": "0xe869d",
      "effectiveGasPrice": "0x7a121",
      "blobGasUsed": "0x100d60",
      "from": "0x95606236867c2d3391f3dd2d3004efab08e819e4",
      "to": null,
      "contractAddress": "0x78f9375389524360c6dd512aaaf11763209237d6",
      "daFootprintGasScalar": "0x190",
      "l1BaseFeeScalar": "0x7d0",
      "l1BlobBaseFee": "0x3761649",
      "l1BlobBaseFeeScalar": "0xdbba0",
      "l1Fee": "0x33b8027dce",
      "l1GasPrice": "0x3bf81b68",
      "l1GasUsed": "0xa460"
    },
    {
      "status": "0x1",
      "cumulativeGasUsed": "0x4a09f5",
      "logs": [],
      "logsBloom": "0x00000000000000000000000000000000000000000000000000000000000000000000000000000000000000000000000000000000000000000000000000000000000000000000000000000000000000000000000000000000000000000000000000000000000000000000000000000000000000000000000000000000000000000000000000000000000000000000000000000000000000000000000000000000000000000000000000000000000000000000000000000000000000000000000000000000000000000000000000000000000000000000000000000000000000000000000000000000000000000000000000000000000000000000000000000000",
      "type": "0x2",
      "transactionHash": "0x2c757cefad8a6902c4f3d3023841dfa947bcb52685dc0e5c04a1530f3b04d272",
      "transactionIndex": "0xa",
      "blockHash": "0x0a3afb5c83e0e3588e2d925e03f9b0bb59fcb05fff90f10b60e9206b833340b9",
      "blockNumber": "0x29b104c",
      "gasUsed": "0x9dca2",
      "effectiveGasPrice": "0x7a121",
      "blobGasUsed": "0xb5590",
      "from": "0x95606236867c2d3391f3dd2d3004efab08e819e4",
      "to": null,
      "contractAddress": "0x7a8c0742314fccc2ad8117c4c1c72f07f9cd9f41",
      "daFootprintGasScalar": "0x190",
      "l1BaseFeeScalar": "0x7d0",
      "l1BlobBaseFee": "0x3761649",
      "l1BlobBaseFeeScalar": "0xdbba0",
      "l1Fee": "0x2484f96078",
      "l1GasPrice": "0x3bf81b68",
      "l1GasUsed": "0x7411"
    },
    {
      "status": "0x1",
      "cumulativeGasUsed": "0x578671",
      "logs": [],
      "logsBloom": "0x00000000000000000000000000000000000000000000000000000000000000000000000000000000000000000000000000000000000000000000000000000000000000000000000000000000000000000000000000000000000000000000000000000000000000000000000000000000000000000000000000000000000000000000000000000000000000000000000000000000000000000000000000000000000000000000000000000000000000000000000000000000000000000000000000000000000000000000000000000000000000000000000000000000000000000000000000000000000000000000000000000000000000000000000000000000",
      "type": "0x2",
      "transactionHash": "0x58554377c5f1313bb42e58f1b918f3f5cf2c9489235d89b9b598a3f842b21ea9",
      "transactionIndex": "0xb",
      "blockHash": "0x0a3afb5c83e0e3588e2d925e03f9b0bb59fcb05fff90f10b60e9206b833340b9",
      "blockNumber": "0x29b104c",
      "gasUsed": "0xd7c7c",
      "effectiveGasPrice": "0x7a121",
      "blobGasUsed": "0xf0550",
      "from": "0x95606236867c2d3391f3dd2d3004efab08e819e4",
      "to": null,
      "contractAddress": "0xa6c02dfdf1150252a97fc287f657359673bb66a1",
      "daFootprintGasScalar": "0x190",
      "l1BaseFeeScalar": "0x7d0",
      "l1BlobBaseFee": "0x3761649",
      "l1BlobBaseFeeScalar": "0xdbba0",
      "l1Fee": "0x30699549b6",
      "l1GasPrice": "0x3bf81b68",
      "l1GasUsed": "0x99de"
    },
    {
      "status": "0x1",
      "cumulativeGasUsed": "0x583199",
      "logs": [],
      "logsBloom": "0x00000000000000000000000000000000000000000000000000000000000000000000000000000000000000000000000000000000000000000000000000000000000000000000000000000000000000000000000000000000000000000000000000000000000000000000000000000000000000000000000000000000000000000000000000000000000000000000000000000000000000000000000000000000000000000000000000000000000000000000000000000000000000000000000000000000000000000000000000000000000000000000000000000000000000000000000000000000000000000000000000000000000000000000000000000000",
      "type": "0x2",
      "transactionHash": "0xfa84a6957af00cafc91503ad9cdfbd55b4cffe9c4b3821bd5915a44324c450be",
      "transactionIndex": "0xc",
      "blockHash": "0x0a3afb5c83e0e3588e2d925e03f9b0bb59fcb05fff90f10b60e9206b833340b9",
      "blockNumber": "0x29b104c",
      "gasUsed": "0xab28",
      "effectiveGasPrice": "0x7a121",
      "blobGasUsed": "0x9c40",
      "from": "0x95606236867c2d3391f3dd2d3004efab08e819e4",
      "to": "0x7a8c0742314fccc2ad8117c4c1c72f07f9cd9f41",
      "contractAddress": null,
      "daFootprintGasScalar": "0x190",
      "l1BaseFeeScalar": "0x7d0",
      "l1BlobBaseFee": "0x3761649",
      "l1BlobBaseFeeScalar": "0xdbba0",
      "l1Fee": "0x1f76a93c3",
      "l1GasPrice": "0x3bf81b68",
      "l1GasUsed": "0x640"
    },
    {
      "status": "0x1",
      "cumulativeGasUsed": "0x58e9bf",
      "logs": [
        {
          "address": "0x2131def8af1b70cf1b9b7525e525945e465ac6c0",
          "topics": [
            "0x81639ab8f3fbb025b1e08849071d6ba211e0153cc8c447680595775116b67a1a",
            "0x00000000000000000000000061869c2eca69eeb0f10b7cbd1f0d8070d9954e05"
          ],
          "data": "0x",
          "blockHash": "0x0a3afb5c83e0e3588e2d925e03f9b0bb59fcb05fff90f10b60e9206b833340b9",
          "blockNumber": "0x29b104c",
          "blockTimestamp": "0x6988bd98",
          "transactionHash": "0xe0cef16af6a672201f7178661ae59df6aaf8359d83eb7a9e40478b4ae7526430",
          "transactionIndex": "0xd",
          "logIndex": "0xb",
          "removed": false
        }
      ],
      "logsBloom": "0x00000000000000004000000000000000000000000000000000000000000000000000000000000000000000000000000000000000000000000000000000000000000000000000000002000000000000000000008000000002000000000004000000000000000000000000000000000000000000000000002000000000000000000000000000000000000000000000000000000010000000000000000000000000000000000000000000000000080000000000000000000000000000000000000000000000000000000000000000000000000000100000000000000000000000000000000000000000000000000000000000000000000000000000000000000000",
      "type": "0x2",
      "transactionHash": "0xe0cef16af6a672201f7178661ae59df6aaf8359d83eb7a9e40478b4ae7526430",
      "transactionIndex": "0xd",
      "blockHash": "0x0a3afb5c83e0e3588e2d925e03f9b0bb59fcb05fff90f10b60e9206b833340b9",
      "blockNumber": "0x29b104c",
      "gasUsed": "0xb826",
      "effectiveGasPrice": "0x7a121",
      "blobGasUsed": "0x9c40",
      "from": "0x95606236867c2d3391f3dd2d3004efab08e819e4",
      "to": "0x2131def8af1b70cf1b9b7525e525945e465ac6c0",
      "contractAddress": null,
      "daFootprintGasScalar": "0x190",
      "l1BaseFeeScalar": "0x7d0",
      "l1BlobBaseFee": "0x3761649",
      "l1BlobBaseFeeScalar": "0xdbba0",
      "l1Fee": "0x1f76a93c3",
      "l1GasPrice": "0x3bf81b68",
      "l1GasUsed": "0x640"
    },
    {
      "status": "0x1",
      "cumulativeGasUsed": "0x59a1e5",
      "logs": [
        {
          "address": "0x2131def8af1b70cf1b9b7525e525945e465ac6c0",
          "topics": [
            "0x81639ab8f3fbb025b1e08849071d6ba211e0153cc8c447680595775116b67a1a",
            "0x00000000000000000000000078f9375389524360c6dd512aaaf11763209237d6"
          ],
          "data": "0x",
          "blockHash": "0x0a3afb5c83e0e3588e2d925e03f9b0bb59fcb05fff90f10b60e9206b833340b9",
          "blockNumber": "0x29b104c",
          "blockTimestamp": "0x6988bd98",
          "transactionHash": "0x03a9c44556f8a42b6891e5e1fb8c048e22501ca903cb9ec90837d8d785489601",
          "transactionIndex": "0xe",
          "logIndex": "0xc",
          "removed": false
        }
      ],
      "logsBloom": "0x00000000080000004000000000000000000000000000000000000000000001000000000000000000000000000000001000000000000000000000000000000000000000000000000000000000000000000000008000000002000000000000000000000000000000000000000000000000000000000000002000000000000000000000000000000000000000000000000000000000000000000000000000000000000000000000000000000000080000000000000000000000000000000000000000000000000000000000000000000000000000100000000000000000000000000000000000000000000000000000000000000000000000000000000000000000",
      "type": "0x2",
      "transactionHash": "0x03a9c44556f8a42b6891e5e1fb8c048e22501ca903cb9ec90837d8d785489601",
      "transactionIndex": "0xe",
      "blockHash": "0x0a3afb5c83e0e3588e2d925e03f9b0bb59fcb05fff90f10b60e9206b833340b9",
      "blockNumber": "0x29b104c",
      "gasUsed": "0xb826",
      "effectiveGasPrice": "0x7a121",
      "blobGasUsed": "0x9c40",
      "from": "0x95606236867c2d3391f3dd2d3004efab08e819e4",
      "to": "0x2131def8af1b70cf1b9b7525e525945e465ac6c0",
      "contractAddress": null,
      "daFootprintGasScalar": "0x190",
      "l1BaseFeeScalar": "0x7d0",
      "l1BlobBaseFee": "0x3761649",
      "l1BlobBaseFeeScalar": "0xdbba0",
      "l1Fee": "0x1f76a93c3",
      "l1GasPrice": "0x3bf81b68",
      "l1GasUsed": "0x640"
    },
    {
      "status": "0x1",
      "cumulativeGasUsed": "0x5a5766",
      "logs": [
        {
          "address": "0x4200000000000000000000000000000000000006",
          "topics": [
            "0x8c5be1e5ebec7d5bd14f71427d1e84f3dd0314c0f7b2291e5b200ac8c7c3b925",
            "0x00000000000000000000000095606236867c2d3391f3dd2d3004efab08e819e4",
            "0x00000000000000000000000061869c2eca69eeb0f10b7cbd1f0d8070d9954e05"
          ],
          "data": "0xffffffffffffffffffffffffffffffffffffffffffffffffffffffffffffffff",
          "blockHash": "0x0a3afb5c83e0e3588e2d925e03f9b0bb59fcb05fff90f10b60e9206b833340b9",
          "blockNumber": "0x29b104c",
          "blockTimestamp": "0x6988bd98",
          "transactionHash": "0xfbdae405ed8f923a34294cf5f0ecd0c7066e75f4386d04f38ffb125de9c18c26",
          "transactionIndex": "0xf",
          "logIndex": "0xd",
          "removed": false
        }
      ],
      "logsBloom": "0x00000001000000000000000000000000000000000040000000040000000000000000000000000000000000100000000000000000000000000000000000200000000000000000000002000000000000000000000000000000000000000004000000000000000000000000000000000000000000000000000000000000000000000000000000000000000000000000000000000010002000000000000000000000020000000000000000000000000000000000000000000000000000000000000000000000000000000000000000000000000000200000000000000000000000000010000000000000000000000000000000000000000000000000000000000000",
      "type": "0x2",
      "transactionHash": "0xfbdae405ed8f923a34294cf5f0ecd0c7066e75f4386d04f38ffb125de9c18c26",
      "transactionIndex": "0xf",
      "blockHash": "0x0a3afb5c83e0e3588e2d925e03f9b0bb59fcb05fff90f10b60e9206b833340b9",
      "blockNumber": "0x29b104c",
      "gasUsed": "0xb581",
      "effectiveGasPrice": "0x7a121",
      "blobGasUsed": "0x9c40",
      "from": "0x95606236867c2d3391f3dd2d3004efab08e819e4",
      "to": "0x4200000000000000000000000000000000000006",
      "contractAddress": null,
      "daFootprintGasScalar": "0x190",
      "l1BaseFeeScalar": "0x7d0",
      "l1BlobBaseFee": "0x3761649",
      "l1BlobBaseFeeScalar": "0xdbba0",
      "l1Fee": "0x1f76a93c3",
      "l1GasPrice": "0x3bf81b68",
      "l1GasUsed": "0x640"
    },
    {
      "status": "0x1",
      "cumulativeGasUsed": "0x5b314f",
      "logs": [
        {
          "address": "0x31d0220469e10c4e71834a79b1f276d740d3768f",
          "topics": [
            "0x8c5be1e5ebec7d5bd14f71427d1e84f3dd0314c0f7b2291e5b200ac8c7c3b925",
            "0x00000000000000000000000095606236867c2d3391f3dd2d3004efab08e819e4",
            "0x00000000000000000000000061869c2eca69eeb0f10b7cbd1f0d8070d9954e05"
          ],
          "data": "0xffffffffffffffffffffffffffffffffffffffffffffffffffffffffffffffff",
          "blockHash": "0x0a3afb5c83e0e3588e2d925e03f9b0bb59fcb05fff90f10b60e9206b833340b9",
          "blockNumber": "0x29b104c",
          "blockTimestamp": "0x6988bd98",
          "transactionHash": "0xd08d8fb6c76373d3ea70113884889adeaa1bb0cc00cf98142d6b9828e87dbe0b",
          "transactionIndex": "0x10",
          "logIndex": "0xe",
          "removed": false
        }
      ],
      "logsBloom": "0x00000001000000000000000000000000000000000040000000000000000000000000000000000000000000000000000000000000000000000000000000200000000000000000000002000000000000000000000000001000000000000004000000000000000000000000000000000000000000000000000000000000000000000000000000000000000000000000000000000010000000000000000000000000020000000001000080000000000000000000000000000000000000000000000000000000000000000000000000000000000000200000000000000000000000000010000000000000000000000000000000000000000000000000000000000000",
      "type": "0x2",
      "transactionHash": "0xd08d8fb6c76373d3ea70113884889adeaa1bb0cc00cf98142d6b9828e87dbe0b",
      "transactionIndex": "0x10",
      "blockHash": "0x0a3afb5c83e0e3588e2d925e03f9b0bb59fcb05fff90f10b60e9206b833340b9",
      "blockNumber": "0x29b104c",
      "gasUsed": "0xd9e9",
      "effectiveGasPrice": "0x7a121",
      "blobGasUsed": "0x9c40",
      "from": "0x95606236867c2d3391f3dd2d3004efab08e819e4",
      "to": "0x31d0220469e10c4e71834a79b1f276d740d3768f",
      "contractAddress": null,
      "daFootprintGasScalar": "0x190",
      "l1BaseFeeScalar": "0x7d0",
      "l1BlobBaseFee": "0x3761649",
      "l1BlobBaseFeeScalar": "0xdbba0",
      "l1Fee": "0x1f76a93c3",
      "l1GasPrice": "0x3bf81b68",
      "l1GasUsed": "0x640"
    },
    {
      "status": "0x1",
      "cumulativeGasUsed": "0x5be6d0",
      "logs": [
        {
          "address": "0x4200000000000000000000000000000000000006",
          "topics": [
            "0x8c5be1e5ebec7d5bd14f71427d1e84f3dd0314c0f7b2291e5b200ac8c7c3b925",
            "0x00000000000000000000000095606236867c2d3391f3dd2d3004efab08e819e4",
            "0x00000000000000000000000078f9375389524360c6dd512aaaf11763209237d6"
          ],
          "data": "0xffffffffffffffffffffffffffffffffffffffffffffffffffffffffffffffff",
          "blockHash": "0x0a3afb5c83e0e3588e2d925e03f9b0bb59fcb05fff90f10b60e9206b833340b9",
          "blockNumber": "0x29b104c",
          "blockTimestamp": "0x6988bd98",
          "transactionHash": "0x75771bc03ae368c2b72521d0de139b5dd5cd5ee343d1dc39c9cde75319eda1a3",
          "transactionIndex": "0x11",
          "logIndex": "0xf",
          "removed": false
        }
      ],
      "logsBloom": "0x00000001080000000000000000000000000000000040000000040000000001000000000000000000000000100000001000000000000000000000000000200000000000000000000000000000000000000000000000000000000000000000000000000000000000000000000000000000000000000000000000000000000000000000000000000000000000000000000000000000002000000000000000000000020000000000000000000000000000000000000000000000000000000000000000000000000000000000000000000000000000200000000000000000000000000010000000000000000000000000000000000000000000000000000000000000",
      "type": "0x2",
      "transactionHash": "0x75771bc03ae368c2b72521d0de139b5dd5cd5ee343d1dc39c9cde75319eda1a3",
      "transactionIndex": "0x11",
      "blockHash": "0x0a3afb5c83e0e3588e2d925e03f9b0bb59fcb05fff90f10b60e9206b833340b9",
      "blockNumber": "0x29b104c",
      "gasUsed": "0xb581",
      "effectiveGasPrice": "0x7a121",
      "blobGasUsed": "0x9c40",
      "from": "0x95606236867c2d3391f3dd2d3004efab08e819e4",
      "to": "0x4200000000000000000000000000000000000006",
      "contractAddress": null,
      "daFootprintGasScalar": "0x190",
      "l1BaseFeeScalar": "0x7d0",
      "l1BlobBaseFee": "0x3761649",
      "l1BlobBaseFeeScalar": "0xdbba0",
      "l1Fee": "0x1f76a93c3",
      "l1GasPrice": "0x3bf81b68",
      "l1GasUsed": "0x640"
    },
    {
      "status": "0x1",
      "cumulativeGasUsed": "0x5cc0b9",
      "logs": [
        {
          "address": "0x31d0220469e10c4e71834a79b1f276d740d3768f",
          "topics": [
            "0x8c5be1e5ebec7d5bd14f71427d1e84f3dd0314c0f7b2291e5b200ac8c7c3b925",
            "0x00000000000000000000000095606236867c2d3391f3dd2d3004efab08e819e4",
            "0x00000000000000000000000078f9375389524360c6dd512aaaf11763209237d6"
          ],
          "data": "0xffffffffffffffffffffffffffffffffffffffffffffffffffffffffffffffff",
          "blockHash": "0x0a3afb5c83e0e3588e2d925e03f9b0bb59fcb05fff90f10b60e9206b833340b9",
          "blockNumber": "0x29b104c",
          "blockTimestamp": "0x6988bd98",
          "transactionHash": "0x1fdb6c8d57f6bdf1edd07606a1734b1206f744d32a98ef07903836121cf00241",
          "transactionIndex": "0x12",
          "logIndex": "0x10",
          "removed": false
        }
      ],
      "logsBloom": "0x00000001080000000000000000000000000000000040000000000000000001000000000000000000000000000000001000000000000000000000000000200000000000000000000000000000000000000000000000001000000000000000000000000000000000000000000000000000000000000000000000000000000000000000000000000000000000000000000000000000000000000000000000000000020000000001000080000000000000000000000000000000000000000000000000000000000000000000000000000000000000200000000000000000000000000010000000000000000000000000000000000000000000000000000000000000",
      "type": "0x2",
      "transactionHash": "0x1fdb6c8d57f6bdf1edd07606a1734b1206f744d32a98ef07903836121cf00241",
      "transactionIndex": "0x12",
      "blockHash": "0x0a3afb5c83e0e3588e2d925e03f9b0bb59fcb05fff90f10b60e9206b833340b9",
      "blockNumber": "0x29b104c",
      "gasUsed": "0xd9e9",
      "effectiveGasPrice": "0x7a121",
      "blobGasUsed": "0x9c40",
      "from": "0x95606236867c2d3391f3dd2d3004efab08e819e4",
      "to": "0x31d0220469e10c4e71834a79b1f276d740d3768f",
      "contractAddress": null,
      "daFootprintGasScalar": "0x190",
      "l1BaseFeeScalar": "0x7d0",
      "l1BlobBaseFee": "0x3761649",
      "l1BlobBaseFeeScalar": "0xdbba0",
      "l1Fee": "0x1f76a93c3",
      "l1GasPrice": "0x3bf81b68",
      "l1GasUsed": "0x640"
    },
    {
      "status": "0x1",
      "cumulativeGasUsed": "0x5d763a",
      "logs": [
        {
          "address": "0x4200000000000000000000000000000000000006",
          "topics": [
            "0x8c5be1e5ebec7d5bd14f71427d1e84f3dd0314c0f7b2291e5b200ac8c7c3b925",
            "0x00000000000000000000000095606236867c2d3391f3dd2d3004efab08e819e4",
            "0x000000000000000000000000a6c02dfdf1150252a97fc287f657359673bb66a1"
          ],
          "data": "0xffffffffffffffffffffffffffffffffffffffffffffffffffffffffffffffff",
          "blockHash": "0x0a3afb5c83e0e3588e2d925e03f9b0bb59fcb05fff90f10b60e9206b833340b9",
          "blockNumber": "0x29b104c",
          "blockTimestamp": "0x6988bd98",
          "transactionHash": "0x8d04cacecbdb5304eb969f279d843925fd9e1a4fc434e3c23d1f4bcea754a844",
          "transactionIndex": "0x13",
          "logIndex": "0x11",
          "removed": false
        }
      ],
      "logsBloom": "0x00000001000000000000000000000000000000002040000000040000000000004000000000000000000000100000000000000000000000002000000000200000000000000000000000000000000000000000000000000000000000000000000000000000000000000000000000000000000000000000000000000000000000000000000000000000000000000000000000000000002000000000000000000000020000000000000000000000000000000000000000000000000000000000000000000000000000000000000000000000000000200000000000000000000000000010000000000000000000000000000000000000000000000000000000000000",
      "type": "0x2",
      "transactionHash": "0x8d04cacecbdb5304eb969f279d843925fd9e1a4fc434e3c23d1f4bcea754a844",
      "transactionIndex": "0x13",
      "blockHash": "0x0a3afb5c83e0e3588e2d925e03f9b0bb59fcb05fff90f10b60e9206b833340b9",
      "blockNumber": "0x29b104c",
      "gasUsed": "0xb581",
      "effectiveGasPrice": "0x7a121",
      "blobGasUsed": "0x9c40",
      "from": "0x95606236867c2d3391f3dd2d3004efab08e819e4",
      "to": "0x4200000000000000000000000000000000000006",
      "contractAddress": null,
      "daFootprintGasScalar": "0x190",
      "l1BaseFeeScalar": "0x7d0",
      "l1BlobBaseFee": "0x3761649",
      "l1BlobBaseFeeScalar": "0xdbba0",
      "l1Fee": "0x1f76a93c3",
      "l1GasPrice": "0x3bf81b68",
      "l1GasUsed": "0x640"
    },
    {
      "status": "0x1",
      "cumulativeGasUsed": "0x5e3f5b",
      "logs": [
        {
          "address": "0x00b036b58a818b1bc34d502d3fe730db729e62ac",
          "topics": [
            "0xdd466e674ea557f56295e2d0218a125ea4b4f0f6f3307b95f85e6110838d6438",
            "0x07eb7aa970922aad3a3116688e325f1c55de6b2d1f4c3da05a4d9ef591e5178b",
            "0x00000000000000000000000031d0220469e10c4e71834a79b1f276d740d3768f",
            "0x0000000000000000000000004200000000000000000000000000000000000006"
          ],
          "data": "0x0000000000000000000000000000000000000000000000000000000000000bb8000000000000000000000000000000000000000000000000000000000000003c0000000000000000000000002131def8af1b70cf1b9b7525e525945e465ac6c000000000000000000000000000000000000000010000000000000000000000000000000000000000000000000000000000000000000000000000000000000000",
          "blockHash": "0x0a3afb5c83e0e3588e2d925e03f9b0bb59fcb05fff90f10b60e9206b833340b9",
          "blockNumber": "0x29b104c",
          "blockTimestamp": "0x6988bd98",
          "transactionHash": "0x542e1d2063213fde9aca5a774940df2d225faaa219a75f1713d105ef8f93f16f",
          "transactionIndex": "0x14",
          "logIndex": "0x12",
          "removed": false
        }
      ],
      "logsBloom": "0x00000000000000000000000000000000000000000000000000000000000000000000000000000080000000000000000000000000000000000020000000000000000000000000000000000000000000000000000000000000000000000000000000000000000000000000000000000000000010000000000000000000000000000000000000000008002000000008000000000001000000000000000000200001000000000000000000000000000000000000000000000000000000000000000000000000000004008000000000000000000000000000000000000000000000000000000000001000000000000000000000000000000002010000000000000010",
      "type": "0x2",
      "transactionHash": "0x542e1d2063213fde9aca5a774940df2d225faaa219a75f1713d105ef8f93f16f",
      "transactionIndex": "0x14",
      "blockHash": "0x0a3afb5c83e0e3588e2d925e03f9b0bb59fcb05fff90f10b60e9206b833340b9",
      "blockNumber": "0x29b104c",
      "gasUsed": "0xc921",
      "effectiveGasPrice": "0x7a121",
      "blobGasUsed": "0xce40",
      "from": "0x95606236867c2d3391f3dd2d3004efab08e819e4",
      "to": "0x00b036b58a818b1bc34d502d3fe730db729e62ac",
      "contractAddress": null,
      "daFootprintGasScalar": "0x190",
      "l1BaseFeeScalar": "0x7d0",
      "l1BlobBaseFee": "0x3761649",
      "l1BlobBaseFeeScalar": "0xdbba0",
      "l1Fee": "0x299bb7a6f",
      "l1GasPrice": "0x3bf81b68",
      "l1GasUsed": "0x843"
    },
    {
      "status": "0x1",
      "cumulativeGasUsed": "0x6565df",
      "logs": [
        {
          "address": "0x00b036b58a818b1bc34d502d3fe730db729e62ac",
          "topics": [
            "0xf208f4912782fd25c7f114ca3723a2d5dd6f3bcc3ac8db5af63baa85f711d5ec",
            "0x07eb7aa970922aad3a3116688e325f1c55de6b2d1f4c3da05a4d9ef591e5178b",
            "0x00000000000000000000000078f9375389524360c6dd512aaaf11763209237d6"
          ],
          "data": "0xffffffffffffffffffffffffffffffffffffffffffffffffffffffffffffff8800000000000000000000000000000000000000000000000000000000000000780000000000000000000000000000000000000000000000000000000029b927000000000000000000000000000000000000000000000000000000000000000001",
          "blockHash": "0x0a3afb5c83e0e3588e2d925e03f9b0bb59fcb05fff90f10b60e9206b833340b9",
          "blockNumber": "0x29b104c",
          "blockTimestamp": "0x6988bd98",
          "transactionHash": "0x6e26238e34d9c56b0353e967b5b67438c8dd9bcfaed2d444c107d5c0311e154e",
          "transactionIndex": "0x15",
          "logIndex": "0x13",
          "removed": false
        },
        {
          "address": "0x2131def8af1b70cf1b9b7525e525945e465ac6c0",
          "topics": [
            "0xbfa58399b4447e933d353f718fb884c25d8d9937694b69fac7df73e7c677fb33",
            "0x07eb7aa970922aad3a3116688e325f1c55de6b2d1f4c3da05a4d9ef591e5178b",
            "0x00000000000000000000000078f9375389524360c6dd512aaaf11763209237d6"
          ],
          "data": "0xffffffffffffffffffffffffffffffffffffffffffffffffffffffffffffff8800000000000000000000000000000000000000000000000000000000000000780000000000000000000000000000000000000000000000000000000000000001",
          "blockHash": "0x0a3afb5c83e0e3588e2d925e03f9b0bb59fcb05fff90f10b60e9206b833340b9",
          "blockNumber": "0x29b104c",
          "blockTimestamp": "0x6988bd98",
          "transactionHash": "0x6e26238e34d9c56b0353e967b5b67438c8dd9bcfaed2d444c107d5c0311e154e",
          "transactionIndex": "0x15",
          "logIndex": "0x14",
          "removed": false
        },
        {
          "address": "0x00b036b58a818b1bc34d502d3fe730db729e62ac",
          "topics": [
            "0xf208f4912782fd25c7f114ca3723a2d5dd6f3bcc3ac8db5af63baa85f711d5ec",
            "0x07eb7aa970922aad3a3116688e325f1c55de6b2d1f4c3da05a4d9ef591e5178b",
            "0x00000000000000000000000078f9375389524360c6dd512aaaf11763209237d6"
          ],
          "data": "0xffffffffffffffffffffffffffffffffffffffffffffffffffffffffffffff8800000000000000000000000000000000000000000000000000000000000000780000000000000000000000000000000000000000000000000000000029b927000000000000000000000000000000000000000000000000000000000000000002",
          "blockHash": "0x0a3afb5c83e0e3588e2d925e03f9b0bb59fcb05fff90f10b60e9206b833340b9",
          "blockNumber": "0x29b104c",
          "blockTimestamp": "0x6988bd98",
          "transactionHash": "0x6e26238e34d9c56b0353e967b5b67438c8dd9bcfaed2d444c107d5c0311e154e",
          "transactionIndex": "0x15",
          "logIndex": "0x15",
          "removed": false
        },
        {
          "address": "0x2131def8af1b70cf1b9b7525e525945e465ac6c0",
          "topics": [
            "0xbfa58399b4447e933d353f718fb884c25d8d9937694b69fac7df73e7c677fb33",
            "0x07eb7aa970922aad3a3116688e325f1c55de6b2d1f4c3da05a4d9ef591e5178b",
            "0x00000000000000000000000078f9375389524360c6dd512aaaf11763209237d6"
          ],
          "data": "0xffffffffffffffffffffffffffffffffffffffffffffffffffffffffffffff8800000000000000000000000000000000000000000000000000000000000000780000000000000000000000000000000000000000000000000000000000000002",
          "blockHash": "0x0a3afb5c83e0e3588e2d925e03f9b0bb59fcb05fff90f10b60e9206b833340b9",
          "blockNumber": "0x29b104c",
          "blockTimestamp": "0x6988bd98",
          "transactionHash": "0x6e26238e34d9c56b0353e967b5b67438c8dd9bcfaed2d444c107d5c0311e154e",
          "transactionIndex": "0x15",
          "logIndex": "0x16",
          "removed": false
        },
        {
          "address": "0x00b036b58a818b1bc34d502d3fe730db729e62ac",
          "topics": [
            "0xf208f4912782fd25c7f114ca3723a2d5dd6f3bcc3ac8db5af63baa85f711d5ec",
            "0x07eb7aa970922aad3a3116688e325f1c55de6b2d1f4c3da05a4d9ef591e5178b",
            "0x00000000000000000000000078f9375389524360c6dd512aaaf11763209237d6"
          ],
          "data": "0xffffffffffffffffffffffffffffffffffffffffffffffffffffffffffffff8800000000000000000000000000000000000000000000000000000000000000780000000000000000000000000000000000000000000000000000000029b927000000000000000000000000000000000000000000000000000000000000000003",
          "blockHash": "0x0a3afb5c83e0e3588e2d925e03f9b0bb59fcb05fff90f10b60e9206b833340b9",
          "blockNumber": "0x29b104c",
          "blockTimestamp": "0x6988bd98",
          "transactionHash": "0x6e26238e34d9c56b0353e967b5b67438c8dd9bcfaed2d444c107d5c0311e154e",
          "transactionIndex": "0x15",
          "logIndex": "0x17",
          "removed": false
        },
        {
          "address": "0x2131def8af1b70cf1b9b7525e525945e465ac6c0",
          "topics": [
            "0xbfa58399b4447e933d353f718fb884c25d8d9937694b69fac7df73e7c677fb33",
            "0x07eb7aa970922aad3a3116688e325f1c55de6b2d1f4c3da05a4d9ef591e5178b",
            "0x00000000000000000000000078f9375389524360c6dd512aaaf11763209237d6"
          ],
          "data": "0xffffffffffffffffffffffffffffffffffffffffffffffffffffffffffffff8800000000000000000000000000000000000000000000000000000000000000780000000000000000000000000000000000000000000000000000000000000003",
          "blockHash": "0x0a3afb5c83e0e3588e2d925e03f9b0bb59fcb05fff90f10b60e9206b833340b9",
          "blockNumber": "0x29b104c",
          "blockTimestamp": "0x6988bd98",
          "transactionHash": "0x6e26238e34d9c56b0353e967b5b67438c8dd9bcfaed2d444c107d5c0311e154e",
          "transactionIndex": "0x15",
          "logIndex": "0x18",
          "removed": false
        },
        {
          "address": "0x31d0220469e10c4e71834a79b1f276d740d3768f",
          "topics": [
            "0xddf252ad1be2c89b69c2b068fc378daa952ba7f163c4a11628f55a4df523b3ef",
            "0x00000000000000000000000095606236867c2d3391f3dd2d3004efab08e819e4",
            "0x00000000000000000000000000b036b58a818b1bc34d502d3fe730db729e62ac"
          ],
          "data": "0x0000000000000000000000000000000000000000000000000000000000bfacf3",
          "blockHash": "0x0a3afb5c83e0e3588e2d925e03f9b0bb59fcb05fff90f10b60e9206b833340b9",
          "blockNumber": "0x29b104c",
          "blockTimestamp": "0x6988bd98",
          "transactionHash": "0x6e26238e34d9c56b0353e967b5b67438c8dd9bcfaed2d444c107d5c0311e154e",
          "transactionIndex": "0x15",
          "logIndex": "0x19",
          "removed": false
        },
        {
          "address": "0x4200000000000000000000000000000000000006",
          "topics": [
            "0xddf252ad1be2c89b69c2b068fc378daa952ba7f163c4a11628f55a4df523b3ef",
            "0x00000000000000000000000095606236867c2d3391f3dd2d3004efab08e819e4",
            "0x00000000000000000000000000b036b58a818b1bc34d502d3fe730db729e62ac"
          ],
          "data": "0x0000000000000000000000000000000000000000000000000000000000bfacf3",
          "blockHash": "0x0a3afb5c83e0e3588e2d925e03f9b0bb59fcb05fff90f10b60e9206b833340b9",
          "blockNumber": "0x29b104c",
          "blockTimestamp": "0x6988bd98",
          "transactionHash": "0x6e26238e34d9c56b0353e967b5b67438c8dd9bcfaed2d444c107d5c0311e154e",
          "transactionIndex": "0x15",
          "logIndex": "0x1a",
          "removed": false
        }
      ],
      "logsBloom": "0x00000001080000000000000000000000000800000040000000040000000001000000000000000000000000100000001000000000001000000000000000000000000000000000000000000008000000000000008000001002000000000000000000000000000000000000000002004000000000000000002000000010000000000000000001000000002000000008000000000000002000000000000000000001000004000041000080000000000000000000000000000020000000000000000000000002000000000000000000000000000000200000000000000000000000000000000000000000000000000000000004000000000002010000000000000010",
      "type": "0x2",
      "transactionHash": "0x6e26238e34d9c56b0353e967b5b67438c8dd9bcfaed2d444c107d5c0311e154e",
      "transactionIndex": "0x15",
      "blockHash": "0x0a3afb5c83e0e3588e2d925e03f9b0bb59fcb05fff90f10b60e9206b833340b9",
      "blockNumber": "0x29b104c",
      "gasUsed": "0x72684",
      "effectiveGasPrice": "0x7a121",
      "blobGasUsed": "0x12a70",
      "from": "0x95606236867c2d3391f3dd2d3004efab08e819e4",
      "to": "0x78f9375389524360c6dd512aaaf11763209237d6",
      "contractAddress": null,
      "daFootprintGasScalar": "0x190",
      "l1BaseFeeScalar": "0x7d0",
      "l1BlobBaseFee": "0x3761649",
      "l1BlobBaseFeeScalar": "0xdbba0",
      "l1Fee": "0x3c4b805d4",
      "l1GasPrice": "0x3bf81b68",
      "l1GasUsed": "0xbfa"
    }
  ],
  "libraries": [],
  "pending": [],
  "returns": {},
  "timestamp": 1770569112891,
  "chain": 1301,
  "commit": "61046f0"
}