{
  "transactions": [
    {
      "hash": "0xc12c86f4451b0304989e02a38cd77e1eff296f04abdd73a31ade62b98c5b1257",
      "transactionType": "CREATE2",
      "contractName": "PrivacySwapHook",
      "contractAddress": "0x29315c3a1a31f9941ae15e02e7ae1b5567de46c0",
      "function": null,
      "arguments": [
        "0x00B036B58a818B1BC34d502D3fE730Db729e62AC",
        "5",
        "0x95606236867C2D3391F3dd2D3004EFAB08e819e4"
      ],
      "transaction": {
        "from": "0x95606236867c2d3391f3dd2d3004efab08e819e4",
        "to": "0x4e59b44847b379578588920ca78fbf26c0b4956c",
        "gas": "0x18b50b",
        "value": "0x0",
        "input": "0x000000000000000000000000000000000000000000000000000000000000ef9c60a03461011d57601f61135638819003918201601f19168301916001600160401b038311848410176101215780849260609460405283398101031261011d5780516001600160a01b038116919082810361011d5760208201519263ffffffff84169283850361011d5760400151916001600160a01b0383169182840361011d571561010e5760805215610107575b5f80546001600160a01b0319166001600160a01b03929092169190911790556100fc575063ffffffff60015b1663ffffffff1960025416176002556040516112209081610136823960805181818161021a015281816104910152818161056301528181610836015261096f0152f35b63ffffffff906100b9565b503361008d565b63d92e233d60e01b5f5260045ffd5b5f80fd5b634e487b7160e01b5f52604160045260245ffdfe60806040526004361015610011575f80fd5b5f3560e01c806321d0ee701461095a57806324ca984e146108e4578063259982e5146108c2578063575e24b4146107e05780636ae0b154146107725780636c2bbe7e1461074e5780636fe7e6eb1461071657806375829def146106bc5780639f063efc1461054c578063b47b2fb11461043b578063b6a8b0fa146101c2578063b9662c8314610411578063c4e833ce146102a9578063c5b7cf9e14610286578063c646aee214610249578063dc4c90d314610205578063dc98354e146101c7578063e1b4af69146101c2578063e9702d2714610198578063f102391c1461012b5763f851a44014610100575f80fd5b34610127575f366003190112610127575f546040516001600160a01b039091168152602090f35b5f80fd5b346101275760203660031901126101275760043563ffffffff8116808203610127575f546001600160a01b031633036101895761017e575063ffffffff60015b1663ffffffff1960025416176002555f80f35b63ffffffff9061016b565b637bfa4b9f60e01b5f5260045ffd5b34610127576020366003190112610127576004355f526004602052602060405f2054604051908152f35b610b05565b346101275760e0366003190112610127576101e06109bc565b5060a0366023190112610127576101f5610adf565b5063d623472560e01b5f5260045ffd5b34610127575f366003190112610127576040517f00000000000000000000000000000000000000000000000000000000000000006001600160a01b03168152602090f35b34610127576020366003190112610127576001600160a01b0361026a6109bc565b165f526001602052602060ff60405f2054166040519015158152f35b34610127575f36600319011261012757602063ffffffff60025416604051908152f35b34610127575f366003190112610127575f6101a06040516102c981610b7b565b8281528260208201528260408201528260608201528260808201528260a08201528260c08201528260e0820152826101008201528261012082015282610140820152826101608201528261018082015201526101c0602060405161032c81610b7b565b5f8152818101905f8252604081015f81526060820160018152608083016001815260a084015f815260c085016001815260e0860190600182526101008701925f84526101208801945f86526101408901965f88526101608a01985f8a526101a06101808c019b5f8d52019b5f8d526040519d8e915f835251151591015251151560408d015251151560608c015251151560808b015251151560a08a015251151560c089015251151560e08801525115156101008701525115156101208601525115156101408501525115156101608401525115156101808301525115156101a0820152f35b34610127576020366003190112610127576004355f526003602052602060405f2054604051908152f35b3461012757610160366003190112610127576104556109bc565b60a03660231901126101275760603660c319011261012757610144356001600160401b0381116101275761048d9036906004016109e6565b90507f00000000000000000000000000000000000000000000000000000000000000006001600160a01b0316330361053d576104da575b6040805163b47b2fb160e01b81525f6020820152f35b60a06104e536610c03565b205f5260046020524360405f205560a06104fe36610c03565b206040514381526001600160a01b03909216917f22421962bfaa39dd537a12f6e9a519f79eea832ac6dfd20e0dc3d125c8eac29990602090a3806104c4565b63570c108560e11b5f5260045ffd5b346101275761055a36610a76565b509293925050507f00000000000000000000000000000000000000000000000000000000000000006001600160a01b0316330361053d575f6040830135136105b3575b604080516327c18fbf60e21b81525f6020820152f35b6105bd3682610c8a565b60a090206105ca83610d09565b938060208501956105da87610d09565b60408051602081019687526001600160a01b039490941690840152600291820b606080850191909152910b608083015285013560a08083018290528252929061062460c082610be2565b51902091825f52600360205260405f20541561067b60a06106747fbfa58399b4447e933d353f718fb884c25d8d9937694b69fac7df73e7c677fb3397606097610681956106a9575b503690610c8a565b2096610d09565b96610d09565b6040519660020b875260020b6020870152604086015260018060a01b031693a380808061059d565b5f5260036020524360405f20558b61066c565b34610127576020366003190112610127576106d56109bc565b5f54906001600160a01b0382163303610189576001600160a01b0316908115610707576001600160a01b031916175f55005b63d92e233d60e01b5f5260045ffd5b3461012757610100366003190112610127576107306109bc565b5060a036602319011261012757610745610adf565b506101f5610af5565b346101275761075c36610a76565b5050505050505063d623472560e01b5f5260045ffd5b346101275760203660031901126101275761078b6109bc565b5f546001600160a01b03163303610189576001600160a01b03165f818152600160205260408120805460ff191690557fbd6d178d515bf811c86f393b42367076da766033c8ebd94ea5a7e3eaf69d1c469080a2005b3461012757610140366003190112610127576107fa6109bc565b60a03660231901126101275760603660c319011261012757610124356001600160401b038111610127576108329036906004016109e6565b90917f00000000000000000000000000000000000000000000000000000000000000006001600160a01b0316330361053d576001600160a01b03165f9081526001602052604090205460ff16156108b35761089362ffffff91606093610e51565b906040939293519363ffffffff60e01b1684526020840152166040820152f35b63cec13f7b60e01b5f5260045ffd5b34610127576108d036610a13565b505050505063d623472560e01b5f5260045ffd5b34610127576020366003190112610127576108fd6109bc565b5f546001600160a01b03163303610189576001600160a01b0316801561070757805f52600160205260405f20600160ff198254161790557f81639ab8f3fbb025b1e08849071d6ba211e0153cc8c447680595775116b67a1a5f80a2005b346101275761096836610a13565b50919291507f00000000000000000000000000000000000000000000000000000000000000006001600160a01b0316330361053d576020926109a992610d38565b6040516001600160e01b03199091168152f35b600435906001600160a01b038216820361012757565b35906001600160a01b038216820361012757565b9181601f84011215610127578235916001600160401b038311610127576020838186019501011161012757565b90610160600319830112610127576004356001600160a01b0381168103610127579160a060231982011261012757602491608060c3198301126101275760c49161014435906001600160401b03821161012757610a72916004016109e6565b9091565b906101a0600319830112610127576004356001600160a01b0381168103610127579160a060231982011261012757602491608060c3198301126101275760c4916101443591610164359161018435906001600160401b03821161012757610a72916004016109e6565b60c435906001600160a01b038216820361012757565b60e435908160020b820361012757565b3461012757610120366003190112610127576004356001600160a01b0381168103610127575060a036602319011261012757610104356001600160401b03811161012757610b579036906004016109e6565b505063d623472560e01b5f908152600490fd5b359063ffffffff8216820361012757565b6101c081019081106001600160401b03821117610b9757604052565b634e487b7160e01b5f52604160045260245ffd5b60a081019081106001600160401b03821117610b9757604052565b61010081019081106001600160401b03821117610b9757604052565b90601f801991011681019081106001600160401b03821117610b9757604052565b60a09060231901126101275760405190610c1c82610bab565b816024356001600160a01b03811681036101275781526044356001600160a01b038116810361012757602082015260643562ffffff811681036101275760408201526084358060020b810361012757606082015260a435906001600160a01b03821682036101275760800152565b91908260a091031261012757604051610ca281610bab565b8092610cad816109d2565b8252610cbb602082016109d2565b6020830152604081013562ffffff811681036101275760408301526060810135908160020b820361012757606083019190915260800135906001600160a01b03821682036101275760800152565b358060020b81036101275790565b91908203918211610d2457565b634e487b7160e01b5f52601160045260245ffd5b905f60408401351215610e425760a0610d513683610c8a565b205f52600460205260405f20544314610e335760a0610d74610de0923690610c8a565b2091610dd2610d8285610d09565b93610d8f60208701610d09565b60408051602081019384526001600160a01b0390951690850152600295860b606080860191909152950b6080840152949093013560a082015291829060c0820190565b03601f198101835282610be2565b5190205f52600360205260405f20548015610e2757610dff9043610d17565b63ffffffff6002541611610e185763021d0ee760e41b90565b633853638b60e01b5f5260045ffd5b5063021d0ee760e41b90565b63228d82db60e21b5f5260045ffd5b5063021d0ee760e41b92915050565b81156110865760405191610e6483610bc6565b5f83525f60208401525f60408401525f60608401525f60e0608094604051610e8c8782610be2565b86368237868201528260a08201528260c08201520152810191610160828403126101275760405192610ebd84610bc6565b610ec683611097565b8452610ed460208401611097565b9060208501918252610ee860408501610b6a565b9260408601938452610efc60608601610b6a565b606087015281609f860112156101275760405190610f1a8183610be2565b81610100870193841161012757818701905b848210611076575050860152359260ff84168403610127576101409060a0860194855261012081013560c0870152013560e08501526001600160401b038151166001600160401b0385511610156110675760026001600160401b03610f988184511682885116906110ab565b1610611067576001600160401b03610fba8161010093511682875116906110ab565b16116110675763ffffffff9051166001811090811561105c575b5061104d575160ff168015908115611042575b506110335760a0610ff9366024610c8a565b206110044383611156565b03611024576110149043906110cb565b506315d7892d60e21b905f908190565b63f31017e560e01b5f5260045ffd5b6368c4312b60e11b5f5260045ffd5b60049150115f610fe7565b63184774cd60e01b5f5260045ffd5b60649150115f610fd4565b631777743d60e21b5f5260045ffd5b8135815260209182019101610f2c565b506315d7892d60e21b915f91508190565b35906001600160401b038216820361012757565b906001600160401b03809116911603906001600160401b038211610d2457565b906001600160401b038251168110611147576001600160401b0360208301511681116111385763ffffffff60608301511680156111305761111360409163ffffffff93610d17565b920151161161112157600190565b63a965618960e01b5f5260045ffd5b505050600190565b633c09dd1160e01b5f5260045ffd5b637cd4c09b60e11b5f5260045ffd5b9060a082019060ff82511680156111e2576001146111d85780156111ce575f198101908111610d245760ff90915b511680156111ba5760809140069101519060048110156111a65760051b015190565b634e487b7160e01b5f52603260045260245ffd5b634e487b7160e01b5f52601260045260245ffd5b5060ff5f91611184565b5050608001515190565b505050505f9056fea2646970667358221220834162673203dc45e19ef9288a9200eb6f93edad8a1a3cfae5df1bbb51410efe64736f6c634300081a003300000000000000000000000000b036b58a818b1bc34d502d3fe730db729e62ac000000000000000000000000000000000000000000000000000000000000000500000000000000000000000095606236867c2d3391f3dd2d3004efab08e819e4",
        "nonce": "0x86",
        "chainId": "0x515"
      },
      "additionalContracts": [],
      "isFixedGasLimit": false
    },
    {
      "hash": "0x5dc817684c56e06cf2742cece5386047537b576ed71a598144349ea238cf0180",
      "transactionType": "CREATE",
      "contractName": "PoolSwapTest",
      "contractAddress": "0x606738aa1f7a54c0978795d087cd32942c88ad96",
      "function": null,
      "arguments": [
        "0x00B036B58a818B1BC34d502D3fE730Db729e62AC"
      ],
      "transaction": {
        "from": "0x95606236867c2d3391f3dd2d3004efab08e819e4",
        "gas": "0x16ad87",
        "value": "0x0",
        "input": "0x60a034607a57601f61143e38819003918201601f19168301916001600160401b03831184841017607e57808492602094604052833981010312607a57516001600160a01b0381168103607a576080526040516113ab90816100938239608051818181608d0152818161096e01528181610bb90152610f780152f35b5f80fd5b634e487b7160e01b5f52604160045260245ffdfe60806040526004361015610011575f80fd5b5f3560e01c80632229d0b41461099d578063481c6a7514610959576391dd73461461003a575f80fd5b346108b85760203660031901126108b85760043567ffffffffffffffff81116108b857366023820112156108b857806004013567ffffffffffffffff81116108b85781019060248201913683116108b8577f0000000000000000000000000000000000000000000000000000000000000000926001600160a01b03841692338490036108b8576020818403126108b85760248101359067ffffffffffffffff82116108b8570190610180828403126108b857604051916100f983610d02565b61010560248201610d8c565b83526040601f1982860301126108b8576040519061012282610d4e565b61012e60448201610da0565b825261013c60648201610da0565b60208301526020840191825260a060246083198388030101126108b8576040519461016686610d02565b61017260848301610d8c565b865261018060a48301610d8c565b602087015260c482013562ffffff811681036108b857604087015260e48201358060020b81036108b85760608701526101048201356001600160a01b03811681036108b85760808701526040850195865260609082900360ff1901126108b857604051926101ed84610d32565b6101fa6101248301610da0565b845261014482013560208501526101648201356001600160a01b03811681036108b8576040850152606085019384526101848201359167ffffffffffffffff83116108b85761024c9201602401610dc9565b6080840190815284515184519196916102739130916001600160a01b039081169116610f69565b8751602001518751919350610297925030916001600160a01b039081169116610f69565b92915050610914576108cf576102fc956020916102d55f8851610310885195516040519c8d9788968795633cf3645360e21b87526004870190610e33565b8051151560a4860152602081015160c4860152604001516001600160a01b031660e4850152565b610120610104840152610124830190610e0f565b03925af19485156108c4575f9561088c575b5083515183516103409130916001600160a01b039081169116610f69565b865160200151865191999350610365925030916001600160a01b039081169116610f69565b855180519196935091501561068657505f602082510151125f1461058a575160200151871261050f5761039f878760801d600f0b14610e85565b5f83126104b4576103fa965b5f8112610490575b5f8412610459575b5f811361042d575b505f83136103fe575b8686604051906020820152602081526103e6604082610d6a565b604051918291602083526020830190610e0f565b0390f35b935160200151925190515161042394901515936001600160a01b039283169216611279565b5f808080806103cc565b8551518551845151610453939015159290916001600160a01b0390811691869116611279565b5f6103c3565b855160200151855161048b916001600160a01b03908116911661047b87610f45565b9085602088510151151593611039565b6103bb565b85515185516104af916001600160a01b03908116911661047b84610f45565b6103b3565b60405162461bcd60e51b815260206004820152602d60248201527f64656c7461416674657231206973206e6f742067726561746572207468616e2060448201526c06f7220657175616c20746f203609c1b6064820152608490fd5b60405162461bcd60e51b815260206004820152604760248201527f64656c7461416674657230206973206e6f742067726561746572207468616e2060448201527f6f7220657175616c20746f20646174612e706172616d732e616d6f756e7453706064820152661958da599a595960ca1b608482015260a490fd5b5f881361062b576020906105a28589600f0b14610ee5565b51015183136105b4576103fa966103ab565b60a460405162461bcd60e51b815260206004820152604460248201527f64656c7461416674657231206973206e6f74206c657373207468616e206f722060448201527f657175616c20746f20646174612e706172616d732e616d6f756e745370656369606482015263199a595960e21b6084820152fd5b60405162461bcd60e51b815260206004820152602d60248201527f64656c7461416674657230206973206e6f74206c657373207468616e206f722060448201526c657175616c20746f207a65726f60981b6064820152608490fd5b602001515f13156107905751602001518312610715576106aa8387600f0b14610ee5565b5f87126106ba576103fa966103ab565b60405162461bcd60e51b815260206004820152602d60248201527f64656c7461416674657230206973206e6f742067726561746572207468616e2060448201526c06f7220657175616c20746f203609c1b6064820152608490fd5b60405162461bcd60e51b815260206004820152604760248201527f64656c7461416674657231206973206e6f742067726561746572207468616e2060448201527f6f7220657175616c20746f20646174612e706172616d732e616d6f756e7453706064820152661958da599a595960ca1b608482015260a490fd5b5f8413610834576020906107ab898960801d600f0b14610e85565b51015187136107bd576103fa966103ab565b60a460405162461bcd60e51b815260206004820152604460248201527f64656c7461416674657230206973206e6f74206c657373207468616e206f722060448201527f657175616c20746f20646174612e706172616d732e616d6f756e745370656369606482015263199a595960e21b6084820152fd5b60405162461bcd60e51b815260206004820152602a60248201527f64656c7461416674657231206973206e6f74206c657373207468616e206f72206044820152690657175616c20746f20360b41b6064820152608490fd5b9094506020813d6020116108bc575b816108a860209383610d6a565b810103126108b85751935f610322565b5f80fd5b3d915061089b565b6040513d5f823e3d90fd5b60405162461bcd60e51b815260206004820152601e60248201527f64656c74614265666f726531206973206e6f7420657175616c20746f203000006044820152606490fd5b60405162461bcd60e51b815260206004820152601e60248201527f64656c74614265666f726530206973206e6f7420657175616c20746f203000006044820152606490fd5b346108b8575f3660031901126108b8576040517f00000000000000000000000000000000000000000000000000000000000000006001600160a01b03168152602090f35b366003190161016081126108b85760a0136108b8576040516109be81610d02565b6004356001600160a01b03811681036108b85781526024356001600160a01b03811681036108b857602082015260443562ffffff811681036108b85760408201526064358060020b81036108b85760608201526084356001600160a01b03811681036108b857608082015260603660a31901126108b857604051610a4181610d32565b60a43580151581036108b857815260c435602082015260e4356001600160a01b03811681036108b85760408201526040610103193601126108b857604051610a8881610d4e565b6101043580151581036108b85781526101243580151581036108b8576020820152610144359167ffffffffffffffff83116108b857610bb493610b84610b9292610b6f610ada5f973690600401610dc9565b91610b4460405195610aeb87610d02565b338752602087019889526040870190815260608701928352608087019485526020604051998a9882808b015260018060a01b0390511660408a0152518051151560608a01520151151560808801525160a0870190610e33565b51805115156101408601526020810151610160860152604001516001600160a01b0316610180850152565b516101806101a08401526101c0830190610e0f565b03601f198101835282610d6a565b604051809381926348c8949160e01b8352602060048401526024830190610e0f565b0381837f00000000000000000000000000000000000000000000000000000000000000006001600160a01b03165af19081156108c4575f91610c88575b50602081519181808201938492010103126108b857514780610c19575b602082604051908152f35b5f80808093335af115610c2c5781610c0e565b601f19601f3d0116604051906390bfb86560e01b82523360048301525f6024830152608060448301528060a00160648301523d60848301523d5f60a484013e808201600460a482015260c4633d2cec6f60e21b91015260e40190fd5b90503d805f833e610c998183610d6a565b8101906020818303126108b85780519067ffffffffffffffff82116108b8570181601f820112156108b857805190610cd082610dad565b92610cde6040519485610d6a565b828452602083830101116108b857815f9260208093018386015e8301015281610bf1565b60a0810190811067ffffffffffffffff821117610d1e57604052565b634e487b7160e01b5f52604160045260245ffd5b6060810190811067ffffffffffffffff821117610d1e57604052565b6040810190811067ffffffffffffffff821117610d1e57604052565b90601f8019910116810190811067ffffffffffffffff821117610d1e57604052565b35906001600160a01b03821682036108b857565b359081151582036108b857565b67ffffffffffffffff8111610d1e57601f01601f191660200190565b81601f820112156108b857803590610de082610dad565b92610dee6040519485610d6a565b828452602083830101116108b857815f926020809301838601378301015290565b805180835260209291819084018484015e5f828201840152601f01601f1916010190565b80516001600160a01b03908116835260208083015182169084015260408083015162ffffff169084015260608083015160020b9084015260809182015116910152565b908160209103126108b8575190565b15610e8c57565b60405162461bcd60e51b815260206004820152602b60248201527f64656c74612e616d6f756e74302829206973206e6f7420657175616c20746f2060448201526a064656c74614166746572360ac1b6064820152608490fd5b15610eec57565b60405162461bcd60e51b815260206004820152602b60248201527f64656c74612e616d6f756e74312829206973206e6f7420657175616c20746f2060448201526a64656c746141667465723160a81b6064820152608490fd5b600160ff1b8114610f55575f0390565b634e487b7160e01b5f52601160045260245ffd5b9290610f759084611328565b927f00000000000000000000000000000000000000000000000000000000000000006001600160a01b031690610fab8282611328565b9360018060a01b03165f5260018060a01b0316602052602060405f2060246040518094819363789add5560e11b835260048301525afa9081156108c4575f91610ff2575090565b90506020813d602011611019575b8161100d60209383610d6a565b810103126108b8575190565b3d9150611000565b908160209103126108b8575180151581036108b85790565b9291935f146110a6576001600160a01b0316803b156108b857604051637a94c56560e11b81526001600160a01b03948516600482015293909216602484015260448301525f908290818381606481015b03925af180156108c45761109a5750565b5f6110a491610d6a565b565b90916001600160a01b0316806111135750604051630476982d60e21b81529250602091839160049183916001600160a01b03165af180156108c4576110e85750565b6111099060203d60201161110c575b6111018183610d6a565b810190610e76565b50565b503d6110f7565b6001600160a01b0390911691823b156108b857604051632961046560e21b8152600481018390525f9490858160248183895af180156108c457611264575b506001600160a01b031684308214611209576020929160649160405195869485936323b872dd60e01b8552600485015288602485015260448401525af180156111fe579160209184936111d1575b505b600460405180958193630476982d60e21b83525af19081156111c557506110e85750565b604051903d90823e3d90fd5b6111f090833d85116111f7575b6111e88183610d6a565b810190611021565b505f61119f565b503d6111de565b6040513d85823e3d90fd5b9290506044602092604051948593849263a9059cbb60e01b845288600485015260248401525af180156111fe57916020918493611247575b506111a1565b61125d90833d85116111f7576111e88183610d6a565b505f611241565b6112719195505f90610d6a565b5f935f611151565b9291935f146112cd576001600160a01b0316803b156108b857604051630ab714fb60e11b81526001600160a01b03948516600482015293909216602484015260448301525f90829081838160648101611089565b9092906001600160a01b0316803b156108b857604051630b0d9c0960e01b81526001600160a01b03938416600482015291909216602482015260448101929092525f908290606490829084905af180156108c45761109a5750565b6001600160a01b03168061133b57503190565b6040516370a0823160e01b81526001600160a01b039092166004830152602090829060249082905afa9081156108c4575f91610ff257509056fea26469706673582212208e78b20e569015ce3a773ebbeed8542eb0f6feff5bfb0df61af47f660cbd210f64736f6c634300081a003300000000000000000000000000b036b58a818b1bc34d502d3fe730db729e62ac",
        "nonce": "0x87",
        "chainId": "0x515"
      },
      "additionalContracts": [],
      "isFixedGasLimit": false
    },
    {
      "hash": "0x0d4ab7ba2ea26eb1b330bf8e6556d87670ec56611b0f025e57100a0a7da085a3",
      "transactionType": "CREATE",
      "contractName": "PoolModifyLiquidityTest",
      "contractAddress": "0xcfdeb0e66f26b2466a66524e4c305e79a84f47a7",
      "function": null,
      "arguments": [
        "0x00B036B58a818B1BC34d502D3fE730Db729e62AC"
      ],
      "transaction": {
        "from": "0x95606236867c2d3391f3dd2d3004efab08e819e4",
        "gas": "0x148616",
        "value": "0x0",
        "input": "0x60a034607a57601f61124838819003918201601f19168301916001600160401b03831184841017607e57808492602094604052833981010312607a57516001600160a01b0381168103607a576080526040516111b590816100938239608051818181609501528181610713015281816108160152610d0a0152f35b5f80fd5b634e487b7160e01b5f52604160045260245ffdfe60806040526004361015610011575f80fd5b5f3560e01c80630a5b11e414610845578063481c6a75146108015780635a6bcfda146105d8576391dd734614610045575f80fd5b346105c15760203660031901126105c1576004356001600160401b0381116105c157366023820112156105c15780600401356001600160401b0381116105c157810160248101903682116105c1577f0000000000000000000000000000000000000000000000000000000000000000926001600160a01b03841690338290036105c1576020818403126105c1576024810135906001600160401b0382116105c15701906101a0828403126105c157604051916101008361090f565b61010c60248201610995565b835260a0601f1982860301126105c157604051936101298561093e565b61013560448301610995565b855261014360648301610995565b6020860152608482013562ffffff811681036105c157604086015261016a60a483016109a9565b606086015260c48201356001600160a01b03811681036105c15760809160249183880152602086019687528360e31991030101126105c157604051956101af87610959565b6101bb60e483016109a9565b87526101ca61010483016109a9565b602088015261012482013560408801526101448201356060880152604084019687526101648201356001600160401b0381116105c1576102c696602461021292850101610aa7565b9160608501928352604061023d6101a461022f6101848501610aed565b936080890194855201610aed565b9360a0870194855261026a60a08951208b51805160020b6060602083015160020b92015192309089610b8c565b5050956102985f8c6102da8c519151955187519e8f9788968795632d35e7ed60e11b87526004870190610b1e565b8051600290810b60a48701526020820151900b60c4860152604081015160e486015260600151610104850152565b610140610124840152610144830190610afa565b03925af19687156105cd575f97610595575b5061031260a08751208951805160020b6060602083015160020b92015192309087610b8c565b505086515186519192916103349130916001600160a01b039081169116610cfb565b8951602001518951919593506001600160801b0392506103629130916001600160a01b039182169116610cfb565b9891505016600f0b9060408b510151915f8382019384129112908015821691151617610581576001600160801b0316600f0b0361053c576040610423995101515f81125f146104f757505f821380156104ee575b6103bf90610b61565b5f821280156104e5575b6103d39015610b61565b5f82126104b5575b5f8512610480575b505f8113610455575b505f8313610427575b86866040519060208201526020815261040f604082610974565b604051918291602083526020830190610afa565b0390f35b9351602001519251905161044b94901515936001600160a01b03928316921661101a565b5f808080806103f5565b8551518551845161047a939015159290916001600160a01b039081169186911661101a565b5f6103ec565b86516020015186516104af926001600160a01b0392831692909116856104a589610b7c565b9251151593610dda565b5f6103e3565b86515186516104e0916001600160a01b0390811691166104d485610b7c565b90868551151593610dda565b6103db565b505f85126103c9565b505f85136103b6565b5f12156103d3575f82128015610533575b61051190610b61565b5f8213801561052a575b6105259015610b61565b6103d3565b505f851361051b565b505f8512610508565b60405162461bcd60e51b815260206004820152601a60248201527f6c6971756964697479206368616e676520696e636f72726563740000000000006044820152606490fd5b634e487b7160e01b5f52601160045260245ffd5b9096506040813d6040116105c5575b816105b160409383610974565b810103126105c15751955f6102ec565b5f80fd5b3d91506105a4565b6040513d5f823e3d90fd5b6101403660031901126105c1576105ee366109b7565b6105f736610a3e565b61012435916001600160401b0383116105c1576106ec5f9261062061070e953690600401610aa7565b6040519161062d8361090f565b3383526020830194855260408301908152606083019182526106cb60808401928784526106b660a0860193898552610684604051998a986020808b015260018060a01b0390511660408a0152516060890190610b1e565b518051600290810b6101008901526020820151900b610120880152604081015161014088015260600151610160870152565b516101a06101808601526101e0850190610afa565b915115156101a08401525115156101c083015203601f198101835282610974565b604051809381926348c8949160e01b8352602060048401526024830190610afa565b0381837f00000000000000000000000000000000000000000000000000000000000000006001600160a01b03165af19081156105cd575f91610788575b506020818051810103126105c15760200151478061076f575b602082604051908152f35b5f80808093335af1156107825781610764565b336110c9565b90503d805f833e6107998183610974565b8101906020818303126105c1578051906001600160401b0382116105c1570181601f820112156105c1578051906107cf82610a8c565b926107dd6040519485610974565b828452602083830101116105c157815f9260208093018386015e830101528161074b565b346105c1575f3660031901126105c1576040517f00000000000000000000000000000000000000000000000000000000000000006001600160a01b03168152602090f35b6101803660031901126105c15761085b366109b7565b61086436610a3e565b610124356001600160401b0381116105c157610884903690600401610aa7565b9161014435928315158094036105c15761016435928315158094036105c15761070e945f946106cb6106ec946106b6604051956108c08761090f565b3387526020870198895260408701908152606087019283526080870195865260a08701948552610684604051998a986020808b015260018060a01b0390511660408a0152516060890190610b1e565b60c081019081106001600160401b0382111761092a57604052565b634e487b7160e01b5f52604160045260245ffd5b60a081019081106001600160401b0382111761092a57604052565b608081019081106001600160401b0382111761092a57604052565b90601f801991011681019081106001600160401b0382111761092a57604052565b35906001600160a01b03821682036105c157565b35908160020b82036105c157565b60a09060031901126105c157604051906109d08261093e565b816004356001600160a01b03811681036105c15781526024356001600160a01b03811681036105c157602082015260443562ffffff811681036105c15760408201526064358060020b81036105c1576060820152608435906001600160a01b03821682036105c15760800152565b60809060a31901126105c15760405190610a5782610959565b8160a4358060020b81036105c157815260c4358060020b81036105c157602082015260e4356040820152606061010435910152565b6001600160401b03811161092a57601f01601f191660200190565b81601f820112156105c157803590610abe82610a8c565b92610acc6040519485610974565b828452602083830101116105c157815f926020809301838601378301015290565b359081151582036105c157565b805180835260209291819084018484015e5f828201840152601f01601f1916010190565b80516001600160a01b03908116835260208083015182169084015260408083015162ffffff169084015260608083015160020b9084015260809182015116910152565b15610b6857565b634e487b7160e01b5f52600160045260245ffd5b600160ff1b8114610581575f0390565b94939290926040519460268601526006850152600384015282525f603a600c8401209281604082015281602082015252604051602081019182526006604082015260408152610bdc606082610974565b5190209060068201809211610581575f916040519060208201928352604082015260408152610c0c606082610974565b519020604051631afeb18d60e11b815260048101919091526003602482015291829060449082906001600160a01b03165afa9081156105cd575f91610c61575b50602081015160408201516060909201519092565b90503d805f833e610c728183610974565b8101906020818303126105c1578051906001600160401b0382116105c157019080601f830112156105c1578151916001600160401b03831161092a578260051b9060405193610cc46020840186610974565b84526020808501928201019283116105c157602001905b828210610ceb575050505f610c4c565b8151815260209182019101610cdb565b9290610d079084611132565b927f00000000000000000000000000000000000000000000000000000000000000006001600160a01b031690610d3d8282611132565b9360018060a01b03165f5260018060a01b0316602052602060405f2060246040518094819363789add5560e11b835260048301525afa9081156105cd575f91610d84575090565b90506020813d602011610dab575b81610d9f60209383610974565b810103126105c1575190565b3d9150610d92565b908160209103126105c1575180151581036105c15790565b908160209103126105c1575190565b9291935f14610e47576001600160a01b0316803b156105c157604051637a94c56560e11b81526001600160a01b03948516600482015293909216602484015260448301525f908290818381606481015b03925af180156105cd57610e3b5750565b5f610e4591610974565b565b90916001600160a01b031680610eb45750604051630476982d60e21b81529250602091839160049183916001600160a01b03165af180156105cd57610e895750565b610eaa9060203d602011610ead575b610ea28183610974565b810190610dcb565b50565b503d610e98565b6001600160a01b0390911691823b156105c157604051632961046560e21b8152600481018390525f9490858160248183895af180156105cd57611005575b506001600160a01b031684308214610faa576020929160649160405195869485936323b872dd60e01b8552600485015288602485015260448401525af18015610f9f57916020918493610f72575b505b600460405180958193630476982d60e21b83525af1908115610f665750610e895750565b604051903d90823e3d90fd5b610f9190833d8511610f98575b610f898183610974565b810190610db3565b505f610f40565b503d610f7f565b6040513d85823e3d90fd5b9290506044602092604051948593849263a9059cbb60e01b845288600485015260248401525af18015610f9f57916020918493610fe8575b50610f42565b610ffe90833d8511610f9857610f898183610974565b505f610fe2565b6110129195505f90610974565b5f935f610ef2565b9291935f1461106e576001600160a01b0316803b156105c157604051630ab714fb60e11b81526001600160a01b03948516600482015293909216602484015260448301525f90829081838160648101610e2a565b9092906001600160a01b0316803b156105c157604051630b0d9c0960e01b81526001600160a01b03938416600482015291909216602482015260448101929092525f908290606490829084905af180156105cd57610e3b5750565b6040516390bfb86560e01b81526001600160a01b0390911660048201525f602482018190526080604483015260a03d601f01601f191690810160648401523d6084840152903d9060a484013e808201600460a482015260c4633d2cec6f60e21b91015260e40190fd5b6001600160a01b03168061114557503190565b6040516370a0823160e01b81526001600160a01b039092166004830152602090829060249082905afa9081156105cd575f91610d8457509056fea26469706673582212203883d113f1a3738b4fcc19c58e85cdbafe4a2e15ddd27cc7297dcbcc02747f8364736f6c634300081a003300000000000000000000000000b036b58a818b1bc34d502d3fe730db729e62ac",
        "nonce": "0x88",
        "chainId": "0x515"
      },
      "additionalContracts": [],
      "isFixedGasLimit": false
    },
    {
      "hash": "0xf4d2dc22329e79d2e20b183a22114d719dd28c584e2be1505911a9037295e9a1",
      "transactionType": "CREATE",
      "contractName": "PoolModifyLiquidityTest",
      "contractAddress": "0x479d4a1a46fa2504182c1b6d7adc3e251ea479aa",
      "function": null,
      "arguments": [
        "0x00B036B58a818B1BC34d502D3fE730Db729e62AC"
      ],
      "transaction": {
        "from": "0x95606236867c2d3391f3dd2d3004efab08e819e4",
        "gas": "0x148616",
        "value": "0x0",
        "input": "0x60a034607a57601f61124838819003918201601f19168301916001600160401b03831184841017607e57808492602094604052833981010312607a57516001600160a01b0381168103607a576080526040516111b590816100938239608051818181609501528181610713015281816108160152610d0a0152f35b5f80fd5b634e487b7160e01b5f52604160045260245ffdfe60806040526004361015610011575f80fd5b5f3560e01c80630a5b11e414610845578063481c6a75146108015780635a6bcfda146105d8576391dd734614610045575f80fd5b346105c15760203660031901126105c1576004356001600160401b0381116105c157366023820112156105c15780600401356001600160401b0381116105c157810160248101903682116105c1577f0000000000000000000000000000000000000000000000000000000000000000926001600160a01b03841690338290036105c1576020818403126105c1576024810135906001600160401b0382116105c15701906101a0828403126105c157604051916101008361090f565b61010c60248201610995565b835260a0601f1982860301126105c157604051936101298561093e565b61013560448301610995565b855261014360648301610995565b6020860152608482013562ffffff811681036105c157604086015261016a60a483016109a9565b606086015260c48201356001600160a01b03811681036105c15760809160249183880152602086019687528360e31991030101126105c157604051956101af87610959565b6101bb60e483016109a9565b87526101ca61010483016109a9565b602088015261012482013560408801526101448201356060880152604084019687526101648201356001600160401b0381116105c1576102c696602461021292850101610aa7565b9160608501928352604061023d6101a461022f6101848501610aed565b936080890194855201610aed565b9360a0870194855261026a60a08951208b51805160020b6060602083015160020b92015192309089610b8c565b5050956102985f8c6102da8c519151955187519e8f9788968795632d35e7ed60e11b87526004870190610b1e565b8051600290810b60a48701526020820151900b60c4860152604081015160e486015260600151610104850152565b610140610124840152610144830190610afa565b03925af19687156105cd575f97610595575b5061031260a08751208951805160020b6060602083015160020b92015192309087610b8c565b505086515186519192916103349130916001600160a01b039081169116610cfb565b8951602001518951919593506001600160801b0392506103629130916001600160a01b039182169116610cfb565b9891505016600f0b9060408b510151915f8382019384129112908015821691151617610581576001600160801b0316600f0b0361053c576040610423995101515f81125f146104f757505f821380156104ee575b6103bf90610b61565b5f821280156104e5575b6103d39015610b61565b5f82126104b5575b5f8512610480575b505f8113610455575b505f8313610427575b86866040519060208201526020815261040f604082610974565b604051918291602083526020830190610afa565b0390f35b9351602001519251905161044b94901515936001600160a01b03928316921661101a565b5f808080806103f5565b8551518551845161047a939015159290916001600160a01b039081169186911661101a565b5f6103ec565b86516020015186516104af926001600160a01b0392831692909116856104a589610b7c565b9251151593610dda565b5f6103e3565b86515186516104e0916001600160a01b0390811691166104d485610b7c565b90868551151593610dda565b6103db565b505f85126103c9565b505f85136103b6565b5f12156103d3575f82128015610533575b61051190610b61565b5f8213801561052a575b6105259015610b61565b6103d3565b505f851361051b565b505f8512610508565b60405162461bcd60e51b815260206004820152601a60248201527f6c6971756964697479206368616e676520696e636f72726563740000000000006044820152606490fd5b634e487b7160e01b5f52601160045260245ffd5b9096506040813d6040116105c5575b816105b160409383610974565b810103126105c15751955f6102ec565b5f80fd5b3d91506105a4565b6040513d5f823e3d90fd5b6101403660031901126105c1576105ee366109b7565b6105f736610a3e565b61012435916001600160401b0383116105c1576106ec5f9261062061070e953690600401610aa7565b6040519161062d8361090f565b3383526020830194855260408301908152606083019182526106cb60808401928784526106b660a0860193898552610684604051998a986020808b015260018060a01b0390511660408a0152516060890190610b1e565b518051600290810b6101008901526020820151900b610120880152604081015161014088015260600151610160870152565b516101a06101808601526101e0850190610afa565b915115156101a08401525115156101c083015203601f198101835282610974565b604051809381926348c8949160e01b8352602060048401526024830190610afa565b0381837f00000000000000000000000000000000000000000000000000000000000000006001600160a01b03165af19081156105cd575f91610788575b506020818051810103126105c15760200151478061076f575b602082604051908152f35b5f80808093335af1156107825781610764565b336110c9565b90503d805f833e6107998183610974565b8101906020818303126105c1578051906001600160401b0382116105c1570181601f820112156105c1578051906107cf82610a8c565b926107dd6040519485610974565b828452602083830101116105c157815f9260208093018386015e830101528161074b565b346105c1575f3660031901126105c1576040517f00000000000000000000000000000000000000000000000000000000000000006001600160a01b03168152602090f35b6101803660031901126105c15761085b366109b7565b61086436610a3e565b610124356001600160401b0381116105c157610884903690600401610aa7565b9161014435928315158094036105c15761016435928315158094036105c15761070e945f946106cb6106ec946106b6604051956108c08761090f565b3387526020870198895260408701908152606087019283526080870195865260a08701948552610684604051998a986020808b015260018060a01b0390511660408a0152516060890190610b1e565b60c081019081106001600160401b0382111761092a57604052565b634e487b7160e01b5f52604160045260245ffd5b60a081019081106001600160401b0382111761092a57604052565b608081019081106001600160401b0382111761092a57604052565b90601f801991011681019081106001600160401b0382111761092a57604052565b35906001600160a01b03821682036105c157565b35908160020b82036105c157565b60a09060031901126105c157604051906109d08261093e565b816004356001600160a01b03811681036105c15781526024356001600160a01b03811681036105c157602082015260443562ffffff811681036105c15760408201526064358060020b81036105c1576060820152608435906001600160a01b03821682036105c15760800152565b60809060a31901126105c15760405190610a5782610959565b8160a4358060020b81036105c157815260c4358060020b81036105c157602082015260e4356040820152606061010435910152565b6001600160401b03811161092a57601f01601f191660200190565b81601f820112156105c157803590610abe82610a8c565b92610acc6040519485610974565b828452602083830101116105c157815f926020809301838601378301015290565b359081151582036105c157565b805180835260209291819084018484015e5f828201840152601f01601f1916010190565b80516001600160a01b03908116835260208083015182169084015260408083015162ffffff169084015260608083015160020b9084015260809182015116910152565b15610b6857565b634e487b7160e01b5f52600160045260245ffd5b600160ff1b8114610581575f0390565b94939290926040519460268601526006850152600384015282525f603a600c8401209281604082015281602082015252604051602081019182526006604082015260408152610bdc606082610974565b5190209060068201809211610581575f916040519060208201928352604082015260408152610c0c606082610974565b519020604051631afeb18d60e11b815260048101919091526003602482015291829060449082906001600160a01b03165afa9081156105cd575f91610c61575b50602081015160408201516060909201519092565b90503d805f833e610c728183610974565b8101906020818303126105c1578051906001600160401b0382116105c157019080601f830112156105c1578151916001600160401b03831161092a578260051b9060405193610cc46020840186610974565b84526020808501928201019283116105c157602001905b828210610ceb575050505f610c4c565b8151815260209182019101610cdb565b9290610d079084611132565b927f00000000000000000000000000000000000000000000000000000000000000006001600160a01b031690610d3d8282611132565b9360018060a01b03165f5260018060a01b0316602052602060405f2060246040518094819363789add5560e11b835260048301525afa9081156105cd575f91610d84575090565b90506020813d602011610dab575b81610d9f60209383610974565b810103126105c1575190565b3d9150610d92565b908160209103126105c1575180151581036105c15790565b908160209103126105c1575190565b9291935f14610e47576001600160a01b0316803b156105c157604051637a94c56560e11b81526001600160a01b03948516600482015293909216602484015260448301525f908290818381606481015b03925af180156105cd57610e3b5750565b5f610e4591610974565b565b90916001600160a01b031680610eb45750604051630476982d60e21b81529250602091839160049183916001600160a01b03165af180156105cd57610e895750565b610eaa9060203d602011610ead575b610ea28183610974565b810190610dcb565b50565b503d610e98565b6001600160a01b0390911691823b156105c157604051632961046560e21b8152600481018390525f9490858160248183895af180156105cd57611005575b506001600160a01b031684308214610faa576020929160649160405195869485936323b872dd60e01b8552600485015288602485015260448401525af18015610f9f57916020918493610f72575b505b600460405180958193630476982d60e21b83525af1908115610f665750610e895750565b604051903d90823e3d90fd5b610f9190833d8511610f98575b610f898183610974565b810190610db3565b505f610f40565b503d610f7f565b6040513d85823e3d90fd5b9290506044602092604051948593849263a9059cbb60e01b845288600485015260248401525af18015610f9f57916020918493610fe8575b50610f42565b610ffe90833d8511610f9857610f898183610974565b505f610fe2565b6110129195505f90610974565b5f935f610ef2565b9291935f1461106e576001600160a01b0316803b156105c157604051630ab714fb60e11b81526001600160a01b03948516600482015293909216602484015260448301525f90829081838160648101610e2a565b9092906001600160a01b0316803b156105c157604051630b0d9c0960e01b81526001600160a01b03938416600482015291909216602482015260448101929092525f908290606490829084905af180156105cd57610e3b5750565b6040516390bfb86560e01b81526001600160a01b0390911660048201525f602482018190526080604483015260a03d601f01601f191690810160648401523d6084840152903d9060a484013e808201600460a482015260c4633d2cec6f60e21b91015260e40190fd5b6001600160a01b03168061114557503190565b6040516370a0823160e01b81526001600160a01b039092166004830152602090829060249082905afa9081156105cd575f91610d8457509056fea26469706673582212203883d113f1a3738b4fcc19c58e85cdbafe4a2e15ddd27cc7297dcbcc02747f8364736f6c634300081a003300000000000000000000000000b036b58a818b1bc34d502d3fe730db729e62ac",
        "nonce": "0x89",
        "chainId": "0x515"
      },
      "additionalContracts": [],
      "isFixedGasLimit": false
    },
    {
      "hash": "0x6bdd180e19d45c9e0a45c871824a92c38a52d50c5b86c5259a3862dc81c2b1bf",
      "transactionType": "CREATE",
      "contractName": "PoolModifyLiquidityTest",
      "contractAddress": "0xe8af1ba58f681e6f9c4f0104a966f75e70486e9d",
      "function": null,
      "arguments": [
        "0x00B036B58a818B1BC34d502D3fE730Db729e62AC"
      ],
      "transaction": {
        "from": "0x95606236867c2d3391f3dd2d3004efab08e819e4",
        "gas": "0x148616",
        "value": "0x0",
        "input": "0x60a034607a57601f61124838819003918201601f19168301916001600160401b03831184841017607e57808492602094604052833981010312607a57516001600160a01b0381168103607a576080526040516111b590816100938239608051818181609501528181610713015281816108160152610d0a0152f35b5f80fd5b634e487b7160e01b5f52604160045260245ffdfe60806040526004361015610011575f80fd5b5f3560e01c80630a5b11e414610845578063481c6a75146108015780635a6bcfda146105d8576391dd734614610045575f80fd5b346105c15760203660031901126105c1576004356001600160401b0381116105c157366023820112156105c15780600401356001600160401b0381116105c157810160248101903682116105c1577f0000000000000000000000000000000000000000000000000000000000000000926001600160a01b03841690338290036105c1576020818403126105c1576024810135906001600160401b0382116105c15701906101a0828403126105c157604051916101008361090f565b61010c60248201610995565b835260a0601f1982860301126105c157604051936101298561093e565b61013560448301610995565b855261014360648301610995565b6020860152608482013562ffffff811681036105c157604086015261016a60a483016109a9565b606086015260c48201356001600160a01b03811681036105c15760809160249183880152602086019687528360e31991030101126105c157604051956101af87610959565b6101bb60e483016109a9565b87526101ca61010483016109a9565b602088015261012482013560408801526101448201356060880152604084019687526101648201356001600160401b0381116105c1576102c696602461021292850101610aa7565b9160608501928352604061023d6101a461022f6101848501610aed565b936080890194855201610aed565b9360a0870194855261026a60a08951208b51805160020b6060602083015160020b92015192309089610b8c565b5050956102985f8c6102da8c519151955187519e8f9788968795632d35e7ed60e11b87526004870190610b1e565b8051600290810b60a48701526020820151900b60c4860152604081015160e486015260600151610104850152565b610140610124840152610144830190610afa565b03925af19687156105cd575f97610595575b5061031260a08751208951805160020b6060602083015160020b92015192309087610b8c565b505086515186519192916103349130916001600160a01b039081169116610cfb565b8951602001518951919593506001600160801b0392506103629130916001600160a01b039182169116610cfb565b9891505016600f0b9060408b510151915f8382019384129112908015821691151617610581576001600160801b0316600f0b0361053c576040610423995101515f81125f146104f757505f821380156104ee575b6103bf90610b61565b5f821280156104e5575b6103d39015610b61565b5f82126104b5575b5f8512610480575b505f8113610455575b505f8313610427575b86866040519060208201526020815261040f604082610974565b604051918291602083526020830190610afa565b0390f35b9351602001519251905161044b94901515936001600160a01b03928316921661101a565b5f808080806103f5565b8551518551845161047a939015159290916001600160a01b039081169186911661101a565b5f6103ec565b86516020015186516104af926001600160a01b0392831692909116856104a589610b7c565b9251151593610dda565b5f6103e3565b86515186516104e0916001600160a01b0390811691166104d485610b7c565b90868551151593610dda565b6103db565b505f85126103c9565b505f85136103b6565b5f12156103d3575f82128015610533575b61051190610b61565b5f8213801561052a575b6105259015610b61565b6103d3565b505f851361051b565b505f8512610508565b60405162461bcd60e51b815260206004820152601a60248201527f6c6971756964697479206368616e676520696e636f72726563740000000000006044820152606490fd5b634e487b7160e01b5f52601160045260245ffd5b9096506040813d6040116105c5575b816105b160409383610974565b810103126105c15751955f6102ec565b5f80fd5b3d91506105a4565b6040513d5f823e3d90fd5b6101403660031901126105c1576105ee366109b7565b6105f736610a3e565b61012435916001600160401b0383116105c1576106ec5f9261062061070e953690600401610aa7565b6040519161062d8361090f565b3383526020830194855260408301908152606083019182526106cb60808401928784526106b660a0860193898552610684604051998a986020808b015260018060a01b0390511660408a0152516060890190610b1e565b518051600290810b6101008901526020820151900b610120880152604081015161014088015260600151610160870152565b516101a06101808601526101e0850190610afa565b915115156101a08401525115156101c083015203601f198101835282610974565b604051809381926348c8949160e01b8352602060048401526024830190610afa565b0381837f00000000000000000000000000000000000000000000000000000000000000006001600160a01b03165af19081156105cd575f91610788575b506020818051810103126105c15760200151478061076f575b602082604051908152f35b5f80808093335af1156107825781610764565b336110c9565b90503d805f833e6107998183610974565b8101906020818303126105c1578051906001600160401b0382116105c1570181601f820112156105c1578051906107cf82610a8c565b926107dd6040519485610974565b828452602083830101116105c157815f9260208093018386015e830101528161074b565b346105c1575f3660031901126105c1576040517f00000000000000000000000000000000000000000000000000000000000000006001600160a01b03168152602090f35b6101803660031901126105c15761085b366109b7565b61086436610a3e565b610124356001600160401b0381116105c157610884903690600401610aa7565b9161014435928315158094036105c15761016435928315158094036105c15761070e945f946106cb6106ec946106b6604051956108c08761090f565b3387526020870198895260408701908152606087019283526080870195865260a08701948552610684604051998a986020808b015260018060a01b0390511660408a0152516060890190610b1e565b60c081019081106001600160401b0382111761092a57604052565b634e487b7160e01b5f52604160045260245ffd5b60a081019081106001600160401b0382111761092a57604052565b608081019081106001600160401b0382111761092a57604052565b90601f801991011681019081106001600160401b0382111761092a57604052565b35906001600160a01b03821682036105c157565b35908160020b82036105c157565b60a09060031901126105c157604051906109d08261093e565b816004356001600160a01b03811681036105c15781526024356001600160a01b03811681036105c157602082015260443562ffffff811681036105c15760408201526064358060020b81036105c1576060820152608435906001600160a01b03821682036105c15760800152565b60809060a31901126105c15760405190610a5782610959565b8160a4358060020b81036105c157815260c4358060020b81036105c157602082015260e4356040820152606061010435910152565b6001600160401b03811161092a57601f01601f191660200190565b81601f820112156105c157803590610abe82610a8c565b92610acc6040519485610974565b828452602083830101116105c157815f926020809301838601378301015290565b359081151582036105c157565b805180835260209291819084018484015e5f828201840152601f01601f1916010190565b80516001600160a01b03908116835260208083015182169084015260408083015162ffffff169084015260608083015160020b9084015260809182015116910152565b15610b6857565b634e487b7160e01b5f52600160045260245ffd5b600160ff1b8114610581575f0390565b94939290926040519460268601526006850152600384015282525f603a600c8401209281604082015281602082015252604051602081019182526006604082015260408152610bdc606082610974565b5190209060068201809211610581575f916040519060208201928352604082015260408152610c0c606082610974565b519020604051631afeb18d60e11b815260048101919091526003602482015291829060449082906001600160a01b03165afa9081156105cd575f91610c61575b50602081015160408201516060909201519092565b90503d805f833e610c728183610974565b8101906020818303126105c1578051906001600160401b0382116105c157019080601f830112156105c1578151916001600160401b03831161092a578260051b9060405193610cc46020840186610974565b84526020808501928201019283116105c157602001905b828210610ceb575050505f610c4c565b8151815260209182019101610cdb565b9290610d079084611132565b927f00000000000000000000000000000000000000000000000000000000000000006001600160a01b031690610d3d8282611132565b9360018060a01b03165f5260018060a01b0316602052602060405f2060246040518094819363789add5560e11b835260048301525afa9081156105cd575f91610d84575090565b90506020813d602011610dab575b81610d9f60209383610974565b810103126105c1575190565b3d9150610d92565b908160209103126105c1575180151581036105c15790565b908160209103126105c1575190565b9291935f14610e47576001600160a01b0316803b156105c157604051637a94c56560e11b81526001600160a01b03948516600482015293909216602484015260448301525f908290818381606481015b03925af180156105cd57610e3b5750565b5f610e4591610974565b565b90916001600160a01b031680610eb45750604051630476982d60e21b81529250602091839160049183916001600160a01b03165af180156105cd57610e895750565b610eaa9060203d602011610ead575b610ea28183610974565b810190610dcb565b50565b503d610e98565b6001600160a01b0390911691823b156105c157604051632961046560e21b8152600481018390525f9490858160248183895af180156105cd57611005575b506001600160a01b031684308214610faa576020929160649160405195869485936323b872dd60e01b8552600485015288602485015260448401525af18015610f9f57916020918493610f72575b505b600460405180958193630476982d60e21b83525af1908115610f665750610e895750565b604051903d90823e3d90fd5b610f9190833d8511610f98575b610f898183610974565b810190610db3565b505f610f40565b503d610f7f565b6040513d85823e3d90fd5b9290506044602092604051948593849263a9059cbb60e01b845288600485015260248401525af18015610f9f57916020918493610fe8575b50610f42565b610ffe90833d8511610f9857610f898183610974565b505f610fe2565b6110129195505f90610974565b5f935f610ef2565b9291935f1461106e576001600160a01b0316803b156105c157604051630ab714fb60e11b81526001600160a01b03948516600482015293909216602484015260448301525f90829081838160648101610e2a565b9092906001600160a01b0316803b156105c157604051630b0d9c0960e01b81526001600160a01b03938416600482015291909216602482015260448101929092525f908290606490829084905af180156105cd57610e3b5750565b6040516390bfb86560e01b81526001600160a01b0390911660048201525f602482018190526080604483015260a03d601f01601f191690810160648401523d6084840152903d9060a484013e808201600460a482015260c4633d2cec6f60e21b91015260e40190fd5b6001600160a01b03168061114557503190565b6040516370a0823160e01b81526001600160a01b039092166004830152602090829060249082905afa9081156105cd575f91610d8457509056fea26469706673582212203883d113f1a3738b4fcc19c58e85cdbafe4a2e15ddd27cc7297dcbcc02747f8364736f6c634300081a003300000000000000000000000000b036b58a818b1bc34d502d3fe730db729e62ac",
        "nonce": "0x8a",
        "chainId": "0x515"
      },
      "additionalContracts": [],
      "isFixedGasLimit": false
    },
    {
      "hash": "0xa3b74c4ab7dc75b677a512bc04cf87650effcbe01e7647188b8eba49ae8d63d2",
      "transactionType": "CREATE",
      "contractName": "IntentStore",
      "contractAddress": "0x8ee42dcacbb23e9928c196aa8ddb2a8a084dfaaf",
      "function": null,
      "arguments": [
        "0x0000000000000000000000000000000000000000"
      ],
      "transaction": {
        "from": "0x95606236867c2d3391f3dd2d3004efab08e819e4",
        "gas": "0xcdcfd",
        "value": "0x0",
        "input": "0x608034606f57601f610b3538819003918201601f19168301916001600160401b03831184841017607357808492602094604052833981010312606f57516001600160a01b03811690819003606f575f80546001600160a01b031916919091179055604051610aad90816100888239f35b5f80fd5b634e487b7160e01b5f52604160045260245ffdfe6080806040526004361015610012575f80fd5b5f3560e01c9081631c3c0ea8146107965750806346a1a0951461070f5780634e395e2a146106e7578063906e277b1461057e578063c34c08e514610557578063ed82a00e146101695763f640511914610069575f80fd5b34610165576020366003190112610165575f54600435906001600160a01b0316330361013057600154811080610118575b156100dd57600b6100aa8261082e565b5001805460ff191660011790557ff0c6c99b11035113bf510013043afc18365a61a112c542b9f7491fd1574cfc5b5f80a2005b60405162461bcd60e51b81526020600482015260136024820152721a5b9d985b1a59081bdc88195e1958dd5d1959606a1b6044820152606490fd5b5060ff600b6101268361082e565b500154161561009a565b60405162461bcd60e51b815260206004820152600d60248201526c37b7363c9032bc32b1baba37b960991b6044820152606490fd5b5f80fd5b34610165573660031901610180811261016557610160136101655760405161019081610879565b6004356001600160401b0381168103610165578152602435906001600160401b038216820361016557602081019182526044359163ffffffff83168303610165576040820192835260643563ffffffff811681036101655760608301523660a31215610165576080916040516102068482610895565b803661010411610165576084905b6101048210610547575050838201526101043560ff811681036101655760a082019081526101243560c08301526101443560e083015261016435946001600160401b038451166001600160401b0384511610156105385760026001600160401b03610286818751168287511690610a43565b1610610538576101006001600160401b036102a8818751168287511690610a43565b16116105385763ffffffff9051166001811090811561052d575b5061051e575160ff168015908115610513575b506105045783156104c85760015492604051946102f18661085e565b82865260208601338152604087019033825260608801928352838801935f8552680100000000000000008810156104b457600188016001556103328861082e565b9990996104a1575180518a54602083015160408085015160608601516001600160c01b03199094166001600160401b03959095169490941791901b6fffffffffffffffff0000000000000000161791841b63ffffffff60801b169190911760a09190911b63ffffffff60a01b16178a55908101515f905b6004821061048957505060a081015160058a01805460ff1990811660ff9384161790915560c083015160068c015560e09092015160078b0155915160088a0180546001600160a01b03199081166001600160a01b0393841617909155935160098b0180549095169116179092559151600a8801559151600b9096018054961515909116959091169490941790935591519151604080516001600160401b0394851681529190931660208281019190915292339183917f69ed47713df78c91050b377d2f52abaea3dbc2bbe31c32b290c288c61ce079fc91a3604051908152f35b818160018d94602082955193019501015501906103a9565b634e487b7160e01b5f525f60045260245ffd5b634e487b7160e01b5f52604160045260245ffd5b60405162461bcd60e51b81526020600482015260146024820152730616d6f756e74496e206d757374206265203e20360641b6044820152606490fd5b6368c4312b60e11b5f5260045ffd5b6004915011856102d5565b63184774cd60e01b5f5260045ffd5b6064915011866102c2565b631777743d60e21b5f5260045ffd5b8135815260209182019101610214565b34610165575f366003190112610165575f546040516001600160a01b039091168152602090f35b346101655760203660031901126101655760043560405161059e8161085e565b5f6040516105ab81610879565b81815281602082015281604082015281606082015260809283916040516105d28482610895565b83368237838201528360a08201528360c08201528360e0820152815282602082015282604082015282606082015201526001548210156106b1576106186101e09261082e565b50604051906106268261085e565b61062f816108b6565b9283835260018060a01b036008830154166020840190815260018060a01b03600984015416916040850192835260ff600b600a860154956060880196875201541694019315158452610684604051809661095f565b516001600160a01b03908116610160860152905116610180840152516101a08301525115156101c0820152f35b60405162461bcd60e51b815260206004820152600e60248201526d1a5b9d985b1a59081a5b9d195b9d60921b6044820152606490fd5b346101655760203660031901126101655760206107056004356109f2565b6040519015158152f35b3461016557602036600319011261016557600435600154811015610165576107396101e09161082e565b50610743816108b6565b9060018060a01b036008820154169060018060a01b0360098201541660ff600b600a840154930154169261077a604051809661095f565b6101608501526101808401526101a083015215156101c0820152f35b34610165576020366003190112610165576004356001600160a01b0381169190829003610165575f54906001600160a01b0382168015908115610824575b50156107ea57506001600160a01b031916175f55005b62461bcd60e51b81526020600482015260156024820152741bdb9b1e48195e1958dd5d1bdc881bdc881a5b9a5d605a1b6044820152606490fd5b90503314846107d4565b60015481101561084a5760015f52600c60205f20910201905f90565b634e487b7160e01b5f52603260045260245ffd5b60a081019081106001600160401b038211176104b457604052565b61010081019081106001600160401b038211176104b457604052565b90601f801991011681019081106001600160401b038211176104b457604052565b906040516108c381610879565b809263ffffffff81546001600160401b03811684526001600160401b038160401c166020850152818160801c16604085015260a01c1660608301526040518060018301905f905b600482106109495750505060e091816109266080600794610895565b608085015260ff60058201541660a0850152600681015460c08501520154910152565b600160208192855481520193019101909161090a565b6001600160401b0381511682526001600160401b03602082015116602083015263ffffffff604082015116604083015263ffffffff60608201511660608301526080810151608083015f905b600482106109dc5750505060e08160ff60a06101409401511661010085015260c08101516101208501520151910152565b60208060019285518152019301910190916109ab565b600154811015610a3e57610a059061082e565b5060ff600b82015416610a3e57546001600160401b0381164310610a3e5760401c6001600160401b03164311610a3a57600190565b5f90565b505f90565b906001600160401b03809116911603906001600160401b038211610a6357565b634e487b7160e01b5f52601160045260245ffdfea2646970667358221220ef53c9e25d004a24ba2d48f82270a48754eeda022fb09c520e4b43e3118aadb864736f6c634300081a00330000000000000000000000000000000000000000000000000000000000000000",
        "nonce": "0x8b",
        "chainId": "0x515"
      },
      "additionalContracts": [],
      "isFixedGasLimit": false
    },
    {
      "hash": "0xb5e335f1732bc73f07bf3d0084504d3c0d67e72fee45dd11a8d546309da22d36",
      "transactionType": "CREATE",
      "contractName": "PrivacySwapExecutor",
      "contractAddress": "0x66f189ffc4318310a654969c9bab040f4cc3d451",
      "function": null,
      "arguments": [
        "0x8eE42DcACbB23E9928c196aa8dDB2a8a084dfaAF",
        "0x606738Aa1F7A54C0978795d087cd32942c88Ad96"
      ],
      "transaction": {
        "from": "0x95606236867c2d3391f3dd2d3004efab08e819e4",
        "gas": "0x104e02",
        "value": "0x0",
        "input": "0x60c034609b57601f610e8f38819003918201601f19168301916001600160401b03831184841017609f578084926040948552833981010312609b578051906001600160a01b0382168203609b5760200151906001600160a01b0382168203609b5760805260a052604051610ddb90816100b482396080518181816081015281816101e101526107fe015260a0518181816102f201526107ba0152f35b5f80fd5b634e487b7160e01b5f52604160045260245ffdfe6080806040526004361015610012575f80fd5b5f3560e01c908162a79a161461082d57508063368202a5146107e9578063c31c9c07146107a5578063d9c8ec22146101115763da9d05d714610052575f80fd5b3461010d57604036600319011261010d5760405163906e277b60e01b815260048035908201526101e0816024817f00000000000000000000000000000000000000000000000000000000000000006001600160a01b03165afa908115610102576020916100cb915f916100d3575b506024359051610d25565b604051908152f35b6100f591506101e03d81116100fb575b6100ed8183610acd565b810190610b58565b5f6100c0565b503d6100e3565b6040513d5f823e3d90fd5b5f80fd5b3461010d5760e036600319011261010d5760043560a036602319011261010d576040519061013e82610ab2565b6024356001600160a01b038116810361010d578252604435916001600160a01b038316830361010d57602081019283526064359162ffffff8316830361010d5760408201928352608435928360020b840361010d576060830193845260a4356001600160a01b038116810361010d576080840190815260c4356001600160a01b038116969087900361010d5760405163906e277b60e01b815260048101859052957f00000000000000000000000000000000000000000000000000000000000000006001600160a01b031695906101e0886024818a5afa978815610102575f98610784575b5060808801516107755760405163271caf1560e11b8152600481018790526020816024818b5afa908115610102575f9161073b575b501561072c5787519060a0832061026f4384610d25565b0361071d5761027e4383610c9d565b508351835160408b81015160608d01805192516323b872dd60e01b81526001600160a01b03928316600482015230602482015260448101939093529281169d9316979291906020816064815f8d5af18015610102576106e6575b50805160405163095ea7b360e01b81526001600160a01b037f0000000000000000000000000000000000000000000000000000000000000000166004820181905260248201929092529098602090829060449082905f905af18015610102576106af575b505190600160ff1b821461069b5760405191606083018381106001600160401b03821117610687576040525f835260208301905f0381526040830191825260405192604084018481106001600160401b03821117610687576040525f845260208401945f86526040519660208801986001600160401b038151168a526001600160401b0360208201511660408a015263ffffffff60408201511660608a015263ffffffff60608201511660808a0152608081015160a08a015f905b600482106106715750505060a081015160ff166101208a015260c08101516101408a015260e00151610160890152610160885261043661018089610acd565b60405163088a742d60e21b815299516001600160a01b0390811660048c01529a518b1660248b01529b5162ffffff1660448a01529a5160020b60648901529951881660848801529851151560a4870152975160c4860152965190941660e48401529451151561010483015291511515610124820152610160610144820152925161016484018190528391829190819061018484015e808201610184015f9052601f1990601f011681010361018401815a6020945f91f1801561010257610642575b50813b1561010d575f9160248392604051948593849263f640511960e01b845260048401525af1801561010257610632575b506040516370a0823160e01b8152306004820152602081602481865afa908115610102575f91610600575b5080156105f15760209182015160405163a9059cbb60e01b81526001600160a01b039091166004820152602481019190915291829060449082905f905af1908115610102575f916105b7575b50156105a857005b6312171d8360e31b5f5260045ffd5b90506020813d6020116105e9575b816105d260209383610acd565b8101031261010d576105e390610b4b565b816105a0565b3d91506105c5565b63730c31bf60e11b5f5260045ffd5b90506020813d60201161062a575b8161061b60209383610acd565b8101031261010d575183610554565b3d915061060e565b5f61063c91610acd565b82610529565b6020813d602011610669575b8161065b60209383610acd565b8101031261010d57516104f7565b3d915061064e565b60208060019285518152019301910190916103f7565b634e487b7160e01b5f52604160045260245ffd5b634e487b7160e01b5f52601160045260245ffd5b6020813d6020116106de575b816106c860209383610acd565b8101031261010d576106d990610b4b565b61033c565b3d91506106bb565b6020813d602011610715575b816106ff60209383610acd565b8101031261010d5761071090610b4b565b6102d8565b3d91506106f2565b63f31017e560e01b5f5260045ffd5b6397e97fab60e01b5f5260045ffd5b90506020813d60201161076d575b8161075660209383610acd565b8101031261010d5761076790610b4b565b8a610258565b3d9150610749565b633b68b0fd60e01b5f5260045ffd5b61079e9198506101e03d81116100fb576100ed8183610acd565b9689610223565b3461010d575f36600319011261010d576040517f00000000000000000000000000000000000000000000000000000000000000006001600160a01b03168152602090f35b3461010d575f36600319011261010d576040517f00000000000000000000000000000000000000000000000000000000000000006001600160a01b03168152602090f35b3461010d57606036600319011261010d576004356001600160401b03811161010d5761085d903690600401610a82565b91602435926001600160401b03841161010d573660238501121561010d578360040135936001600160401b03851161010d5736602460a087028301011161010d576044356001600160401b03811161010d576108bd903690600401610a82565b92909386821480610a79575b15610a3f575080151580610a34575b15610a01575f5b8181106108e857005b6108f3818388610b02565b3590878110156109ed5760a08102840161090e828789610b02565b356001600160a01b038116919082900361010d57303b1561010d57604051636ce4761160e11b815260048101949094526001600160a01b0361095260248301610aee565b1660248501526001600160a01b0361096c60448301610aee565b166044850152606481013562ffffff811680910361010d57606485015260848101358060020b80910361010d5760848501526001600160a01b03906109b39060a401610aee565b1660a484015260c48301525f8260e48183305af1918215610102576001926109dd575b50016108df565b5f6109e791610acd565b886109d6565b634e487b7160e01b5f52603260045260245ffd5b60405162461bcd60e51b815260206004820152600b60248201526a312d3820696e74656e747360a81b6044820152606490fd5b5060088111156108d8565b62461bcd60e51b81526020600482015260156024820152740c2e4e4c2f240d8cadccee8d040dad2e6dac2e8c6d605b1b6044820152606490fd5b508382146108c9565b9181601f8401121561010d578235916001600160401b03831161010d576020808501948460051b01011161010d57565b60a081019081106001600160401b0382111761068757604052565b90601f801991011681019081106001600160401b0382111761068757604052565b35906001600160a01b038216820361010d57565b91908110156109ed5760051b0190565b51906001600160401b038216820361010d57565b519063ffffffff8216820361010d57565b51906001600160a01b038216820361010d57565b5190811515820361010d57565b90818103916101e0831261010d5761016060405193610b7685610ab2565b1261010d576040519161010083018381106001600160401b0382111761068757604052610ba282610b12565b8352610bb060208301610b12565b6020840152610bc160408301610b26565b6040840152610bd260608301610b26565b606084015280609f8301121561010d57604051608081018181106001600160401b038211176106875760405280610100840192831161010d5760808401905b838210610c8d5750506080840152519060ff8216820361010d57826101c09260a0610c8595015261012082015160c082015261014082015160e08201528452610c5d6101608201610b37565b6020850152610c6f6101808201610b37565b60408501526101a0810151606085015201610b4b565b608082015290565b8151815260209182019101610c11565b6001600160401b038151168210610d16576001600160401b036020820151168211610d075763ffffffff6060820151168015610cff57820391821161069b576040015163ffffffff1611610cf057600190565b63a965618960e01b5f5260045ffd5b505050600190565b633c09dd1160e01b5f5260045ffd5b637cd4c09b60e11b5f5260045ffd5b9060a082019060ff8251168015610d9d57600114610d93578015610d89575f19810190811161069b5760ff90915b51168015610d755760809140069101519060048110156109ed5760051b015190565b634e487b7160e01b5f52601260045260245ffd5b5060ff5f91610d53565b5050608001515190565b505050505f9056fea2646970667358221220a144b62b5969999aaf2799e723c0d823b3fac89923cb860c90a4b59c05d0d7bb64736f6c634300081a00330000000000000000000000008ee42dcacbb23e9928c196aa8ddb2a8a084dfaaf000000000000000000000000606738aa1f7a54c0978795d087cd32942c88ad96",
        "nonce": "0x8c",
        "chainId": "0x515"
      },
      "additionalContracts": [],
      "isFixedGasLimit": false
    },
    {
      "hash": "0x82a3d1fc5833a554f7cc5bae6d1c0b374b38fc4937386805ce0e1ce8cfa5fa1a",
      "transactionType": "CALL",
      "contractName": "IntentStore",
      "contractAddress": "0x8ee42dcacbb23e9928c196aa8ddb2a8a084dfaaf",
      "function": "setExecutor(address)",
      "arguments": [
        "0x66F189FfC4318310A654969C9Bab040F4Cc3d451"
      ],
      "transaction": {
        "from": "0x95606236867c2d3391f3dd2d3004efab08e819e4",
        "to": "0x8ee42dcacbb23e9928c196aa8ddb2a8a084dfaaf",
        "gas": "0xec68",
        "value": "0x0",
        "input": "0x1c3c0ea800000000000000000000000066f189ffc4318310a654969c9bab040f4cc3d451",
        "nonce": "0x8d",
        "chainId": "0x515"
      },
      "additionalContracts": [],
      "isFixedGasLimit": false
    },
    {
      "hash": "0x948d626cd3b07237133e8f2643236dc6286b3b75a4466fe07069040e8ea85df3",
      "transactionType": "CALL",
      "contractName": "PrivacySwapHook",
      "contractAddress": "0x29315c3a1a31f9941ae15e02e7ae1b5567de46c0",
      "function": "addRouter(address)",
      "arguments": [
        "0x606738Aa1F7A54C0978795d087cd32942c88Ad96"
      ],
      "transaction": {
        "from": "0x95606236867c2d3391f3dd2d3004efab08e819e4",
        "to": "0x29315c3a1a31f9941ae15e02e7ae1b5567de46c0",
        "gas": "0xfe5a",
        "value": "0x0",
        "input": "0x24ca984e000000000000000000000000606738aa1f7a54c0978795d087cd32942c88ad96",
        "nonce": "0x8e",
        "chainId": "0x515"
      },
      "additionalContracts": [],
      "isFixedGasLimit": false
    },
    {
      "hash": "0xcfd88d88aa647b14a936a5c16d5f4454823e873675b576199982103f6cf367f6",
      "transactionType": "CALL",
      "contractName": "PrivacySwapHook",
      "contractAddress": "0x29315c3a1a31f9941ae15e02e7ae1b5567de46c0",
      "function": "addRouter(address)",
      "arguments": [
        "0xCFdeb0E66F26b2466a66524E4c305E79a84F47A7"
      ],
      "transaction": {
        "from": "0x95606236867c2d3391f3dd2d3004efab08e819e4",
        "to": "0x29315c3a1a31f9941ae15e02e7ae1b5567de46c0",
        "gas": "0xfe5a",
        "value": "0x0",
        "input": "0x24ca984e000000000000000000000000cfdeb0e66f26b2466a66524e4c305e79a84f47a7",
        "nonce": "0x8f",
        "chainId": "0x515"
      },
      "additionalContracts": [],
      "isFixedGasLimit": false
    },
    {
      "hash": "0x7b698232d6acf33ddd553a8ebf32903c6367f30d770137c82b2c0513660e4f1f",
      "transactionType": "CALL",
      "contractName": "PrivacySwapHook",
      "contractAddress": "0x29315c3a1a31f9941ae15e02e7ae1b5567de46c0",
      "function": "addRouter(address)",
      "arguments": [
        "0x479D4A1a46Fa2504182C1b6d7aDC3e251EA479Aa"
      ],
      "transaction": {
        "from": "0x95606236867c2d3391f3dd2d3004efab08e819e4",
        "to": "0x29315c3a1a31f9941ae15e02e7ae1b5567de46c0",
        "gas": "0xfe5a",
        "value": "0x0",
        "input": "0x24ca984e000000000000000000000000479d4a1a46fa2504182c1b6d7adc3e251ea479aa",
        "nonce": "0x90",
        "chainId": "0x515"
      },
      "additionalContracts": [],
      "isFixedGasLimit": false
    },
    {
      "hash": "0x5570cfc28eab433024d3c03c43ba37d6dd4bd8dd8fd953b61a83658806580a17",
      "transactionType": "CALL",
      "contractName": "PrivacySwapHook",
      "contractAddress": "0x29315c3a1a31f9941ae15e02e7ae1b5567de46c0",
      "function": "addRouter(address)",
      "arguments": [
        "0xe8aF1BA58f681e6f9c4f0104A966F75E70486e9d"
      ],
      "transaction": {
        "from": "0x95606236867c2d3391f3dd2d3004efab08e819e4",
        "to": "0x29315c3a1a31f9941ae15e02e7ae1b5567de46c0",
        "gas": "0xfe5a",
        "value": "0x0",
        "input": "0x24ca984e000000000000000000000000e8af1ba58f681e6f9c4f0104a966f75e70486e9d",
        "nonce": "0x91",
        "chainId": "0x515"
      },
      "additionalContracts": [],
      "isFixedGasLimit": false
    },
    {
      "hash": "0x98b028af4b8553a628b4e218dc78d50b186ceb8d0ddb543d49ad6c042b4a5a3e",
      "transactionType": "CALL",
      "contractName": null,
      "contractAddress": "0x4200000000000000000000000000000000000006",
      "function": null,
      "arguments": null,
      "transaction": {
        "from": "0x95606236867c2d3391f3dd2d3004efab08e819e4",
        "to": "0x4200000000000000000000000000000000000006",
        "gas": "0x962a",
        "value": "0x6a94d74f430000",
        "input": "0xd0e30db0",
        "nonce": "0x92",
        "chainId": "0x515"
      },
      "additionalContracts": [],
      "isFixedGasLimit": false
    },
    {
      "hash": "0x61bb932224a21491e9b53895dc7f9555ac387edb0d670fd8a4bdf75150cfbc52",
      "transactionType": "CALL",
      "contractName": null,
      "contractAddress": "0x4200000000000000000000000000000000000006",
      "function": "approve(address,uint256)",
      "arguments": [
        "0x606738Aa1F7A54C0978795d087cd32942c88Ad96",
        "115792089237316195423570985008687907853269984665640564039457584007913129639935"
      ],
      "transaction": {
        "from": "0x95606236867c2d3391f3dd2d3004efab08e819e4",
        "to": "0x4200000000000000000000000000000000000006",
        "gas": "0x10972",
        "value": "0x0",
        "input": "0x095ea7b3000000000000000000000000606738aa1f7a54c0978795d087cd32942c88ad96ffffffffffffffffffffffffffffffffffffffffffffffffffffffffffffffff",
        "nonce": "0x93",
        "chainId": "0x515"
      },
      "additionalContracts": [],
      "isFixedGasLimit": false
    },
    {
      "hash": "0x0b487045b60345a21df6fae1133e2f8e65115fcaf43739caece083a264f0d28c",
      "transactionType": "CALL",
      "contractName": null,
      "contractAddress": "0x31d0220469e10c4e71834a79b1f276d740d3768f",
      "function": "approve(address,uint256)",
      "arguments": [
        "0x606738Aa1F7A54C0978795d087cd32942c88Ad96",
        "115792089237316195423570985008687907853269984665640564039457584007913129639935"
      ],
      "transaction": {
        "from": "0x95606236867c2d3391f3dd2d3004efab08e819e4",
        "to": "0x31d0220469e10c4e71834a79b1f276d740d3768f",
        "gas": "0x13eb1",
        "value": "0x0",
        "input": "0x095ea7b3000000000000000000000000606738aa1f7a54c0978795d087cd32942c88ad96ffffffffffffffffffffffffffffffffffffffffffffffffffffffffffffffff",
        "nonce": "0x94",
        "chainId": "0x515"
      },
      "additionalContracts": [],
      "isFixedGasLimit": false
    },
    {
      "hash": "0xc21293e21edf1745f5df7094918de80d262fed4b6d9c81759053eacaf79bda85",
      "transactionType": "CALL",
      "contractName": null,
      "contractAddress": "0x4200000000000000000000000000000000000006",
      "function": "approve(address,uint256)",
      "arguments": [
        "0xCFdeb0E66F26b2466a66524E4c305E79a84F47A7",
        "115792089237316195423570985008687907853269984665640564039457584007913129639935"
      ],
      "transaction": {
        "from": "0x95606236867c2d3391f3dd2d3004efab08e819e4",
        "to": "0x4200000000000000000000000000000000000006",
        "gas": "0x10972",
        "value": "0x0",
        "input": "0x095ea7b3000000000000000000000000cfdeb0e66f26b2466a66524e4c305e79a84f47a7ffffffffffffffffffffffffffffffffffffffffffffffffffffffffffffffff",
        "nonce": "0x95",
        "chainId": "0x515"
      },
      "additionalContracts": [],
      "isFixedGasLimit": false
    },
    {
      "hash": "0x9a879347a7526ed0cf26957c878689ee51035984464d419c5d5220c255fdebfe",
      "transactionType": "CALL",
      "contractName": null,
      "contractAddress": "0x31d0220469e10c4e71834a79b1f276d740d3768f",
      "function": "approve(address,uint256)",
      "arguments": [
        "0xCFdeb0E66F26b2466a66524E4c305E79a84F47A7",
        "115792089237316195423570985008687907853269984665640564039457584007913129639935"
      ],
      "transaction": {
        "from": "0x95606236867c2d3391f3dd2d3004efab08e819e4",
        "to": "0x31d0220469e10c4e71834a79b1f276d740d3768f",
        "gas": "0x13eb1",
        "value": "0x0",
        "input": "0x095ea7b3000000000000000000000000cfdeb0e66f26b2466a66524e4c305e79a84f47a7ffffffffffffffffffffffffffffffffffffffffffffffffffffffffffffffff",
        "nonce": "0x96",
        "chainId": "0x515"
      },
      "additionalContracts": [],
      "isFixedGasLimit": false
    },
    {
      "hash": "0xb29b95a0d391798fa9beb87014838417b3671e0f46d9cc915209273b46212aaf",
      "transactionType": "CALL",
      "contractName": null,
      "contractAddress": "0x4200000000000000000000000000000000000006",
      "function": "approve(address,uint256)",
      "arguments": [
        "0x66F189FfC4318310A654969C9Bab040F4Cc3d451",
        "115792089237316195423570985008687907853269984665640564039457584007913129639935"
      ],
      "transaction": {
        "from": "0x95606236867c2d3391f3dd2d3004efab08e819e4",
        "to": "0x4200000000000000000000000000000000000006",
        "gas": "0x10972",
        "value": "0x0",
        "input": "0x095ea7b300000000000000000000000066f189ffc4318310a654969c9bab040f4cc3d451ffffffffffffffffffffffffffffffffffffffffffffffffffffffffffffffff",
        "nonce": "0x97",
        "chainId": "0x515"
      },
      "additionalContracts": [],
      "isFixedGasLimit": false
    },
    {
      "hash": "0x94c7dabdd8649b2d9cc2a7b990a667fa660ef922c552d219d4a3ee2dd32891fc",
      "transactionType": "CALL",
      "contractName": null,
      "contractAddress": "0x4200000000000000000000000000000000000006",
      "function": "transfer(address,uint256)",
      "arguments": [
        "0x35bb8348F197280d60470Db9198769FB83347dd6",
        "10000000000000000"
      ],
      "transaction": {
        "from": "0x95606236867c2d3391f3dd2d3004efab08e819e4",
        "to": "0x4200000000000000000000000000000000000006",
        "gas": "0x126ee",
        "value": "0x0",
        "input": "0xa9059cbb00000000000000000000000035bb8348f197280d60470db9198769fb83347dd6000000000000000000000000000000000000000000000000002386f26fc10000",
        "nonce": "0x98",
        "chainId": "0x515"
      },
      "additionalContracts": [],
      "isFixedGasLimit": false
    },
    {
      "hash": "0x22c74ae65516803e2279b3387da05168a56885a602d4242ff387836a3442023a",
      "transactionType": "CALL",
      "contractName": null,
      "contractAddress": "0x31d0220469e10c4e71834a79b1f276d740d3768f",
      "function": "transfer(address,uint256)",
      "arguments": [
        "0x35bb8348F197280d60470Db9198769FB83347dd6",
        "20000000"
      ],
      "transaction": {
        "from": "0x95606236867c2d3391f3dd2d3004efab08e819e4",
        "to": "0x31d0220469e10c4e71834a79b1f276d740d3768f",
        "gas": "0x14f5f",
        "value": "0x0",
        "input": "0xa9059cbb00000000000000000000000035bb8348f197280d60470db9198769fb83347dd60000000000000000000000000000000000000000000000000000000001312d00",
        "nonce": "0x99",
        "chainId": "0x515"
      },
      "additionalContracts": [],
      "isFixedGasLimit": false
    },
    {
      "hash": "0xd56fe5895de6fa6f4b4aeace080c4aa8aaa1f21cb208f00240a794d4b0f293d4",
      "transactionType": "CALL",
      "contractName": null,
      "contractAddress": "0x4200000000000000000000000000000000000006",
      "function": "transfer(address,uint256)",
      "arguments": [
        "0x6FF2E270e8C2CE9F0c081F3849460754833D60F7",
        "10000000000000000"
      ],
      "transaction": {
        "from": "0x95606236867c2d3391f3dd2d3004efab08e819e4",
        "to": "0x4200000000000000000000000000000000000006",
        "gas": "0x126ee",
        "value": "0x0",
        "input": "0xa9059cbb0000000000000000000000006ff2e270e8c2ce9f0c081f3849460754833d60f7000000000000000000000000000000000000000000000000002386f26fc10000",
        "nonce": "0x9a",
        "chainId": "0x515"
      },
      "additionalContracts": [],
      "isFixedGasLimit": false
    },
    {
      "hash": "0x86789eb6776a93971eea15b75f4084585d739882955af6d735840338d872303c",
      "transactionType": "CALL",
      "contractName": null,
      "contractAddress": "0x31d0220469e10c4e71834a79b1f276d740d3768f",
      "function": "transfer(address,uint256)",
      "arguments": [
        "0x6FF2E270e8C2CE9F0c081F3849460754833D60F7",
        "20000000"
      ],
      "transaction": {
        "from": "0x95606236867c2d3391f3dd2d3004efab08e819e4",
        "to": "0x31d0220469e10c4e71834a79b1f276d740d3768f",
        "gas": "0x14f5f",
        "value": "0x0",
        "input": "0xa9059cbb0000000000000000000000006ff2e270e8c2ce9f0c081f3849460754833d60f70000000000000000000000000000000000000000000000000000000001312d00",
        "nonce": "0x9b",
        "chainId": "0x515"
      },
      "additionalContracts": [],
      "isFixedGasLimit": false
    },
    {
      "hash": "0xe2c7342e4fb85a83d2a85a8a2ded203bfa9829800771fdaa86ad152e6774027e",
      "transactionType": "CALL",
      "contractName": null,
      "contractAddress": "0x00b036b58a818b1bc34d502d3fe730db729e62ac",
      "function": "initialize((address,address,uint24,int24,address),uint160)",
      "arguments": [
        "(0x31d0220469e10c4E71834a79b1f276d740d3768F, 0x4200000000000000000000000000000000000006, 3000, 60, 0x29315C3A1A31F9941AE15E02E7Ae1b5567De46c0)",
        "79228162514264337593543950336"
      ],
      "transaction": {
        "from": "0x95606236867c2d3391f3dd2d3004efab08e819e4",
        "to": "0x00b036b58a818b1bc34d502d3fe730db729e62ac",
        "gas": "0x12626",
        "value": "0x0",
        "input": "0x6276cbbe00000000000000000000000031d0220469e10c4e71834a79b1f276d740d3768f00000000000000000000000042000000000000000000000000000000000000060000000000000000000000000000000000000000000000000000000000000bb8000000000000000000000000000000000000000000000000000000000000003c00000000000000000000000029315c3a1a31f9941ae15e02e7ae1b5567de46c00000000000000000000000000000000000000001000000000000000000000000",
        "nonce": "0x9c",
        "chainId": "0x515"
      },
      "additionalContracts": [],
      "isFixedGasLimit": false
    },
    {
      "hash": "0xcc35ca6c96c0ed7c04d3afc13f7a7e67064de3122dbad9c41105206bdf74ae28",
      "transactionType": "CALL",
      "contractName": "PoolModifyLiquidityTest",
      "contractAddress": "0xcfdeb0e66f26b2466a66524e4c305e79a84f47a7",
      "function": "modifyLiquidity((address,address,uint24,int24,address),(int24,int24,int256,bytes32),bytes)",
      "arguments": [
        "(0x31d0220469e10c4E71834a79b1f276d740d3768F, 0x4200000000000000000000000000000000000006, 3000, 60, 0x29315C3A1A31F9941AE15E02E7Ae1b5567De46c0)",
        "(-120, 120, 2000000000, 0x0000000000000000000000000000000000000000000000000000000000000001)",
        "0x"
      ],
      "transaction": {
        "from": "0x95606236867c2d3391f3dd2d3004efab08e819e4",
        "to": "0xcfdeb0e66f26b2466a66524e4c305e79a84f47a7",
        "gas": "0x68fa0",
        "value": "0x0",
        "input": "0x5a6bcfda00000000000000000000000031d0220469e10c4e71834a79b1f276d740d3768f00000000000000000000000042000000000000000000000000000000000000060000000000000000000000000000000000000000000000000000000000000bb8000000000000000000000000000000000000000000000000000000000000003c00000000000000000000000029315c3a1a31f9941ae15e02e7ae1b5567de46c0ffffffffffffffffffffffffffffffffffffffffffffffffffffffffffffff8800000000000000000000000000000000000000000000000000000000000000780000000000000000000000000000000000000000000000000000000077359400000000000000000000000000000000000000000000000000000000000000000100000000000000000000000000000000000000000000000000000000000001400000000000000000000000000000000000000000000000000000000000000000",
        "nonce": "0x9d",
        "chainId": "0x515"
      },
      "additionalContracts": [],
      "isFixedGasLimit": false
    },
    {
      "hash": null,
      "transactionType": "CALL",
      "contractName": null,
      "contractAddress": "0x4200000000000000000000000000000000000006",
      "function": "approve(address,uint256)",
      "arguments": [
        "0x479D4A1a46Fa2504182C1b6d7aDC3e251EA479Aa",
        "115792089237316195423570985008687907853269984665640564039457584007913129639935"
      ],
      "transaction": {
        "from": "0x35bb8348f197280d60470db9198769fb83347dd6",
        "to": "0x4200000000000000000000000000000000000006",
        "gas": "0x10972",
        "value": "0x0",
        "input": "0x095ea7b3000000000000000000000000479d4a1a46fa2504182c1b6d7adc3e251ea479aaffffffffffffffffffffffffffffffffffffffffffffffffffffffffffffffff",
        "nonce": "0x0",
        "chainId": "0x515"
      },
      "additionalContracts": [],
      "isFixedGasLimit": false
    },
    {
      "hash": null,
      "transactionType": "CALL",
      "contractName": null,
      "contractAddress": "0x31d0220469e10c4e71834a79b1f276d740d3768f",
      "function": "approve(address,uint256)",
      "arguments": [
        "0x479D4A1a46Fa2504182C1b6d7aDC3e251EA479Aa",
        "115792089237316195423570985008687907853269984665640564039457584007913129639935"
      ],
      "transaction": {
        "from": "0x35bb8348f197280d60470db9198769fb83347dd6",
        "to": "0x31d0220469e10c4e71834a79b1f276d740d3768f",
        "gas": "0x13eb1",
        "value": "0x0",
        "input": "0x095ea7b3000000000000000000000000479d4a1a46fa2504182c1b6d7adc3e251ea479aaffffffffffffffffffffffffffffffffffffffffffffffffffffffffffffffff",
        "nonce": "0x1",
        "chainId": "0x515"
      },
      "additionalContracts": [],
      "isFixedGasLimit": false
    },
    {
      "hash": null,
      "transactionType": "CALL",
      "contractName": "PoolModifyLiquidityTest",
      "contractAddress": "0x479d4a1a46fa2504182c1b6d7adc3e251ea479aa",
      "function": "modifyLiquidity((address,address,uint24,int24,address),(int24,int24,int256,bytes32),bytes)",
      "arguments": [
        "(0x31d0220469e10c4E71834a79b1f276d740d3768F, 0x4200000000000000000000000000000000000006, 3000, 60, 0x29315C3A1A31F9941AE15E02E7Ae1b5567De46c0)",
        "(-120, 120, 2000000000, 0x0000000000000000000000000000000000000000000000000000000000000002)",
        "0x"
      ],
      "transaction": {
        "from": "0x35bb8348f197280d60470db9198769fb83347dd6",
        "to": "0x479d4a1a46fa2504182c1b6d7adc3e251ea479aa",
        "gas": "0x4c8e5",
        "value": "0x0",
        "input": "0x5a6bcfda00000000000000000000000031d0220469e10c4e71834a79b1f276d740d3768f00000000000000000000000042000000000000000000000000000000000000060000000000000000000000000000000000000000000000000000000000000bb8000000000000000000000000000000000000000000000000000000000000003c00000000000000000000000029315c3a1a31f9941ae15e02e7ae1b5567de46c0ffffffffffffffffffffffffffffffffffffffffffffffffffffffffffffff8800000000000000000000000000000000000000000000000000000000000000780000000000000000000000000000000000000000000000000000000077359400000000000000000000000000000000000000000000000000000000000000000200000000000000000000000000000000000000000000000000000000000001400000000000000000000000000000000000000000000000000000000000000000",
        "nonce": "0x2",
        "chainId": "0x515"
      },
      "additionalContracts": [],
      "isFixedGasLimit": false
    },
    {
      "hash": null,
      "transactionType": "CALL",
      "contractName": null,
      "contractAddress": "0x4200000000000000000000000000000000000006",
      "function": "approve(address,uint256)",
      "arguments": [
        "0xe8aF1BA58f681e6f9c4f0104A966F75E70486e9d",
        "115792089237316195423570985008687907853269984665640564039457584007913129639935"
      ],
      "transaction": {
        "from": "0x6ff2e270e8c2ce9f0c081f3849460754833d60f7",
        "to": "0x4200000000000000000000000000000000000006",
        "gas": "0x10972",
        "value": "0x0",
        "input": "0x095ea7b3000000000000000000000000e8af1ba58f681e6f9c4f0104a966f75e70486e9dffffffffffffffffffffffffffffffffffffffffffffffffffffffffffffffff",
        "nonce": "0x0",
        "chainId": "0x515"
      },
      "additionalContracts": [],
      "isFixedGasLimit": false
    },
    {
      "hash": null,
      "transactionType": "CALL",
      "contractName": null,
      "contractAddress": "0x31d0220469e10c4e71834a79b1f276d740d3768f",
      "function": "approve(address,uint256)",
      "arguments": [
        "0xe8aF1BA58f681e6f9c4f0104A966F75E70486e9d",
        "115792089237316195423570985008687907853269984665640564039457584007913129639935"
      ],
      "transaction": {
        "from": "0x6ff2e270e8c2ce9f0c081f3849460754833d60f7",
        "to": "0x31d0220469e10c4e71834a79b1f276d740d3768f",
        "gas": "0x13eb1",
        "value": "0x0",
        "input": "0x095ea7b3000000000000000000000000e8af1ba58f681e6f9c4f0104a966f75e70486e9dffffffffffffffffffffffffffffffffffffffffffffffffffffffffffffffff",
        "nonce": "0x1",
        "chainId": "0x515"
      },
      "additionalContracts": [],
      "isFixedGasLimit": false
    },
    {
      "hash": null,
      "transactionType": "CALL",
      "contractName": "PoolModifyLiquidityTest",
      "contractAddress": "0xe8af1ba58f681e6f9c4f0104a966f75e70486e9d",
      "function": "modifyLiquidity((address,address,uint24,int24,address),(int24,int24,int256,bytes32),bytes)",
      "arguments": [
        "(0x31d0220469e10c4E71834a79b1f276d740d3768F, 0x4200000000000000000000000000000000000006, 3000, 60, 0x29315C3A1A31F9941AE15E02E7Ae1b5567De46c0)",
        "(-120, 120, 2000000000, 0x0000000000000000000000000000000000000000000000000000000000000003)",
        "0x"
      ],
      "transaction": {
        "from": "0x6ff2e270e8c2ce9f0c081f3849460754833d60f7",
        "to": "0xe8af1ba58f681e6f9c4f0104a966f75e70486e9d",
        "gas": "0x4c8e5",
        "value": "0x0",
        "input": "0x5a6bcfda00000000000000000000000031d0220469e10c4e71834a79b1f276d740d3768f00000000000000000000000042000000000000000000000000000000000000060000000000000000000000000000000000000000000000000000000000000bb8000000000000000000000000000000000000000000000000000000000000003c00000000000000000000000029315c3a1a31f9941ae15e02e7ae1b5567de46c0ffffffffffffffffffffffffffffffffffffffffffffffffffffffffffffff8800000000000000000000000000000000000000000000000000000000000000780000000000000000000000000000000000000000000000000000000077359400000000000000000000000000000000000000000000000000000000000000000300000000000000000000000000000000000000000000000000000000000001400000000000000000000000000000000000000000000000000000000000000000",
        "nonce": "0x2",
        "chainId": "0x515"
      },
      "additionalContracts": [],
      "isFixedGasLimit": false
    },
    {
      "hash": null,
      "transactionType": "CALL",
      "contractName": "IntentStore",
      "contractAddress": "0x8ee42dcacbb23e9928c196aa8ddb2a8a084dfaaf",
      "function": "submitIntent((uint64,uint64,uint32,uint32,bytes32[4],uint8,uint256,bytes32),uint256)",
      "arguments": [
        "(43711589, 43711688, 1, 0, [0x9ab1bb2ecdcbdab2d6d3020ecd101596ab37e33041f82fe66e06b86b28f6470a, 0x0000000000000000000000000000000000000000000000000000000000000000, 0x0000000000000000000000000000000000000000000000000000000000000000, 0x0000000000000000000000000000000000000000000000000000000000000000], 1, 0, 0x0000000000000000000000000000000000000000000000000000000000000000)",
        "5000000000000000"
      ],
      "transaction": {
        "from": "0x95606236867c2d3391f3dd2d3004efab08e819e4",
        "to": "0x8ee42dcacbb23e9928c196aa8ddb2a8a084dfaaf",
        "gas": "0x461b2",
        "value": "0x0",
        "input": "0xed82a00e00000000000000000000000000000000000000000000000000000000029afc6500000000000000000000000000000000000000000000000000000000029afcc8000000000000000000000000000000000000000000000000000000000000000100000000000000000000000000000000000000000000000000000000000000009ab1bb2ecdcbdab2d6d3020ecd101596ab37e33041f82fe66e06b86b28f6470a0000000000000000000000000000000000000000000000000000000000000000000000000000000000000000000000000000000000000000000000000000000000000000000000000000000000000000000000000000000000000000000000000000000000000000000000000000000000000000000000000000000000000001000000000000000000000000000000000000000000000000000000000000000000000000000000000000000000000000000000000000000000000000000000000000000000000000000000000000000000000000000000000011c37937e08000",
        "nonce": "0x9e",
        "chainId": "0x515"
      },
      "additionalContracts": [],
      "isFixedGasLimit": false
    },
    {
      "hash": null,
      "transactionType": "CALL",
      "contractName": "PrivacySwapExecutor",
      "contractAddress": "0x66f189ffc4318310a654969c9bab040f4cc3d451",
      "function": "executeIntent(uint256,(address,address,uint24,int24,address),uint160)",
      "arguments": [
        "0",
        "(0x31d0220469e10c4E71834a79b1f276d740d3768F, 0x4200000000000000000000000000000000000006, 3000, 60, 0x29315C3A1A31F9941AE15E02E7Ae1b5567De46c0)",
        "158456325028528675187087900672"
      ],
      "transaction": {
        "from": "0x95606236867c2d3391f3dd2d3004efab08e819e4",
        "to": "0x66f189ffc4318310a654969c9bab040f4cc3d451",
        "gas": "0x73d96",
        "value": "0x0",
        "input": "0xd9c8ec22000000000000000000000000000000000000000000000000000000000000000000000000000000000000000031d0220469e10c4e71834a79b1f276d740d3768f00000000000000000000000042000000000000000000000000000000000000060000000000000000000000000000000000000000000000000000000000000bb8000000000000000000000000000000000000000000000000000000000000003c00000000000000000000000029315c3a1a31f9941ae15e02e7ae1b5567de46c00000000000000000000000000000000000000002000000000000000000000000",
        "nonce": "0x9f",
        "chainId": "0x515"
      },
      "additionalContracts": [],
      "isFixedGasLimit": false
    }
  ],
  "receipts": [
    {
      "status": "0x1",
      "cumulativeGasUsed": "0x135ef9",
      "logs": [],
      "logsBloom": "0x00000000000000000000000000000000000000000000000000000000000000000000000000000000000000000000000000000000000000000000000000000000000000000000000000000000000000000000000000000000000000000000000000000000000000000000000000000000000000000000000000000000000000000000000000000000000000000000000000000000000000000000000000000000000000000000000000000000000000000000000000000000000000000000000000000000000000000000000000000000000000000000000000000000000000000000000000000000000000000000000000000000000000000000000000000000",
      "type": "0x2",
      "transactionHash": "0xc12c86f4451b0304989e02a38cd77e1eff296f04abdd73a31ade62b98c5b1257",
      "transactionIndex": "0x3",
      "blockHash": "0x0000000000000000000000000000000000000000000000000000000000000000",
      "blockNumber": "0x29afc8f",
      "gasUsed": "0x10e4d1",
      "effectiveGasPrice": "0x7a121",
      "blobGasUsed": "0x111d40",
      "from": "0x95606236867c2d3391f3dd2d3004efab08e819e4",
      "to": "0x4e59b44847b379578588920ca78fbf26c0b4956c",
      "contractAddress": null,
      "daFootprintGasScalar": "0x190",
      "l1BaseFeeScalar": "0x7d0",
      "l1BlobBaseFee": "0x368f0d9",
      "l1BlobBaseFeeScalar": "0xdbba0",
      "l1Fee": "0x2c6daa56b",
      "l1GasPrice": "0x40f41c03",
      "l1GasUsed": "0xaf4d"
    },
    {
      "status": "0x1",
      "cumulativeGasUsed": "0x155c19",
      "logs": [],
      "logsBloom": "0x00000000000000000000000000000000000000000000000000000000000000000000000000000000000000000000000000000000000000000000000000000000000000000000000000000000000000000000000000000000000000000000000000000000000000000000000000000000000000000000000000000000000000000000000000000000000000000000000000000000000000000000000000000000000000000000000000000000000000000000000000000000000000000000000000000000000000000000000000000000000000000000000000000000000000000000000000000000000000000000000000000000000000000000000000000000",
      "type": "0x2",
      "transactionHash": "0x5dc817684c56e06cf2742cece5386047537b576ed71a598144349ea238cf0180",
      "transactionIndex": "0x4",
      "blockHash": "0x0000000000000000000000000000000000000000000000000000000000000000",
      "blockNumber": "0x29afc94",
      "gasUsed": "0x1171cb",
      "effectiveGasPrice": "0x7a121",
      "blobGasUsed": "0x105860",
      "from": "0x95606236867c2d3391f3dd2d3004efab08e819e4",
      "to": null,
      "contractAddress": "0x606738aa1f7a54c0978795d087cd32942c88ad96",
      "daFootprintGasScalar": "0x190",
      "l1BaseFeeScalar": "0x7d0",
      "l1BlobBaseFee": "0x368f0d9",
      "l1BlobBaseFeeScalar": "0xdbba0",
      "l1Fee": "0x2c6daa56b",
      "l1GasPrice": "0x40f41c03",
      "l1GasUsed": "0xa768"
    },
    {
      "status": "0x1",
      "cumulativeGasUsed": "0x126f83",
      "logs": [],
      "logsBloom": "0x00000000000000000000000000000000000000000000000000000000000000000000000000000000000000000000000000000000000000000000000000000000000000000000000000000000000000000000000000000000000000000000000000000000000000000000000000000000000000000000000000000000000000000000000000000000000000000000000000000000000000000000000000000000000000000000000000000000000000000000000000000000000000000000000000000000000000000000000000000000000000000000000000000000000000000000000000000000000000000000000000000000000000000000000000000000",
      "type": "0x2",
      "transactionHash": "0x0d4ab7ba2ea26eb1b330bf8e6556d87670ec56611b0f025e57100a0a7da085a3",
      "transactionIndex": "0x3",
      "blockHash": "0x0000000000000000000000000000000000000000000000000000000000000000",
      "blockNumber": "0x29afc98",
      "gasUsed": "0xfc99b",
      "effectiveGasPrice": "0x7a121",
      "blobGasUsed": "0x110a80",
      "from": "0x95606236867c2d3391f3dd2d3004efab08e819e4",
      "to": null,
      "contractAddress": "0xcfdeb0e66f26b2466a66524e4c305e79a84f47a7",
      "daFootprintGasScalar": "0x190",
      "l1BaseFeeScalar": "0x7d0",
      "l1BlobBaseFee": "0x39b4cf7",
      "l1BlobBaseFeeScalar": "0xdbba0",
      "l1Fee": "0x2c821beb6",
      "l1GasPrice": "0x3bb5c1f4",
      "l1GasUsed": "0xae85"
    },
    {
      "status": "0x1",
      "cumulativeGasUsed": "0x1243c3",
      "logs": [],
      "logsBloom": "0x00000000000000000000000000000000000000000000000000000000000000000000000000000000000000000000000000000000000000000000000000000000000000000000000000000000000000000000000000000000000000000000000000000000000000000000000000000000000000000000000000000000000000000000000000000000000000000000000000000000000000000000000000000000000000000000000000000000000000000000000000000000000000000000000000000000000000000000000000000000000000000000000000000000000000000000000000000000000000000000000000000000000000000000000000000000",
      "type": "0x2",
      "transactionHash": "0xf4d2dc22329e79d2e20b183a22114d719dd28c584e2be1505911a9037295e9a1",
      "transactionIndex": "0x3",
      "blockHash": "0x0000000000000000000000000000000000000000000000000000000000000000",
      "blockNumber": "0x29afc9d",
      "gasUsed": "0xfc99b",
      "effectiveGasPrice": "0x7a121",
      "blobGasUsed": "0x110a80",
      "from": "0x95606236867c2d3391f3dd2d3004efab08e819e4",
      "to": null,
      "contractAddress": "0x479d4a1a46fa2504182c1b6d7adc3e251ea479aa",
      "daFootprintGasScalar": "0x190",
      "l1BaseFeeScalar": "0x7d0",
      "l1BlobBaseFee": "0x39b4cf7",
      "l1BlobBaseFeeScalar": "0xdbba0",
      "l1Fee": "0x2c821beb6",
      "l1GasPrice": "0x3bb5c1f4",
      "l1GasUsed": "0xae85"
    },
    {
      "status": "0x1",
      "cumulativeGasUsed": "0x1243cf",
      "logs": [],
      "logsBloom": "0x00000000000000000000000000000000000000000000000000000000000000000000000000000000000000000000000000000000000000000000000000000000000000000000000000000000000000000000000000000000000000000000000000000000000000000000000000000000000000000000000000000000000000000000000000000000000000000000000000000000000000000000000000000000000000000000000000000000000000000000000000000000000000000000000000000000000000000000000000000000000000000000000000000000000000000000000000000000000000000000000000000000000000000000000000000000",
      "type": "0x2",
      "transactionHash": "0x6bdd180e19d45c9e0a45c871824a92c38a52d50c5b86c5259a3862dc81c2b1bf",
      "transactionIndex": "0x3",
      "blockHash": "0x0000000000000000000000000000000000000000000000000000000000000000",
      "blockNumber": "0x29afca2",
      "gasUsed": "0xfc99b",
      "effectiveGasPrice": "0x7a121",
      "blobGasUsed": "0x110a80",
      "from": "0x95606236867c2d3391f3dd2d3004efab08e819e4",
      "to": null,
      "contractAddress": "0xe8af1ba58f681e6f9c4f0104a966f75e70486e9d",
      "daFootprintGasScalar": "0x190",
      "l1BaseFeeScalar": "0x7d0",
      "l1BlobBaseFee": "0x39b4cf7",
      "l1BlobBaseFeeScalar": "0xdbba0",
      "l1Fee": "0x2c821beb6",
      "l1GasPrice": "0x3bb5c1f4",
      "l1GasUsed": "0xae85"
    },
    {
      "status": "0x1",
      "cumulativeGasUsed": "0xc5f46",
      "logs": [],
      "logsBloom": "0x00000000000000000000000000000000000000000000000000000000000000000000000000000000000000000000000000000000000000000000000000000000000000000000000000000000000000000000000000000000000000000000000000000000000000000000000000000000000000000000000000000000000000000000000000000000000000000000000000000000000000000000000000000000000000000000000000000000000000000000000000000000000000000000000000000000000000000000000000000000000000000000000000000000000000000000000000000000000000000000000000000000000000000000000000000000",
      "type": "0x2",
      "transactionHash": "0xa3b74c4ab7dc75b677a512bc04cf87650effcbe01e7647188b8eba49ae8d63d2",
      "transactionIndex": "0x3",
      "blockHash": "0x0000000000000000000000000000000000000000000000000000000000000000",
      "blockNumber": "0x29afca7",
      "gasUsed": "0x9e512",
      "effectiveGasPrice": "0x7a121",
      "blobGasUsed": "0xb6850",
      "from": "0x95606236867c2d3391f3dd2d3004efab08e819e4",
      "to": null,
      "contractAddress": "0x8ee42dcacbb23e9928c196aa8ddb2a8a084dfaaf",
      "daFootprintGasScalar": "0x190",
      "l1BaseFeeScalar": "0x7d0",
      "l1BlobBaseFee": "0x3acb98a",
      "l1BlobBaseFeeScalar": "0xdbba0",
      "l1Fee": "0x2bfbae22e",
      "l1GasPrice": "0x37e4fd87",
      "l1GasUsed": "0x74da"
    },
    {
      "status": "0x1",
      "cumulativeGasUsed": "0x135561",
      "logs": [],
      "logsBloom": "0x00000000000000000000000000000000000000000000000000000000000000000000000000000000000000000000000000000000000000000000000000000000000000000000000000000000000000000000000000000000000000000000000000000000000000000000000000000000000000000000000000000000000000000000000000000000000000000000000000000000000000000000000000000000000000000000000000000000000000000000000000000000000000000000000000000000000000000000000000000000000000000000000000000000000000000000000000000000000000000000000000000000000000000000000000000000",
      "type": "0x2",
      "transactionHash": "0xb5e335f1732bc73f07bf3d0084504d3c0d67e72fee45dd11a8d546309da22d36",
      "transactionIndex": "0x6",
      "blockHash": "0x83b7671f4fed554e2dce3c6e4cfed54c5cad2a2d64aaf276ef9ea2abe0273324",
      "blockNumber": "0x29afcab",
      "gasUsed": "0xc8ac7",
      "effectiveGasPrice": "0x7a121",
      "blobGasUsed": "0xde8f0",
      "from": "0x95606236867c2d3391f3dd2d3004efab08e819e4",
      "to": null,
      "contractAddress": "0x66f189ffc4318310a654969c9bab040f4cc3d451",
      "daFootprintGasScalar": "0x190",
      "l1BaseFeeScalar": "0x7d0",
      "l1BlobBaseFee": "0x3acb98a",
      "l1BlobBaseFeeScalar": "0xdbba0",
      "l1Fee": "0x2d6034f89f",
      "l1GasPrice": "0x37e4fd87",
      "l1GasUsed": "0x8e78"
    },
    {
      "status": "0x1",
      "cumulativeGasUsed": "0x7a16a",
      "logs": [],
      "logsBloom": "0x00000000000000000000000000000000000000000000000000000000000000000000000000000000000000000000000000000000000000000000000000000000000000000000000000000000000000000000000000000000000000000000000000000000000000000000000000000000000000000000000000000000000000000000000000000000000000000000000000000000000000000000000000000000000000000000000000000000000000000000000000000000000000000000000000000000000000000000000000000000000000000000000000000000000000000000000000000000000000000000000000000000000000000000000000000000",
      "type": "0x2",
      "transactionHash": "0x82a3d1fc5833a554f7cc5bae6d1c0b374b38fc4937386805ce0e1ce8cfa5fa1a",
      "transactionIndex": "0x6",
      "blockHash": "0x391eb3baf859e4861e110852d65c2580334b506d2d21e9798eb7289af90b2d54",
      "blockNumber": "0x29afcb0",
      "gasUsed": "0xab28",
      "effectiveGasPrice": "0x7a121",
      "blobGasUsed": "0x9c40",
      "from": "0x95606236867c2d3391f3dd2d3004efab08e819e4",
      "to": "0x8ee42dcacbb23e9928c196aa8ddb2a8a084dfaaf",
      "contractAddress": null,
      "daFootprintGasScalar": "0x190",
      "l1BaseFeeScalar": "0x7d0",
      "l1BlobBaseFee": "0x348e729",
      "l1BlobBaseFeeScalar": "0xdbba0",
      "l1Fee": "0x1f0d8d9e6",
      "l1GasPrice": "0x3ee15eb7",
      "l1GasUsed": "0x640"
    },
    {
      "status": "0x1",
      "cumulativeGasUsed": "0x4a274",
      "logs": [
        {
          "address": "0x29315c3a1a31f9941ae15e02e7ae1b5567de46c0",
          "topics": [
            "0x81639ab8f3fbb025b1e08849071d6ba211e0153cc8c447680595775116b67a1a",
            "0x000000000000000000000000606738aa1f7a54c0978795d087cd32942c88ad96"
          ],
          "data": "0x",
          "blockHash": "0x15aeee17fbe91c2a12895625b886129bb169280a5c1900fa0d5354c78fba662b",
          "blockNumber": "0x29afcb4",
          "blockTimestamp": "0x6988aa00",
          "transactionHash": "0x948d626cd3b07237133e8f2643236dc6286b3b75a4466fe07069040e8ea85df3",
          "transactionIndex": "0x4",
          "logIndex": "0x2",
          "removed": false
        }
      ],
      "logsBloom": "0x00000000000000004000000000000000000000000000000000000000000000000000000000000000000000000000004000000000000000000000000000000000000000000000040000000000000000000000000000000000000000000000000000000000000000000004000000000000000000000000000000000000000000000000000000000000000000000000000000000000000000000000000000000000000000000000000000020000080000000000000000000000000000000004000000000000100000000000000000000000000000100000000000000000000000000000000000000000000000000000000000000000000000000000000000000000",
      "type": "0x2",
      "transactionHash": "0x948d626cd3b07237133e8f2643236dc6286b3b75a4466fe07069040e8ea85df3",
      "transactionIndex": "0x4",
      "blockHash": "0x15aeee17fbe91c2a12895625b886129bb169280a5c1900fa0d5354c78fba662b",
      "blockNumber": "0x29afcb4",
      "gasUsed": "0xb826",
      "effectiveGasPrice": "0x7a121",
      "blobGasUsed": "0x9c40",
      "from": "0x95606236867c2d3391f3dd2d3004efab08e819e4",
      "to": "0x29315c3a1a31f9941ae15e02e7ae1b5567de46c0",
      "contractAddress": null,
      "daFootprintGasScalar": "0x190",
      "l1BaseFeeScalar": "0x7d0",
      "l1BlobBaseFee": "0x348e729",
      "l1BlobBaseFeeScalar": "0xdbba0",
      "l1Fee": "0x1f0d8d9e6",
      "l1GasPrice": "0x3ee15eb7",
      "l1GasUsed": "0x640"
    },
    {
      "status": "0x1",
      "cumulativeGasUsed": "0x6128e",
      "logs": [
        {
          "address": "0x29315c3a1a31f9941ae15e02e7ae1b5567de46c0",
          "topics": [
            "0x81639ab8f3fbb025b1e08849071d6ba211e0153cc8c447680595775116b67a1a",
            "0x000000000000000000000000cfdeb0e66f26b2466a66524e4c305e79a84f47a7"
          ],
          "data": "0x",
          "blockHash": "0x0000000000000000000000000000000000000000000000000000000000000000",
          "blockNumber": "0x29afcb8",
          "blockTimestamp": "0x6988aa04",
          "transactionHash": "0xcfd88d88aa647b14a936a5c16d5f4454823e873675b576199982103f6cf367f6",
          "transactionIndex": "0x5",
          "logIndex": "0x3",
          "removed": false
        }
      ],
      "logsBloom": "0x00000000000000004000000000000000000000000000000000000000000000000000000000000000000000000000000000000000000000000000000000000000000000000000040000000000000000000000000000000000000000000000000000000000000000000004000000000000000000000000000000000000000000000000000000000000000000000008000000000000000000000000000000000000000000000000000000020000080000000000000000000000000000000000000000000000000000000000000040000000000000100000000000000000000000000000000000000000000000000000000000000000004000000000000000000000",
      "type": "0x2",
      "transactionHash": "0xcfd88d88aa647b14a936a5c16d5f4454823e873675b576199982103f6cf367f6",
      "transactionIndex": "0x5",
      "blockHash": "0x0000000000000000000000000000000000000000000000000000000000000000",
      "blockNumber": "0x29afcb8",
      "gasUsed": "0xb826",
      "effectiveGasPrice": "0x7a121",
      "blobGasUsed": "0x9c40",
      "from": "0x95606236867c2d3391f3dd2d3004efab08e819e4",
      "to": "0x29315c3a1a31f9941ae15e02e7ae1b5567de46c0",
      "contractAddress": null,
      "daFootprintGasScalar": "0x190",
      "l1BaseFeeScalar": "0x7d0",
      "l1BlobBaseFee": "0x348e729",
      "l1BlobBaseFeeScalar": "0xdbba0",
      "l1Fee": "0x2ae234ada",
      "l1GasPrice": "0x3ee15eb7",
      "l1GasUsed": "0x640"
    },
    {
      "status": "0x1",
      "cumulativeGasUsed": "0x35e0e",
      "logs": [
        {
          "address": "0x29315c3a1a31f9941ae15e02e7ae1b5567de46c0",
          "topics": [
            "0x81639ab8f3fbb025b1e08849071d6ba211e0153cc8c447680595775116b67a1a",
            "0x000000000000000000000000479d4a1a46fa2504182c1b6d7adc3e251ea479aa"
          ],
          "data": "0x",
          "blockHash": "0x0000000000000000000000000000000000000000000000000000000000000000",
          "blockNumber": "0x29afcbc",
          "blockTimestamp": "0x6988aa08",
          "transactionHash": "0x7b698232d6acf33ddd553a8ebf32903c6367f30d770137c82b2c0513660e4f1f",
          "transactionIndex": "0x3",
          "logIndex": "0x1",
          "removed": false
        }
      ],
      "logsBloom": "0x00000000000000004000000000000000000000000000000000000000000000000000000001000000000000000000000000000000000000000000000000000000000000000000040000000000000000000000000000000000000000000000000080000000000000000004000000000000000000000000000000000000000000000000000000000000000000000000000000000000000000000000000000000000000000000000000000020000080000000000000000000000000000000000000000000000000000200000000000000000000000100000000000000000000000000000000000000000000000000000000000000000000000000000000000000000",
      "type": "0x2",
      "transactionHash": "0x7b698232d6acf33ddd553a8ebf32903c6367f30d770137c82b2c0513660e4f1f",
      "transactionIndex": "0x3",
      "blockHash": "0x0000000000000000000000000000000000000000000000000000000000000000",
      "blockNumber": "0x29afcbc",
      "gasUsed": "0xb826",
      "effectiveGasPrice": "0x7a121",
      "blobGasUsed": "0x9c40",
      "from": "0x95606236867c2d3391f3dd2d3004efab08e819e4",
      "to": "0x29315c3a1a31f9941ae15e02e7ae1b5567de46c0",
      "contractAddress": null,
      "daFootprintGasScalar": "0x190",
      "l1BaseFeeScalar": "0x7d0",
      "l1BlobBaseFee": "0x35bfb53",
      "l1BlobBaseFeeScalar": "0xdbba0",
      "l1Fee": "0x2a5e18163",
      "l1GasPrice": "0x3aea748a",
      "l1GasUsed": "0x640"
    },
    {
      "status": "0x1",
      "cumulativeGasUsed": "0x1140dd",
      "logs": [
        {
          "address": "0x29315c3a1a31f9941ae15e02e7ae1b5567de46c0",
          "topics": [
            "0x81639ab8f3fbb025b1e08849071d6ba211e0153cc8c447680595775116b67a1a",
            "0x000000000000000000000000e8af1ba58f681e6f9c4f0104a966f75e70486e9d"
          ],
          "data": "0x",
          "blockHash": "0x33b5e0c6bf8a244302805487dd896a154783a3d99fb8991a2e4ecb1390a1475b",
          "blockNumber": "0x29afcbf",
          "blockTimestamp": "0x6988aa0b",
          "transactionHash": "0x5570cfc28eab433024d3c03c43ba37d6dd4bd8dd8fd953b61a83658806580a17",
          "transactionIndex": "0x8",
          "logIndex": "0xc",
          "removed": false
        }
      ],
      "logsBloom": "0x00000000000000004000000000000000000000000000000000000000000000000000000000000000000000000000000000000000000000000000000000000000000000000000040000080000000000000000000000000000000000000000000000000000000200000004000000000000000000000000000000000000000000000000000000000000000000000000000000000000000000000000008000000000000000000000000000020000080000000000000000000000000000000000000000000000000000000000000000000000000000100000000000000000000000000000000000000000000000000000000000000000000000000000000000000000",
      "type": "0x2",
      "transactionHash": "0x5570cfc28eab433024d3c03c43ba37d6dd4bd8dd8fd953b61a83658806580a17",
      "transactionIndex": "0x8",
      "blockHash": "0x33b5e0c6bf8a244302805487dd896a154783a3d99fb8991a2e4ecb1390a1475b",
      "blockNumber": "0x29afcbf",
      "gasUsed": "0xb826",
      "effectiveGasPrice": "0x7a121",
      "blobGasUsed": "0x9c40",
      "from": "0x95606236867c2d3391f3dd2d3004efab08e819e4",
      "to": "0x29315c3a1a31f9941ae15e02e7ae1b5567de46c0",
      "contractAddress": null,
      "daFootprintGasScalar": "0x190",
      "l1BaseFeeScalar": "0x7d0",
      "l1BlobBaseFee": "0x35bfb53",
      "l1BlobBaseFeeScalar": "0xdbba0",
      "l1Fee": "0x1eade3681",
      "l1GasPrice": "0x3aea748a",
      "l1GasUsed": "0x640"
    },
    {
      "status": "0x1",
      "cumulativeGasUsed": "0x73746",
      "logs": [
        {
          "address": "0x4200000000000000000000000000000000000006",
          "topics": [
            "0xe1fffcc4923d04b559f4d29a8bfc6cda04eb5b0d3c460751c2402c5c5cc9109c",
            "0x00000000000000000000000095606236867c2d3391f3dd2d3004efab08e819e4"
          ],
          "data": "0x000000000000000000000000000000000000000000000000006a94d74f430000",
          "blockHash": "0xf1837d0d99465ccf5359d38eebf618b0f1241023c3ce028490896d05e21162dd",
          "blockNumber": "0x29afcc4",
          "blockTimestamp": "0x6988aa10",
          "transactionHash": "0x98b028af4b8553a628b4e218dc78d50b186ceb8d0ddb543d49ad6c042b4a5a3e",
          "transactionIndex": "0x6",
          "logIndex": "0x4",
          "removed": false
        }
      ],
      "logsBloom": "0x00000001000000000000000000000000000000000040000000040000000000000000000000000000000000100000000000000000000000000000000000000000000000000000000000000000000000000000000000000000000000008000000000000000000000000000000000000000000000000000000000000000000000000000000000000000000000000000000000000001002000000000000000000000000000000000000000000000000000000000000000000000000000000000000000000000000000000000000000000000000000200000000000000000000000000000000000000000000000000000000000000000000000400000000000000000",
      "type": "0x2",
      "transactionHash": "0x98b028af4b8553a628b4e218dc78d50b186ceb8d0ddb543d49ad6c042b4a5a3e",
      "transactionIndex": "0x6",
      "blockHash": "0xf1837d0d99465ccf5359d38eebf618b0f1241023c3ce028490896d05e21162dd",
      "blockNumber": "0x29afcc4",
      "gasUsed": "0x6cb8",
      "effectiveGasPrice": "0x7a121",
      "blobGasUsed": "0x9c40",
      "from": "0x95606236867c2d3391f3dd2d3004efab08e819e4",
      "to": "0x4200000000000000000000000000000000000006",
      "contractAddress": null,
      "daFootprintGasScalar": "0x190",
      "l1BaseFeeScalar": "0x7d0",
      "l1BlobBaseFee": "0x35bfb53",
      "l1BlobBaseFeeScalar": "0xdbba0",
      "l1Fee": "0x1eade3681",
      "l1GasPrice": "0x3aea748a",
      "l1GasUsed": "0x640"
    },
    {
      "status": "0x1",
      "cumulativeGasUsed": "0x63ba9",
      "logs": [
        {
          "address": "0x4200000000000000000000000000000000000006",
          "topics": [
            "0x8c5be1e5ebec7d5bd14f71427d1e84f3dd0314c0f7b2291e5b200ac8c7c3b925",
            "0x00000000000000000000000095606236867c2d3391f3dd2d3004efab08e819e4",
            "0x000000000000000000000000606738aa1f7a54c0978795d087cd32942c88ad96"
          ],
          "data": "0xffffffffffffffffffffffffffffffffffffffffffffffffffffffffffffffff",
          "blockHash": "0x6ce31fb2a8d8e9aeb7c29581f02eb901c2b23182766cad36a07428b9d584730b",
          "blockNumber": "0x29afcc8",
          "blockTimestamp": "0x6988aa14",
          "transactionHash": "0x61bb932224a21491e9b53895dc7f9555ac387edb0d670fd8a4bdf75150cfbc52",
          "transactionIndex": "0x5",
          "logIndex": "0x3",
          "removed": false
        }
      ],
      "logsBloom": "0x00000001000000000000000000000000000000000040000000040000000000000000000000000000000000100000004000000000000000000000000000200000000000000000000000000000000000000000000000000000000000000000000000000000000000000000000000000000000000000000000000000000000000000000000000000000000000000000000000000000002000000000000000000000020000000000000000000000000000000000000000000000000000000004000000000000100000000000000000000000000000200000000000000000000000000010000000000000000000000000000000000000000000000000000000000000",
      "type": "0x2",
      "transactionHash": "0x61bb932224a21491e9b53895dc7f9555ac387edb0d670fd8a4bdf75150cfbc52",
      "transactionIndex": "0x5",
      "blockHash": "0x6ce31fb2a8d8e9aeb7c29581f02eb901c2b23182766cad36a07428b9d584730b",
      "blockNumber": "0x29afcc8",
      "gasUsed": "0xb581",
      "effectiveGasPrice": "0x7a121",
      "blobGasUsed": "0x9c40",
      "from": "0x95606236867c2d3391f3dd2d3004efab08e819e4",
      "to": "0x4200000000000000000000000000000000000006",
      "contractAddress": null,
      "daFootprintGasScalar": "0x190",
      "l1BaseFeeScalar": "0x7d0",
      "l1BlobBaseFee": "0x36c35ff",
      "l1BlobBaseFeeScalar": "0xdbba0",
      "l1Fee": "0x208225176",
      "l1GasPrice": "0x42474ad1",
      "l1GasUsed": "0x640"
    },
    {
      "status": "0x1",
      "cumulativeGasUsed": "0x3541d",
      "logs": [
        {
          "address": "0x31d0220469e10c4e71834a79b1f276d740d3768f",
          "topics": [
            "0x8c5be1e5ebec7d5bd14f71427d1e84f3dd0314c0f7b2291e5b200ac8c7c3b925",
            "0x00000000000000000000000095606236867c2d3391f3dd2d3004efab08e819e4",
            "0x000000000000000000000000606738aa1f7a54c0978795d087cd32942c88ad96"
          ],
          "data": "0xffffffffffffffffffffffffffffffffffffffffffffffffffffffffffffffff",
          "blockHash": "0x0000000000000000000000000000000000000000000000000000000000000000",
          "blockNumber": "0x29afccc",
          "blockTimestamp": "0x6988aa18",
          "transactionHash": "0x0b487045b60345a21df6fae1133e2f8e65115fcaf43739caece083a264f0d28c",
          "transactionIndex": "0x3",
          "logIndex": "0x1",
          "removed": false
        }
      ],
      "logsBloom": "0x00000001000000000000000000000000000000000040000000000000000000000000000000000000000000000000004000000000000000000000000000200000000000000000000000000000000000000000000000001000000000000000000000000000000000000000000000000000000000000000000000000000000000000000000000000000000000000000000000000000000000000000000000000000020000000001000080000000000000000000000000000000000000000004000000000000100000000000000000000000000000200000000000000000000000000010000000000000000000000000000000000000000000000000000000000000",
      "type": "0x2",
      "transactionHash": "0x0b487045b60345a21df6fae1133e2f8e65115fcaf43739caece083a264f0d28c",
      "transactionIndex": "0x3",
      "blockHash": "0x0000000000000000000000000000000000000000000000000000000000000000",
      "blockNumber": "0x29afccc",
      "gasUsed": "0xd9e9",
      "effectiveGasPrice": "0x7a121",
      "blobGasUsed": "0x9c40",
      "from": "0x95606236867c2d3391f3dd2d3004efab08e819e4",
      "to": "0x31d0220469e10c4e71834a79b1f276d740d3768f",
      "contractAddress": null,
      "daFootprintGasScalar": "0x190",
      "l1BaseFeeScalar": "0x7d0",
      "l1BlobBaseFee": "0x36c35ff",
      "l1BlobBaseFeeScalar": "0xdbba0",
      "l1Fee": "0x2ce4bfba4",
      "l1GasPrice": "0x42474ad1",
      "l1GasUsed": "0x640"
    },
    {
      "status": "0x1",
      "cumulativeGasUsed": "0x7801b",
      "logs": [
        {
          "address": "0x4200000000000000000000000000000000000006",
          "topics": [
            "0x8c5be1e5ebec7d5bd14f71427d1e84f3dd0314c0f7b2291e5b200ac8c7c3b925",
            "0x00000000000000000000000095606236867c2d3391f3dd2d3004efab08e819e4",
            "0x000000000000000000000000cfdeb0e66f26b2466a66524e4c305e79a84f47a7"
          ],
          "data": "0xffffffffffffffffffffffffffffffffffffffffffffffffffffffffffffffff",
          "blockHash": "0x34c80ac5f9543e4c1ae5f12221f70346bb0c73cae425ac6c33774d6e93f33a8f",
          "blockNumber": "0x29afccf",
          "blockTimestamp": "0x6988aa1b",
          "transactionHash": "0xc21293e21edf1745f5df7094918de80d262fed4b6d9c81759053eacaf79bda85",
          "transactionIndex": "0x6",
          "logIndex": "0x4",
          "removed": false
        }
      ],
      "logsBloom": "0x00000001000000000000000000000000000000000040000000040000000000000000000000000000000000100000000000000000000000000000000000200000000000000000000000000000000000000000000000000000000000000000000000000000000000000000000000000000000000000000000000000000000000000000000000000000000000000008000000000000002000000000000000000000020000000000000000000000000000000000000000000000000000000000000000000000000000000000000040000000000000200000000000000000000000000010000000000000000000000000000000000000004000000000000000000000",
      "type": "0x2",
      "transactionHash": "0xc21293e21edf1745f5df7094918de80d262fed4b6d9c81759053eacaf79bda85",
      "transactionIndex": "0x6",
      "blockHash": "0x34c80ac5f9543e4c1ae5f12221f70346bb0c73cae425ac6c33774d6e93f33a8f",
      "blockNumber": "0x29afccf",
      "gasUsed": "0xb581",
      "effectiveGasPrice": "0x7a121",
      "blobGasUsed": "0x9c40",
      "from": "0x95606236867c2d3391f3dd2d3004efab08e819e4",
      "to": "0x4200000000000000000000000000000000000006",
      "contractAddress": null,
      "daFootprintGasScalar": "0x190",
      "l1BaseFeeScalar": "0x7d0",
      "l1BlobBaseFee": "0x36c35ff",
      "l1BlobBaseFeeScalar": "0xdbba0",
      "l1Fee": "0x208225176",
      "l1GasPrice": "0x42474ad1",
      "l1GasUsed": "0x640"
    },
    {
      "status": "0x1",
      "cumulativeGasUsed": "0x6345d",
      "logs": [
        {
          "address": "0x31d0220469e10c4e71834a79b1f276d740d3768f",
          "topics": [
            "0x8c5be1e5ebec7d5bd14f71427d1e84f3dd0314c0f7b2291e5b200ac8c7c3b925",
            "0x00000000000000000000000095606236867c2d3391f3dd2d3004efab08e819e4",
            "0x000000000000000000000000cfdeb0e66f26b2466a66524e4c305e79a84f47a7"
          ],
          "data": "0xffffffffffffffffffffffffffffffffffffffffffffffffffffffffffffffff",
          "blockHash": "0xd8c39349dad2aff80b654724d413cf8ec5998458c3fddc76e491eea75939bd3b",
          "blockNumber": "0x29afcd4",
          "blockTimestamp": "0x6988aa20",
          "transactionHash": "0x9a879347a7526ed0cf26957c878689ee51035984464d419c5d5220c255fdebfe",
          "transactionIndex": "0x5",
          "logIndex": "0x3",
          "removed": false
        }
      ],
      "logsBloom": "0x00000001000000000000000000000000000000000040000000000000000000000000000000000000000000000000000000000000000000000000000000200000000000000000000000000000000000000000000000001000000000000000000000000000000000000000000000000000000000000000000000000000000000000000000000000000000000000008000000000000000000000000000000000000020000000001000080000000000000000000000000000000000000000000000000000000000000000000000040000000000000200000000000000000000000000010000000000000000000000000000000000000004000000000000000000000",
      "type": "0x2",
      "transactionHash": "0x9a879347a7526ed0cf26957c878689ee51035984464d419c5d5220c255fdebfe",
      "transactionIndex": "0x5",
      "blockHash": "0xd8c39349dad2aff80b654724d413cf8ec5998458c3fddc76e491eea75939bd3b",
      "blockNumber": "0x29afcd4",
      "gasUsed": "0xd9e9",
      "effectiveGasPrice": "0x7a121",
      "blobGasUsed": "0x9c40",
      "from": "0x95606236867c2d3391f3dd2d3004efab08e819e4",
      "to": "0x31d0220469e10c4e71834a79b1f276d740d3768f",
      "contractAddress": null,
      "daFootprintGasScalar": "0x190",
      "l1BaseFeeScalar": "0x7d0",
      "l1BlobBaseFee": "0x36c35ff",
      "l1BlobBaseFeeScalar": "0xdbba0",
      "l1Fee": "0x208225176",
      "l1GasPrice": "0x42474ad1",
      "l1GasUsed": "0x640"
    },
    {
      "status": "0x1",
      "cumulativeGasUsed": "0x32f91",
      "logs": [
        {
          "address": "0x4200000000000000000000000000000000000006",
          "topics": [
            "0x8c5be1e5ebec7d5bd14f71427d1e84f3dd0314c0f7b2291e5b200ac8c7c3b925",
            "0x00000000000000000000000095606236867c2d3391f3dd2d3004efab08e819e4",
            "0x00000000000000000000000066f189ffc4318310a654969c9bab040f4cc3d451"
          ],
          "data": "0xffffffffffffffffffffffffffffffffffffffffffffffffffffffffffffffff",
          "blockHash": "0x0000000000000000000000000000000000000000000000000000000000000000",
          "blockNumber": "0x29afcd8",
          "blockTimestamp": "0x6988aa24",
          "transactionHash": "0xb29b95a0d391798fa9beb87014838417b3671e0f46d9cc915209273b46212aaf",
          "transactionIndex": "0x3",
          "logIndex": "0x1",
          "removed": false
        }
      ],
      "logsBloom": "0x00000001000000000000000000000000000000000040000000040000000000000000000000000000000000100000000000000000000000000000000000200000000000000000000000000000000000000000000000000000000000000000000000000000000000000000000000000000000000000000000000000000000000000000000000000000000000000000000000000000002000000000000000000000020000000000000000000000000000000010000000000000000000000010000000000000000000000000000000000000000000200000000000000000000000000010000000000000000000000000000000000000000000000000000008000000",
      "type": "0x2",
      "transactionHash": "0xb29b95a0d391798fa9beb87014838417b3671e0f46d9cc915209273b46212aaf",
      "transactionIndex": "0x3",
      "blockHash": "0x0000000000000000000000000000000000000000000000000000000000000000",
      "blockNumber": "0x29afcd8",
      "gasUsed": "0xb581",
      "effectiveGasPrice": "0x7a121",
      "blobGasUsed": "0x9c40",
      "from": "0x95606236867c2d3391f3dd2d3004efab08e819e4",
      "to": "0x4200000000000000000000000000000000000006",
      "contractAddress": null,
      "daFootprintGasScalar": "0x190",
      "l1BaseFeeScalar": "0x7d0",
      "l1BlobBaseFee": "0x38a32fe",
      "l1BlobBaseFeeScalar": "0xdbba0",
      "l1Fee": "0x2c4d314fa",
      "l1GasPrice": "0x3cd7257e",
      "l1GasUsed": "0x640"
    },
    {
      "status": "0x1",
      "cumulativeGasUsed": "0x9042e",
      "logs": [
        {
          "address": "0x4200000000000000000000000000000000000006",
          "topics": [
            "0xddf252ad1be2c89b69c2b068fc378daa952ba7f163c4a11628f55a4df523b3ef",
            "0x00000000000000000000000095606236867c2d3391f3dd2d3004efab08e819e4",
            "0x00000000000000000000000035bb8348f197280d60470db9198769fb83347dd6"
          ],
          "data": "0x000000000000000000000000000000000000000000000000002386f26fc10000",
          "blockHash": "0x303ff6751b0388445d5fa1094f3bca2c5300e234cce49b92e5080029ee521c1a",
          "blockNumber": "0x29afcdc",
          "blockTimestamp": "0x6988aa28",
          "transactionHash": "0x94c7dabdd8649b2d9cc2a7b990a667fa660ef922c552d219d4a3ee2dd32891fc",
          "transactionIndex": "0x7",
          "logIndex": "0x5",
          "removed": false
        }
      ],
      "logsBloom": "0x00000001000000000000000000000000000000000040000000040000000000000000000000010000000000100000000000000000000000000000000000000000000000004000000000000008000000000000000000000000000000000000000000000000000000000000000000000000000000000000000000000010000000000000000000000000000000000000000000000000102000000000000000000000000000000000000000000000000000000000000000000000000000000000000000000002000000000000000000000000000000200000000000000000000000000000000000000000000000000000000000000000000000000000000000000000",
      "type": "0x2",
      "transactionHash": "0x94c7dabdd8649b2d9cc2a7b990a667fa660ef922c552d219d4a3ee2dd32891fc",
      "transactionIndex": "0x7",
      "blockHash": "0x303ff6751b0388445d5fa1094f3bca2c5300e234cce49b92e5080029ee521c1a",
      "blockNumber": "0x29afcdc",
      "gasUsed": "0xc9aa",
      "effectiveGasPrice": "0x7a121",
      "blobGasUsed": "0x9c40",
      "from": "0x95606236867c2d3391f3dd2d3004efab08e819e4",
      "to": "0x4200000000000000000000000000000000000006",
      "contractAddress": null,
      "daFootprintGasScalar": "0x190",
      "l1BaseFeeScalar": "0x7d0",
      "l1BlobBaseFee": "0x38a32fe",
      "l1BlobBaseFeeScalar": "0xdbba0",
      "l1Fee": "0x201466545",
      "l1GasPrice": "0x3cd7257e",
      "l1GasUsed": "0x640"
    },
    {
      "status": "0x1",
      "cumulativeGasUsed": "0x64d37",
      "logs": [
        {
          "address": "0x31d0220469e10c4e71834a79b1f276d740d3768f",
          "topics": [
            "0xddf252ad1be2c89b69c2b068fc378daa952ba7f163c4a11628f55a4df523b3ef",
            "0x00000000000000000000000095606236867c2d3391f3dd2d3004efab08e819e4",
            "0x00000000000000000000000035bb8348f197280d60470db9198769fb83347dd6"
          ],
          "data": "0x0000000000000000000000000000000000000000000000000000000001312d00",
          "blockHash": "0xa1a8cd5da22e39e4fd4cdc85bea2a25fea286525f6572f166e1b4beb36bb95a0",
          "blockNumber": "0x29afce0",
          "blockTimestamp": "0x6988aa2c",
          "transactionHash": "0x22c74ae65516803e2279b3387da05168a56885a602d4242ff387836a3442023a",
          "transactionIndex": "0x5",
          "logIndex": "0x3",
          "removed": false
        }
      ],
      "logsBloom": "0x00000001000000000000000000000000000000000040000000000000000000000000000000010000000000000000000000000000000000000000000000000000000000004000000000000008000000000000000000001000000000000000000000000000000000000000000000000000000000000000000000000010000000000000000000000000000000000000000000000000100000000000000000000000000000000001000080000000000000000000000000000000000000000000000000000002000000000000000000000000000000200000000000000000000000000000000000000000000000000000000000000000000000000000000000000000",
      "type": "0x2",
      "transactionHash": "0x22c74ae65516803e2279b3387da05168a56885a602d4242ff387836a3442023a",
      "transactionIndex": "0x5",
      "blockHash": "0xa1a8cd5da22e39e4fd4cdc85bea2a25fea286525f6572f166e1b4beb36bb95a0",
      "blockNumber": "0x29afce0",
      "gasUsed": "0xf2cf",
      "effectiveGasPrice": "0x7a121",
      "blobGasUsed": "0x9c40",
      "from": "0x95606236867c2d3391f3dd2d3004efab08e819e4",
      "to": "0x31d0220469e10c4e71834a79b1f276d740d3768f",
      "contractAddress": null,
      "daFootprintGasScalar": "0x190",
      "l1BaseFeeScalar": "0x7d0",
      "l1BlobBaseFee": "0x38a32fe",
      "l1BlobBaseFeeScalar": "0xdbba0",
      "l1Fee": "0x201466545",
      "l1GasPrice": "0x3cd7257e",
      "l1GasUsed": "0x640"
    },
    {
      "status": "0x1",
      "cumulativeGasUsed": "0x4b3f8",
      "logs": [
        {
          "address": "0x4200000000000000000000000000000000000006",
          "topics": [
            "0xddf252ad1be2c89b69c2b068fc378daa952ba7f163c4a11628f55a4df523b3ef",
            "0x00000000000000000000000095606236867c2d3391f3dd2d3004efab08e819e4",
            "0x0000000000000000000000006ff2e270e8c2ce9f0c081f3849460754833d60f7"
          ],
          "data": "0x000000000000000000000000000000000000000000000000002386f26fc10000",
          "blockHash": "0x0000000000000000000000000000000000000000000000000000000000000000",
          "blockNumber": "0x29afce4",
          "blockTimestamp": "0x6988aa30",
          "transactionHash": "0xd56fe5895de6fa6f4b4aeace080c4aa8aaa1f21cb208f00240a794d4b0f293d4",
          "transactionIndex": "0x4",
          "logIndex": "0x2",
          "removed": false
        }
      ],
      "logsBloom": "0x00000001000000000000000000000000000000000040000000040000000000000000000000000000000000100000000000000000000000000000000000000000000000000000000000000008000000000000000000000000000000000000000000000000000000000000000000000000000000000000000000000010000000000000000000000000000000000000000000000000002000000000000000000000000000000000000000000000004000000000000000000000000000000000000000000002000000000000000008000000000000200000000000000000000000000000000000000000000000000008000000000000000000000000000000000000",
      "type": "0x2",
      "transactionHash": "0xd56fe5895de6fa6f4b4aeace080c4aa8aaa1f21cb208f00240a794d4b0f293d4",
      "transactionIndex": "0x4",
      "blockHash": "0x0000000000000000000000000000000000000000000000000000000000000000",
      "blockNumber": "0x29afce4",
      "gasUsed": "0xc9aa",
      "effectiveGasPrice": "0x7a121",
      "blobGasUsed": "0x9c40",
      "from": "0x95606236867c2d3391f3dd2d3004efab08e819e4",
      "to": "0x4200000000000000000000000000000000000006",
      "contractAddress": null,
      "daFootprintGasScalar": "0x190",
      "l1BaseFeeScalar": "0x7d0",
      "l1BlobBaseFee": "0x3acb985",
      "l1BlobBaseFeeScalar": "0xdbba0",
      "l1Fee": "0x2c252df4f",
      "l1GasPrice": "0x387b3ec1",
      "l1GasUsed": "0x640"
    },
    {
      "status": "0x1",
      "cumulativeGasUsed": "0x36d03",
      "logs": [
        {
          "address": "0x31d0220469e10c4e71834a79b1f276d740d3768f",
          "topics": [
            "0xddf252ad1be2c89b69c2b068fc378daa952ba7f163c4a11628f55a4df523b3ef",
            "0x00000000000000000000000095606236867c2d3391f3dd2d3004efab08e819e4",
            "0x0000000000000000000000006ff2e270e8c2ce9f0c081f3849460754833d60f7"
          ],
          "data": "0x0000000000000000000000000000000000000000000000000000000001312d00",
          "blockHash": "0x0000000000000000000000000000000000000000000000000000000000000000",
          "blockNumber": "0x29afce8",
          "blockTimestamp": "0x6988aa34",
          "transactionHash": "0x86789eb6776a93971eea15b75f4084585d739882955af6d735840338d872303c",
          "transactionIndex": "0x3",
          "logIndex": "0x1",
          "removed": false
        }
      ],
      "logsBloom": "0x00000001000000000000000000000000000000000040000000000000000000000000000000000000000000000000000000000000000000000000000000000000000000000000000000000008000000000000000000001000000000000000000000000000000000000000000000000000000000000000000000000010000000000000000000000000000000000000000000000000000000000000000000000000000000000001000080000000004000000000000000000000000000000000000000000002000000000000000008000000000000200000000000000000000000000000000000000000000000000008000000000000000000000000000000000000",
      "type": "0x2",
      "transactionHash": "0x86789eb6776a93971eea15b75f4084585d739882955af6d735840338d872303c",
      "transactionIndex": "0x3",
      "blockHash": "0x0000000000000000000000000000000000000000000000000000000000000000",
      "blockNumber": "0x29afce8",
      "gasUsed": "0xf2cf",
      "effectiveGasPrice": "0x7a121",
      "blobGasUsed": "0x9c40",
      "from": "0x95606236867c2d3391f3dd2d3004efab08e819e4",
      "to": "0x31d0220469e10c4e71834a79b1f276d740d3768f",
      "contractAddress": null,
      "daFootprintGasScalar": "0x190",
      "l1BaseFeeScalar": "0x7d0",
      "l1BlobBaseFee": "0x3acb985",
      "l1BlobBaseFeeScalar": "0xdbba0",
      "l1Fee": "0x2c252df4f",
      "l1GasPrice": "0x387b3ec1",
      "l1GasUsed": "0x640"
    },
    {
      "status": "0x1",
      "cumulativeGasUsed": "0x903c9",
      "logs": [
        {
          "address": "0x00b036b58a818b1bc34d502d3fe730db729e62ac",
          "topics": [
            "0xdd466e674ea557f56295e2d0218a125ea4b4f0f6f3307b95f85e6110838d6438",
            "0x9ab1bb2ecdcbdab2d6d3020ecd101596ab37e33041f82fe66e06b86b28f6470a",
            "0x00000000000000000000000031d0220469e10c4e71834a79b1f276d740d3768f",
            "0x0000000000000000000000004200000000000000000000000000000000000006"
          ],
          "data": "0x0000000000000000000000000000000000000000000000000000000000000bb8000000000000000000000000000000000000000000000000000000000000003c00000000000000000000000029315c3a1a31f9941ae15e02e7ae1b5567de46c000000000000000000000000000000000000000010000000000000000000000000000000000000000000000000000000000000000000000000000000000000000",
          "blockHash": "0xabd9238997799407419df9dda135485df5e5216f49047cb316aae2f03db3b9de",
          "blockNumber": "0x29afceb",
          "blockTimestamp": "0x6988aa37",
          "transactionHash": "0xe2c7342e4fb85a83d2a85a8a2ded203bfa9829800771fdaa86ad152e6774027e",
          "transactionIndex": "0x7",
          "logIndex": "0x5",
          "removed": false
        }
      ],
      "logsBloom": "0x00000000000000000000000000000000000000000000000000000000000000000000000000000080000000000000000000000000000000000020000000000000000000000000100000000000000000000000000000000000000000000000000000000000000000000100000000000000000010000000000000000000000000000000000000000008000000000008000000000001000000000000000000200000000000000000000000000000000000000000000000000000000000000000000000000000000004008000000000000000000000000000000000000000000000000000000000001800000000000000000000000000000002000000000000000010",
      "type": "0x2",
      "transactionHash": "0xe2c7342e4fb85a83d2a85a8a2ded203bfa9829800771fdaa86ad152e6774027e",
      "transactionIndex": "0x7",
      "blockHash": "0xabd9238997799407419df9dda135485df5e5216f49047cb316aae2f03db3b9de",
      "blockNumber": "0x29afceb",
      "gasUsed": "0xc921",
      "effectiveGasPrice": "0x7a121",
      "blobGasUsed": "0xce40",
      "from": "0x95606236867c2d3391f3dd2d3004efab08e819e4",
      "to": "0x00b036b58a818b1bc34d502d3fe730db729e62ac",
      "contractAddress": null,
      "daFootprintGasScalar": "0x190",
      "l1BaseFeeScalar": "0x7d0",
      "l1BlobBaseFee": "0x3acb985",
      "l1BlobBaseFeeScalar": "0xdbba0",
      "l1Fee": "0x2a45ffc17",
      "l1GasPrice": "0x387b3ec1",
      "l1GasUsed": "0x843"
    },
    {
      "status": "0x1",
      "cumulativeGasUsed": "0xb8a9f",
      "logs": [
        {
          "address": "0x00b036b58a818b1bc34d502d3fe730db729e62ac",
          "topics": [
            "0xf208f4912782fd25c7f114ca3723a2d5dd6f3bcc3ac8db5af63baa85f711d5ec",
            "0x9ab1bb2ecdcbdab2d6d3020ecd101596ab37e33041f82fe66e06b86b28f6470a",
            "0x000000000000000000000000cfdeb0e66f26b2466a66524e4c305e79a84f47a7"
          ],
          "data": "0xffffffffffffffffffffffffffffffffffffffffffffffffffffffffffffff88000000000000000000000000000000000000000000000000000000000000007800000000000000000000000000000000000000000000000000000000773594000000000000000000000000000000000000000000000000000000000000000001",
          "blockHash": "0x826e595bf79ffabbbd8ebf004ba4efb7bf799479b1390270e86e5a8933181b38",
          "blockNumber": "0x29afcef",
          "blockTimestamp": "0x6988aa3b",
          "transactionHash": "0xcc35ca6c96c0ed7c04d3afc13f7a7e67064de3122dbad9c41105206bdf74ae28",
          "transactionIndex": "0x6",
          "logIndex": "0x4",
          "removed": false
        },
        {
          "address": "0x29315c3a1a31f9941ae15e02e7ae1b5567de46c0",
          "topics": [
            "0xbfa58399b4447e933d353f718fb884c25d8d9937694b69fac7df73e7c677fb33",
            "0x9ab1bb2ecdcbdab2d6d3020ecd101596ab37e33041f82fe66e06b86b28f6470a",
            "0x000000000000000000000000cfdeb0e66f26b2466a66524e4c305e79a84f47a7"
          ],
          "data": "0xffffffffffffffffffffffffffffffffffffffffffffffffffffffffffffff8800000000000000000000000000000000000000000000000000000000000000780000000000000000000000000000000000000000000000000000000000000001",
          "blockHash": "0x826e595bf79ffabbbd8ebf004ba4efb7bf799479b1390270e86e5a8933181b38",
          "blockNumber": "0x29afcef",
          "blockTimestamp": "0x6988aa3b",
          "transactionHash": "0xcc35ca6c96c0ed7c04d3afc13f7a7e67064de3122dbad9c41105206bdf74ae28",
          "transactionIndex": "0x6",
          "logIndex": "0x5",
          "removed": false
        },
        {
          "address": "0x31d0220469e10c4e71834a79b1f276d740d3768f",
          "topics": [
            "0xddf252ad1be2c89b69c2b068fc378daa952ba7f163c4a11628f55a4df523b3ef",
            "0x00000000000000000000000095606236867c2d3391f3dd2d3004efab08e819e4",
            "0x00000000000000000000000000b036b58a818b1bc34d502d3fe730db729e62ac"
          ],
          "data": "0x0000000000000000000000000000000000000000000000000000000000b68c54",
          "blockHash": "0x826e595bf79ffabbbd8ebf004ba4efb7bf799479b1390270e86e5a8933181b38",
          "blockNumber": "0x29afcef",
          "blockTimestamp": "0x6988aa3b",
          "transactionHash": "0xcc35ca6c96c0ed7c04d3afc13f7a7e67064de3122dbad9c41105206bdf74ae28",
          "transactionIndex": "0x6",
          "logIndex": "0x6",
          "removed": false
        },
        {
          "address": "0x4200000000000000000000000000000000000006",
          "topics": [
            "0xddf252ad1be2c89b69c2b068fc378daa952ba7f163c4a11628f55a4df523b3ef",
            "0x00000000000000000000000095606236867c2d3391f3dd2d3004efab08e819e4",
            "0x00000000000000000000000000b036b58a818b1bc34d502d3fe730db729e62ac"
          ],
          "data": "0x0000000000000000000000000000000000000000000000000000000000b68c54",
          "blockHash": "0x826e595bf79ffabbbd8ebf004ba4efb7bf799479b1390270e86e5a8933181b38",
          "blockNumber": "0x29afcef",
          "blockTimestamp": "0x6988aa3b",
          "transactionHash": "0xcc35ca6c96c0ed7c04d3afc13f7a7e67064de3122dbad9c41105206bdf74ae28",
          "transactionIndex": "0x6",
          "logIndex": "0x7",
          "removed": false
        }
      ],
      "logsBloom": "0x00000001000000000000000000000000000800000040000000040000000000000000000000000000000000100000000000000000001000000000000000000000000000000000140000000008000000000000000000001000000000000000000000000000000000000104000002004000000000000000000000000010000000000000000001000000000000000008000000000000002000000000000000000000000004000041000080020000000000000000000000000020000000000000000000000002000000000000000040000000000000200000000000000000000000000000000000000800000000000000000004000000004002000000000000000010",
      "type": "0x2",
      "transactionHash": "0xcc35ca6c96c0ed7c04d3afc13f7a7e67064de3122dbad9c41105206bdf74ae28",
      "transactionIndex": "0x6",
      "blockHash": "0x826e595bf79ffabbbd8ebf004ba4efb7bf799479b1390270e86e5a8933181b38",
      "blockNumber": "0x29afcef",
      "gasUsed": "0x4c005",
      "effectiveGasPrice": "0x7a121",
      "blobGasUsed": "0xfb90",
      "from": "0x95606236867c2d3391f3dd2d3004efab08e819e4",
      "to": "0xcfdeb0e66f26b2466a66524e4c305e79a84f47a7",
      "contractAddress": null,
      "daFootprintGasScalar": "0x190",
      "l1BaseFeeScalar": "0x7d0",
      "l1BlobBaseFee": "0x3363f56",
      "l1BlobBaseFeeScalar": "0xdbba0",
      "l1Fee": "0x31b551e4d",
      "l1GasPrice": "0x3f8a9750",
      "l1GasUsed": "0xa18"
    }
  ],
  "libraries": [],
  "pending": [],
  "returns": {},
  "timestamp": 1770564167013,
  "chain": 1301,
  "commit": null
}