{
  "transactions": [
    {
      "hash": "0xa698cf68ee7ca311994b69c72d81cdbd0427e40f4878521e974181eb9b624cde",
      "transactionType": "CREATE2",
      "contractName": "PrivacySwapHook",
      "contractAddress": "0x9232b94a366af37c3cbebabec4ee7dd565b206c0",
      "function": null,
      "arguments": [
        "0x00B036B58a818B1BC34d502D3fE730Db729e62AC",
        "5",
        "0x95606236867C2D3391F3dd2D3004EFAB08e819e4"
      ],
      "transaction": {
        "from": "0x95606236867c2d3391f3dd2d3004efab08e819e4",
        "to": "0x4e59b44847b379578588920ca78fbf26c0b4956c",
        "gas": "0x1bda4c",
        "value": "0x0",
        "input": "0x000000000000000000000000000000000000000000000000000000000000b52760a060405234801561000f575f80fd5b5060405161175f38038061175f83398101604081905261002e916100df565b6001600160a01b0383166100555760405163d92e233d60e01b815260040160405180910390fd5b6001600160a01b03808416608052811661006f5733610071565b805b5f80546001600160a01b0319166001600160a01b039290921691909117905563ffffffff8216156100a257816100a5565b60015b6002805463ffffffff191663ffffffff9290921691909117905550610131915050565b6001600160a01b03811681146100dc575f80fd5b50565b5f805f606084860312156100f1575f80fd5b83516100fc816100c8565b602085015190935063ffffffff81168114610115575f80fd5b6040850151909250610126816100c8565b809150509250925092565b6080516115fa6101655f395f81816103fd015281816104760152818161069a015281816108b70152610a6101526115fa5ff3fe608060405234801561000f575f80fd5b5060043610610127575f3560e01c8063b6a8b0fa116100a9578063dc4c90d31161006e578063dc4c90d3146103f8578063dc98354e14610437578063e1b4af6914610272578063f102391c14610445578063f851a44014610458575f80fd5b8063b6a8b0fa14610272578063b9662c8314610280578063c4e833ce146102ad578063c5b7cf9e146103a1578063c646aee2146103c6575f80fd5b80636c2bbe7e116100ef5780636c2bbe7e146101d55780636fe7e6eb1461020857806375829def146102165780639f063efc14610229578063b47b2fb11461023c575f80fd5b806321d0ee701461012b57806324ca984e1461015c578063259982e514610171578063575e24b4146101845780636ae0b154146101c2575b5f80fd5b61013e610139366004610ed2565b61046a565b6040516001600160e01b031990911681526020015b60405180910390f35b61016f61016a366004610f48565b6105d3565b005b61013e61017f366004610ed2565b610672565b610197610192366004610f7a565b61068c565b604080516001600160e01b03199094168452602084019290925262ffffff1690820152606001610153565b61016f6101d0366004610f48565b6107ab565b6101e86101e3366004610fd3565b61081d565b604080516001600160e01b03199093168352602083019190915201610153565b61013e61017f366004611073565b61016f610224366004610f48565b610838565b6101e8610237366004610fd3565b6108aa565b61024f61024a3660046110ca565b610a54565b604080516001600160e01b03199093168352600f9190910b602083015201610153565b61013e61017f36600461114a565b61029f61028e3660046111a3565b60036020525f908152604090205481565b604051908152602001610153565b610394604080516101c0810182525f80825260208201819052918101829052606081018290526080810182905260a0810182905260c0810182905260e08101829052610100810182905261012081018290526101408101829052610160810182905261018081018290526101a081019190915250604080516101c0810182525f808252602082018190529181018290526001606082018190526080820181905260a0820183905260c0820181905260e0820152610100810182905261012081018290526101408101829052610160810182905261018081018290526101a081019190915290565b60405161015391906111ba565b6002546103b19063ffffffff1681565b60405163ffffffff9091168152602001610153565b6103e86103d4366004610f48565b60016020525f908152604090205460ff1681565b6040519015158152602001610153565b61041f7f000000000000000000000000000000000000000000000000000000000000000081565b6040516001600160a01b039091168152602001610153565b61013e61017f3660046112db565b61016f610453366004611335565b610b0b565b5f5461041f906001600160a01b031681565b5f336001600160a01b037f000000000000000000000000000000000000000000000000000000000000000016146104b45760405163570c108560e11b815260040160405180910390fd5b5f8460400135126104cd575063021d0ee760e41b6105ca565b5f6104e76104e03688900388018861138b565b60a0902090565b876104f56020880188611427565b6105056040890160208a01611427565b88606001356040516020016105499594939291909485526001600160a01b03939093166020850152600291820b6040850152900b6060830152608082015260a00190565b60408051601f1981840301815291815281516020928301205f8181526003909352908220549092509081900361058b575063021d0ee760e41b91506105ca9050565b60025463ffffffff1661059e8243611454565b10156105bd57604051633853638b60e01b815260040160405180910390fd5b5063021d0ee760e41b9150505b95945050505050565b5f546001600160a01b031633146105fd57604051637bfa4b9f60e01b815260040160405180910390fd5b6001600160a01b0381166106245760405163d92e233d60e01b815260040160405180910390fd5b6001600160a01b0381165f818152600160208190526040808320805460ff1916909217909155517f81639ab8f3fbb025b1e08849071d6ba211e0153cc8c447680595775116b67a1a9190a250565b5f60405163d623472560e01b815260040160405180910390fd5b5f8080336001600160a01b037f000000000000000000000000000000000000000000000000000000000000000016146106d85760405163570c108560e11b815260040160405180910390fd5b6001600160a01b0388165f90815260016020526040902054889060ff166107125760405163cec13f7b60e01b815260040160405180910390fd5b5f85900361072f576315d7892d60e21b93505f925082915061079f565b5f61073a8787610b67565b905061074581610ba5565b5f6107586104e0368c90038c018c61138b565b90506107648282610ce1565b6107815760405163f31017e560e01b815260040160405180910390fd5b61078b8243610d2f565b506315d7892d60e21b95505f945084935050505b50955095509592505050565b5f546001600160a01b031633146107d557604051637bfa4b9f60e01b815260040160405180910390fd5b6001600160a01b0381165f81815260016020526040808220805460ff19169055517fbd6d178d515bf811c86f393b42367076da766033c8ebd94ea5a7e3eaf69d1c469190a250565b5f8060405163d623472560e01b815260040160405180910390fd5b5f546001600160a01b0316331461086257604051637bfa4b9f60e01b815260040160405180910390fd5b6001600160a01b0381166108895760405163d92e233d60e01b815260040160405180910390fd5b5f80546001600160a01b0319166001600160a01b0392909216919091179055565b5f80336001600160a01b037f000000000000000000000000000000000000000000000000000000000000000016146108f55760405163570c108560e11b815260040160405180910390fd5b5f87604001351315610a3d575f6109146104e0368b90038b018b61138b565b8a61092260208b018b611427565b61093260408c0160208d01611427565b8b606001356040516020016109769594939291909485526001600160a01b03939093166020850152600291820b6040850152900b6060830152608082015260a00190565b60405160208183030381529060405280519060200120905060035f8281526020019081526020015f20545f036109b7575f8181526003602052604090204390555b6001600160a01b038a166109d36104e0368c90038c018c61138b565b7fbfa58399b4447e933d353f718fb884c25d8d9937694b69fac7df73e7c677fb33610a0160208c018c611427565b610a1160408d0160208e01611427565b60408051600293840b81529190920b60208201526060808e0135928201929092520160405180910390a3505b506327c18fbf60e21b985f98509650505050505050565b5f80336001600160a01b037f00000000000000000000000000000000000000000000000000000000000000001614610a9f5760405163570c108560e11b815260040160405180910390fd5b8215610af5576001600160a01b038816610ac16104e0368a90038a018a61138b565b6040514381527f22421962bfaa39dd537a12f6e9a519f79eea832ac6dfd20e0dc3d125c8eac2999060200160405180910390a35b5063b47b2fb160e01b975f975095505050505050565b5f546001600160a01b03163314610b3557604051637bfa4b9f60e01b815260040160405180910390fd5b63ffffffff811615610b475780610b4a565b60015b6002805463ffffffff191663ffffffff9290921691909117905550565b610b6f610dec565b5f829003610b9057604051630590793160e01b815260040160405180910390fd5b610b9c828401846114f7565b90505b92915050565b805f01516001600160401b031681602001516001600160401b031611610bde57604051631777743d60e21b815260040160405180910390fd5b80516020820151600291610bf191611591565b6001600160401b03161015610c1957604051631777743d60e21b815260040160405180910390fd5b8051602082015161010091610c2d91611591565b6001600160401b03161115610c5557604051631777743d60e21b815260040160405180910390fd5b600163ffffffff16816040015163ffffffff161080610c845750606463ffffffff16816040015163ffffffff16115b15610ca25760405163184774cd60e01b815260040160405180910390fd5b60a081015160ff161580610cc05750600460ff168160a0015160ff16115b15610cde576040516368c4312b60e11b815260040160405180910390fd5b50565b5f805b8360a0015160ff16811015610d26578284608001518260048110610d0a57610d0a6115b0565b602002015103610d1e576001915050610b9f565b600101610ce4565b505f9392505050565b81515f906001600160401b0316821015610d5c57604051637cd4c09b60e11b815260040160405180910390fd5b82602001516001600160401b0316821115610d8a57604051633c09dd1160e01b815260040160405180910390fd5b606083015163ffffffff81165f03610da6576001915050610b9f565b836040015163ffffffff168163ffffffff1684610dc39190611454565b1015610de25760405163a965618960e01b815260040160405180910390fd5b5060019392505050565b60408051610100810182525f80825260208201819052918101829052606081019190915260808101610e1c610e36565b81525f602082018190526040820181905260609091015290565b60405180608001604052806004906020820280368337509192915050565b6001600160a01b0381168114610cde575f80fd5b5f60a08284031215610e78575f80fd5b50919050565b5f60808284031215610e78575f80fd5b5f8083601f840112610e9e575f80fd5b5081356001600160401b03811115610eb4575f80fd5b602083019150836020828501011115610ecb575f80fd5b9250929050565b5f805f805f6101608688031215610ee7575f80fd5b8535610ef281610e54565b9450610f018760208801610e68565b9350610f108760c08801610e7e565b92506101408601356001600160401b03811115610f2b575f80fd5b610f3788828901610e8e565b969995985093965092949392505050565b5f60208284031215610f58575f80fd5b8135610f6381610e54565b9392505050565b5f60608284031215610e78575f80fd5b5f805f805f6101408688031215610f8f575f80fd5b8535610f9a81610e54565b9450610fa98760208801610e68565b9350610fb88760c08801610f6a565b92506101208601356001600160401b03811115610f2b575f80fd5b5f805f805f805f6101a0888a031215610fea575f80fd5b8735610ff581610e54565b96506110048960208a01610e68565b95506110138960c08a01610e7e565b9450610140880135935061016088013592506101808801356001600160401b0381111561103e575f80fd5b61104a8a828b01610e8e565b989b979a50959850939692959293505050565b8035600281900b811461106e575f80fd5b919050565b5f805f806101008587031215611087575f80fd5b843561109281610e54565b93506110a18660208701610e68565b925060c08501356110b181610e54565b91506110bf60e0860161105d565b905092959194509250565b5f805f805f8061016087890312156110e0575f80fd5b86356110eb81610e54565b95506110fa8860208901610e68565b94506111098860c08901610f6a565b935061012087013592506101408701356001600160401b0381111561112c575f80fd5b61113889828a01610e8e565b979a9699509497509295939492505050565b5f805f805f806101208789031215611160575f80fd5b863561116b81610e54565b955061117a8860208901610e68565b945060c0870135935060e087013592506101008701356001600160401b0381111561112c575f80fd5b5f602082840312156111b3575f80fd5b5035919050565b8151151581526101c0810160208301516111d8602084018215159052565b5060408301516111ec604084018215159052565b506060830151611200606084018215159052565b506080830151611214608084018215159052565b5060a083015161122860a084018215159052565b5060c083015161123c60c084018215159052565b5060e083015161125060e084018215159052565b5061010083015161126661010084018215159052565b5061012083015161127c61012084018215159052565b5061014083015161129261014084018215159052565b506101608301516112a861016084018215159052565b506101808301516112be61018084018215159052565b506101a08301516112d46101a084018215159052565b5092915050565b5f805f60e084860312156112ed575f80fd5b83356112f881610e54565b92506113078560208601610e68565b915060c084013561131781610e54565b809150509250925092565b803563ffffffff8116811461106e575f80fd5b5f60208284031215611345575f80fd5b610b9c82611322565b634e487b7160e01b5f52604160045260245ffd5b60405161010081016001600160401b03811182821017156113855761138561134e565b60405290565b5f60a082840312801561139c575f80fd5b5060405160a081016001600160401b03811182821017156113bf576113bf61134e565b60405282356113cd81610e54565b815260208301356113dd81610e54565b6020820152604083013562ffffff811681146113f7575f80fd5b60408201526114086060840161105d565b6060820152608083013561141b81610e54565b60808201529392505050565b5f60208284031215611437575f80fd5b610b9c8261105d565b634e487b7160e01b5f52601160045260245ffd5b81810381811115610b9f57610b9f611440565b80356001600160401b038116811461106e575f80fd5b5f82601f83011261148c575f80fd5b604051608081016001600160401b03811182821017156114ae576114ae61134e565b6040528060808401858111156114c2575f80fd5b845b818110156114dc5780358352602092830192016114c4565b509195945050505050565b803560ff8116811461106e575f80fd5b5f610160828403128015611509575f80fd5b50611512611362565b61151b83611467565b815261152960208401611467565b602082015261153a60408401611322565b604082015261154b60608401611322565b606082015261155d846080850161147d565b608082015261156f61010084016114e7565b60a082015261012083013560c08201526101409092013560e083015250919050565b6001600160401b038281168282160390811115610b9f57610b9f611440565b634e487b7160e01b5f52603260045260245ffdfea26469706673582212204359a7542deb3c0839f10d274f59afe187d81d9492df6b54befceefbe4e675ce64736f6c634300081a003300000000000000000000000000b036b58a818b1bc34d502d3fe730db729e62ac000000000000000000000000000000000000000000000000000000000000000500000000000000000000000095606236867c2d3391f3dd2d3004efab08e819e4",
        "nonce": "0x2b",
        "chainId": "0x515"
      },
      "additionalContracts": [],
      "isFixedGasLimit": false
    },
    {
      "hash": "0x8ef9f9eb51502a9cbf4b5d5f4d6611a028bc7e22f86b6c9d2ad1ed9bc3e7f7a0",
      "transactionType": "CREATE",
      "contractName": "PoolSwapTest",
      "contractAddress": "0x6b3d97f1595e40da4210ef020150b075ef2d73ae",
      "function": null,
      "arguments": [
        "0x00B036B58a818B1BC34d502D3fE730Db729e62AC"
      ],
      "transaction": {
        "from": "0x95606236867c2d3391f3dd2d3004efab08e819e4",
        "gas": "0x1ac752",
        "value": "0x0",
        "input": "0x60a0604052348015600e575f80fd5b5060405161182a38038061182a833981016040819052602b91603b565b6001600160a01b03166080526066565b5f60208284031215604a575f80fd5b81516001600160a01b0381168114605f575f80fd5b9392505050565b60805161176f6100bb5f395f8181606e0152818160d7015281816101ee0152818161030001528181610888015281816108e10152818161095e015281816109b201528181610ad00152610b03015261176f5ff3fe608060405260043610610033575f3560e01c80632229d0b414610037578063481c6a751461005d57806391dd7346146100a8575b5f80fd5b61004a6100453660046112dc565b6100d4565b6040519081526020015b60405180910390f35b348015610068575f80fd5b506100907f000000000000000000000000000000000000000000000000000000000000000081565b6040516001600160a01b039091168152602001610054565b3480156100b3575f80fd5b506100c76100c236600461134d565b6101e1565b60405161005491906113e9565b5f7f00000000000000000000000000000000000000000000000000000000000000006001600160a01b03166348c894916040518060a00160405280336001600160a01b03168152602001868152602001888152602001878152602001858152506040516020016101449190611445565b6040516020818303038152906040526040518263ffffffff1660e01b815260040161016f91906113e9565b5f604051808303815f875af115801561018a573d5f803e3d5ffd5b505050506040513d5f823e601f3d908101601f191682016040526101b191908101906114d6565b8060200190518101906101c4919061154b565b90504780156101d8576101d85f3383610a04565b50949350505050565b6060336001600160a01b037f00000000000000000000000000000000000000000000000000000000000000001614610217575f80fd5b5f61022483850185611562565b90505f61023c82604001515f0151835f015130610aa9565b925050505f610257836040015160200151845f015130610aa9565b92505050815f146102af5760405162461bcd60e51b815260206004820152601e60248201527f64656c74614265666f726530206973206e6f7420657175616c20746f2030000060448201526064015b60405180910390fd5b80156102fd5760405162461bcd60e51b815260206004820152601e60248201527f64656c74614265666f726531206973206e6f7420657175616c20746f2030000060448201526064016102a6565b5f7f00000000000000000000000000000000000000000000000000000000000000006001600160a01b031663f3cd914c8560400151866060015187608001516040518463ffffffff1660e01b815260040161035a9392919061161a565b6020604051808303815f875af1158015610376573d5f803e3d5ffd5b505050506040513d601f19601f8201168201806040525081019061039a919061154b565b90505f6103b285604001515f0151865f015130610aa9565b925050505f6103cd866040015160200151875f015130610aa9565b9250505085606001515f01511561062f575f86606001516020015112156105125785606001516020015182121561047c5760405162461bcd60e51b815260206004820152604760248201527f64656c7461416674657230206973206e6f742067726561746572207468616e2060448201527f6f7220657175616c20746f20646174612e706172616d732e616d6f756e7453706064820152661958da599a595960ca1b608482015260a4016102a6565b816104878460801d90565b600f0b146104a75760405162461bcd60e51b81526004016102a690611662565b5f81121561050d5760405162461bcd60e51b815260206004820152602d60248201527f64656c7461416674657231206973206e6f742067726561746572207468616e2060448201526c06f7220657175616c20746f203609c1b60648201526084016102a6565b610878565b5f8213156105785760405162461bcd60e51b815260206004820152602d60248201527f64656c7461416674657230206973206e6f74206c657373207468616e206f722060448201526c657175616c20746f207a65726f60981b60648201526084016102a6565b8061058384600f0b90565b600f0b146105a35760405162461bcd60e51b81526004016102a6906116ad565b85606001516020015181131561050d5760405162461bcd60e51b8152602060048201526044602482018190527f64656c7461416674657231206973206e6f74206c657373207468616e206f7220908201527f657175616c20746f20646174612e706172616d732e616d6f756e745370656369606482015263199a595960e21b608482015260a4016102a6565b5f866060015160200151121561075e578560600151602001518112156106cd5760405162461bcd60e51b815260206004820152604760248201527f64656c7461416674657231206973206e6f742067726561746572207468616e2060448201527f6f7220657175616c20746f20646174612e706172616d732e616d6f756e7453706064820152661958da599a595960ca1b608482015260a4016102a6565b806106d884600f0b90565b600f0b146106f85760405162461bcd60e51b81526004016102a6906116ad565b5f82121561050d5760405162461bcd60e51b815260206004820152602d60248201527f64656c7461416674657230206973206e6f742067726561746572207468616e2060448201526c06f7220657175616c20746f203609c1b60648201526084016102a6565b5f8113156107c15760405162461bcd60e51b815260206004820152602a60248201527f64656c7461416674657231206973206e6f74206c657373207468616e206f72206044820152690657175616c20746f20360b41b60648201526084016102a6565b816107cc8460801d90565b600f0b146107ec5760405162461bcd60e51b81526004016102a690611662565b8560600151602001518213156108785760405162461bcd60e51b8152602060048201526044602482018190527f64656c7461416674657230206973206e6f74206c657373207468616e206f7220908201527f657175616c20746f20646174612e706172616d732e616d6f756e745370656369606482015263199a595960e21b608482015260a4016102a6565b5f8212156108d15785516108d1907f0000000000000000000000000000000000000000000000000000000000000000906108b1856116f8565b6020808b0151015160408b0151516001600160a01b031693929190610b35565b5f811215610936578551610936907f00000000000000000000000000000000000000000000000000000000000000009061090a846116f8565b8960200151602001518a60400151602001516001600160a01b0316610b3590949392919063ffffffff16565b5f821315610986578551602087015151604088015151610986926001600160a01b03909116917f000000000000000000000000000000000000000000000000000000000000000091908690610e01565b5f8113156109da578551602080880151516040890151909101516109da926001600160a01b03909116917f000000000000000000000000000000000000000000000000000000000000000091908590610e01565b60408051602081018590520160405160208183030381529060405296505050505050505b92915050565b5f6001600160a01b038416610a39575f805f8085875af1905080610a3457610a34835f633d2cec6f60e21b610ed3565b610aa3565b60405163a9059cbb60e01b81526001600160a01b038416600482015282602482015260205f6044835f895af13d15601f3d1160015f511416171691505f81525f60208201525f60408201525080610aa357610aa38463a9059cbb60e01b633c9fd93960e21b610ed3565b50505050565b5f8080610abf6001600160a01b03871686610f4b565b9250610af46001600160a01b0387167f0000000000000000000000000000000000000000000000000000000000000000610f4b565b9150610b2a6001600160a01b037f0000000000000000000000000000000000000000000000000000000000000000168588610fda565b905093509350939050565b8015610bca57836001600160a01b031663f5298aca84610b64886001600160a01b03166001600160a01b031690565b6040516001600160e01b031960e085901b1681526001600160a01b0390921660048301526024820152604481018590526064015b5f604051808303815f87803b158015610baf575f80fd5b505af1158015610bc1573d5f803e3d5ffd5b50505050610dfa565b6001600160a01b038516610c4157836001600160a01b03166311da60b4836040518263ffffffff1660e01b815260040160206040518083038185885af1158015610c16573d5f803e3d5ffd5b50505050506040513d601f19601f82011682018060405250810190610c3b919061154b565b50610dfa565b604051632961046560e21b81526001600160a01b03868116600483015285169063a5841194906024015f604051808303815f87803b158015610c81575f80fd5b505af1158015610c93573d5f803e3d5ffd5b505050506001600160a01b0383163014610d25576040516323b872dd60e01b81526001600160a01b0384811660048301528581166024830152604482018490528616906323b872dd906064016020604051808303815f875af1158015610cfb573d5f803e3d5ffd5b505050506040513d601f19601f82011682018060405250810190610d1f919061171e565b50610d97565b60405163a9059cbb60e01b81526001600160a01b0385811660048301526024820184905286169063a9059cbb906044016020604051808303815f875af1158015610d71573d5f803e3d5ffd5b505050506040513d601f19601f82011682018060405250810190610d95919061171e565b505b836001600160a01b03166311da60b46040518163ffffffff1660e01b81526004016020604051808303815f875af1158015610dd4573d5f803e3d5ffd5b505050506040513d601f19601f82011682018060405250810190610df8919061154b565b505b5050505050565b80610e4357604051630b0d9c0960e01b81526001600160a01b038681166004830152848116602483015260448201849052851690630b0d9c0990606401610b98565b836001600160a01b031663156e29f684610e6c886001600160a01b03166001600160a01b031690565b6040516001600160e01b031960e085901b1681526001600160a01b0390921660048301526024820152604481018590526064015f604051808303815f87803b158015610eb6575f80fd5b505af1158015610ec8573d5f803e3d5ffd5b505050505050505050565b6040516390bfb86560e01b8082526001600160a01b03851660048301526001600160e01b031984166024830152608060448301526020601f3d018190040260a0810160648401523d608484015290913d5f60a483013e60048260a4018201526001600160e01b031984168260c4018201528160e40181fd5b5f6001600160a01b038316610f6b57506001600160a01b038116316109fe565b6040516370a0823160e01b81526001600160a01b0383811660048301528416906370a0823190602401602060405180830381865afa158015610faf573d5f803e3d5ffd5b505050506040513d601f19601f82011682018060405250810190610fd3919061154b565b90506109fe565b5f806001600160a01b0384165f526001600160a01b03831660205260405f209050846001600160a01b031663f135baaa826040518263ffffffff1660e01b815260040161102991815260200190565b602060405180830381865afa158015611044573d5f803e3d5ffd5b505050506040513d601f19601f82011682018060405250810190611068919061154b565b95945050505050565b634e487b7160e01b5f52604160045260245ffd5b60405160a0810167ffffffffffffffff811182821017156110a8576110a8611071565b60405290565b604051601f8201601f1916810167ffffffffffffffff811182821017156110d7576110d7611071565b604052919050565b6001600160a01b03811681146110f3575f80fd5b50565b8035611101816110df565b919050565b5f60a08284031215611116575f80fd5b61111e611085565b9050813561112b816110df565b8152602082013561113b816110df565b6020820152604082013562ffffff81168114611155575f80fd5b60408201526060820135600281900b811461116e575f80fd5b606082015261117f608083016110f6565b608082015292915050565b80151581146110f3575f80fd5b5f606082840312156111a7575f80fd5b6040516060810167ffffffffffffffff811182821017156111ca576111ca611071565b60405290508082356111db8161118a565b81526020838101359082015260408301356111f5816110df565b6040919091015292915050565b5f60408284031215611212575f80fd5b6040805190810167ffffffffffffffff8111828210171561123557611235611071565b60405290508082356112468161118a565b815260208301356112568161118a565b6020919091015292915050565b5f67ffffffffffffffff82111561127c5761127c611071565b50601f01601f191660200190565b5f82601f830112611299575f80fd5b81356112ac6112a782611263565b6110ae565b8181528460208386010111156112c0575f80fd5b816020850160208301375f918101602001919091529392505050565b5f805f8061016085870312156112f0575f80fd5b6112fa8686611106565b93506113098660a08701611197565b9250611319866101008701611202565b915061014085013567ffffffffffffffff811115611335575f80fd5b6113418782880161128a565b91505092959194509250565b5f806020838503121561135e575f80fd5b823567ffffffffffffffff811115611374575f80fd5b8301601f81018513611384575f80fd5b803567ffffffffffffffff81111561139a575f80fd5b8560208284010111156113ab575f80fd5b6020919091019590945092505050565b5f81518084528060208401602086015e5f602082860101526020601f19601f83011685010191505092915050565b602081525f6113fb60208301846113bb565b9392505050565b80516001600160a01b03908116835260208083015182169084015260408083015162ffffff169084015260608083015160020b9084015260809182015116910152565b602080825282516001600160a01b0316828201528281015180511515604080850191909152910151151560608301528201515f906114866080840182611402565b506060830151805115156101208401526020810151610140840152604001516001600160a01b03166101608301526080830151610180808401526114ce6101a08401826113bb565b949350505050565b5f602082840312156114e6575f80fd5b815167ffffffffffffffff8111156114fc575f80fd5b8201601f8101841361150c575f80fd5b805161151a6112a782611263565b81815285602083850101111561152e575f80fd5b8160208401602083015e5f91810160200191909152949350505050565b5f6020828403121561155b575f80fd5b5051919050565b5f60208284031215611572575f80fd5b813567ffffffffffffffff811115611588575f80fd5b8201610180818503121561159a575f80fd5b6115a2611085565b81356115ad816110df565b81526115bc8560208401611202565b60208201526115ce8560608401611106565b60408201526115e1856101008401611197565b606082015261016082013567ffffffffffffffff811115611600575f80fd5b61160c8682850161128a565b608083015250949350505050565b6116248185611402565b8251151560a0820152602083015160c082015260408301516001600160a01b031660e08201526101206101008201525f6110686101208301846113bb565b6020808252602b908201527f64656c74612e616d6f756e74302829206973206e6f7420657175616c20746f2060408201526a064656c74614166746572360ac1b606082015260800190565b6020808252602b908201527f64656c74612e616d6f756e74312829206973206e6f7420657175616c20746f2060408201526a64656c746141667465723160a81b606082015260800190565b5f600160ff1b820161171857634e487b7160e01b5f52601160045260245ffd5b505f0390565b5f6020828403121561172e575f80fd5b81516113fb8161118a56fea264697066735822122059c7143b140e2fbb573de957ca8d763bb8cf3fcc21f0938a224e03f8f31d5b8964736f6c634300081a003300000000000000000000000000b036b58a818b1bc34d502d3fe730db729e62ac",
        "nonce": "0x2c",
        "chainId": "0x515"
      },
      "additionalContracts": [],
      "isFixedGasLimit": false
    },
    {
      "hash": "0x307b950fd63e892b49e3cf13c755190f3383a93218961d31c2963e3299bec249",
      "transactionType": "CREATE",
      "contractName": "PoolModifyLiquidityTest",
      "contractAddress": "0xa5559859486080bc47c137534afa9f2e356c3127",
      "function": null,
      "arguments": [
        "0x00B036B58a818B1BC34d502D3fE730Db729e62AC"
      ],
      "transaction": {
        "from": "0x95606236867c2d3391f3dd2d3004efab08e819e4",
        "gas": "0x1970e9",
        "value": "0x0",
        "input": "0x60a0604052348015600e575f80fd5b50604051611703380380611703833981016040819052602b91603b565b6001600160a01b03166080526066565b5f60208284031215604a575f80fd5b81516001600160a01b0381168114605f575f80fd5b9392505050565b60805161163a6100c95f395f818160790152818160f50152818161022d01528181610294015281816102c501528181610390015281816104fa01528181610550015281816105bf015281816106100152818161078501526107b8015261163a5ff3fe60806040526004361061003e575f3560e01c80630a5b11e414610042578063481c6a75146100685780635a6bcfda146100b357806391dd7346146100c6575b5f80fd5b61005561005036600461108b565b6100f2565b6040519081526020015b60405180910390f35b348015610073575f80fd5b5061009b7f000000000000000000000000000000000000000000000000000000000000000081565b6040516001600160a01b03909116815260200161005f565b6100556100c1366004611111565b61020a565b3480156100d1575f80fd5b506100e56100e036600461116e565b610220565b60405161005f9190611208565b5f7f00000000000000000000000000000000000000000000000000000000000000006001600160a01b03166348c894916040518060c00160405280336001600160a01b03168152602001898152602001888152602001878152602001861515815260200185151581525060405160200161016c9190611264565b6040516020818303038152906040526040518263ffffffff1660e01b81526004016101979190611208565b5f604051808303815f875af11580156101b2573d5f803e3d5ffd5b505050506040513d5f823e601f3d908101601f191682016040526101d99190810190611300565b8060200190518101906101ec9190611374565b9050478015610200576102005f3383610662565b5095945050505050565b5f6102188484845f806100f2565b949350505050565b6060336001600160a01b037f00000000000000000000000000000000000000000000000000000000000000001614610256575f80fd5b5f6102638385018561138b565b90505f6102be610278836020015160a0902090565b6040840151805160208201516060909201516001600160a01b037f0000000000000000000000000000000000000000000000000000000000000000169392309291610707565b505090505f7f00000000000000000000000000000000000000000000000000000000000000006001600160a01b0316635a6bcfda8460200151856040015186606001516040518463ffffffff1660e01b815260040161031f93929190611452565b60408051808303815f875af115801561033a573d5f803e3d5ffd5b505050506040513d601f19601f8201168201806040525081019061035e91906114a1565b5090505f6103ba610374856020015160a0902090565b6040860151805160208201516060909201516001600160a01b037f0000000000000000000000000000000000000000000000000000000000000000169392309291610707565b505090505f6103d485602001515f0151865f01513061075e565b925050505f6103ef866020015160200151875f01513061075e565b9250505082600f0b86604001516040015186600f0b61040e91906114d7565b1461045f5760405162461bcd60e51b815260206004820152601a60248201527f6c6971756964697479206368616e676520696e636f7272656374000000000000604482015260640160405180910390fd5b5f86604001516040015112156104a7575f82138061047c57505f81135b610488576104886114fe565b5f82128061049557505f81125b156104a2576104a26114fe565b6104ea565b5f86604001516040015113156104ea575f8212806104c457505f81125b6104d0576104d06114fe565b5f8213806104dd57505f81135b156104ea576104ea6114fe565b5f821215610540578551610540907f00000000000000000000000000000000000000000000000000000000000000009061052385611512565b60808a015160208b0151516001600160a01b0316939291906107ea565b5f811215610598578551610598907f00000000000000000000000000000000000000000000000000000000000000009061057984611512565b60808a01516020808c015101516001600160a01b0316939291906107ea565b5f8213156105e757855160a08701516020880151516105e7926001600160a01b03909116917f000000000000000000000000000000000000000000000000000000000000000091908690610ab6565b5f81131561063857855160a08701516020808901510151610638926001600160a01b03909116917f000000000000000000000000000000000000000000000000000000000000000091908590610ab6565b60408051602081018690520160405160208183030381529060405296505050505050505b92915050565b5f6001600160a01b038416610697575f805f8085875af190508061069257610692835f633d2cec6f60e21b610b88565b610701565b60405163a9059cbb60e01b81526001600160a01b038416600482015282602482015260205f6044835f895af13d15601f3d1160015f511416171691505f81525f60208201525f60408201525080610701576107018463a9059cbb60e01b633c9fd93960e21b610b88565b50505050565b60408051602681018390526006810184905260038101859052858152603a600c8201205f92820183905260208201839052908290528190819061074b8a8a83610c00565b919c909b50909950975050505050505050565b5f80806107746001600160a01b03871686610ca3565b92506107a96001600160a01b0387167f0000000000000000000000000000000000000000000000000000000000000000610ca3565b91506107df6001600160a01b037f0000000000000000000000000000000000000000000000000000000000000000168588610d32565b905093509350939050565b801561087f57836001600160a01b031663f5298aca84610819886001600160a01b03166001600160a01b031690565b6040516001600160e01b031960e085901b1681526001600160a01b0390921660048301526024820152604481018590526064015b5f604051808303815f87803b158015610864575f80fd5b505af1158015610876573d5f803e3d5ffd5b50505050610aaf565b6001600160a01b0385166108f657836001600160a01b03166311da60b4836040518263ffffffff1660e01b815260040160206040518083038185885af11580156108cb573d5f803e3d5ffd5b50505050506040513d601f19601f820116820180604052508101906108f09190611374565b50610aaf565b604051632961046560e21b81526001600160a01b03868116600483015285169063a5841194906024015f604051808303815f87803b158015610936575f80fd5b505af1158015610948573d5f803e3d5ffd5b505050506001600160a01b03831630146109da576040516323b872dd60e01b81526001600160a01b0384811660048301528581166024830152604482018490528616906323b872dd906064016020604051808303815f875af11580156109b0573d5f803e3d5ffd5b505050506040513d601f19601f820116820180604052508101906109d4919061152c565b50610a4c565b60405163a9059cbb60e01b81526001600160a01b0385811660048301526024820184905286169063a9059cbb906044016020604051808303815f875af1158015610a26573d5f803e3d5ffd5b505050506040513d601f19601f82011682018060405250810190610a4a919061152c565b505b836001600160a01b03166311da60b46040518163ffffffff1660e01b81526004016020604051808303815f875af1158015610a89573d5f803e3d5ffd5b505050506040513d601f19601f82011682018060405250810190610aad9190611374565b505b5050505050565b80610af857604051630b0d9c0960e01b81526001600160a01b038681166004830152848116602483015260448201849052851690630b0d9c099060640161084d565b836001600160a01b031663156e29f684610b21886001600160a01b03166001600160a01b031690565b6040516001600160e01b031960e085901b1681526001600160a01b0390921660048301526024820152604481018590526064015f604051808303815f87803b158015610b6b575f80fd5b505af1158015610b7d573d5f803e3d5ffd5b505050505050505050565b6040516390bfb86560e01b8082526001600160a01b03851660048301526001600160e01b031984166024830152608060448301526020601f3d018190040260a0810160648401523d608484015290913d5f60a483013e60048260a4018201526001600160e01b031984168260c4018201528160e40181fd5b5f805f80610c0e8686610dc9565b604051631afeb18d60e11b815260048101829052600360248201529091505f906001600160a01b038916906335fd631a906044015f60405180830381865afa158015610c5c573d5f803e3d5ffd5b505050506040513d5f823e601f3d908101601f19168201604052610c839190810190611547565b60208101516040820151606090920151909a919950975095505050505050565b5f6001600160a01b038316610cc357506001600160a01b0381163161065c565b6040516370a0823160e01b81526001600160a01b0383811660048301528416906370a0823190602401602060405180830381865afa158015610d07573d5f803e3d5ffd5b505050506040513d601f19601f82011682018060405250810190610d2b9190611374565b905061065c565b5f806001600160a01b0384165f526001600160a01b03831660205260405f209050846001600160a01b031663f135baaa826040518263ffffffff1660e01b8152600401610d8191815260200190565b602060405180830381865afa158015610d9c573d5f803e3d5ffd5b505050506040513d601f19601f82011682018060405250810190610dc09190611374565b95945050505050565b5f80610dd484610e19565b90505f610de26006836115f1565b6040805160208101879052908101829052909150606001604051602081830303815290604052805190602001209250505092915050565b6040515f90610e38908390600690602001918252602082015260400190565b604051602081830303815290604052805190602001209050919050565b634e487b7160e01b5f52604160045260245ffd5b60405160c081016001600160401b0381118282101715610e8b57610e8b610e55565b60405290565b604051601f8201601f191681016001600160401b0381118282101715610eb957610eb9610e55565b604052919050565b6001600160a01b0381168114610ed5575f80fd5b50565b8035600281900b8114610ee9575f80fd5b919050565b5f60a08284031215610efe575f80fd5b60405160a081016001600160401b0381118282101715610f2057610f20610e55565b6040529050808235610f3181610ec1565b81526020830135610f4181610ec1565b6020820152604083013562ffffff81168114610f5b575f80fd5b6040820152610f6c60608401610ed8565b60608201526080830135610f7f81610ec1565b6080919091015292915050565b5f60808284031215610f9c575f80fd5b604051608081016001600160401b0381118282101715610fbe57610fbe610e55565b604052905080610fcd83610ed8565b8152610fdb60208401610ed8565b602082015260408301356040820152606083013560608201525092915050565b5f6001600160401b0382111561101357611013610e55565b50601f01601f191660200190565b5f82601f830112611030575f80fd5b813561104361103e82610ffb565b610e91565b818152846020838601011115611057575f80fd5b816020850160208301375f918101602001919091529392505050565b8015158114610ed5575f80fd5b8035610ee981611073565b5f805f805f61018086880312156110a0575f80fd5b6110aa8787610eee565b94506110b98760a08801610f8c565b93506101208601356001600160401b038111156110d4575f80fd5b6110e088828901611021565b9350506101408601356110f281611073565b915061016086013561110381611073565b809150509295509295909350565b5f805f6101408486031215611124575f80fd5b61112e8585610eee565b925061113d8560a08601610f8c565b91506101208401356001600160401b03811115611158575f80fd5b61116486828701611021565b9150509250925092565b5f806020838503121561117f575f80fd5b82356001600160401b03811115611194575f80fd5b8301601f810185136111a4575f80fd5b80356001600160401b038111156111b9575f80fd5b8560208284010111156111ca575f80fd5b6020919091019590945092505050565b5f81518084528060208401602086015e5f602082860101526020601f19601f83011685010191505092915050565b602081525f61121a60208301846111da565b9392505050565b80516001600160a01b03908116835260208083015182169084015260408083015162ffffff169084015260608083015160020b9084015260809182015116910152565b602080825282516001600160a01b0316828201528201515f9061128a6040840182611221565b506040838101518051600290810b60e08601526020820151900b610100850152908101516101208401526060908101516101408401528301516101a06101608401526112da6101c08401826111da565b90506080840151151561018084015260a084015115156101a08401528091505092915050565b5f60208284031215611310575f80fd5b81516001600160401b03811115611325575f80fd5b8201601f81018413611335575f80fd5b805161134361103e82610ffb565b818152856020838501011115611357575f80fd5b8160208401602083015e5f91810160200191909152949350505050565b5f60208284031215611384575f80fd5b5051919050565b5f6020828403121561139b575f80fd5b81356001600160401b038111156113b0575f80fd5b82016101a081850312156113c2575f80fd5b6113ca610e69565b81356113d581610ec1565b81526113e48560208401610eee565b60208201526113f68560c08401610f8c565b60408201526101408201356001600160401b03811115611414575f80fd5b61142086828501611021565b6060830152506114336101608301611080565b60808201526114456101808301611080565b60a0820152949350505050565b61145c8185611221565b8251600290810b60a08301526020840151900b60c0820152604083015160e082015260608301516101008201526101406101208201525f610dc06101408301846111da565b5f80604083850312156114b2575f80fd5b505080516020909101519092909150565b634e487b7160e01b5f52601160045260245ffd5b8082018281125f8312801582168215821617156114f6576114f66114c3565b505092915050565b634e487b7160e01b5f52600160045260245ffd5b5f600160ff1b8201611526576115266114c3565b505f0390565b5f6020828403121561153c575f80fd5b815161121a81611073565b5f60208284031215611557575f80fd5b81516001600160401b0381111561156c575f80fd5b8201601f8101841361157c575f80fd5b80516001600160401b0381111561159557611595610e55565b8060051b6115a560208201610e91565b918252602081840181019290810190878411156115c0575f80fd5b6020850194505b838510156115e6578451808352602095860195909350909101906115c7565b979650505050505050565b8082018082111561065c5761065c6114c356fea26469706673582212203785e1cd1842d8f548a39739ef150336028f41d77772a8a92175b3f3693b532564736f6c634300081a003300000000000000000000000000b036b58a818b1bc34d502d3fe730db729e62ac",
        "nonce": "0x2d",
        "chainId": "0x515"
      },
      "additionalContracts": [],
      "isFixedGasLimit": false
    },
    {
      "hash": "0x5ac7d50b1084eb383799f0733508a7706808ee13ab7c0776bfba613cb74cbc52",
      "transactionType": "CREATE",
      "contractName": "IntentStore",
      "contractAddress": "0x4c220d4740ecf8a10caa3fb9a29e261bb49a2ee4",
      "function": null,
      "arguments": [
        "0x0000000000000000000000000000000000000000"
      ],
      "transaction": {
        "from": "0x95606236867c2d3391f3dd2d3004efab08e819e4",
        "gas": "0x10ae01",
        "value": "0x0",
        "input": "0x6080604052348015600e575f80fd5b50604051610ead380380610ead833981016040819052602b91604e565b5f80546001600160a01b0319166001600160a01b03929092169190911790556079565b5f60208284031215605d575f80fd5b81516001600160a01b03811681146072575f80fd5b9392505050565b610e27806100865f395ff3fe608060405234801561000f575f80fd5b506004361061007a575f3560e01c8063906e277b11610058578063906e277b146100e3578063c34c08e514610103578063ed82a00e1461012d578063f64051191461014e575f80fd5b80631c3c0ea81461007e57806346a1a095146100935780634e395e2a146100c0575b5f80fd5b61009161008c366004610a8c565b610161565b005b6100a66100a1366004610ab9565b6101eb565b6040516100b7959493929190610b81565b60405180910390f35b6100d36100ce366004610ab9565b6102e7565b60405190151581526020016100b7565b6100f66100f1366004610ab9565b610378565b6040516100b79190610bc5565b5f54610115906001600160a01b031681565b6040516001600160a01b0390911681526020016100b7565b61014061013b366004610cfc565b6104eb565b6040519081526020016100b7565b61009161015c366004610ab9565b61073f565b5f546001600160a01b0316158061018157505f546001600160a01b031633145b6101ca5760405162461bcd60e51b81526020600482015260156024820152741bdb9b1e48195e1958dd5d1bdc881bdc881a5b9a5d605a1b60448201526064015b60405180910390fd5b5f80546001600160a01b0319166001600160a01b0392909216919091179055565b600181815481106101fa575f80fd5b5f9182526020918290206040805161010081018252600c90930290910180546001600160401b038082168552600160401b8204169484019490945263ffffffff600160801b8504811684840152600160a01b909404909316606083015280516080818101909252929350909183918301906001830160048282826020028201915b81548152602001906001019080831161027b575050509183525050600582015460ff90811660208301526006830154604083015260079092015460609091015260088301546009840154600a850154600b9095015493946001600160a01b039283169491909216921685565b6001545f9082106102f957505f919050565b5f6001838154811061030d5761030d610dac565b5f9182526020909120600c90910201600b81015490915060ff161561033457505f92915050565b80546001600160401b031643101561034e57505f92915050565b8054600160401b90046001600160401b031643111561036f57505f92915050565b50600192915050565b61038061099e565b60015482106103c25760405162461bcd60e51b815260206004820152600e60248201526d1a5b9d985b1a59081a5b9d195b9d60921b60448201526064016101c1565b600182815481106103d5576103d5610dac565b5f9182526020909120604080516101a081018252600c90930290910180546001600160401b0380821660a08601908152600160401b830490911660c086015263ffffffff600160801b8304811660e0870152600160a01b9092049091166101008501528251608081019384905291928492849161012085019190600184019060049082845b81548152602001906001019080831161045a575050509183525050600582015460ff908116602080840191909152600684015460408085019190915260079094015460609384015293855260088601546001600160a01b0390811694860194909452600986015490931691840191909152600a84015490830152600b90920154909116151560809091015292915050565b5f6104f583610862565b5f821161053b5760405162461bcd60e51b81526020600482015260146024820152730616d6f756e74496e206d757374206265203e20360641b60448201526064016101c1565b50600180546040805160a0810182528581523360208083018290528284019190915260608083018790525f6080808501829052868801885596905282518051600c87027fb10e2d527612073b26eecdfd717e6a320cf44b4afac2b0732d9fcbe2b7fa0cf68101805495840151978401519484015163ffffffff908116600160a01b0263ffffffff60a01b1991909616600160801b021667ffffffffffffffff60801b196001600160401b03998a16600160401b026fffffffffffffffffffffffffffffffff199098169990941698909817959095179190911695909517919091178255948501519394919390928391610658917fb10e2d527612073b26eecdfd717e6a320cf44b4afac2b0732d9fcbe2b7fa0cf7019060046109d2565b5060a082015160058201805460ff1990811660ff90931692909217905560c0830151600683015560e0909201516007909101556020838101516008840180546001600160a01b03199081166001600160a01b039384161790915560408087015160098701805490931693169290921790556060850151600a850155608090940151600b909301805490921692151592909217905584518582015183516001600160401b039283168152911691810191909152339183917f69ed47713df78c91050b377d2f52abaea3dbc2bbe31c32b290c288c61ce079fc910160405180910390a392915050565b5f546001600160a01b031633146107885760405162461bcd60e51b815260206004820152600d60248201526c37b7363c9032bc32b1baba37b960991b60448201526064016101c1565b600154811080156107bf5750600181815481106107a7576107a7610dac565b5f9182526020909120600b600c90920201015460ff16155b6108015760405162461bcd60e51b81526020600482015260136024820152721a5b9d985b1a59081bdc88195e1958dd5d1959606a1b60448201526064016101c1565b600180828154811061081557610815610dac565b5f91825260208220600c9190910201600b01805460ff19169215159290921790915560405182917ff0c6c99b11035113bf510013043afc18365a61a112c542b9f7491fd1574cfc5b91a250565b805f01516001600160401b031681602001516001600160401b03161161089b57604051631777743d60e21b815260040160405180910390fd5b805160208201516002916108ae91610dc0565b6001600160401b031610156108d657604051631777743d60e21b815260040160405180910390fd5b80516020820151610100916108ea91610dc0565b6001600160401b0316111561091257604051631777743d60e21b815260040160405180910390fd5b600163ffffffff16816040015163ffffffff1610806109415750606463ffffffff16816040015163ffffffff16115b1561095f5760405163184774cd60e01b815260040160405180910390fd5b60a081015160ff16158061097d5750600460ff168160a0015160ff16115b1561099b576040516368c4312b60e11b815260040160405180910390fd5b50565b6040518060a001604052806109b1610a10565b81525f60208201819052604082018190526060820181905260809091015290565b8260048101928215610a00579160200282015b82811115610a005782518255916020019190600101906109e5565b50610a0c929150610a5a565b5090565b60408051610100810182525f80825260208201819052918101829052606081019190915260808101610a40610a6e565b81525f602082018190526040820181905260609091015290565b5b80821115610a0c575f8155600101610a5b565b60405180608001604052806004906020820280368337509192915050565b5f60208284031215610a9c575f80fd5b81356001600160a01b0381168114610ab2575f80fd5b9392505050565b5f60208284031215610ac9575f80fd5b5035919050565b805f5b6004811015610af2578151845260209384019390910190600101610ad3565b50505050565b6001600160401b0381511682526001600160401b0360208201511660208301526040810151610b2f604084018263ffffffff169052565b506060810151610b47606084018263ffffffff169052565b506080810151610b5a6080840182610ad0565b5060a081015160ff1661010083015260c081015161012083015260e0015161014090910152565b6101e08101610b908288610af8565b6001600160a01b03958616610160830152939094166101808501526101a084019190915215156101c090920191909152919050565b5f6101e082019050610bd8828451610af8565b60208301516001600160a01b0390811661016084015260408401511661018083015260608301516101a083015260809092015115156101c09091015290565b634e487b7160e01b5f52604160045260245ffd5b60405161010081016001600160401b0381118282101715610c4e57610c4e610c17565b60405290565b80356001600160401b0381168114610c6a575f80fd5b919050565b803563ffffffff81168114610c6a575f80fd5b5f82601f830112610c91575f80fd5b604051608081016001600160401b0381118282101715610cb357610cb3610c17565b604052806080840185811115610cc7575f80fd5b845b81811015610ce1578035835260209283019201610cc9565b509195945050505050565b803560ff81168114610c6a575f80fd5b5f80828403610180811215610d0f575f80fd5b610160811215610d1d575f80fd5b50610d26610c2b565b610d2f84610c54565b8152610d3d60208501610c54565b6020820152610d4e60408501610c6f565b6040820152610d5f60608501610c6f565b6060820152610d718560808601610c82565b6080820152610d836101008501610cec565b60a082015261012084013560c082015261014084013560e0820152946101609093013593505050565b634e487b7160e01b5f52603260045260245ffd5b6001600160401b038281168282160390811115610deb57634e487b7160e01b5f52601160045260245ffd5b9291505056fea26469706673582212201a6b9af9c64bacf6b2c927e98989a0557aaf11c78f60dee5bf4a1ee16f620c8064736f6c634300081a00330000000000000000000000000000000000000000000000000000000000000000",
        "nonce": "0x2e",
        "chainId": "0x515"
      },
      "additionalContracts": [],
      "isFixedGasLimit": false
    },
    {
      "hash": "0x82eae0e69760a3b1563bf26c0e4d4096ffcf5ae362ddc97bdf44124c5109b74a",
      "transactionType": "CREATE",
      "contractName": "PrivacySwapExecutor",
      "contractAddress": "0x35b85061cf3549bacb53f374247675a2cc5bafb0",
      "function": null,
      "arguments": [
        "0x4C220D4740eCf8a10cAA3fb9A29E261BB49a2ee4",
        "0x6b3d97f1595E40dA4210EF020150b075EF2d73aE"
      ],
      "transaction": {
        "from": "0x95606236867c2d3391f3dd2d3004efab08e819e4",
        "gas": "0xe7130",
        "value": "0x0",
        "input": "0x60c060405234801561000f575f80fd5b50604051610cff380380610cff83398101604081905261002e9161005c565b6001600160a01b039182166080521660a052610094565b6001600160a01b0381168114610059575f80fd5b50565b5f806040838503121561006d575f80fd5b825161007881610045565b602084015190925061008981610045565b809150509250929050565b60805160a051610c2a6100d55f395f8181608b015281816102f2015261037001525f818160480152818160da0152818161018701526104770152610c2a5ff3fe608060405234801561000f575f80fd5b506004361061003f575f3560e01c8063368202a514610043578063c31c9c0714610086578063d9c8ec22146100ad575b5f80fd5b61006a7f000000000000000000000000000000000000000000000000000000000000000081565b6040516001600160a01b03909116815260200160405180910390f35b61006a7f000000000000000000000000000000000000000000000000000000000000000081565b6100c06100bb36600461077b565b6100c2565b005b60405163906e277b60e01b8152600481018490525f907f00000000000000000000000000000000000000000000000000000000000000006001600160a01b03169063906e277b906024016101e060405180830381865afa158015610128573d5f803e3d5ffd5b505050506040513d601f19601f8201168201806040525081019061014c91906108e9565b905080608001511561017157604051633b68b0fd60e01b815260040160405180910390fd5b60405163271caf1560e11b8152600481018590527f00000000000000000000000000000000000000000000000000000000000000006001600160a01b031690634e395e2a90602401602060405180830381865afa1580156101d4573d5f803e3d5ffd5b505050506040513d601f19601f820116820180604052508101906101f891906109e5565b610215576040516397e97fab60e01b815260040160405180910390fd5b805160a0842061022582826105e4565b6102425760405163f31017e560e01b815260040160405180910390fd5b61024c8243610634565b5060208501518551604085810151606087015191516323b872dd60e01b81526001600160a01b03918216600482015230602482015260448101929092528316906323b872dd906064016020604051808303815f875af11580156102b1573d5f803e3d5ffd5b505050506040513d601f19601f820116820180604052508101906102d591906109e5565b50606085015160405163095ea7b360e01b81526001600160a01b037f00000000000000000000000000000000000000000000000000000000000000008116600483015260248201929092529083169063095ea7b3906044016020604051808303815f875af1158015610349573d5f803e3d5ffd5b505050506040513d601f19601f8201168201806040525081019061036d91906109e5565b507f00000000000000000000000000000000000000000000000000000000000000006001600160a01b0316632229d0b48860405180606001604052805f1515815260200189606001516103bf90610a19565b81526001600160a01b038b166020918201526040805180820182525f80825281840152905190916103f2918b9101610a5b565b6040516020818303038152906040526040518563ffffffff1660e01b81526004016104209493929190610b1f565b6020604051808303815f875af115801561043c573d5f803e3d5ffd5b505050506040513d601f19601f820116820180604052508101906104609190610bb6565b5060405163f640511960e01b8152600481018990527f00000000000000000000000000000000000000000000000000000000000000006001600160a01b03169063f6405119906024015f604051808303815f87803b1580156104c0575f80fd5b505af11580156104d2573d5f803e3d5ffd5b50506040516370a0823160e01b81523060048201525f92506001600160a01b03841691506370a0823190602401602060405180830381865afa15801561051a573d5f803e3d5ffd5b505050506040513d601f19601f8201168201806040525081019061053e9190610bb6565b905080156105d957602086015160405163a9059cbb60e01b81526001600160a01b039182166004820152602481018390529083169063a9059cbb906044016020604051808303815f875af1158015610598573d5f803e3d5ffd5b505050506040513d601f19601f820116820180604052508101906105bc91906109e5565b6105d9576040516312171d8360e31b815260040160405180910390fd5b505050505050505050565b5f805b8360a0015160ff1681101561062957828460800151826004811061060d5761060d610bcd565b60200201510361062157600191505061062e565b6001016105e7565b505f90505b92915050565b81515f9067ffffffffffffffff1682101561066257604051637cd4c09b60e11b815260040160405180910390fd5b826020015167ffffffffffffffff1682111561069157604051633c09dd1160e01b815260040160405180910390fd5b606083015163ffffffff81165f036106ad57600191505061062e565b836040015163ffffffff168163ffffffff16846106ca9190610be1565b10156106e95760405163a965618960e01b815260040160405180910390fd5b5060019392505050565b634e487b7160e01b5f52604160045260245ffd5b60405160a0810167ffffffffffffffff8111828210171561072a5761072a6106f3565b60405290565b604051610100810167ffffffffffffffff8111828210171561072a5761072a6106f3565b6001600160a01b0381168114610768575f80fd5b50565b803561077681610754565b919050565b5f805f83850360e081121561078e575f80fd5b8435935060a0601f19820112156107a3575f80fd5b506107ac610707565b60208501356107ba81610754565b815260408501356107ca81610754565b6020820152606085013562ffffff811681146107e4575f80fd5b60408201526080850135600281900b81146107fd575f80fd5b606082015261080e60a0860161076b565b6080820152915061082160c0850161076b565b90509250925092565b805167ffffffffffffffff81168114610776575f80fd5b805163ffffffff81168114610776575f80fd5b5f82601f830112610863575f80fd5b6040516080810167ffffffffffffffff81118282101715610886576108866106f3565b60405280608084018581111561089a575f80fd5b845b818110156108b457805183526020928301920161089c565b509195945050505050565b805160ff81168114610776575f80fd5b805161077681610754565b80518015158114610776575f80fd5b5f8183036101e0811280156108fc575f80fd5b50610905610707565b610160821215610913575f80fd5b61091b610730565b91506109268461082a565b82526109346020850161082a565b602083015261094560408501610841565b604083015261095660608501610841565b60608301526109688560808601610854565b608083015261097a61010085016108bf565b60a083015261012084015160c083015261014084015160e08301528181526109a561016085016108cf565b60208201526109b761018085016108cf565b60408201526101a08401516060820181905291506109d86101c085016108da565b6080820152949350505050565b5f602082840312156109f5575f80fd5b6109fe826108da565b9392505050565b634e487b7160e01b5f52601160045260245ffd5b5f600160ff1b8201610a2d57610a2d610a05565b505f0390565b805f5b6004811015610a55578151845260209384019390910190600101610a36565b50505050565b5f6101608201905067ffffffffffffffff835116825267ffffffffffffffff60208401511660208301526040830151610a9c604084018263ffffffff169052565b506060830151610ab4606084018263ffffffff169052565b506080830151610ac76080840182610a33565b5060a083015160ff1661010083015260c083015161012083015260e0909201516101409091015290565b5f81518084528060208401602086015e5f602082860101526020601f19601f83011685010191505092915050565b84516001600160a01b03908116825260208087015182168184015260408088015162ffffff168185015260608089015160020b908501526080808901518416908501528651151560a08501529086015160c08401528501511660e082015282511515610100820152602083015115156101208201526101606101408201525f610bac610160830184610af1565b9695505050505050565b5f60208284031215610bc6575f80fd5b5051919050565b634e487b7160e01b5f52603260045260245ffd5b8181038181111561062e5761062e610a0556fea2646970667358221220acbd7c00259e1e7aec0eee8035bf42fd61492ce11e91ef3167f30fb8c62d1bb564736f6c634300081a00330000000000000000000000004c220d4740ecf8a10caa3fb9a29e261bb49a2ee40000000000000000000000006b3d97f1595e40da4210ef020150b075ef2d73ae",
        "nonce": "0x2f",
        "chainId": "0x515"
      },
      "additionalContracts": [],
      "isFixedGasLimit": false
    },
    {
      "hash": "0xd683d955426ae6955d7808c3f9a1b8e03165bbfde425a454d56a35a0d2416cc2",
      "transactionType": "CALL",
      "contractName": "IntentStore",
      "contractAddress": "0x4c220d4740ecf8a10caa3fb9a29e261bb49a2ee4",
      "function": "setExecutor(address)",
      "arguments": [
        "0x35b85061CF3549BacB53f374247675A2cc5BAFB0"
      ],
      "transaction": {
        "from": "0x95606236867c2d3391f3dd2d3004efab08e819e4",
        "to": "0x4c220d4740ecf8a10caa3fb9a29e261bb49a2ee4",
        "gas": "0xed82",
        "value": "0x0",
        "input": "0x1c3c0ea800000000000000000000000035b85061cf3549bacb53f374247675a2cc5bafb0",
        "nonce": "0x30",
        "chainId": "0x515"
      },
      "additionalContracts": [],
      "isFixedGasLimit": false
    },
    {
      "hash": "0x95b6b87fe29d0b72942f5e7f5cf77ed11e95a0128b6e7d62e3b879a11dac1be5",
      "transactionType": "CALL",
      "contractName": "PrivacySwapHook",
      "contractAddress": "0x9232b94a366af37c3cbebabec4ee7dd565b206c0",
      "function": "addRouter(address)",
      "arguments": [
        "0x6b3d97f1595E40dA4210EF020150b075EF2d73aE"
      ],
      "transaction": {
        "from": "0x95606236867c2d3391f3dd2d3004efab08e819e4",
        "to": "0x9232b94a366af37c3cbebabec4ee7dd565b206c0",
        "gas": "0xff41",
        "value": "0x0",
        "input": "0x24ca984e0000000000000000000000006b3d97f1595e40da4210ef020150b075ef2d73ae",
        "nonce": "0x31",
        "chainId": "0x515"
      },
      "additionalContracts": [],
      "isFixedGasLimit": false
    },
    {
      "hash": "0xcbaff156f84365ab6bf95699cb6162f7251985046da9e537cb47bbe5245d7c53",
      "transactionType": "CALL",
      "contractName": null,
      "contractAddress": "0x4200000000000000000000000000000000000006",
      "function": null,
      "arguments": null,
      "transaction": {
        "from": "0x95606236867c2d3391f3dd2d3004efab08e819e4",
        "to": "0x4200000000000000000000000000000000000006",
        "gas": "0x962a",
        "value": "0x470de4df820000",
        "input": "0xd0e30db0",
        "nonce": "0x32",
        "chainId": "0x515"
      },
      "additionalContracts": [],
      "isFixedGasLimit": false
    },
    {
      "hash": "0x8d3cf815fd7c1525bfb3f8b31dd1fa41cfbfe8f229508a493a72c10a7d2c3a57",
      "transactionType": "CALL",
      "contractName": null,
      "contractAddress": "0x4200000000000000000000000000000000000006",
      "function": "approve(address,uint256)",
      "arguments": [
        "0x6b3d97f1595E40dA4210EF020150b075EF2d73aE",
        "115792089237316195423570985008687907853269984665640564039457584007913129639935"
      ],
      "transaction": {
        "from": "0x95606236867c2d3391f3dd2d3004efab08e819e4",
        "to": "0x4200000000000000000000000000000000000006",
        "gas": "0x10972",
        "value": "0x0",
        "input": "0x095ea7b30000000000000000000000006b3d97f1595e40da4210ef020150b075ef2d73aeffffffffffffffffffffffffffffffffffffffffffffffffffffffffffffffff",
        "nonce": "0x33",
        "chainId": "0x515"
      },
      "additionalContracts": [],
      "isFixedGasLimit": false
    },
    {
      "hash": "0x5ced290edbebcea4ae26cb5497b15a6463c05269c1957c6fc0a8d85365510c32",
      "transactionType": "CALL",
      "contractName": null,
      "contractAddress": "0x31d0220469e10c4e71834a79b1f276d740d3768f",
      "function": "approve(address,uint256)",
      "arguments": [
        "0x6b3d97f1595E40dA4210EF020150b075EF2d73aE",
        "115792089237316195423570985008687907853269984665640564039457584007913129639935"
      ],
      "transaction": {
        "from": "0x95606236867c2d3391f3dd2d3004efab08e819e4",
        "to": "0x31d0220469e10c4e71834a79b1f276d740d3768f",
        "gas": "0x13eb1",
        "value": "0x0",
        "input": "0x095ea7b30000000000000000000000006b3d97f1595e40da4210ef020150b075ef2d73aeffffffffffffffffffffffffffffffffffffffffffffffffffffffffffffffff",
        "nonce": "0x34",
        "chainId": "0x515"
      },
      "additionalContracts": [],
      "isFixedGasLimit": false
    },
    {
      "hash": "0xf788017415f338e67307ad04573707307f31b9d213d021c6182d03be4d612159",
      "transactionType": "CALL",
      "contractName": null,
      "contractAddress": "0x4200000000000000000000000000000000000006",
      "function": "approve(address,uint256)",
      "arguments": [
        "0xA5559859486080bc47C137534aFA9f2E356C3127",
        "115792089237316195423570985008687907853269984665640564039457584007913129639935"
      ],
      "transaction": {
        "from": "0x95606236867c2d3391f3dd2d3004efab08e819e4",
        "to": "0x4200000000000000000000000000000000000006",
        "gas": "0x10972",
        "value": "0x0",
        "input": "0x095ea7b3000000000000000000000000a5559859486080bc47c137534afa9f2e356c3127ffffffffffffffffffffffffffffffffffffffffffffffffffffffffffffffff",
        "nonce": "0x35",
        "chainId": "0x515"
      },
      "additionalContracts": [],
      "isFixedGasLimit": false
    },
    {
      "hash": "0x79b51669d88a91be55867af3085925d9f49e8537a81c2806d935d13ab83c94a1",
      "transactionType": "CALL",
      "contractName": null,
      "contractAddress": "0x31d0220469e10c4e71834a79b1f276d740d3768f",
      "function": "approve(address,uint256)",
      "arguments": [
        "0xA5559859486080bc47C137534aFA9f2E356C3127",
        "115792089237316195423570985008687907853269984665640564039457584007913129639935"
      ],
      "transaction": {
        "from": "0x95606236867c2d3391f3dd2d3004efab08e819e4",
        "to": "0x31d0220469e10c4e71834a79b1f276d740d3768f",
        "gas": "0x13eb1",
        "value": "0x0",
        "input": "0x095ea7b3000000000000000000000000a5559859486080bc47c137534afa9f2e356c3127ffffffffffffffffffffffffffffffffffffffffffffffffffffffffffffffff",
        "nonce": "0x36",
        "chainId": "0x515"
      },
      "additionalContracts": [],
      "isFixedGasLimit": false
    },
    {
      "hash": "0xcb008d403f5b3d9a9e95b804a91b1b6042eefe0e1f156d142d888f158ce9ad8f",
      "transactionType": "CALL",
      "contractName": null,
      "contractAddress": "0x4200000000000000000000000000000000000006",
      "function": "approve(address,uint256)",
      "arguments": [
        "0x35b85061CF3549BacB53f374247675A2cc5BAFB0",
        "115792089237316195423570985008687907853269984665640564039457584007913129639935"
      ],
      "transaction": {
        "from": "0x95606236867c2d3391f3dd2d3004efab08e819e4",
        "to": "0x4200000000000000000000000000000000000006",
        "gas": "0x10972",
        "value": "0x0",
        "input": "0x095ea7b300000000000000000000000035b85061cf3549bacb53f374247675a2cc5bafb0ffffffffffffffffffffffffffffffffffffffffffffffffffffffffffffffff",
        "nonce": "0x37",
        "chainId": "0x515"
      },
      "additionalContracts": [],
      "isFixedGasLimit": false
    },
    {
      "hash": "0xcdda9e8c9d6138dc5bd467ef281765d5b83462f7b126d26d3e1d2c37601a0325",
      "transactionType": "CALL",
      "contractName": null,
      "contractAddress": "0x00b036b58a818b1bc34d502d3fe730db729e62ac",
      "function": "initialize((address,address,uint24,int24,address),uint160)",
      "arguments": [
        "(0x31d0220469e10c4E71834a79b1f276d740d3768F, 0x4200000000000000000000000000000000000006, 3000, 60, 0x9232B94A366aF37C3cbeBAbEC4eE7Dd565B206c0)",
        "79228162514264337593543950336"
      ],
      "transaction": {
        "from": "0x95606236867c2d3391f3dd2d3004efab08e819e4",
        "to": "0x00b036b58a818b1bc34d502d3fe730db729e62ac",
        "gas": "0x12626",
        "value": "0x0",
        "input": "0x6276cbbe00000000000000000000000031d0220469e10c4e71834a79b1f276d740d3768f00000000000000000000000042000000000000000000000000000000000000060000000000000000000000000000000000000000000000000000000000000bb8000000000000000000000000000000000000000000000000000000000000003c0000000000000000000000009232b94a366af37c3cbebabec4ee7dd565b206c00000000000000000000000000000000000000001000000000000000000000000",
        "nonce": "0x38",
        "chainId": "0x515"
      },
      "additionalContracts": [],
      "isFixedGasLimit": false
    },
    {
      "hash": "0x06518d0d0fd303f8bfd20573fcda29312b4470fe06d5b05a67f91f27e96f2fe1",
      "transactionType": "CALL",
      "contractName": "PoolModifyLiquidityTest",
      "contractAddress": "0xa5559859486080bc47c137534afa9f2e356c3127",
      "function": "modifyLiquidity((address,address,uint24,int24,address),(int24,int24,int256,bytes32),bytes)",
      "arguments": [
        "(0x31d0220469e10c4E71834a79b1f276d740d3768F, 0x4200000000000000000000000000000000000006, 3000, 60, 0x9232B94A366aF37C3cbeBAbEC4eE7Dd565B206c0)",
        "(-120, 120, 2000000000, 0x0000000000000000000000000000000000000000000000000000000000000000)",
        "0x"
      ],
      "transaction": {
        "from": "0x95606236867c2d3391f3dd2d3004efab08e819e4",
        "to": "0xa5559859486080bc47c137534afa9f2e356c3127",
        "gas": "0x69b04",
        "value": "0x0",
        "input": "0x5a6bcfda00000000000000000000000031d0220469e10c4e71834a79b1f276d740d3768f00000000000000000000000042000000000000000000000000000000000000060000000000000000000000000000000000000000000000000000000000000bb8000000000000000000000000000000000000000000000000000000000000003c0000000000000000000000009232b94a366af37c3cbebabec4ee7dd565b206c0ffffffffffffffffffffffffffffffffffffffffffffffffffffffffffffff8800000000000000000000000000000000000000000000000000000000000000780000000000000000000000000000000000000000000000000000000077359400000000000000000000000000000000000000000000000000000000000000000000000000000000000000000000000000000000000000000000000000000001400000000000000000000000000000000000000000000000000000000000000000",
        "nonce": "0x39",
        "chainId": "0x515"
      },
      "additionalContracts": [],
      "isFixedGasLimit": false
    },
    {
      "hash": "0xe1044a505569c8fd1db6252206990319698cbf15a05fa10bc60c10778fe8b397",
      "transactionType": "CALL",
      "contractName": "IntentStore",
      "contractAddress": "0x4c220d4740ecf8a10caa3fb9a29e261bb49a2ee4",
      "function": "submitIntent((uint64,uint64,uint32,uint32,bytes32[4],uint8,uint256,bytes32),uint256)",
      "arguments": [
        "(43704123, 43704222, 1, 0, [0x298f7a67a8c67b1eaba13baab6865dc94d87455f111f39ec6090cb1fc0eed800, 0x0000000000000000000000000000000000000000000000000000000000000000, 0x0000000000000000000000000000000000000000000000000000000000000000, 0x0000000000000000000000000000000000000000000000000000000000000000], 1, 0, 0x0000000000000000000000000000000000000000000000000000000000000000)",
        "5000000000000000"
      ],
      "transaction": {
        "from": "0x95606236867c2d3391f3dd2d3004efab08e819e4",
        "to": "0x4c220d4740ecf8a10caa3fb9a29e261bb49a2ee4",
        "gas": "0x46365",
        "value": "0x0",
        "input": "0xed82a00e00000000000000000000000000000000000000000000000000000000029adf3b00000000000000000000000000000000000000000000000000000000029adf9e00000000000000000000000000000000000000000000000000000000000000010000000000000000000000000000000000000000000000000000000000000000298f7a67a8c67b1eaba13baab6865dc94d87455f111f39ec6090cb1fc0eed8000000000000000000000000000000000000000000000000000000000000000000000000000000000000000000000000000000000000000000000000000000000000000000000000000000000000000000000000000000000000000000000000000000000000000000000000000000000000000000000000000000000000000001000000000000000000000000000000000000000000000000000000000000000000000000000000000000000000000000000000000000000000000000000000000000000000000000000000000000000000000000000000000011c37937e08000",
        "nonce": "0x3a",
        "chainId": "0x515"
      },
      "additionalContracts": [],
      "isFixedGasLimit": false
    },
    {
      "hash": "0x89c0b914068d59ec3a13c41b8ac8af3cc994910bd79c5c4cce021fdaf60a3d57",
      "transactionType": "CALL",
      "contractName": "PrivacySwapExecutor",
      "contractAddress": "0x35b85061cf3549bacb53f374247675a2cc5bafb0",
      "function": "executeIntent(uint256,(address,address,uint24,int24,address),uint160)",
      "arguments": [
        "0",
        "(0x31d0220469e10c4E71834a79b1f276d740d3768F, 0x4200000000000000000000000000000000000006, 3000, 60, 0x9232B94A366aF37C3cbeBAbEC4eE7Dd565B206c0)",
        "158456325028528675187087900672"
      ],
      "transaction": {
        "from": "0x95606236867c2d3391f3dd2d3004efab08e819e4",
        "to": "0x35b85061cf3549bacb53f374247675a2cc5bafb0",
        "gas": "0x73a93",
        "value": "0x0",
        "input": "0xd9c8ec22000000000000000000000000000000000000000000000000000000000000000000000000000000000000000031d0220469e10c4e71834a79b1f276d740d3768f00000000000000000000000042000000000000000000000000000000000000060000000000000000000000000000000000000000000000000000000000000bb8000000000000000000000000000000000000000000000000000000000000003c0000000000000000000000009232b94a366af37c3cbebabec4ee7dd565b206c00000000000000000000000000000000000000002000000000000000000000000",
        "nonce": "0x3b",
        "chainId": "0x515"
      },
      "additionalContracts": [],
      "isFixedGasLimit": false
    }
  ],
  "receipts": [
    {
      "status": "0x1",
      "cumulativeGasUsed": "0x19849d",
      "logs": [],
      "logsBloom": "0x00000000000000000000000000000000000000000000000000000000000000000000000000000000000000000000000000000000000000000000000000000000000000000000000000000000000000000000000000000000000000000000000000000000000000000000000000000000000000000000000000000000000000000000000000000000000000000000000000000000000000000000000000000000000000000000000000000000000000000000000000000000000000000000000000000000000000000000000000000000000000000000000000000000000000000000000000000000000000000000000000000000000000000000000000000000",
      "type": "0x2",
      "transactionHash": "0x82eae0e69760a3b1563bf26c0e4d4096ffcf5ae362ddc97bdf44124c5109b74a",
      "transactionIndex": "0x5",
      "blockHash": "0xb22d2036126fa1538f0ad681dd94ace8740e044069a0b2278bbbd3a881224e8b",
      "blockNumber": "0x29adf59",
      "gasUsed": "0x142a35",
      "effectiveGasPrice": "0x7a121",
      "blobGasUsed": "0x1433e0",
      "from": "0x95606236867c2d3391f3dd2d3004efab08e819e4",
      "to": "0x4e59b44847b379578588920ca78fbf26c0b4956c",
      "contractAddress": null,
      "daFootprintGasScalar": "0x190",
      "l1BaseFeeScalar": "0x7d0",
      "l1BlobBaseFee": "0x3c214b2",
      "l1BlobBaseFeeScalar": "0xdbba0",
      "l1Fee": "0x4719eea16d",
      "l1GasPrice": "0x4224a5c3",
      "l1GasUsed": "0xcee1"
    },
    {
      "status": "0x1",
      "cumulativeGasUsed": "0x2e1df0",
      "logs": [],
      "logsBloom": "0x00000000000000000000000000000000000000000000000000000000000000000000000000000000000000000000000000000000000000000000000000000000000000000000000000000000000000000000000000000000000000000000000000000000000000000000000000000000000000000000000000000000000000000000000000000000000000000000000000000000000000000000000000000000000000000000000000000000000000000000000000000000000000000000000000000000000000000000000000000000000000000000000000000000000000000000000000000000000000000000000000000000000000000000000000000000",
      "type": "0x2",
      "transactionHash": "0x307b950fd63e892b49e3cf13c755190f3383a93218961d31c2963e3299bec249",
      "transactionIndex": "0x6",
      "blockHash": "0xb22d2036126fa1538f0ad681dd94ace8740e044069a0b2278bbbd3a881224e8b",
      "blockNumber": "0x29adf59",
      "gasUsed": "0x149953",
      "effectiveGasPrice": "0x7a121",
      "blobGasUsed": "0x122b90",
      "from": "0x95606236867c2d3391f3dd2d3004efab08e819e4",
      "to": null,
      "contractAddress": "0x6b3d97f1595e40da4210ef020150b075ef2d73ae",
      "daFootprintGasScalar": "0x190",
      "l1BaseFeeScalar": "0x7d0",
      "l1BlobBaseFee": "0x3c214b2",
      "l1BlobBaseFeeScalar": "0xdbba0",
      "l1Fee": "0x3ff333795b",
      "l1GasPrice": "0x4224a5c3",
      "l1GasUsed": "0xba12"
    },
    {
      "status": "0x1",
      "cumulativeGasUsed": "0x41afdf",
      "logs": [],
      "logsBloom": "0x00000000000000000000000000000000000000000000000000000000000000000000000000000000000000000000000000000000000000000000000000000000000000000000000000000000000000000000000000000000000000000000000000000000000000000000000000000000000000000000000000000000000000000000000000000000000000000000000000000000000000000000000000000000000000000000000000000000000000000000000000000000000000000000000000000000000000000000000000000000000000000000000000000000000000000000000000000000000000000000000000000000000000000000000000000000",
      "type": "0x2",
      "transactionHash": "0x8ef9f9eb51502a9cbf4b5d5f4d6611a028bc7e22f86b6c9d2ad1ed9bc3e7f7a0",
      "transactionIndex": "0x7",
      "blockHash": "0xb22d2036126fa1538f0ad681dd94ace8740e044069a0b2278bbbd3a881224e8b",
      "blockNumber": "0x29adf59",
      "gasUsed": "0x1391ef",
      "effectiveGasPrice": "0x7a121",
      "blobGasUsed": "0x133530",
      "from": "0x95606236867c2d3391f3dd2d3004efab08e819e4",
      "to": null,
      "contractAddress": "0xa5559859486080bc47c137534afa9f2e356c3127",
      "daFootprintGasScalar": "0x190",
      "l1BaseFeeScalar": "0x7d0",
      "l1BlobBaseFee": "0x3c214b2",
      "l1BlobBaseFeeScalar": "0xdbba0",
      "l1Fee": "0x439d90d4a6",
      "l1GasPrice": "0x4224a5c3",
      "l1GasUsed": "0xc4bd"
    },
    {
      "status": "0x1",
      "cumulativeGasUsed": "0x4e847e",
      "logs": [],
      "logsBloom": "0x00000000000000000000000000000000000000000000000000000000000000000000000000000000000000000000000000000000000000000000000000000000000000000000000000000000000000000000000000000000000000000000000000000000000000000000000000000000000000000000000000000000000000000000000000000000000000000000000000000000000000000000000000000000000000000000000000000000000000000000000000000000000000000000000000000000000000000000000000000000000000000000000000000000000000000000000000000000000000000000000000000000000000000000000000000000",
      "type": "0x2",
      "transactionHash": "0xa698cf68ee7ca311994b69c72d81cdbd0427e40f4878521e974181eb9b624cde",
      "transactionIndex": "0x8",
      "blockHash": "0xb22d2036126fa1538f0ad681dd94ace8740e044069a0b2278bbbd3a881224e8b",
      "blockNumber": "0x29adf59",
      "gasUsed": "0xcd49f",
      "effectiveGasPrice": "0x7a121",
      "blobGasUsed": "0xe2c20",
      "from": "0x95606236867c2d3391f3dd2d3004efab08e819e4",
      "to": null,
      "contractAddress": "0x4c220d4740ecf8a10caa3fb9a29e261bb49a2ee4",
      "daFootprintGasScalar": "0x190",
      "l1BaseFeeScalar": "0x7d0",
      "l1BlobBaseFee": "0x3c214b2",
      "l1BlobBaseFeeScalar": "0xdbba0",
      "l1Fee": "0x31e189627c",
      "l1GasPrice": "0x4224a5c3",
      "l1GasUsed": "0x9123"
    },
    {
      "status": "0x1",
      "cumulativeGasUsed": "0x59a07c",
      "logs": [],
      "logsBloom": "0x00000000000000000000000000000000000000000000000000000000000000000000000000000000000000000000000000000000000000000000000000000000000000000000000000000000000000000000000000000000000000000000000000000000000000000000000000000000000000000000000000000000000000000000000000000000000000000000000000000000000000000000000000000000000000000000000000000000000000000000000000000000000000000000000000000000000000000000000000000000000000000000000000000000000000000000000000000000000000000000000000000000000000000000000000000000",
      "type": "0x2",
      "transactionHash": "0x5ac7d50b1084eb383799f0733508a7706808ee13ab7c0776bfba613cb74cbc52",
      "transactionIndex": "0x9",
      "blockHash": "0xb22d2036126fa1538f0ad681dd94ace8740e044069a0b2278bbbd3a881224e8b",
      "blockNumber": "0x29adf59",
      "gasUsed": "0xb1bfe",
      "effectiveGasPrice": "0x7a121",
      "blobGasUsed": "0xb90f0",
      "from": "0x95606236867c2d3391f3dd2d3004efab08e819e4",
      "to": null,
      "contractAddress": "0x35b85061cf3549bacb53f374247675a2cc5bafb0",
      "daFootprintGasScalar": "0x190",
      "l1BaseFeeScalar": "0x7d0",
      "l1BlobBaseFee": "0x3c214b2",
      "l1BlobBaseFeeScalar": "0xdbba0",
      "l1Fee": "0x28b79ffe42",
      "l1GasPrice": "0x4224a5c3",
      "l1GasUsed": "0x7679"
    },
    {
      "status": "0x1",
      "cumulativeGasUsed": "0x3261c",
      "logs": [],
      "logsBloom": "0x00000000000000000000000000000000000000000000000000000000000000000000000000000000000000000000000000000000000000000000000000000000000000000000000000000000000000000000000000000000000000000000000000000000000000000000000000000000000000000000000000000000000000000000000000000000000000000000000000000000000000000000000000000000000000000000000000000000000000000000000000000000000000000000000000000000000000000000000000000000000000000000000000000000000000000000000000000000000000000000000000000000000000000000000000000000",
      "type": "0x2",
      "transactionHash": "0xd683d955426ae6955d7808c3f9a1b8e03165bbfde425a454d56a35a0d2416cc2",
      "transactionIndex": "0x3",
      "blockHash": "0x0000000000000000000000000000000000000000000000000000000000000000",
      "blockNumber": "0x29adf5a",
      "gasUsed": "0xabf4",
      "effectiveGasPrice": "0x7ae40",
      "blobGasUsed": "0x9c40",
      "from": "0x95606236867c2d3391f3dd2d3004efab08e819e4",
      "to": "0x4c220d4740ecf8a10caa3fb9a29e261bb49a2ee4",
      "contractAddress": null,
      "daFootprintGasScalar": "0x190",
      "l1BaseFeeScalar": "0x7d0",
      "l1BlobBaseFee": "0x3c214b2",
      "l1BlobBaseFeeScalar": "0xdbba0",
      "l1Fee": "0x2f76387ff",
      "l1GasPrice": "0x4224a5c3",
      "l1GasUsed": "0x640"
    },
    {
      "status": "0x1",
      "cumulativeGasUsed": "0x54f04",
      "logs": [
        {
          "address": "0x9232b94a366af37c3cbebabec4ee7dd565b206c0",
          "topics": [
            "0x81639ab8f3fbb025b1e08849071d6ba211e0153cc8c447680595775116b67a1a",
            "0x0000000000000000000000006b3d97f1595e40da4210ef020150b075ef2d73ae"
          ],
          "data": "0x",
          "blockHash": "0xe954cb69f38c5be375d4c6e859e602f8b71530ff3ad5328d400c5fb8145d1df5",
          "blockNumber": "0x29adf5a",
          "blockTimestamp": "0x69888ca6",
          "transactionHash": "0xcb008d403f5b3d9a9e95b804a91b1b6042eefe0e1f156d142d888f158ce9ad8f",
          "transactionIndex": "0x5",
          "logIndex": "0x2",
          "removed": false
        }
      ],
      "logsBloom": "0x00000000000000044000000000000000000000000000000000001000000000000000000000000000000000000000000000000002000000000000000000002000000000000000000000000000000000000000000000000000000000000000000000000000000000000000000000000000000000000000000000000000000000000000000000000000000000000000000000000000000000000000000000000000000000000000000000000000080000000000000000000000000000000000000000000000000000000040000000000000000000100000000000000000000000000000000000000000000000000000000000000008000000000000000000000000",
      "type": "0x2",
      "transactionHash": "0xcb008d403f5b3d9a9e95b804a91b1b6042eefe0e1f156d142d888f158ce9ad8f",
      "transactionIndex": "0x5",
      "blockHash": "0xe954cb69f38c5be375d4c6e859e602f8b71530ff3ad5328d400c5fb8145d1df5",
      "blockNumber": "0x29adf5a",
      "gasUsed": "0xb8ce",
      "effectiveGasPrice": "0x7ae40",
      "blobGasUsed": "0x9c40",
      "from": "0x95606236867c2d3391f3dd2d3004efab08e819e4",
      "to": "0x9232b94a366af37c3cbebabec4ee7dd565b206c0",
      "contractAddress": null,
      "daFootprintGasScalar": "0x190",
      "l1BaseFeeScalar": "0x7d0",
      "l1BlobBaseFee": "0x3c214b2",
      "l1BlobBaseFeeScalar": "0xdbba0",
      "l1Fee": "0x225e3bf6a",
      "l1GasPrice": "0x4224a5c3",
      "l1GasUsed": "0x640"
    },
    {
      "status": "0x1",
      "cumulativeGasUsed": "0x5bbbc",
      "logs": [
        {
          "address": "0x4200000000000000000000000000000000000006",
          "topics": [
            "0xe1fffcc4923d04b559f4d29a8bfc6cda04eb5b0d3c460751c2402c5c5cc9109c",
            "0x00000000000000000000000095606236867c2d3391f3dd2d3004efab08e819e4"
          ],
          "data": "0x00000000000000000000000000000000000000000000000000470de4df820000",
          "blockHash": "0xe954cb69f38c5be375d4c6e859e602f8b71530ff3ad5328d400c5fb8145d1df5",
          "blockNumber": "0x29adf5a",
          "blockTimestamp": "0x69888ca6",
          "transactionHash": "0x79b51669d88a91be55867af3085925d9f49e8537a81c2806d935d13ab83c94a1",
          "transactionIndex": "0x6",
          "logIndex": "0x3",
          "removed": false
        }
      ],
      "logsBloom": "0x00000001000000000000000000000000000000000040000000040000000000000000000000000000000000100000000000000000000000000000000000000000000000000000000000000000000000000000000000000000000000008000000000000000000000000000000000000000000000000000000000000000000000000000000000000000000000000000000000000001002000000000000000000000000000000000000000000000000000000000000000000000000000000000000000000000000000000000000000000000000000200000000000000000000000000000000000000000000000000000000000000000000000400000000000000000",
      "type": "0x2",
      "transactionHash": "0x79b51669d88a91be55867af3085925d9f49e8537a81c2806d935d13ab83c94a1",
      "transactionIndex": "0x6",
      "blockHash": "0xe954cb69f38c5be375d4c6e859e602f8b71530ff3ad5328d400c5fb8145d1df5",
      "blockNumber": "0x29adf5a",
      "gasUsed": "0x6cb8",
      "effectiveGasPrice": "0x7ae40",
      "blobGasUsed": "0x9c40",
      "from": "0x95606236867c2d3391f3dd2d3004efab08e819e4",
      "to": "0x4200000000000000000000000000000000000006",
      "contractAddress": null,
      "daFootprintGasScalar": "0x190",
      "l1BaseFeeScalar": "0x7d0",
      "l1BlobBaseFee": "0x3c214b2",
      "l1BlobBaseFeeScalar": "0xdbba0",
      "l1Fee": "0x225e3bf6a",
      "l1GasPrice": "0x4224a5c3",
      "l1GasUsed": "0x640"
    },
    {
      "status": "0x1",
      "cumulativeGasUsed": "0x6713d",
      "logs": [
        {
          "address": "0x4200000000000000000000000000000000000006",
          "topics": [
            "0x8c5be1e5ebec7d5bd14f71427d1e84f3dd0314c0f7b2291e5b200ac8c7c3b925",
            "0x00000000000000000000000095606236867c2d3391f3dd2d3004efab08e819e4",
            "0x0000000000000000000000006b3d97f1595e40da4210ef020150b075ef2d73ae"
          ],
          "data": "0xffffffffffffffffffffffffffffffffffffffffffffffffffffffffffffffff",
          "blockHash": "0xe954cb69f38c5be375d4c6e859e602f8b71530ff3ad5328d400c5fb8145d1df5",
          "blockNumber": "0x29adf5a",
          "blockTimestamp": "0x69888ca6",
          "transactionHash": "0x89c0b914068d59ec3a13c41b8ac8af3cc994910bd79c5c4cce021fdaf60a3d57",
          "transactionIndex": "0x7",
          "logIndex": "0x4",
          "removed": false
        }
      ],
      "logsBloom": "0x00000001000000040000000000000000000000000040000000040000000000000000000000000000000000100000000000000000000000000000000000202000000000000000000000000000000000000000000000000000000000000000000000000000000000000000000000000000000000000000000000000000000000000000000000000000000000000000000000000000002000000000000000000000020000000000000000000000000000000000000000000000000000000000000000000000000000000040000000000000000000200000000000000000000000000010000000000000000000000000000000000000000000000000000000000000",
      "type": "0x2",
      "transactionHash": "0x89c0b914068d59ec3a13c41b8ac8af3cc994910bd79c5c4cce021fdaf60a3d57",
      "transactionIndex": "0x7",
      "blockHash": "0xe954cb69f38c5be375d4c6e859e602f8b71530ff3ad5328d400c5fb8145d1df5",
      "blockNumber": "0x29adf5a",
      "gasUsed": "0xb581",
      "effectiveGasPrice": "0x7ae40",
      "blobGasUsed": "0x9c40",
      "from": "0x95606236867c2d3391f3dd2d3004efab08e819e4",
      "to": "0x4200000000000000000000000000000000000006",
      "contractAddress": null,
      "daFootprintGasScalar": "0x190",
      "l1BaseFeeScalar": "0x7d0",
      "l1BlobBaseFee": "0x3c214b2",
      "l1BlobBaseFeeScalar": "0xdbba0",
      "l1Fee": "0x225e3bf6a",
      "l1GasPrice": "0x4224a5c3",
      "l1GasUsed": "0x640"
    },
    {
      "status": "0x1",
      "cumulativeGasUsed": "0x74b26",
      "logs": [
        {
          "address": "0x31d0220469e10c4e71834a79b1f276d740d3768f",
          "topics": [
            "0x8c5be1e5ebec7d5bd14f71427d1e84f3dd0314c0f7b2291e5b200ac8c7c3b925",
            "0x00000000000000000000000095606236867c2d3391f3dd2d3004efab08e819e4",
            "0x0000000000000000000000006b3d97f1595e40da4210ef020150b075ef2d73ae"
          ],
          "data": "0xffffffffffffffffffffffffffffffffffffffffffffffffffffffffffffffff",
          "blockHash": "0x0000000000000000000000000000000000000000000000000000000000000000",
          "blockNumber": "0x29adf5a",
          "blockTimestamp": "0x69888ca6",
          "transactionHash": "0x8d3cf815fd7c1525bfb3f8b31dd1fa41cfbfe8f229508a493a72c10a7d2c3a57",
          "transactionIndex": "0x8",
          "logIndex": "0x5",
          "removed": false
        }
      ],
      "logsBloom": "0x00000001000000040000000000000000000000000040000000000000000000000000000000000000000000000000000000000000000000000000000000202000000000000000000000000000000000000000000000001000000000000000000000000000000000000000000000000000000000000000000000000000000000000000000000000000000000000000000000000000000000000000000000000000020000000001000080000000000000000000000000000000000000000000000000000000000000000040000000000000000000200000000000000000000000000010000000000000000000000000000000000000000000000000000000000000",
      "type": "0x2",
      "transactionHash": "0x8d3cf815fd7c1525bfb3f8b31dd1fa41cfbfe8f229508a493a72c10a7d2c3a57",
      "transactionIndex": "0x8",
      "blockHash": "0x0000000000000000000000000000000000000000000000000000000000000000",
      "blockNumber": "0x29adf5a",
      "gasUsed": "0xd9e9",
      "effectiveGasPrice": "0x7ae40",
      "blobGasUsed": "0x9c40",
      "from": "0x95606236867c2d3391f3dd2d3004efab08e819e4",
      "to": "0x31d0220469e10c4e71834a79b1f276d740d3768f",
      "contractAddress": null,
      "daFootprintGasScalar": "0x190",
      "l1BaseFeeScalar": "0x7d0",
      "l1BlobBaseFee": "0x3c214b2",
      "l1BlobBaseFeeScalar": "0xdbba0",
      "l1Fee": "0x2f76387ff",
      "l1GasPrice": "0x4224a5c3",
      "l1GasUsed": "0x640"
    },
    {
      "status": "0x1",
      "cumulativeGasUsed": "0x800a7",
      "logs": [
        {
          "address": "0x4200000000000000000000000000000000000006",
          "topics": [
            "0x8c5be1e5ebec7d5bd14f71427d1e84f3dd0314c0f7b2291e5b200ac8c7c3b925",
            "0x00000000000000000000000095606236867c2d3391f3dd2d3004efab08e819e4",
            "0x000000000000000000000000a5559859486080bc47c137534afa9f2e356c3127"
          ],
          "data": "0xffffffffffffffffffffffffffffffffffffffffffffffffffffffffffffffff",
          "blockHash": "0xe954cb69f38c5be375d4c6e859e602f8b71530ff3ad5328d400c5fb8145d1df5",
          "blockNumber": "0x29adf5a",
          "blockTimestamp": "0x69888ca6",
          "transactionHash": "0xe1044a505569c8fd1db6252206990319698cbf15a05fa10bc60c10778fe8b397",
          "transactionIndex": "0x9",
          "logIndex": "0x6",
          "removed": false
        }
      ],
      "logsBloom": "0x00000001000000000000000000000004000000000040000000040000000000000000000000000000000000100000000000000000000000000000000000200000000000000000000000000000000000000000000000000000000000000000000000000000000000000000000000000000000000000000000000000000000000000000000000000000000000000000000000000000002000000000000000000000020000400000000000000000000000000000000000000000000000000000000000000000000000000000000001000000000000200000000000000000000000000010000000000000000000000000000000000000000000000000000000000000",
      "type": "0x2",
      "transactionHash": "0xe1044a505569c8fd1db6252206990319698cbf15a05fa10bc60c10778fe8b397",
      "transactionIndex": "0x9",
      "blockHash": "0xe954cb69f38c5be375d4c6e859e602f8b71530ff3ad5328d400c5fb8145d1df5",
      "blockNumber": "0x29adf5a",
      "gasUsed": "0xb581",
      "effectiveGasPrice": "0x7ae40",
      "blobGasUsed": "0x9c40",
      "from": "0x95606236867c2d3391f3dd2d3004efab08e819e4",
      "to": "0x4200000000000000000000000000000000000006",
      "contractAddress": null,
      "daFootprintGasScalar": "0x190",
      "l1BaseFeeScalar": "0x7d0",
      "l1BlobBaseFee": "0x3c214b2",
      "l1BlobBaseFeeScalar": "0xdbba0",
      "l1Fee": "0x225e3bf6a",
      "l1GasPrice": "0x4224a5c3",
      "l1GasUsed": "0x640"
    },
    {
      "status": "0x1",
      "cumulativeGasUsed": "0x8da90",
      "logs": [
        {
          "address": "0x31d0220469e10c4e71834a79b1f276d740d3768f",
          "topics": [
            "0x8c5be1e5ebec7d5bd14f71427d1e84f3dd0314c0f7b2291e5b200ac8c7c3b925",
            "0x00000000000000000000000095606236867c2d3391f3dd2d3004efab08e819e4",
            "0x000000000000000000000000a5559859486080bc47c137534afa9f2e356c3127"
          ],
          "data": "0xffffffffffffffffffffffffffffffffffffffffffffffffffffffffffffffff",
          "blockHash": "0x0000000000000000000000000000000000000000000000000000000000000000",
          "blockNumber": "0x29adf5a",
          "blockTimestamp": "0x69888ca6",
          "transactionHash": "0x95b6b87fe29d0b72942f5e7f5cf77ed11e95a0128b6e7d62e3b879a11dac1be5",
          "transactionIndex": "0xa",
          "logIndex": "0x7",
          "removed": false
        }
      ],
      "logsBloom": "0x00000001000000000000000000000004000000000040000000000000000000000000000000000000000000000000000000000000000000000000000000200000000000000000000000000000000000000000000000001000000000000000000000000000000000000000000000000000000000000000000000000000000000000000000000000000000000000000000000000000000000000000000000000000020000400001000080000000000000000000000000000000000000000000000000000000000000000000000001000000000000200000000000000000000000000010000000000000000000000000000000000000000000000000000000000000",
      "type": "0x2",
      "transactionHash": "0x95b6b87fe29d0b72942f5e7f5cf77ed11e95a0128b6e7d62e3b879a11dac1be5",
      "transactionIndex": "0xa",
      "blockHash": "0x0000000000000000000000000000000000000000000000000000000000000000",
      "blockNumber": "0x29adf5a",
      "gasUsed": "0xd9e9",
      "effectiveGasPrice": "0x7ae40",
      "blobGasUsed": "0x9c40",
      "from": "0x95606236867c2d3391f3dd2d3004efab08e819e4",
      "to": "0x31d0220469e10c4e71834a79b1f276d740d3768f",
      "contractAddress": null,
      "daFootprintGasScalar": "0x190",
      "l1BaseFeeScalar": "0x7d0",
      "l1BlobBaseFee": "0x3c214b2",
      "l1BlobBaseFeeScalar": "0xdbba0",
      "l1Fee": "0x2f76387ff",
      "l1GasPrice": "0x4224a5c3",
      "l1GasUsed": "0x640"
    },
    {
      "status": "0x1",
      "cumulativeGasUsed": "0x99011",
      "logs": [
        {
          "address": "0x4200000000000000000000000000000000000006",
          "topics": [
            "0x8c5be1e5ebec7d5bd14f71427d1e84f3dd0314c0f7b2291e5b200ac8c7c3b925",
            "0x00000000000000000000000095606236867c2d3391f3dd2d3004efab08e819e4",
            "0x00000000000000000000000035b85061cf3549bacb53f374247675a2cc5bafb0"
          ],
          "data": "0xffffffffffffffffffffffffffffffffffffffffffffffffffffffffffffffff",
          "blockHash": "0xe954cb69f38c5be375d4c6e859e602f8b71530ff3ad5328d400c5fb8145d1df5",
          "blockNumber": "0x29adf5a",
          "blockTimestamp": "0x69888ca6",
          "transactionHash": "0xf788017415f338e67307ad04573707307f31b9d213d021c6182d03be4d612159",
          "transactionIndex": "0xb",
          "logIndex": "0x8",
          "removed": false
        }
      ],
      "logsBloom": "0x00000001000000000000000000000000000000000040000000040000000000000000000000000000000000100000000000000000000000000000000000200000000000000000000000000000000000000000000000000000000000000000000000000000000000000000000000000000000000000000000800000000000000000000000000000000000000000000000000000000002000000000000000000000020000040000000000000000000000000000000000000000000000000000000000000000000000000000000000000800000000200000000000000000000000000010000000000000000000000000000000000000000000000000000000000000",
      "type": "0x2",
      "transactionHash": "0xf788017415f338e67307ad04573707307f31b9d213d021c6182d03be4d612159",
      "transactionIndex": "0xb",
      "blockHash": "0xe954cb69f38c5be375d4c6e859e602f8b71530ff3ad5328d400c5fb8145d1df5",
      "blockNumber": "0x29adf5a",
      "gasUsed": "0xb581",
      "effectiveGasPrice": "0x7ae40",
      "blobGasUsed": "0x9c40",
      "from": "0x95606236867c2d3391f3dd2d3004efab08e819e4",
      "to": "0x4200000000000000000000000000000000000006",
      "contractAddress": null,
      "daFootprintGasScalar": "0x190",
      "l1BaseFeeScalar": "0x7d0",
      "l1BlobBaseFee": "0x3c214b2",
      "l1BlobBaseFeeScalar": "0xdbba0",
      "l1Fee": "0x225e3bf6a",
      "l1GasPrice": "0x4224a5c3",
      "l1GasUsed": "0x640"
    },
    {
      "status": "0x1",
      "cumulativeGasUsed": "0xa5932",
      "logs": [
        {
          "address": "0x00b036b58a818b1bc34d502d3fe730db729e62ac",
          "topics": [
            "0xdd466e674ea557f56295e2d0218a125ea4b4f0f6f3307b95f85e6110838d6438",
            "0x298f7a67a8c67b1eaba13baab6865dc94d87455f111f39ec6090cb1fc0eed800",
            "0x00000000000000000000000031d0220469e10c4e71834a79b1f276d740d3768f",
            "0x0000000000000000000000004200000000000000000000000000000000000006"
          ],
          "data": "0x0000000000000000000000000000000000000000000000000000000000000bb8000000000000000000000000000000000000000000000000000000000000003c0000000000000000000000009232b94a366af37c3cbebabec4ee7dd565b206c000000000000000000000000000000000000000010000000000000000000000000000000000000000000000000000000000000000000000000000000000000000",
          "blockHash": "0xe954cb69f38c5be375d4c6e859e602f8b71530ff3ad5328d400c5fb8145d1df5",
          "blockNumber": "0x29adf5a",
          "blockTimestamp": "0x69888ca6",
          "transactionHash": "0x5ced290edbebcea4ae26cb5497b15a6463c05269c1957c6fc0a8d85365510c32",
          "transactionIndex": "0xc",
          "logIndex": "0x9",
          "removed": false
        }
      ],
      "logsBloom": "0x00000000000000000000000000000000000000000000000000000000000008000000000000000080000000000000000000000000000000000020000000000000000000000000000000000000000000000000000000000000000000000000000000000000000000000000000000000000000010000000000000000000000000000000000000000008000000000008000000000001000000000000000000200000000000000000000000000000000000000000000000000000000000000000000000000008000004008000000000000000000000000000000000000000000000000000000000001000000000000000000000000000000402000000000000000010",
      "type": "0x2",
      "transactionHash": "0x5ced290edbebcea4ae26cb5497b15a6463c05269c1957c6fc0a8d85365510c32",
      "transactionIndex": "0xc",
      "blockHash": "0xe954cb69f38c5be375d4c6e859e602f8b71530ff3ad5328d400c5fb8145d1df5",
      "blockNumber": "0x29adf5a",
      "gasUsed": "0xc921",
      "effectiveGasPrice": "0x7ae40",
      "blobGasUsed": "0xccb0",
      "from": "0x95606236867c2d3391f3dd2d3004efab08e819e4",
      "to": "0x00b036b58a818b1bc34d502d3fe730db729e62ac",
      "contractAddress": null,
      "daFootprintGasScalar": "0x190",
      "l1BaseFeeScalar": "0x7d0",
      "l1BlobBaseFee": "0x3c214b2",
      "l1BlobBaseFeeScalar": "0xdbba0",
      "l1Fee": "0x2d29715fd",
      "l1GasPrice": "0x4224a5c3",
      "l1GasUsed": "0x836"
    },
    {
      "status": "0x1",
      "cumulativeGasUsed": "0xf2176",
      "logs": [
        {
          "address": "0x00b036b58a818b1bc34d502d3fe730db729e62ac",
          "topics": [
            "0xf208f4912782fd25c7f114ca3723a2d5dd6f3bcc3ac8db5af63baa85f711d5ec",
            "0x298f7a67a8c67b1eaba13baab6865dc94d87455f111f39ec6090cb1fc0eed800",
            "0x000000000000000000000000a5559859486080bc47c137534afa9f2e356c3127"
          ],
          "data": "0xffffffffffffffffffffffffffffffffffffffffffffffffffffffffffffff88000000000000000000000000000000000000000000000000000000000000007800000000000000000000000000000000000000000000000000000000773594000000000000000000000000000000000000000000000000000000000000000000",
          "blockHash": "0x0000000000000000000000000000000000000000000000000000000000000000",
          "blockNumber": "0x29adf5a",
          "blockTimestamp": "0x69888ca6",
          "transactionHash": "0xcbaff156f84365ab6bf95699cb6162f7251985046da9e537cb47bbe5245d7c53",
          "transactionIndex": "0xd",
          "logIndex": "0xa",
          "removed": false
        },
        {
          "address": "0x9232b94a366af37c3cbebabec4ee7dd565b206c0",
          "topics": [
            "0xbfa58399b4447e933d353f718fb884c25d8d9937694b69fac7df73e7c677fb33",
            "0x298f7a67a8c67b1eaba13baab6865dc94d87455f111f39ec6090cb1fc0eed800",
            "0x000000000000000000000000a5559859486080bc47c137534afa9f2e356c3127"
          ],
          "data": "0xffffffffffffffffffffffffffffffffffffffffffffffffffffffffffffff8800000000000000000000000000000000000000000000000000000000000000780000000000000000000000000000000000000000000000000000000000000000",
          "blockHash": "0x0000000000000000000000000000000000000000000000000000000000000000",
          "blockNumber": "0x29adf5a",
          "blockTimestamp": "0x69888ca6",
          "transactionHash": "0xcbaff156f84365ab6bf95699cb6162f7251985046da9e537cb47bbe5245d7c53",
          "transactionIndex": "0xd",
          "logIndex": "0xb",
          "removed": false
        },
        {
          "address": "0x31d0220469e10c4e71834a79b1f276d740d3768f",
          "topics": [
            "0xddf252ad1be2c89b69c2b068fc378daa952ba7f163c4a11628f55a4df523b3ef",
            "0x00000000000000000000000095606236867c2d3391f3dd2d3004efab08e819e4",
            "0x00000000000000000000000000b036b58a818b1bc34d502d3fe730db729e62ac"
          ],
          "data": "0x0000000000000000000000000000000000000000000000000000000000b68c54",
          "blockHash": "0x0000000000000000000000000000000000000000000000000000000000000000",
          "blockNumber": "0x29adf5a",
          "blockTimestamp": "0x69888ca6",
          "transactionHash": "0xcbaff156f84365ab6bf95699cb6162f7251985046da9e537cb47bbe5245d7c53",
          "transactionIndex": "0xd",
          "logIndex": "0xc",
          "removed": false
        },
        {
          "address": "0x4200000000000000000000000000000000000006",
          "topics": [
            "0xddf252ad1be2c89b69c2b068fc378daa952ba7f163c4a11628f55a4df523b3ef",
            "0x00000000000000000000000095606236867c2d3391f3dd2d3004efab08e819e4",
            "0x00000000000000000000000000b036b58a818b1bc34d502d3fe730db729e62ac"
          ],
          "data": "0x0000000000000000000000000000000000000000000000000000000000b68c54",
          "blockHash": "0x0000000000000000000000000000000000000000000000000000000000000000",
          "blockNumber": "0x29adf5a",
          "blockTimestamp": "0x69888ca6",
          "transactionHash": "0xcbaff156f84365ab6bf95699cb6162f7251985046da9e537cb47bbe5245d7c53",
          "transactionIndex": "0xd",
          "logIndex": "0xd",
          "removed": false
        }
      ],
      "logsBloom": "0x0000000100000000000000000000000400080000004000000004100000000800000000000000000000000010000000000000000200100000000000000000000000000000000000000000000800000000000000000000100000000000000000000000000000000000000000000200400000000000000000000000001000000000000000000100000000000000000800000000000000200000000000000000000000000440004100008000000000000000000000000000002000000000000000000000000a000000000000000001000000000000200000000000000000000000000000000000000000000000000000000004000008000402000000000000000010",
      "type": "0x2",
      "transactionHash": "0xcbaff156f84365ab6bf95699cb6162f7251985046da9e537cb47bbe5245d7c53",
      "transactionIndex": "0xd",
      "blockHash": "0x0000000000000000000000000000000000000000000000000000000000000000",
      "blockNumber": "0x29adf5a",
      "gasUsed": "0x4c844",
      "effectiveGasPrice": "0x7ae40",
      "blobGasUsed": "0xef10",
      "from": "0x95606236867c2d3391f3dd2d3004efab08e819e4",
      "to": "0xa5559859486080bc47c137534afa9f2e356c3127",
      "contractAddress": null,
      "daFootprintGasScalar": "0x190",
      "l1BaseFeeScalar": "0x7d0",
      "l1BlobBaseFee": "0x3c214b2",
      "l1BlobBaseFeeScalar": "0xdbba0",
      "l1Fee": "0x2f76387ff",
      "l1GasPrice": "0x4224a5c3",
      "l1GasUsed": "0x992"
    },
    {
      "status": "0x1",
      "cumulativeGasUsed": "0x122199",
      "logs": [
        {
          "address": "0x4c220d4740ecf8a10caa3fb9a29e261bb49a2ee4",
          "topics": [
            "0x69ed47713df78c91050b377d2f52abaea3dbc2bbe31c32b290c288c61ce079fc",
            "0x0000000000000000000000000000000000000000000000000000000000000000",
            "0x00000000000000000000000095606236867c2d3391f3dd2d3004efab08e819e4"
          ],
          "data": "0x00000000000000000000000000000000000000000000000000000000029adf3b00000000000000000000000000000000000000000000000000000000029adf9e",
          "blockHash": "0xe954cb69f38c5be375d4c6e859e602f8b71530ff3ad5328d400c5fb8145d1df5",
          "blockNumber": "0x29adf5a",
          "blockTimestamp": "0x69888ca6",
          "transactionHash": "0xcdda9e8c9d6138dc5bd467ef281765d5b83462f7b126d26d3e1d2c37601a0325",
          "transactionIndex": "0xe",
          "logIndex": "0xe",
          "removed": false
        }
      ],
      "logsBloom": "0x00000001000000000000000000000000000000000040000000000000000000000000000000000000000000000000000000080000000000000000000000000000000000000000000000000000000000000000000000000000000000000000000000000000020000000000000000000800000000000000000000000000000000000000000000000000000000000000004000000000000000000000000000000000000000000000000000000000000000000000000000000000200000000000000000000000000000000000000000000000000000200010000000000000000020000000002000000000000000000000000000000000080000000000000000000000",
      "type": "0x2",
      "transactionHash": "0xcdda9e8c9d6138dc5bd467ef281765d5b83462f7b126d26d3e1d2c37601a0325",
      "transactionIndex": "0xe",
      "blockHash": "0xe954cb69f38c5be375d4c6e859e602f8b71530ff3ad5328d400c5fb8145d1df5",
      "blockNumber": "0x29adf5a",
      "gasUsed": "0x30023",
      "effectiveGasPrice": "0x7ae40",
      "blobGasUsed": "0xbea0",
      "from": "0x95606236867c2d3391f3dd2d3004efab08e819e4",
      "to": "0x4c220d4740ecf8a10caa3fb9a29e261bb49a2ee4",
      "contractAddress": null,
      "daFootprintGasScalar": "0x190",
      "l1BaseFeeScalar": "0x7d0",
      "l1BlobBaseFee": "0x3c214b2",
      "l1BlobBaseFeeScalar": "0xdbba0",
      "l1Fee": "0x29ffdf939",
      "l1GasPrice": "0x4224a5c3",
      "l1GasUsed": "0x7a3"
    },
    {
      "status": "0x1",
      "cumulativeGasUsed": "0x1712f3",
      "logs": [
        {
          "address": "0x4200000000000000000000000000000000000006",
          "topics": [
            "0xddf252ad1be2c89b69c2b068fc378daa952ba7f163c4a11628f55a4df523b3ef",
            "0x00000000000000000000000095606236867c2d3391f3dd2d3004efab08e819e4",
            "0x00000000000000000000000035b85061cf3549bacb53f374247675a2cc5bafb0"
          ],
          "data": "0x0000000000000000000000000000000000000000000000000011c37937e08000",
          "blockHash": "0xe954cb69f38c5be375d4c6e859e602f8b71530ff3ad5328d400c5fb8145d1df5",
          "blockNumber": "0x29adf5a",
          "blockTimestamp": "0x69888ca6",
          "transactionHash": "0x06518d0d0fd303f8bfd20573fcda29312b4470fe06d5b05a67f91f27e96f2fe1",
          "transactionIndex": "0xf",
          "logIndex": "0xf",
          "removed": false
        },
        {
          "address": "0x4200000000000000000000000000000000000006",
          "topics": [
            "0x8c5be1e5ebec7d5bd14f71427d1e84f3dd0314c0f7b2291e5b200ac8c7c3b925",
            "0x00000000000000000000000035b85061cf3549bacb53f374247675a2cc5bafb0",
            "0x0000000000000000000000006b3d97f1595e40da4210ef020150b075ef2d73ae"
          ],
          "data": "0x0000000000000000000000000000000000000000000000000011c37937e08000",
          "blockHash": "0xe954cb69f38c5be375d4c6e859e602f8b71530ff3ad5328d400c5fb8145d1df5",
          "blockNumber": "0x29adf5a",
          "blockTimestamp": "0x69888ca6",
          "transactionHash": "0x06518d0d0fd303f8bfd20573fcda29312b4470fe06d5b05a67f91f27e96f2fe1",
          "transactionIndex": "0xf",
          "logIndex": "0x10",
          "removed": false
        },
        {
          "address": "0x00b036b58a818b1bc34d502d3fe730db729e62ac",
          "topics": [
            "0x40e9cecb9f5f1f1c5b9c97dec2917b7ee92e57ba5563708daca94dd84ad7112f",
            "0x298f7a67a8c67b1eaba13baab6865dc94d87455f111f39ec6090cb1fc0eed800",
            "0x0000000000000000000000006b3d97f1595e40da4210ef020150b075ef2d73ae"
          ],
          "data": "0x0000000000000000000000000000000000000000000000000000000000b68c53ffffffffffffffffffffffffffffffffffffffffffffffffffffffffff47ccfb0000000000000000000000000000000000000002000000000000000000000000000000000000000000000000000000000000000000000000000000000000000000000000000000000000000000000000000000000000000000000000000036270000000000000000000000000000000000000000000000000000000000000bb8",
          "blockHash": "0xe954cb69f38c5be375d4c6e859e602f8b71530ff3ad5328d400c5fb8145d1df5",
          "blockNumber": "0x29adf5a",
          "blockTimestamp": "0x69888ca6",
          "transactionHash": "0x06518d0d0fd303f8bfd20573fcda29312b4470fe06d5b05a67f91f27e96f2fe1",
          "transactionIndex": "0xf",
          "logIndex": "0x11",
          "removed": false
        },
        {
          "address": "0x9232b94a366af37c3cbebabec4ee7dd565b206c0",
          "topics": [
            "0x22421962bfaa39dd537a12f6e9a519f79eea832ac6dfd20e0dc3d125c8eac299",
            "0x298f7a67a8c67b1eaba13baab6865dc94d87455f111f39ec6090cb1fc0eed800",
            "0x0000000000000000000000006b3d97f1595e40da4210ef020150b075ef2d73ae"
          ],
          "data": "0x00000000000000000000000000000000000000000000000000000000029adf5a",
          "blockHash": "0xe954cb69f38c5be375d4c6e859e602f8b71530ff3ad5328d400c5fb8145d1df5",
          "blockNumber": "0x29adf5a",
          "blockTimestamp": "0x69888ca6",
          "transactionHash": "0x06518d0d0fd303f8bfd20573fcda29312b4470fe06d5b05a67f91f27e96f2fe1",
          "transactionIndex": "0xf",
          "logIndex": "0x12",
          "removed": false
        },
        {
          "address": "0x4200000000000000000000000000000000000006",
          "topics": [
            "0xddf252ad1be2c89b69c2b068fc378daa952ba7f163c4a11628f55a4df523b3ef",
            "0x00000000000000000000000035b85061cf3549bacb53f374247675a2cc5bafb0",
            "0x00000000000000000000000000b036b58a818b1bc34d502d3fe730db729e62ac"
          ],
          "data": "0x0000000000000000000000000000000000000000000000000000000000b83305",
          "blockHash": "0xe954cb69f38c5be375d4c6e859e602f8b71530ff3ad5328d400c5fb8145d1df5",
          "blockNumber": "0x29adf5a",
          "blockTimestamp": "0x69888ca6",
          "transactionHash": "0x06518d0d0fd303f8bfd20573fcda29312b4470fe06d5b05a67f91f27e96f2fe1",
          "transactionIndex": "0xf",
          "logIndex": "0x13",
          "removed": false
        },
        {
          "address": "0x31d0220469e10c4e71834a79b1f276d740d3768f",
          "topics": [
            "0xddf252ad1be2c89b69c2b068fc378daa952ba7f163c4a11628f55a4df523b3ef",
            "0x00000000000000000000000000b036b58a818b1bc34d502d3fe730db729e62ac",
            "0x00000000000000000000000035b85061cf3549bacb53f374247675a2cc5bafb0"
          ],
          "data": "0x0000000000000000000000000000000000000000000000000000000000b68c53",
          "blockHash": "0xe954cb69f38c5be375d4c6e859e602f8b71530ff3ad5328d400c5fb8145d1df5",
          "blockNumber": "0x29adf5a",
          "blockTimestamp": "0x69888ca6",
          "transactionHash": "0x06518d0d0fd303f8bfd20573fcda29312b4470fe06d5b05a67f91f27e96f2fe1",
          "transactionIndex": "0xf",
          "logIndex": "0x14",
          "removed": false
        },
        {
          "address": "0x4c220d4740ecf8a10caa3fb9a29e261bb49a2ee4",
          "topics": [
            "0xf0c6c99b11035113bf510013043afc18365a61a112c542b9f7491fd1574cfc5b",
            "0x0000000000000000000000000000000000000000000000000000000000000000"
          ],
          "data": "0x",
          "blockHash": "0xe954cb69f38c5be375d4c6e859e602f8b71530ff3ad5328d400c5fb8145d1df5",
          "blockNumber": "0x29adf5a",
          "blockTimestamp": "0x69888ca6",
          "transactionHash": "0x06518d0d0fd303f8bfd20573fcda29312b4470fe06d5b05a67f91f27e96f2fe1",
          "transactionIndex": "0xf",
          "logIndex": "0x15",
          "removed": false
        },
        {
          "address": "0x31d0220469e10c4e71834a79b1f276d740d3768f",
          "topics": [
            "0xddf252ad1be2c89b69c2b068fc378daa952ba7f163c4a11628f55a4df523b3ef",
            "0x00000000000000000000000035b85061cf3549bacb53f374247675a2cc5bafb0",
            "0x00000000000000000000000095606236867c2d3391f3dd2d3004efab08e819e4"
          ],
          "data": "0x0000000000000000000000000000000000000000000000000000000000b68c53",
          "blockHash": "0xe954cb69f38c5be375d4c6e859e602f8b71530ff3ad5328d400c5fb8145d1df5",
          "blockNumber": "0x29adf5a",
          "blockTimestamp": "0x69888ca6",
          "transactionHash": "0x06518d0d0fd303f8bfd20573fcda29312b4470fe06d5b05a67f91f27e96f2fe1",
          "transactionIndex": "0xf",
          "logIndex": "0x16",
          "removed": false
        }
      ],
      "logsBloom": "0x0000000100000004000000000000000080000000004000000004100000000800004000000000000000000012000000000008000204100000000000000020200000000000000000000000000800000000000040000000102000000000000000000000000002000000000000000000480000000000000000080000001000000000000000000000000000000000000800400000000000200000000000000000000002000004000100008000000000000000000000400000002000800000000000000000000a000000000040000000000800000000200010000000000000000020000010000000000000004000000000000000000008000402000000000000000010",
      "type": "0x2",
      "transactionHash": "0x06518d0d0fd303f8bfd20573fcda29312b4470fe06d5b05a67f91f27e96f2fe1",
      "transactionIndex": "0xf",
      "blockHash": "0xe954cb69f38c5be375d4c6e859e602f8b71530ff3ad5328d400c5fb8145d1df5",
      "blockNumber": "0x29adf5a",
      "gasUsed": "0x4f15a",
      "effectiveGasPrice": "0x7ae40",
      "blobGasUsed": "0xc800",
      "from": "0x95606236867c2d3391f3dd2d3004efab08e819e4",
      "to": "0x35b85061cf3549bacb53f374247675a2cc5bafb0",
      "contractAddress": null,
      "daFootprintGasScalar": "0x190",
      "l1BaseFeeScalar": "0x7d0",
      "l1BlobBaseFee": "0x3c214b2",
      "l1BlobBaseFeeScalar": "0xdbba0",
      "l1Fee": "0x2c4ca6b3b",
      "l1GasPrice": "0x4224a5c3",
      "l1GasUsed": "0x80e"
    }
  ],
  "libraries": [],
  "pending": [],
  "returns": {},
  "timestamp": 1770556582597,
  "chain": 1301,
  "commit": null
}