{
  "transactions": [
    {
      "hash": "0x2e3e26f7443dcb7cb5997587cfce276bcdffad6f394f30346ba177d604fbf0c3",
      "transactionType": "CREATE2",
      "contractName": "PrivacySwapHook",
      "contractAddress": "0x123cf503a8ab7956cb9cdb5970be07bc207b86c0",
      "function": null,
      "arguments": [
        "0x00B036B58a818B1BC34d502D3fE730Db729e62AC",
        "5",
        "0x95606236867C2D3391F3dd2D3004EFAB08e819e4"
      ],
      "transaction": {
        "from": "0x95606236867c2d3391f3dd2d3004efab08e819e4",
        "to": "0x4e59b44847b379578588920ca78fbf26c0b4956c",
        "gas": "0x1bda4c",
        "value": "0x0",
        "input": "0x000000000000000000000000000000000000000000000000000000000000027b60a060405234801561000f575f80fd5b5060405161175f38038061175f83398101604081905261002e916100df565b6001600160a01b0383166100555760405163d92e233d60e01b815260040160405180910390fd5b6001600160a01b03808416608052811661006f5733610071565b805b5f80546001600160a01b0319166001600160a01b039290921691909117905563ffffffff8216156100a257816100a5565b60015b6002805463ffffffff191663ffffffff9290921691909117905550610131915050565b6001600160a01b03811681146100dc575f80fd5b50565b5f805f606084860312156100f1575f80fd5b83516100fc816100c8565b602085015190935063ffffffff81168114610115575f80fd5b6040850151909250610126816100c8565b809150509250925092565b6080516115fa6101655f395f81816103fd015281816104760152818161069a015281816108b70152610a6101526115fa5ff3fe608060405234801561000f575f80fd5b5060043610610127575f3560e01c8063b6a8b0fa116100a9578063dc4c90d31161006e578063dc4c90d3146103f8578063dc98354e14610437578063e1b4af6914610272578063f102391c14610445578063f851a44014610458575f80fd5b8063b6a8b0fa14610272578063b9662c8314610280578063c4e833ce146102ad578063c5b7cf9e146103a1578063c646aee2146103c6575f80fd5b80636c2bbe7e116100ef5780636c2bbe7e146101d55780636fe7e6eb1461020857806375829def146102165780639f063efc14610229578063b47b2fb11461023c575f80fd5b806321d0ee701461012b57806324ca984e1461015c578063259982e514610171578063575e24b4146101845780636ae0b154146101c2575b5f80fd5b61013e610139366004610ed2565b61046a565b6040516001600160e01b031990911681526020015b60405180910390f35b61016f61016a366004610f48565b6105d3565b005b61013e61017f366004610ed2565b610672565b610197610192366004610f7a565b61068c565b604080516001600160e01b03199094168452602084019290925262ffffff1690820152606001610153565b61016f6101d0366004610f48565b6107ab565b6101e86101e3366004610fd3565b61081d565b604080516001600160e01b03199093168352602083019190915201610153565b61013e61017f366004611073565b61016f610224366004610f48565b610838565b6101e8610237366004610fd3565b6108aa565b61024f61024a3660046110ca565b610a54565b604080516001600160e01b03199093168352600f9190910b602083015201610153565b61013e61017f36600461114a565b61029f61028e3660046111a3565b60036020525f908152604090205481565b604051908152602001610153565b610394604080516101c0810182525f80825260208201819052918101829052606081018290526080810182905260a0810182905260c0810182905260e08101829052610100810182905261012081018290526101408101829052610160810182905261018081018290526101a081019190915250604080516101c0810182525f808252602082018190529181018290526001606082018190526080820181905260a0820183905260c0820181905260e0820152610100810182905261012081018290526101408101829052610160810182905261018081018290526101a081019190915290565b60405161015391906111ba565b6002546103b19063ffffffff1681565b60405163ffffffff9091168152602001610153565b6103e86103d4366004610f48565b60016020525f908152604090205460ff1681565b6040519015158152602001610153565b61041f7f000000000000000000000000000000000000000000000000000000000000000081565b6040516001600160a01b039091168152602001610153565b61013e61017f3660046112db565b61016f610453366004611335565b610b0b565b5f5461041f906001600160a01b031681565b5f336001600160a01b037f000000000000000000000000000000000000000000000000000000000000000016146104b45760405163570c108560e11b815260040160405180910390fd5b5f8460400135126104cd575063021d0ee760e41b6105ca565b5f6104e76104e03688900388018861138b565b60a0902090565b876104f56020880188611427565b6105056040890160208a01611427565b88606001356040516020016105499594939291909485526001600160a01b03939093166020850152600291820b6040850152900b6060830152608082015260a00190565b60408051601f1981840301815291815281516020928301205f8181526003909352908220549092509081900361058b575063021d0ee760e41b91506105ca9050565b60025463ffffffff1661059e8243611454565b10156105bd57604051633853638b60e01b815260040160405180910390fd5b5063021d0ee760e41b9150505b95945050505050565b5f546001600160a01b031633146105fd57604051637bfa4b9f60e01b815260040160405180910390fd5b6001600160a01b0381166106245760405163d92e233d60e01b815260040160405180910390fd5b6001600160a01b0381165f818152600160208190526040808320805460ff1916909217909155517f81639ab8f3fbb025b1e08849071d6ba211e0153cc8c447680595775116b67a1a9190a250565b5f60405163d623472560e01b815260040160405180910390fd5b5f8080336001600160a01b037f000000000000000000000000000000000000000000000000000000000000000016146106d85760405163570c108560e11b815260040160405180910390fd5b6001600160a01b0388165f90815260016020526040902054889060ff166107125760405163cec13f7b60e01b815260040160405180910390fd5b5f85900361072f576315d7892d60e21b93505f925082915061079f565b5f61073a8787610b67565b905061074581610ba5565b5f6107586104e0368c90038c018c61138b565b90506107648282610ce1565b6107815760405163f31017e560e01b815260040160405180910390fd5b61078b8243610d2f565b506315d7892d60e21b95505f945084935050505b50955095509592505050565b5f546001600160a01b031633146107d557604051637bfa4b9f60e01b815260040160405180910390fd5b6001600160a01b0381165f81815260016020526040808220805460ff19169055517fbd6d178d515bf811c86f393b42367076da766033c8ebd94ea5a7e3eaf69d1c469190a250565b5f8060405163d623472560e01b815260040160405180910390fd5b5f546001600160a01b0316331461086257604051637bfa4b9f60e01b815260040160405180910390fd5b6001600160a01b0381166108895760405163d92e233d60e01b815260040160405180910390fd5b5f80546001600160a01b0319166001600160a01b0392909216919091179055565b5f80336001600160a01b037f000000000000000000000000000000000000000000000000000000000000000016146108f55760405163570c108560e11b815260040160405180910390fd5b5f87604001351315610a3d575f6109146104e0368b90038b018b61138b565b8a61092260208b018b611427565b61093260408c0160208d01611427565b8b606001356040516020016109769594939291909485526001600160a01b03939093166020850152600291820b6040850152900b6060830152608082015260a00190565b60405160208183030381529060405280519060200120905060035f8281526020019081526020015f20545f036109b7575f8181526003602052604090204390555b6001600160a01b038a166109d36104e0368c90038c018c61138b565b7fbfa58399b4447e933d353f718fb884c25d8d9937694b69fac7df73e7c677fb33610a0160208c018c611427565b610a1160408d0160208e01611427565b60408051600293840b81529190920b60208201526060808e0135928201929092520160405180910390a3505b506327c18fbf60e21b985f98509650505050505050565b5f80336001600160a01b037f00000000000000000000000000000000000000000000000000000000000000001614610a9f5760405163570c108560e11b815260040160405180910390fd5b8215610af5576001600160a01b038816610ac16104e0368a90038a018a61138b565b6040514381527f22421962bfaa39dd537a12f6e9a519f79eea832ac6dfd20e0dc3d125c8eac2999060200160405180910390a35b5063b47b2fb160e01b975f975095505050505050565b5f546001600160a01b03163314610b3557604051637bfa4b9f60e01b815260040160405180910390fd5b63ffffffff811615610b475780610b4a565b60015b6002805463ffffffff191663ffffffff9290921691909117905550565b610b6f610dec565b5f829003610b9057604051630590793160e01b815260040160405180910390fd5b610b9c828401846114f7565b90505b92915050565b805f01516001600160401b031681602001516001600160401b031611610bde57604051631777743d60e21b815260040160405180910390fd5b80516020820151600291610bf191611591565b6001600160401b03161015610c1957604051631777743d60e21b815260040160405180910390fd5b8051602082015161010091610c2d91611591565b6001600160401b03161115610c5557604051631777743d60e21b815260040160405180910390fd5b600163ffffffff16816040015163ffffffff161080610c845750606463ffffffff16816040015163ffffffff16115b15610ca25760405163184774cd60e01b815260040160405180910390fd5b60a081015160ff161580610cc05750600460ff168160a0015160ff16115b15610cde576040516368c4312b60e11b815260040160405180910390fd5b50565b5f805b8360a0015160ff16811015610d26578284608001518260048110610d0a57610d0a6115b0565b602002015103610d1e576001915050610b9f565b600101610ce4565b505f9392505050565b81515f906001600160401b0316821015610d5c57604051637cd4c09b60e11b815260040160405180910390fd5b82602001516001600160401b0316821115610d8a57604051633c09dd1160e01b815260040160405180910390fd5b606083015163ffffffff81165f03610da6576001915050610b9f565b836040015163ffffffff168163ffffffff1684610dc39190611454565b1015610de25760405163a965618960e01b815260040160405180910390fd5b5060019392505050565b60408051610100810182525f80825260208201819052918101829052606081019190915260808101610e1c610e36565b81525f602082018190526040820181905260609091015290565b60405180608001604052806004906020820280368337509192915050565b6001600160a01b0381168114610cde575f80fd5b5f60a08284031215610e78575f80fd5b50919050565b5f60808284031215610e78575f80fd5b5f8083601f840112610e9e575f80fd5b5081356001600160401b03811115610eb4575f80fd5b602083019150836020828501011115610ecb575f80fd5b9250929050565b5f805f805f6101608688031215610ee7575f80fd5b8535610ef281610e54565b9450610f018760208801610e68565b9350610f108760c08801610e7e565b92506101408601356001600160401b03811115610f2b575f80fd5b610f3788828901610e8e565b969995985093965092949392505050565b5f60208284031215610f58575f80fd5b8135610f6381610e54565b9392505050565b5f60608284031215610e78575f80fd5b5f805f805f6101408688031215610f8f575f80fd5b8535610f9a81610e54565b9450610fa98760208801610e68565b9350610fb88760c08801610f6a565b92506101208601356001600160401b03811115610f2b575f80fd5b5f805f805f805f6101a0888a031215610fea575f80fd5b8735610ff581610e54565b96506110048960208a01610e68565b95506110138960c08a01610e7e565b9450610140880135935061016088013592506101808801356001600160401b0381111561103e575f80fd5b61104a8a828b01610e8e565b989b979a50959850939692959293505050565b8035600281900b811461106e575f80fd5b919050565b5f805f806101008587031215611087575f80fd5b843561109281610e54565b93506110a18660208701610e68565b925060c08501356110b181610e54565b91506110bf60e0860161105d565b905092959194509250565b5f805f805f8061016087890312156110e0575f80fd5b86356110eb81610e54565b95506110fa8860208901610e68565b94506111098860c08901610f6a565b935061012087013592506101408701356001600160401b0381111561112c575f80fd5b61113889828a01610e8e565b979a9699509497509295939492505050565b5f805f805f806101208789031215611160575f80fd5b863561116b81610e54565b955061117a8860208901610e68565b945060c0870135935060e087013592506101008701356001600160401b0381111561112c575f80fd5b5f602082840312156111b3575f80fd5b5035919050565b8151151581526101c0810160208301516111d8602084018215159052565b5060408301516111ec604084018215159052565b506060830151611200606084018215159052565b506080830151611214608084018215159052565b5060a083015161122860a084018215159052565b5060c083015161123c60c084018215159052565b5060e083015161125060e084018215159052565b5061010083015161126661010084018215159052565b5061012083015161127c61012084018215159052565b5061014083015161129261014084018215159052565b506101608301516112a861016084018215159052565b506101808301516112be61018084018215159052565b506101a08301516112d46101a084018215159052565b5092915050565b5f805f60e084860312156112ed575f80fd5b83356112f881610e54565b92506113078560208601610e68565b915060c084013561131781610e54565b809150509250925092565b803563ffffffff8116811461106e575f80fd5b5f60208284031215611345575f80fd5b610b9c82611322565b634e487b7160e01b5f52604160045260245ffd5b60405161010081016001600160401b03811182821017156113855761138561134e565b60405290565b5f60a082840312801561139c575f80fd5b5060405160a081016001600160401b03811182821017156113bf576113bf61134e565b60405282356113cd81610e54565b815260208301356113dd81610e54565b6020820152604083013562ffffff811681146113f7575f80fd5b60408201526114086060840161105d565b6060820152608083013561141b81610e54565b60808201529392505050565b5f60208284031215611437575f80fd5b610b9c8261105d565b634e487b7160e01b5f52601160045260245ffd5b81810381811115610b9f57610b9f611440565b80356001600160401b038116811461106e575f80fd5b5f82601f83011261148c575f80fd5b604051608081016001600160401b03811182821017156114ae576114ae61134e565b6040528060808401858111156114c2575f80fd5b845b818110156114dc5780358352602092830192016114c4565b509195945050505050565b803560ff8116811461106e575f80fd5b5f610160828403128015611509575f80fd5b50611512611362565b61151b83611467565b815261152960208401611467565b602082015261153a60408401611322565b604082015261154b60608401611322565b606082015261155d846080850161147d565b608082015261156f61010084016114e7565b60a082015261012083013560c08201526101409092013560e083015250919050565b6001600160401b038281168282160390811115610b9f57610b9f611440565b634e487b7160e01b5f52603260045260245ffdfea26469706673582212207faa4f1bcab5b9996f3add8a5958da4e2470feb61eaf9c90a6b5d0feeef52c5264736f6c634300081a003300000000000000000000000000b036b58a818b1bc34d502d3fe730db729e62ac000000000000000000000000000000000000000000000000000000000000000500000000000000000000000095606236867c2d3391f3dd2d3004efab08e819e4",
        "nonce": "0x5d",
        "chainId": "0x515"
      },
      "additionalContracts": [],
      "isFixedGasLimit": false
    },
    {
      "hash": "0x3085a812bb67db54d3d2bdde684d0171af0dfde8372b6c2a0a924868eda5f5cf",
      "transactionType": "CREATE",
      "contractName": "PoolSwapTest",
      "contractAddress": "0xc4fc2c48df2b9c52aaf6fc78af8e4f58fc7726c2",
      "function": null,
      "arguments": [
        "0x00B036B58a818B1BC34d502D3fE730Db729e62AC"
      ],
      "transaction": {
        "from": "0x95606236867c2d3391f3dd2d3004efab08e819e4",
        "gas": "0x1ac752",
        "value": "0x0",
        "input": "0x60a0604052348015600e575f80fd5b5060405161182a38038061182a833981016040819052602b91603b565b6001600160a01b03166080526066565b5f60208284031215604a575f80fd5b81516001600160a01b0381168114605f575f80fd5b9392505050565b60805161176f6100bb5f395f8181606e0152818160d7015281816101ee0152818161030001528181610888015281816108e10152818161095e015281816109b201528181610ad00152610b03015261176f5ff3fe608060405260043610610033575f3560e01c80632229d0b414610037578063481c6a751461005d57806391dd7346146100a8575b5f80fd5b61004a6100453660046112dc565b6100d4565b6040519081526020015b60405180910390f35b348015610068575f80fd5b506100907f000000000000000000000000000000000000000000000000000000000000000081565b6040516001600160a01b039091168152602001610054565b3480156100b3575f80fd5b506100c76100c236600461134d565b6101e1565b60405161005491906113e9565b5f7f00000000000000000000000000000000000000000000000000000000000000006001600160a01b03166348c894916040518060a00160405280336001600160a01b03168152602001868152602001888152602001878152602001858152506040516020016101449190611445565b6040516020818303038152906040526040518263ffffffff1660e01b815260040161016f91906113e9565b5f604051808303815f875af115801561018a573d5f803e3d5ffd5b505050506040513d5f823e601f3d908101601f191682016040526101b191908101906114d6565b8060200190518101906101c4919061154b565b90504780156101d8576101d85f3383610a04565b50949350505050565b6060336001600160a01b037f00000000000000000000000000000000000000000000000000000000000000001614610217575f80fd5b5f61022483850185611562565b90505f61023c82604001515f0151835f015130610aa9565b925050505f610257836040015160200151845f015130610aa9565b92505050815f146102af5760405162461bcd60e51b815260206004820152601e60248201527f64656c74614265666f726530206973206e6f7420657175616c20746f2030000060448201526064015b60405180910390fd5b80156102fd5760405162461bcd60e51b815260206004820152601e60248201527f64656c74614265666f726531206973206e6f7420657175616c20746f2030000060448201526064016102a6565b5f7f00000000000000000000000000000000000000000000000000000000000000006001600160a01b031663f3cd914c8560400151866060015187608001516040518463ffffffff1660e01b815260040161035a9392919061161a565b6020604051808303815f875af1158015610376573d5f803e3d5ffd5b505050506040513d601f19601f8201168201806040525081019061039a919061154b565b90505f6103b285604001515f0151865f015130610aa9565b925050505f6103cd866040015160200151875f015130610aa9565b9250505085606001515f01511561062f575f86606001516020015112156105125785606001516020015182121561047c5760405162461bcd60e51b815260206004820152604760248201527f64656c7461416674657230206973206e6f742067726561746572207468616e2060448201527f6f7220657175616c20746f20646174612e706172616d732e616d6f756e7453706064820152661958da599a595960ca1b608482015260a4016102a6565b816104878460801d90565b600f0b146104a75760405162461bcd60e51b81526004016102a690611662565b5f81121561050d5760405162461bcd60e51b815260206004820152602d60248201527f64656c7461416674657231206973206e6f742067726561746572207468616e2060448201526c06f7220657175616c20746f203609c1b60648201526084016102a6565b610878565b5f8213156105785760405162461bcd60e51b815260206004820152602d60248201527f64656c7461416674657230206973206e6f74206c657373207468616e206f722060448201526c657175616c20746f207a65726f60981b60648201526084016102a6565b8061058384600f0b90565b600f0b146105a35760405162461bcd60e51b81526004016102a6906116ad565b85606001516020015181131561050d5760405162461bcd60e51b8152602060048201526044602482018190527f64656c7461416674657231206973206e6f74206c657373207468616e206f7220908201527f657175616c20746f20646174612e706172616d732e616d6f756e745370656369606482015263199a595960e21b608482015260a4016102a6565b5f866060015160200151121561075e578560600151602001518112156106cd5760405162461bcd60e51b815260206004820152604760248201527f64656c7461416674657231206973206e6f742067726561746572207468616e2060448201527f6f7220657175616c20746f20646174612e706172616d732e616d6f756e7453706064820152661958da599a595960ca1b608482015260a4016102a6565b806106d884600f0b90565b600f0b146106f85760405162461bcd60e51b81526004016102a6906116ad565b5f82121561050d5760405162461bcd60e51b815260206004820152602d60248201527f64656c7461416674657230206973206e6f742067726561746572207468616e2060448201526c06f7220657175616c20746f203609c1b60648201526084016102a6565b5f8113156107c15760405162461bcd60e51b815260206004820152602a60248201527f64656c7461416674657231206973206e6f74206c657373207468616e206f72206044820152690657175616c20746f20360b41b60648201526084016102a6565b816107cc8460801d90565b600f0b146107ec5760405162461bcd60e51b81526004016102a690611662565b8560600151602001518213156108785760405162461bcd60e51b8152602060048201526044602482018190527f64656c7461416674657230206973206e6f74206c657373207468616e206f7220908201527f657175616c20746f20646174612e706172616d732e616d6f756e745370656369606482015263199a595960e21b608482015260a4016102a6565b5f8212156108d15785516108d1907f0000000000000000000000000000000000000000000000000000000000000000906108b1856116f8565b6020808b0151015160408b0151516001600160a01b031693929190610b35565b5f811215610936578551610936907f00000000000000000000000000000000000000000000000000000000000000009061090a846116f8565b8960200151602001518a60400151602001516001600160a01b0316610b3590949392919063ffffffff16565b5f821315610986578551602087015151604088015151610986926001600160a01b03909116917f000000000000000000000000000000000000000000000000000000000000000091908690610e01565b5f8113156109da578551602080880151516040890151909101516109da926001600160a01b03909116917f000000000000000000000000000000000000000000000000000000000000000091908590610e01565b60408051602081018590520160405160208183030381529060405296505050505050505b92915050565b5f6001600160a01b038416610a39575f805f8085875af1905080610a3457610a34835f633d2cec6f60e21b610ed3565b610aa3565b60405163a9059cbb60e01b81526001600160a01b038416600482015282602482015260205f6044835f895af13d15601f3d1160015f511416171691505f81525f60208201525f60408201525080610aa357610aa38463a9059cbb60e01b633c9fd93960e21b610ed3565b50505050565b5f8080610abf6001600160a01b03871686610f4b565b9250610af46001600160a01b0387167f0000000000000000000000000000000000000000000000000000000000000000610f4b565b9150610b2a6001600160a01b037f0000000000000000000000000000000000000000000000000000000000000000168588610fda565b905093509350939050565b8015610bca57836001600160a01b031663f5298aca84610b64886001600160a01b03166001600160a01b031690565b6040516001600160e01b031960e085901b1681526001600160a01b0390921660048301526024820152604481018590526064015b5f604051808303815f87803b158015610baf575f80fd5b505af1158015610bc1573d5f803e3d5ffd5b50505050610dfa565b6001600160a01b038516610c4157836001600160a01b03166311da60b4836040518263ffffffff1660e01b815260040160206040518083038185885af1158015610c16573d5f803e3d5ffd5b50505050506040513d601f19601f82011682018060405250810190610c3b919061154b565b50610dfa565b604051632961046560e21b81526001600160a01b03868116600483015285169063a5841194906024015f604051808303815f87803b158015610c81575f80fd5b505af1158015610c93573d5f803e3d5ffd5b505050506001600160a01b0383163014610d25576040516323b872dd60e01b81526001600160a01b0384811660048301528581166024830152604482018490528616906323b872dd906064016020604051808303815f875af1158015610cfb573d5f803e3d5ffd5b505050506040513d601f19601f82011682018060405250810190610d1f919061171e565b50610d97565b60405163a9059cbb60e01b81526001600160a01b0385811660048301526024820184905286169063a9059cbb906044016020604051808303815f875af1158015610d71573d5f803e3d5ffd5b505050506040513d601f19601f82011682018060405250810190610d95919061171e565b505b836001600160a01b03166311da60b46040518163ffffffff1660e01b81526004016020604051808303815f875af1158015610dd4573d5f803e3d5ffd5b505050506040513d601f19601f82011682018060405250810190610df8919061154b565b505b5050505050565b80610e4357604051630b0d9c0960e01b81526001600160a01b038681166004830152848116602483015260448201849052851690630b0d9c0990606401610b98565b836001600160a01b031663156e29f684610e6c886001600160a01b03166001600160a01b031690565b6040516001600160e01b031960e085901b1681526001600160a01b0390921660048301526024820152604481018590526064015f604051808303815f87803b158015610eb6575f80fd5b505af1158015610ec8573d5f803e3d5ffd5b505050505050505050565b6040516390bfb86560e01b8082526001600160a01b03851660048301526001600160e01b031984166024830152608060448301526020601f3d018190040260a0810160648401523d608484015290913d5f60a483013e60048260a4018201526001600160e01b031984168260c4018201528160e40181fd5b5f6001600160a01b038316610f6b57506001600160a01b038116316109fe565b6040516370a0823160e01b81526001600160a01b0383811660048301528416906370a0823190602401602060405180830381865afa158015610faf573d5f803e3d5ffd5b505050506040513d601f19601f82011682018060405250810190610fd3919061154b565b90506109fe565b5f806001600160a01b0384165f526001600160a01b03831660205260405f209050846001600160a01b031663f135baaa826040518263ffffffff1660e01b815260040161102991815260200190565b602060405180830381865afa158015611044573d5f803e3d5ffd5b505050506040513d601f19601f82011682018060405250810190611068919061154b565b95945050505050565b634e487b7160e01b5f52604160045260245ffd5b60405160a0810167ffffffffffffffff811182821017156110a8576110a8611071565b60405290565b604051601f8201601f1916810167ffffffffffffffff811182821017156110d7576110d7611071565b604052919050565b6001600160a01b03811681146110f3575f80fd5b50565b8035611101816110df565b919050565b5f60a08284031215611116575f80fd5b61111e611085565b9050813561112b816110df565b8152602082013561113b816110df565b6020820152604082013562ffffff81168114611155575f80fd5b60408201526060820135600281900b811461116e575f80fd5b606082015261117f608083016110f6565b608082015292915050565b80151581146110f3575f80fd5b5f606082840312156111a7575f80fd5b6040516060810167ffffffffffffffff811182821017156111ca576111ca611071565b60405290508082356111db8161118a565b81526020838101359082015260408301356111f5816110df565b6040919091015292915050565b5f60408284031215611212575f80fd5b6040805190810167ffffffffffffffff8111828210171561123557611235611071565b60405290508082356112468161118a565b815260208301356112568161118a565b6020919091015292915050565b5f67ffffffffffffffff82111561127c5761127c611071565b50601f01601f191660200190565b5f82601f830112611299575f80fd5b81356112ac6112a782611263565b6110ae565b8181528460208386010111156112c0575f80fd5b816020850160208301375f918101602001919091529392505050565b5f805f8061016085870312156112f0575f80fd5b6112fa8686611106565b93506113098660a08701611197565b9250611319866101008701611202565b915061014085013567ffffffffffffffff811115611335575f80fd5b6113418782880161128a565b91505092959194509250565b5f806020838503121561135e575f80fd5b823567ffffffffffffffff811115611374575f80fd5b8301601f81018513611384575f80fd5b803567ffffffffffffffff81111561139a575f80fd5b8560208284010111156113ab575f80fd5b6020919091019590945092505050565b5f81518084528060208401602086015e5f602082860101526020601f19601f83011685010191505092915050565b602081525f6113fb60208301846113bb565b9392505050565b80516001600160a01b03908116835260208083015182169084015260408083015162ffffff169084015260608083015160020b9084015260809182015116910152565b602080825282516001600160a01b0316828201528281015180511515604080850191909152910151151560608301528201515f906114866080840182611402565b506060830151805115156101208401526020810151610140840152604001516001600160a01b03166101608301526080830151610180808401526114ce6101a08401826113bb565b949350505050565b5f602082840312156114e6575f80fd5b815167ffffffffffffffff8111156114fc575f80fd5b8201601f8101841361150c575f80fd5b805161151a6112a782611263565b81815285602083850101111561152e575f80fd5b8160208401602083015e5f91810160200191909152949350505050565b5f6020828403121561155b575f80fd5b5051919050565b5f60208284031215611572575f80fd5b813567ffffffffffffffff811115611588575f80fd5b8201610180818503121561159a575f80fd5b6115a2611085565b81356115ad816110df565b81526115bc8560208401611202565b60208201526115ce8560608401611106565b60408201526115e1856101008401611197565b606082015261016082013567ffffffffffffffff811115611600575f80fd5b61160c8682850161128a565b608083015250949350505050565b6116248185611402565b8251151560a0820152602083015160c082015260408301516001600160a01b031660e08201526101206101008201525f6110686101208301846113bb565b6020808252602b908201527f64656c74612e616d6f756e74302829206973206e6f7420657175616c20746f2060408201526a064656c74614166746572360ac1b606082015260800190565b6020808252602b908201527f64656c74612e616d6f756e74312829206973206e6f7420657175616c20746f2060408201526a64656c746141667465723160a81b606082015260800190565b5f600160ff1b820161171857634e487b7160e01b5f52601160045260245ffd5b505f0390565b5f6020828403121561172e575f80fd5b81516113fb8161118a56fea26469706673582212204888974c54caa0e91d610f2e5af0a383adb389a33bb712ecdc5df26cdf0a97c264736f6c634300081a003300000000000000000000000000b036b58a818b1bc34d502d3fe730db729e62ac",
        "nonce": "0x5e",
        "chainId": "0x515"
      },
      "additionalContracts": [],
      "isFixedGasLimit": false
    },
    {
      "hash": "0xd871d454bffb05969f03a7007fc7be197da63a26ef83ffcc8131fa7801c3b5ae",
      "transactionType": "CREATE",
      "contractName": "PoolModifyLiquidityTest",
      "contractAddress": "0xebac7df6b8aa133ea122f7e6faf74d1e0b3c9f96",
      "function": null,
      "arguments": [
        "0x00B036B58a818B1BC34d502D3fE730Db729e62AC"
      ],
      "transaction": {
        "from": "0x95606236867c2d3391f3dd2d3004efab08e819e4",
        "gas": "0x1970e9",
        "value": "0x0",
        "input": "0x60a0604052348015600e575f80fd5b50604051611703380380611703833981016040819052602b91603b565b6001600160a01b03166080526066565b5f60208284031215604a575f80fd5b81516001600160a01b0381168114605f575f80fd5b9392505050565b60805161163a6100c95f395f818160790152818160f50152818161022d01528181610294015281816102c501528181610390015281816104fa01528181610550015281816105bf015281816106100152818161078501526107b8015261163a5ff3fe60806040526004361061003e575f3560e01c80630a5b11e414610042578063481c6a75146100685780635a6bcfda146100b357806391dd7346146100c6575b5f80fd5b61005561005036600461108b565b6100f2565b6040519081526020015b60405180910390f35b348015610073575f80fd5b5061009b7f000000000000000000000000000000000000000000000000000000000000000081565b6040516001600160a01b03909116815260200161005f565b6100556100c1366004611111565b61020a565b3480156100d1575f80fd5b506100e56100e036600461116e565b610220565b60405161005f9190611208565b5f7f00000000000000000000000000000000000000000000000000000000000000006001600160a01b03166348c894916040518060c00160405280336001600160a01b03168152602001898152602001888152602001878152602001861515815260200185151581525060405160200161016c9190611264565b6040516020818303038152906040526040518263ffffffff1660e01b81526004016101979190611208565b5f604051808303815f875af11580156101b2573d5f803e3d5ffd5b505050506040513d5f823e601f3d908101601f191682016040526101d99190810190611300565b8060200190518101906101ec9190611374565b9050478015610200576102005f3383610662565b5095945050505050565b5f6102188484845f806100f2565b949350505050565b6060336001600160a01b037f00000000000000000000000000000000000000000000000000000000000000001614610256575f80fd5b5f6102638385018561138b565b90505f6102be610278836020015160a0902090565b6040840151805160208201516060909201516001600160a01b037f0000000000000000000000000000000000000000000000000000000000000000169392309291610707565b505090505f7f00000000000000000000000000000000000000000000000000000000000000006001600160a01b0316635a6bcfda8460200151856040015186606001516040518463ffffffff1660e01b815260040161031f93929190611452565b60408051808303815f875af115801561033a573d5f803e3d5ffd5b505050506040513d601f19601f8201168201806040525081019061035e91906114a1565b5090505f6103ba610374856020015160a0902090565b6040860151805160208201516060909201516001600160a01b037f0000000000000000000000000000000000000000000000000000000000000000169392309291610707565b505090505f6103d485602001515f0151865f01513061075e565b925050505f6103ef866020015160200151875f01513061075e565b9250505082600f0b86604001516040015186600f0b61040e91906114d7565b1461045f5760405162461bcd60e51b815260206004820152601a60248201527f6c6971756964697479206368616e676520696e636f7272656374000000000000604482015260640160405180910390fd5b5f86604001516040015112156104a7575f82138061047c57505f81135b610488576104886114fe565b5f82128061049557505f81125b156104a2576104a26114fe565b6104ea565b5f86604001516040015113156104ea575f8212806104c457505f81125b6104d0576104d06114fe565b5f8213806104dd57505f81135b156104ea576104ea6114fe565b5f821215610540578551610540907f00000000000000000000000000000000000000000000000000000000000000009061052385611512565b60808a015160208b0151516001600160a01b0316939291906107ea565b5f811215610598578551610598907f00000000000000000000000000000000000000000000000000000000000000009061057984611512565b60808a01516020808c015101516001600160a01b0316939291906107ea565b5f8213156105e757855160a08701516020880151516105e7926001600160a01b03909116917f000000000000000000000000000000000000000000000000000000000000000091908690610ab6565b5f81131561063857855160a08701516020808901510151610638926001600160a01b03909116917f000000000000000000000000000000000000000000000000000000000000000091908590610ab6565b60408051602081018690520160405160208183030381529060405296505050505050505b92915050565b5f6001600160a01b038416610697575f805f8085875af190508061069257610692835f633d2cec6f60e21b610b88565b610701565b60405163a9059cbb60e01b81526001600160a01b038416600482015282602482015260205f6044835f895af13d15601f3d1160015f511416171691505f81525f60208201525f60408201525080610701576107018463a9059cbb60e01b633c9fd93960e21b610b88565b50505050565b60408051602681018390526006810184905260038101859052858152603a600c8201205f92820183905260208201839052908290528190819061074b8a8a83610c00565b919c909b50909950975050505050505050565b5f80806107746001600160a01b03871686610ca3565b92506107a96001600160a01b0387167f0000000000000000000000000000000000000000000000000000000000000000610ca3565b91506107df6001600160a01b037f0000000000000000000000000000000000000000000000000000000000000000168588610d32565b905093509350939050565b801561087f57836001600160a01b031663f5298aca84610819886001600160a01b03166001600160a01b031690565b6040516001600160e01b031960e085901b1681526001600160a01b0390921660048301526024820152604481018590526064015b5f604051808303815f87803b158015610864575f80fd5b505af1158015610876573d5f803e3d5ffd5b50505050610aaf565b6001600160a01b0385166108f657836001600160a01b03166311da60b4836040518263ffffffff1660e01b815260040160206040518083038185885af11580156108cb573d5f803e3d5ffd5b50505050506040513d601f19601f820116820180604052508101906108f09190611374565b50610aaf565b604051632961046560e21b81526001600160a01b03868116600483015285169063a5841194906024015f604051808303815f87803b158015610936575f80fd5b505af1158015610948573d5f803e3d5ffd5b505050506001600160a01b03831630146109da576040516323b872dd60e01b81526001600160a01b0384811660048301528581166024830152604482018490528616906323b872dd906064016020604051808303815f875af11580156109b0573d5f803e3d5ffd5b505050506040513d601f19601f820116820180604052508101906109d4919061152c565b50610a4c565b60405163a9059cbb60e01b81526001600160a01b0385811660048301526024820184905286169063a9059cbb906044016020604051808303815f875af1158015610a26573d5f803e3d5ffd5b505050506040513d601f19601f82011682018060405250810190610a4a919061152c565b505b836001600160a01b03166311da60b46040518163ffffffff1660e01b81526004016020604051808303815f875af1158015610a89573d5f803e3d5ffd5b505050506040513d601f19601f82011682018060405250810190610aad9190611374565b505b5050505050565b80610af857604051630b0d9c0960e01b81526001600160a01b038681166004830152848116602483015260448201849052851690630b0d9c099060640161084d565b836001600160a01b031663156e29f684610b21886001600160a01b03166001600160a01b031690565b6040516001600160e01b031960e085901b1681526001600160a01b0390921660048301526024820152604481018590526064015f604051808303815f87803b158015610b6b575f80fd5b505af1158015610b7d573d5f803e3d5ffd5b505050505050505050565b6040516390bfb86560e01b8082526001600160a01b03851660048301526001600160e01b031984166024830152608060448301526020601f3d018190040260a0810160648401523d608484015290913d5f60a483013e60048260a4018201526001600160e01b031984168260c4018201528160e40181fd5b5f805f80610c0e8686610dc9565b604051631afeb18d60e11b815260048101829052600360248201529091505f906001600160a01b038916906335fd631a906044015f60405180830381865afa158015610c5c573d5f803e3d5ffd5b505050506040513d5f823e601f3d908101601f19168201604052610c839190810190611547565b60208101516040820151606090920151909a919950975095505050505050565b5f6001600160a01b038316610cc357506001600160a01b0381163161065c565b6040516370a0823160e01b81526001600160a01b0383811660048301528416906370a0823190602401602060405180830381865afa158015610d07573d5f803e3d5ffd5b505050506040513d601f19601f82011682018060405250810190610d2b9190611374565b905061065c565b5f806001600160a01b0384165f526001600160a01b03831660205260405f209050846001600160a01b031663f135baaa826040518263ffffffff1660e01b8152600401610d8191815260200190565b602060405180830381865afa158015610d9c573d5f803e3d5ffd5b505050506040513d601f19601f82011682018060405250810190610dc09190611374565b95945050505050565b5f80610dd484610e19565b90505f610de26006836115f1565b6040805160208101879052908101829052909150606001604051602081830303815290604052805190602001209250505092915050565b6040515f90610e38908390600690602001918252602082015260400190565b604051602081830303815290604052805190602001209050919050565b634e487b7160e01b5f52604160045260245ffd5b60405160c081016001600160401b0381118282101715610e8b57610e8b610e55565b60405290565b604051601f8201601f191681016001600160401b0381118282101715610eb957610eb9610e55565b604052919050565b6001600160a01b0381168114610ed5575f80fd5b50565b8035600281900b8114610ee9575f80fd5b919050565b5f60a08284031215610efe575f80fd5b60405160a081016001600160401b0381118282101715610f2057610f20610e55565b6040529050808235610f3181610ec1565b81526020830135610f4181610ec1565b6020820152604083013562ffffff81168114610f5b575f80fd5b6040820152610f6c60608401610ed8565b60608201526080830135610f7f81610ec1565b6080919091015292915050565b5f60808284031215610f9c575f80fd5b604051608081016001600160401b0381118282101715610fbe57610fbe610e55565b604052905080610fcd83610ed8565b8152610fdb60208401610ed8565b602082015260408301356040820152606083013560608201525092915050565b5f6001600160401b0382111561101357611013610e55565b50601f01601f191660200190565b5f82601f830112611030575f80fd5b813561104361103e82610ffb565b610e91565b818152846020838601011115611057575f80fd5b816020850160208301375f918101602001919091529392505050565b8015158114610ed5575f80fd5b8035610ee981611073565b5f805f805f61018086880312156110a0575f80fd5b6110aa8787610eee565b94506110b98760a08801610f8c565b93506101208601356001600160401b038111156110d4575f80fd5b6110e088828901611021565b9350506101408601356110f281611073565b915061016086013561110381611073565b809150509295509295909350565b5f805f6101408486031215611124575f80fd5b61112e8585610eee565b925061113d8560a08601610f8c565b91506101208401356001600160401b03811115611158575f80fd5b61116486828701611021565b9150509250925092565b5f806020838503121561117f575f80fd5b82356001600160401b03811115611194575f80fd5b8301601f810185136111a4575f80fd5b80356001600160401b038111156111b9575f80fd5b8560208284010111156111ca575f80fd5b6020919091019590945092505050565b5f81518084528060208401602086015e5f602082860101526020601f19601f83011685010191505092915050565b602081525f61121a60208301846111da565b9392505050565b80516001600160a01b03908116835260208083015182169084015260408083015162ffffff169084015260608083015160020b9084015260809182015116910152565b602080825282516001600160a01b0316828201528201515f9061128a6040840182611221565b506040838101518051600290810b60e08601526020820151900b610100850152908101516101208401526060908101516101408401528301516101a06101608401526112da6101c08401826111da565b90506080840151151561018084015260a084015115156101a08401528091505092915050565b5f60208284031215611310575f80fd5b81516001600160401b03811115611325575f80fd5b8201601f81018413611335575f80fd5b805161134361103e82610ffb565b818152856020838501011115611357575f80fd5b8160208401602083015e5f91810160200191909152949350505050565b5f60208284031215611384575f80fd5b5051919050565b5f6020828403121561139b575f80fd5b81356001600160401b038111156113b0575f80fd5b82016101a081850312156113c2575f80fd5b6113ca610e69565b81356113d581610ec1565b81526113e48560208401610eee565b60208201526113f68560c08401610f8c565b60408201526101408201356001600160401b03811115611414575f80fd5b61142086828501611021565b6060830152506114336101608301611080565b60808201526114456101808301611080565b60a0820152949350505050565b61145c8185611221565b8251600290810b60a08301526020840151900b60c0820152604083015160e082015260608301516101008201526101406101208201525f610dc06101408301846111da565b5f80604083850312156114b2575f80fd5b505080516020909101519092909150565b634e487b7160e01b5f52601160045260245ffd5b8082018281125f8312801582168215821617156114f6576114f66114c3565b505092915050565b634e487b7160e01b5f52600160045260245ffd5b5f600160ff1b8201611526576115266114c3565b505f0390565b5f6020828403121561153c575f80fd5b815161121a81611073565b5f60208284031215611557575f80fd5b81516001600160401b0381111561156c575f80fd5b8201601f8101841361157c575f80fd5b80516001600160401b0381111561159557611595610e55565b8060051b6115a560208201610e91565b918252602081840181019290810190878411156115c0575f80fd5b6020850194505b838510156115e6578451808352602095860195909350909101906115c7565b979650505050505050565b8082018082111561065c5761065c6114c356fea264697066735822122099ef9e83360663d4a280cae5d097b3b1e35d86cf24a0a9d60e87c66d3e11bd1f64736f6c634300081a003300000000000000000000000000b036b58a818b1bc34d502d3fe730db729e62ac",
        "nonce": "0x5f",
        "chainId": "0x515"
      },
      "additionalContracts": [],
      "isFixedGasLimit": false
    },
    {
      "hash": "0xd46794e4f821f543134fcbdc717c12e3d7d6955cc1b4f93289238c9bc5075557",
      "transactionType": "CREATE",
      "contractName": "IntentStore",
      "contractAddress": "0xf58dfaade0d4df50eecfb0e3211ce898e68852a7",
      "function": null,
      "arguments": [
        "0x0000000000000000000000000000000000000000"
      ],
      "transaction": {
        "from": "0x95606236867c2d3391f3dd2d3004efab08e819e4",
        "gas": "0x10ae01",
        "value": "0x0",
        "input": "0x6080604052348015600e575f80fd5b50604051610ead380380610ead833981016040819052602b91604e565b5f80546001600160a01b0319166001600160a01b03929092169190911790556079565b5f60208284031215605d575f80fd5b81516001600160a01b03811681146072575f80fd5b9392505050565b610e27806100865f395ff3fe608060405234801561000f575f80fd5b506004361061007a575f3560e01c8063906e277b11610058578063906e277b146100e3578063c34c08e514610103578063ed82a00e1461012d578063f64051191461014e575f80fd5b80631c3c0ea81461007e57806346a1a095146100935780634e395e2a146100c0575b5f80fd5b61009161008c366004610a8c565b610161565b005b6100a66100a1366004610ab9565b6101eb565b6040516100b7959493929190610b81565b60405180910390f35b6100d36100ce366004610ab9565b6102e7565b60405190151581526020016100b7565b6100f66100f1366004610ab9565b610378565b6040516100b79190610bc5565b5f54610115906001600160a01b031681565b6040516001600160a01b0390911681526020016100b7565b61014061013b366004610cfc565b6104eb565b6040519081526020016100b7565b61009161015c366004610ab9565b61073f565b5f546001600160a01b0316158061018157505f546001600160a01b031633145b6101ca5760405162461bcd60e51b81526020600482015260156024820152741bdb9b1e48195e1958dd5d1bdc881bdc881a5b9a5d605a1b60448201526064015b60405180910390fd5b5f80546001600160a01b0319166001600160a01b0392909216919091179055565b600181815481106101fa575f80fd5b5f9182526020918290206040805161010081018252600c90930290910180546001600160401b038082168552600160401b8204169484019490945263ffffffff600160801b8504811684840152600160a01b909404909316606083015280516080818101909252929350909183918301906001830160048282826020028201915b81548152602001906001019080831161027b575050509183525050600582015460ff90811660208301526006830154604083015260079092015460609091015260088301546009840154600a850154600b9095015493946001600160a01b039283169491909216921685565b6001545f9082106102f957505f919050565b5f6001838154811061030d5761030d610dac565b5f9182526020909120600c90910201600b81015490915060ff161561033457505f92915050565b80546001600160401b031643101561034e57505f92915050565b8054600160401b90046001600160401b031643111561036f57505f92915050565b50600192915050565b61038061099e565b60015482106103c25760405162461bcd60e51b815260206004820152600e60248201526d1a5b9d985b1a59081a5b9d195b9d60921b60448201526064016101c1565b600182815481106103d5576103d5610dac565b5f9182526020909120604080516101a081018252600c90930290910180546001600160401b0380821660a08601908152600160401b830490911660c086015263ffffffff600160801b8304811660e0870152600160a01b9092049091166101008501528251608081019384905291928492849161012085019190600184019060049082845b81548152602001906001019080831161045a575050509183525050600582015460ff908116602080840191909152600684015460408085019190915260079094015460609384015293855260088601546001600160a01b0390811694860194909452600986015490931691840191909152600a84015490830152600b90920154909116151560809091015292915050565b5f6104f583610862565b5f821161053b5760405162461bcd60e51b81526020600482015260146024820152730616d6f756e74496e206d757374206265203e20360641b60448201526064016101c1565b50600180546040805160a0810182528581523360208083018290528284019190915260608083018790525f6080808501829052868801885596905282518051600c87027fb10e2d527612073b26eecdfd717e6a320cf44b4afac2b0732d9fcbe2b7fa0cf68101805495840151978401519484015163ffffffff908116600160a01b0263ffffffff60a01b1991909616600160801b021667ffffffffffffffff60801b196001600160401b03998a16600160401b026fffffffffffffffffffffffffffffffff199098169990941698909817959095179190911695909517919091178255948501519394919390928391610658917fb10e2d527612073b26eecdfd717e6a320cf44b4afac2b0732d9fcbe2b7fa0cf7019060046109d2565b5060a082015160058201805460ff1990811660ff90931692909217905560c0830151600683015560e0909201516007909101556020838101516008840180546001600160a01b03199081166001600160a01b039384161790915560408087015160098701805490931693169290921790556060850151600a850155608090940151600b909301805490921692151592909217905584518582015183516001600160401b039283168152911691810191909152339183917f69ed47713df78c91050b377d2f52abaea3dbc2bbe31c32b290c288c61ce079fc910160405180910390a392915050565b5f546001600160a01b031633146107885760405162461bcd60e51b815260206004820152600d60248201526c37b7363c9032bc32b1baba37b960991b60448201526064016101c1565b600154811080156107bf5750600181815481106107a7576107a7610dac565b5f9182526020909120600b600c90920201015460ff16155b6108015760405162461bcd60e51b81526020600482015260136024820152721a5b9d985b1a59081bdc88195e1958dd5d1959606a1b60448201526064016101c1565b600180828154811061081557610815610dac565b5f91825260208220600c9190910201600b01805460ff19169215159290921790915560405182917ff0c6c99b11035113bf510013043afc18365a61a112c542b9f7491fd1574cfc5b91a250565b805f01516001600160401b031681602001516001600160401b03161161089b57604051631777743d60e21b815260040160405180910390fd5b805160208201516002916108ae91610dc0565b6001600160401b031610156108d657604051631777743d60e21b815260040160405180910390fd5b80516020820151610100916108ea91610dc0565b6001600160401b0316111561091257604051631777743d60e21b815260040160405180910390fd5b600163ffffffff16816040015163ffffffff1610806109415750606463ffffffff16816040015163ffffffff16115b1561095f5760405163184774cd60e01b815260040160405180910390fd5b60a081015160ff16158061097d5750600460ff168160a0015160ff16115b1561099b576040516368c4312b60e11b815260040160405180910390fd5b50565b6040518060a001604052806109b1610a10565b81525f60208201819052604082018190526060820181905260809091015290565b8260048101928215610a00579160200282015b82811115610a005782518255916020019190600101906109e5565b50610a0c929150610a5a565b5090565b60408051610100810182525f80825260208201819052918101829052606081019190915260808101610a40610a6e565b81525f602082018190526040820181905260609091015290565b5b80821115610a0c575f8155600101610a5b565b60405180608001604052806004906020820280368337509192915050565b5f60208284031215610a9c575f80fd5b81356001600160a01b0381168114610ab2575f80fd5b9392505050565b5f60208284031215610ac9575f80fd5b5035919050565b805f5b6004811015610af2578151845260209384019390910190600101610ad3565b50505050565b6001600160401b0381511682526001600160401b0360208201511660208301526040810151610b2f604084018263ffffffff169052565b506060810151610b47606084018263ffffffff169052565b506080810151610b5a6080840182610ad0565b5060a081015160ff1661010083015260c081015161012083015260e0015161014090910152565b6101e08101610b908288610af8565b6001600160a01b03958616610160830152939094166101808501526101a084019190915215156101c090920191909152919050565b5f6101e082019050610bd8828451610af8565b60208301516001600160a01b0390811661016084015260408401511661018083015260608301516101a083015260809092015115156101c09091015290565b634e487b7160e01b5f52604160045260245ffd5b60405161010081016001600160401b0381118282101715610c4e57610c4e610c17565b60405290565b80356001600160401b0381168114610c6a575f80fd5b919050565b803563ffffffff81168114610c6a575f80fd5b5f82601f830112610c91575f80fd5b604051608081016001600160401b0381118282101715610cb357610cb3610c17565b604052806080840185811115610cc7575f80fd5b845b81811015610ce1578035835260209283019201610cc9565b509195945050505050565b803560ff81168114610c6a575f80fd5b5f80828403610180811215610d0f575f80fd5b610160811215610d1d575f80fd5b50610d26610c2b565b610d2f84610c54565b8152610d3d60208501610c54565b6020820152610d4e60408501610c6f565b6040820152610d5f60608501610c6f565b6060820152610d718560808601610c82565b6080820152610d836101008501610cec565b60a082015261012084013560c082015261014084013560e0820152946101609093013593505050565b634e487b7160e01b5f52603260045260245ffd5b6001600160401b038281168282160390811115610deb57634e487b7160e01b5f52601160045260245ffd5b9291505056fea26469706673582212204336b99c073b2ef11611ff3868404c9aeb4325e19e4eb610f5840aaac61e227964736f6c634300081a00330000000000000000000000000000000000000000000000000000000000000000",
        "nonce": "0x60",
        "chainId": "0x515"
      },
      "additionalContracts": [],
      "isFixedGasLimit": false
    },
    {
      "hash": "0x5a6794743ba966812d0aa2da61a633f8ec21f953d0c630d9c164d59b2fd9c214",
      "transactionType": "CREATE",
      "contractName": "PrivacySwapExecutor",
      "contractAddress": "0xef015210c0ceca2d35b571c916dedf4890b27e95",
      "function": null,
      "arguments": [
        "0xF58DFAadE0D4df50eEcFB0E3211Ce898e68852a7",
        "0xc4Fc2c48DF2B9c52Aaf6fc78AF8e4f58fC7726C2"
      ],
      "transaction": {
        "from": "0x95606236867c2d3391f3dd2d3004efab08e819e4",
        "gas": "0xe8dd0",
        "value": "0x0",
        "input": "0x60c060405234801561000f575f80fd5b50604051610d19380380610d1983398101604081905261002e9161005c565b6001600160a01b039182166080521660a052610094565b6001600160a01b0381168114610059575f80fd5b50565b5f806040838503121561006d575f80fd5b825161007881610045565b602084015190925061008981610045565b809150509250929050565b60805160a051610c446100d55f395f8181608b015281816102f2015261037001525f818160480152818160da0152818161018701526104770152610c445ff3fe608060405234801561000f575f80fd5b506004361061003f575f3560e01c8063368202a514610043578063c31c9c0714610086578063d9c8ec22146100ad575b5f80fd5b61006a7f000000000000000000000000000000000000000000000000000000000000000081565b6040516001600160a01b03909116815260200160405180910390f35b61006a7f000000000000000000000000000000000000000000000000000000000000000081565b6100c06100bb366004610795565b6100c2565b005b60405163906e277b60e01b8152600481018490525f907f00000000000000000000000000000000000000000000000000000000000000006001600160a01b03169063906e277b906024016101e060405180830381865afa158015610128573d5f803e3d5ffd5b505050506040513d601f19601f8201168201806040525081019061014c9190610903565b905080608001511561017157604051633b68b0fd60e01b815260040160405180910390fd5b60405163271caf1560e11b8152600481018590527f00000000000000000000000000000000000000000000000000000000000000006001600160a01b031690634e395e2a90602401602060405180830381865afa1580156101d4573d5f803e3d5ffd5b505050506040513d601f19601f820116820180604052508101906101f891906109ff565b610215576040516397e97fab60e01b815260040160405180910390fd5b805160a0842061022582826105fe565b6102425760405163f31017e560e01b815260040160405180910390fd5b61024c824361064e565b5060208501518551604085810151606087015191516323b872dd60e01b81526001600160a01b03918216600482015230602482015260448101929092528316906323b872dd906064016020604051808303815f875af11580156102b1573d5f803e3d5ffd5b505050506040513d601f19601f820116820180604052508101906102d591906109ff565b50606085015160405163095ea7b360e01b81526001600160a01b037f00000000000000000000000000000000000000000000000000000000000000008116600483015260248201929092529083169063095ea7b3906044016020604051808303815f875af1158015610349573d5f803e3d5ffd5b505050506040513d601f19601f8201168201806040525081019061036d91906109ff565b507f00000000000000000000000000000000000000000000000000000000000000006001600160a01b0316632229d0b48860405180606001604052805f1515815260200189606001516103bf90610a33565b81526001600160a01b038b166020918201526040805180820182525f80825281840152905190916103f2918b9101610a75565b6040516020818303038152906040526040518563ffffffff1660e01b81526004016104209493929190610b39565b6020604051808303815f875af115801561043c573d5f803e3d5ffd5b505050506040513d601f19601f820116820180604052508101906104609190610bd0565b5060405163f640511960e01b8152600481018990527f00000000000000000000000000000000000000000000000000000000000000006001600160a01b03169063f6405119906024015f604051808303815f87803b1580156104c0575f80fd5b505af11580156104d2573d5f803e3d5ffd5b50506040516370a0823160e01b81523060048201525f92506001600160a01b03841691506370a0823190602401602060405180830381865afa15801561051a573d5f803e3d5ffd5b505050506040513d601f19601f8201168201806040525081019061053e9190610bd0565b9050805f036105605760405163730c31bf60e11b815260040160405180910390fd5b602086015160405163a9059cbb60e01b81526001600160a01b039182166004820152602481018390529083169063a9059cbb906044016020604051808303815f875af11580156105b2573d5f803e3d5ffd5b505050506040513d601f19601f820116820180604052508101906105d691906109ff565b6105f3576040516312171d8360e31b815260040160405180910390fd5b505050505050505050565b5f805b8360a0015160ff1681101561064357828460800151826004811061062757610627610be7565b60200201510361063b576001915050610648565b600101610601565b505f90505b92915050565b81515f9067ffffffffffffffff1682101561067c57604051637cd4c09b60e11b815260040160405180910390fd5b826020015167ffffffffffffffff168211156106ab57604051633c09dd1160e01b815260040160405180910390fd5b606083015163ffffffff81165f036106c7576001915050610648565b836040015163ffffffff168163ffffffff16846106e49190610bfb565b10156107035760405163a965618960e01b815260040160405180910390fd5b5060019392505050565b634e487b7160e01b5f52604160045260245ffd5b60405160a0810167ffffffffffffffff811182821017156107445761074461070d565b60405290565b604051610100810167ffffffffffffffff811182821017156107445761074461070d565b6001600160a01b0381168114610782575f80fd5b50565b80356107908161076e565b919050565b5f805f83850360e08112156107a8575f80fd5b8435935060a0601f19820112156107bd575f80fd5b506107c6610721565b60208501356107d48161076e565b815260408501356107e48161076e565b6020820152606085013562ffffff811681146107fe575f80fd5b60408201526080850135600281900b8114610817575f80fd5b606082015261082860a08601610785565b6080820152915061083b60c08501610785565b90509250925092565b805167ffffffffffffffff81168114610790575f80fd5b805163ffffffff81168114610790575f80fd5b5f82601f83011261087d575f80fd5b6040516080810167ffffffffffffffff811182821017156108a0576108a061070d565b6040528060808401858111156108b4575f80fd5b845b818110156108ce5780518352602092830192016108b6565b509195945050505050565b805160ff81168114610790575f80fd5b80516107908161076e565b80518015158114610790575f80fd5b5f8183036101e081128015610916575f80fd5b5061091f610721565b61016082121561092d575f80fd5b61093561074a565b915061094084610844565b825261094e60208501610844565b602083015261095f6040850161085b565b60408301526109706060850161085b565b6060830152610982856080860161086e565b608083015261099461010085016108d9565b60a083015261012084015160c083015261014084015160e08301528181526109bf61016085016108e9565b60208201526109d161018085016108e9565b60408201526101a08401516060820181905291506109f26101c085016108f4565b6080820152949350505050565b5f60208284031215610a0f575f80fd5b610a18826108f4565b9392505050565b634e487b7160e01b5f52601160045260245ffd5b5f600160ff1b8201610a4757610a47610a1f565b505f0390565b805f5b6004811015610a6f578151845260209384019390910190600101610a50565b50505050565b5f6101608201905067ffffffffffffffff835116825267ffffffffffffffff60208401511660208301526040830151610ab6604084018263ffffffff169052565b506060830151610ace606084018263ffffffff169052565b506080830151610ae16080840182610a4d565b5060a083015160ff1661010083015260c083015161012083015260e0909201516101409091015290565b5f81518084528060208401602086015e5f602082860101526020601f19601f83011685010191505092915050565b84516001600160a01b03908116825260208087015182168184015260408088015162ffffff168185015260608089015160020b908501526080808901518416908501528651151560a08501529086015160c08401528501511660e082015282511515610100820152602083015115156101208201526101606101408201525f610bc6610160830184610b0b565b9695505050505050565b5f60208284031215610be0575f80fd5b5051919050565b634e487b7160e01b5f52603260045260245ffd5b8181038181111561064857610648610a1f56fea2646970667358221220cbcb1881a00fe7335755861ef1022d86485e87b189134169047ce4f560bb0fc164736f6c634300081a0033000000000000000000000000f58dfaade0d4df50eecfb0e3211ce898e68852a7000000000000000000000000c4fc2c48df2b9c52aaf6fc78af8e4f58fc7726c2",
        "nonce": "0x61",
        "chainId": "0x515"
      },
      "additionalContracts": [],
      "isFixedGasLimit": false
    },
    {
      "hash": "0xda063c58472388b4510821b24c33af9e8448d3ed588a45c9ab8586c1fafbbbe3",
      "transactionType": "CALL",
      "contractName": "IntentStore",
      "contractAddress": "0xf58dfaade0d4df50eecfb0e3211ce898e68852a7",
      "function": "setExecutor(address)",
      "arguments": [
        "0xEF015210c0CEca2d35b571c916DedF4890b27E95"
      ],
      "transaction": {
        "from": "0x95606236867c2d3391f3dd2d3004efab08e819e4",
        "to": "0xf58dfaade0d4df50eecfb0e3211ce898e68852a7",
        "gas": "0xed82",
        "value": "0x0",
        "input": "0x1c3c0ea8000000000000000000000000ef015210c0ceca2d35b571c916dedf4890b27e95",
        "nonce": "0x62",
        "chainId": "0x515"
      },
      "additionalContracts": [],
      "isFixedGasLimit": false
    },
    {
      "hash": "0x769084457233cd517d7899bd678b518279c71c1b45b2a928876cb4a36f082fc9",
      "transactionType": "CALL",
      "contractName": "PrivacySwapHook",
      "contractAddress": "0x123cf503a8ab7956cb9cdb5970be07bc207b86c0",
      "function": "addRouter(address)",
      "arguments": [
        "0xc4Fc2c48DF2B9c52Aaf6fc78AF8e4f58fC7726C2"
      ],
      "transaction": {
        "from": "0x95606236867c2d3391f3dd2d3004efab08e819e4",
        "to": "0x123cf503a8ab7956cb9cdb5970be07bc207b86c0",
        "gas": "0xff41",
        "value": "0x0",
        "input": "0x24ca984e000000000000000000000000c4fc2c48df2b9c52aaf6fc78af8e4f58fc7726c2",
        "nonce": "0x63",
        "chainId": "0x515"
      },
      "additionalContracts": [],
      "isFixedGasLimit": false
    },
    {
      "hash": "0xfbdffa00ce61c6c68b99e3e724ea9f57c8a8ffe2b83ab234e000fe30edaf43bb",
      "transactionType": "CALL",
      "contractName": "PrivacySwapHook",
      "contractAddress": "0x123cf503a8ab7956cb9cdb5970be07bc207b86c0",
      "function": "addRouter(address)",
      "arguments": [
        "0xEBAC7Df6b8aa133ea122f7E6Faf74D1e0b3C9F96"
      ],
      "transaction": {
        "from": "0x95606236867c2d3391f3dd2d3004efab08e819e4",
        "to": "0x123cf503a8ab7956cb9cdb5970be07bc207b86c0",
        "gas": "0xff41",
        "value": "0x0",
        "input": "0x24ca984e000000000000000000000000ebac7df6b8aa133ea122f7e6faf74d1e0b3c9f96",
        "nonce": "0x64",
        "chainId": "0x515"
      },
      "additionalContracts": [],
      "isFixedGasLimit": false
    },
    {
      "hash": "0x5a37e8096411fd97e9fe9066a6c5dd88abc0dc1deddcbecae73879fe72b55cec",
      "transactionType": "CALL",
      "contractName": null,
      "contractAddress": "0x4200000000000000000000000000000000000006",
      "function": null,
      "arguments": null,
      "transaction": {
        "from": "0x95606236867c2d3391f3dd2d3004efab08e819e4",
        "to": "0x4200000000000000000000000000000000000006",
        "gas": "0x962a",
        "value": "0x470de4df820000",
        "input": "0xd0e30db0",
        "nonce": "0x65",
        "chainId": "0x515"
      },
      "additionalContracts": [],
      "isFixedGasLimit": false
    },
    {
      "hash": "0x3568eff93bd4e5e224abb2fc139562124c10fda4ebea9144275ff74256ed1cc6",
      "transactionType": "CALL",
      "contractName": null,
      "contractAddress": "0x4200000000000000000000000000000000000006",
      "function": "approve(address,uint256)",
      "arguments": [
        "0xc4Fc2c48DF2B9c52Aaf6fc78AF8e4f58fC7726C2",
        "115792089237316195423570985008687907853269984665640564039457584007913129639935"
      ],
      "transaction": {
        "from": "0x95606236867c2d3391f3dd2d3004efab08e819e4",
        "to": "0x4200000000000000000000000000000000000006",
        "gas": "0x10972",
        "value": "0x0",
        "input": "0x095ea7b3000000000000000000000000c4fc2c48df2b9c52aaf6fc78af8e4f58fc7726c2ffffffffffffffffffffffffffffffffffffffffffffffffffffffffffffffff",
        "nonce": "0x66",
        "chainId": "0x515"
      },
      "additionalContracts": [],
      "isFixedGasLimit": false
    },
    {
      "hash": "0xb5fba7a10549804bc394e123233059635eb45a91842459680c4b7246b472aafe",
      "transactionType": "CALL",
      "contractName": null,
      "contractAddress": "0x31d0220469e10c4e71834a79b1f276d740d3768f",
      "function": "approve(address,uint256)",
      "arguments": [
        "0xc4Fc2c48DF2B9c52Aaf6fc78AF8e4f58fC7726C2",
        "115792089237316195423570985008687907853269984665640564039457584007913129639935"
      ],
      "transaction": {
        "from": "0x95606236867c2d3391f3dd2d3004efab08e819e4",
        "to": "0x31d0220469e10c4e71834a79b1f276d740d3768f",
        "gas": "0x13eb1",
        "value": "0x0",
        "input": "0x095ea7b3000000000000000000000000c4fc2c48df2b9c52aaf6fc78af8e4f58fc7726c2ffffffffffffffffffffffffffffffffffffffffffffffffffffffffffffffff",
        "nonce": "0x67",
        "chainId": "0x515"
      },
      "additionalContracts": [],
      "isFixedGasLimit": false
    },
    {
      "hash": "0x6eec004e5b5e6c57b7e9922c0ee3d69ef5c9c785e33105856e50a6f7841982be",
      "transactionType": "CALL",
      "contractName": null,
      "contractAddress": "0x4200000000000000000000000000000000000006",
      "function": "approve(address,uint256)",
      "arguments": [
        "0xEBAC7Df6b8aa133ea122f7E6Faf74D1e0b3C9F96",
        "115792089237316195423570985008687907853269984665640564039457584007913129639935"
      ],
      "transaction": {
        "from": "0x95606236867c2d3391f3dd2d3004efab08e819e4",
        "to": "0x4200000000000000000000000000000000000006",
        "gas": "0x10972",
        "value": "0x0",
        "input": "0x095ea7b3000000000000000000000000ebac7df6b8aa133ea122f7e6faf74d1e0b3c9f96ffffffffffffffffffffffffffffffffffffffffffffffffffffffffffffffff",
        "nonce": "0x68",
        "chainId": "0x515"
      },
      "additionalContracts": [],
      "isFixedGasLimit": false
    },
    {
      "hash": "0x762617b59f61fed468c35fed046a5390e8a0e79195bf389adcbc6dc3accd5afb",
      "transactionType": "CALL",
      "contractName": null,
      "contractAddress": "0x31d0220469e10c4e71834a79b1f276d740d3768f",
      "function": "approve(address,uint256)",
      "arguments": [
        "0xEBAC7Df6b8aa133ea122f7E6Faf74D1e0b3C9F96",
        "115792089237316195423570985008687907853269984665640564039457584007913129639935"
      ],
      "transaction": {
        "from": "0x95606236867c2d3391f3dd2d3004efab08e819e4",
        "to": "0x31d0220469e10c4e71834a79b1f276d740d3768f",
        "gas": "0x13eb1",
        "value": "0x0",
        "input": "0x095ea7b3000000000000000000000000ebac7df6b8aa133ea122f7e6faf74d1e0b3c9f96ffffffffffffffffffffffffffffffffffffffffffffffffffffffffffffffff",
        "nonce": "0x69",
        "chainId": "0x515"
      },
      "additionalContracts": [],
      "isFixedGasLimit": false
    },
    {
      "hash": "0xfba90d9e308195bdcae581349d940b0dd8c31a204e093ac3127e615a052a704c",
      "transactionType": "CALL",
      "contractName": null,
      "contractAddress": "0x4200000000000000000000000000000000000006",
      "function": "approve(address,uint256)",
      "arguments": [
        "0xEF015210c0CEca2d35b571c916DedF4890b27E95",
        "115792089237316195423570985008687907853269984665640564039457584007913129639935"
      ],
      "transaction": {
        "from": "0x95606236867c2d3391f3dd2d3004efab08e819e4",
        "to": "0x4200000000000000000000000000000000000006",
        "gas": "0x10972",
        "value": "0x0",
        "input": "0x095ea7b3000000000000000000000000ef015210c0ceca2d35b571c916dedf4890b27e95ffffffffffffffffffffffffffffffffffffffffffffffffffffffffffffffff",
        "nonce": "0x6a",
        "chainId": "0x515"
      },
      "additionalContracts": [],
      "isFixedGasLimit": false
    },
    {
      "hash": "0x977bbb48c17d5af6fbb3df5f0a6260a5ffab27816848d1d3bb3a4ad03ad19f36",
      "transactionType": "CALL",
      "contractName": null,
      "contractAddress": "0x00b036b58a818b1bc34d502d3fe730db729e62ac",
      "function": "initialize((address,address,uint24,int24,address),uint160)",
      "arguments": [
        "(0x31d0220469e10c4E71834a79b1f276d740d3768F, 0x4200000000000000000000000000000000000006, 3000, 60, 0x123cf503A8aB7956cB9cdB5970BE07bc207b86c0)",
        "79228162514264337593543950336"
      ],
      "transaction": {
        "from": "0x95606236867c2d3391f3dd2d3004efab08e819e4",
        "to": "0x00b036b58a818b1bc34d502d3fe730db729e62ac",
        "gas": "0x12626",
        "value": "0x0",
        "input": "0x6276cbbe00000000000000000000000031d0220469e10c4e71834a79b1f276d740d3768f00000000000000000000000042000000000000000000000000000000000000060000000000000000000000000000000000000000000000000000000000000bb8000000000000000000000000000000000000000000000000000000000000003c000000000000000000000000123cf503a8ab7956cb9cdb5970be07bc207b86c00000000000000000000000000000000000000001000000000000000000000000",
        "nonce": "0x6b",
        "chainId": "0x515"
      },
      "additionalContracts": [],
      "isFixedGasLimit": false
    },
    {
      "hash": "0xd8e07d3b78dc0fbb09d4d70c7bc7b980d5dc2591c37a91c3b570a7860136a14e",
      "transactionType": "CALL",
      "contractName": "PoolModifyLiquidityTest",
      "contractAddress": "0xebac7df6b8aa133ea122f7e6faf74d1e0b3c9f96",
      "function": "modifyLiquidity((address,address,uint24,int24,address),(int24,int24,int256,bytes32),bytes)",
      "arguments": [
        "(0x31d0220469e10c4E71834a79b1f276d740d3768F, 0x4200000000000000000000000000000000000006, 3000, 60, 0x123cf503A8aB7956cB9cdB5970BE07bc207b86c0)",
        "(-120, 120, 2000000000, 0x0000000000000000000000000000000000000000000000000000000000000000)",
        "0x"
      ],
      "transaction": {
        "from": "0x95606236867c2d3391f3dd2d3004efab08e819e4",
        "to": "0xebac7df6b8aa133ea122f7e6faf74d1e0b3c9f96",
        "gas": "0x69b04",
        "value": "0x0",
        "input": "0x5a6bcfda00000000000000000000000031d0220469e10c4e71834a79b1f276d740d3768f00000000000000000000000042000000000000000000000000000000000000060000000000000000000000000000000000000000000000000000000000000bb8000000000000000000000000000000000000000000000000000000000000003c000000000000000000000000123cf503a8ab7956cb9cdb5970be07bc207b86c0ffffffffffffffffffffffffffffffffffffffffffffffffffffffffffffff8800000000000000000000000000000000000000000000000000000000000000780000000000000000000000000000000000000000000000000000000077359400000000000000000000000000000000000000000000000000000000000000000000000000000000000000000000000000000000000000000000000000000001400000000000000000000000000000000000000000000000000000000000000000",
        "nonce": "0x6c",
        "chainId": "0x515"
      },
      "additionalContracts": [],
      "isFixedGasLimit": false
    },
    {
      "hash": "0xe98af87b79ce6eb4b9b73e34841715d5131fe26808cb46981534ab50a370212f",
      "transactionType": "CREATE",
      "contractName": "AddLiquidityHelper",
      "contractAddress": "0xc95236c816399d34d19b0eb7aebb81a8062cfc7f",
      "function": null,
      "arguments": [
        "0x00B036B58a818B1BC34d502D3fE730Db729e62AC",
        "0xEBAC7Df6b8aa133ea122f7E6Faf74D1e0b3C9F96",
        "0x31d0220469e10c4E71834a79b1f276d740d3768F",
        "0x4200000000000000000000000000000000000006"
      ],
      "transaction": {
        "from": "0x95606236867c2d3391f3dd2d3004efab08e819e4",
        "gas": "0x101ca6",
        "value": "0x0",
        "input": "0x610100604052348015610010575f80fd5b50604051610edc380380610edc83398101604081905261002f91610068565b6001600160a01b0393841660805291831660a052821660c0521660e0526100c4565b6001600160a01b0381168114610065575f80fd5b50565b5f805f806080858703121561007b575f80fd5b845161008681610051565b602086015190945061009781610051565b60408601519093506100a881610051565b60608601519092506100b981610051565b939692955090935050565b60805160a05160c05160e051610daf61012d5f395f81816083015281816101ce01526103fb01525f818160eb01528181610182015261034401525f818161012701528181610315015281816103cc01526104b701525f818161014e01526102420152610daf5ff3fe608060405234801561000f575f80fd5b506004361061007a575f3560e01c806379f1232b1161005857806379f1232b146100e6578063a9bf549c1461010d578063ad357c0514610122578063dc4c90d314610149575f80fd5b806310d737b81461007e578063239f3af7146100c257806347377d92146100dd575b5f80fd5b6100a57f000000000000000000000000000000000000000000000000000000000000000081565b6040516001600160a01b0390911681526020015b60405180910390f35b6100ca607881565b60405160029190910b81526020016100b9565b6100ca60771981565b6100a57f000000000000000000000000000000000000000000000000000000000000000081565b61012061011b366004610b28565b610170565b005b6100a57f000000000000000000000000000000000000000000000000000000000000000081565b6100a57f000000000000000000000000000000000000000000000000000000000000000081565b6101b26101806020850185610b80565b7f00000000000000000000000000000000000000000000000000000000000000006001600160a01b0390811691161490565b80156101fe57506101fe6101cc6040850160208601610b80565b7f00000000000000000000000000000000000000000000000000000000000000006001600160a01b0390811691161490565b61023c5760405162461bcd60e51b815260206004820152600a60248201526915dc9bdb99c81c1bdbdb60b21b60448201526064015b60405180910390fd5b5f61027f7f000000000000000000000000000000000000000000000000000000000000000061027a61027336889003880188610bbe565b60a0902090565b610538565b50505090505f6102906077196105ea565b90505f61029d60786105ea565b90505f6102ad84848489896108a2565b90505f816001600160801b0316116102f85760405162461bcd60e51b815260206004820152600e60248201526d5a65726f206c697175696469747960901b6044820152606401610233565b6040516323b872dd60e01b81523360048201526001600160a01b037f000000000000000000000000000000000000000000000000000000000000000081166024830152604482018890527f000000000000000000000000000000000000000000000000000000000000000016906323b872dd906064016020604051808303815f875af115801561038a573d5f803e3d5ffd5b505050506040513d601f19601f820116820180604052508101906103ae9190610c58565b506040516323b872dd60e01b81523360048201526001600160a01b037f000000000000000000000000000000000000000000000000000000000000000081166024830152604482018790527f000000000000000000000000000000000000000000000000000000000000000016906323b872dd906064016020604051808303815f875af1158015610441573d5f803e3d5ffd5b505050506040513d601f19601f820116820180604052508101906104659190610c58565b5060408051608081018252607719815260786020808301919091526001600160801b038416828401525f60608301819052835190815290810192839052632d35e7ed60e11b9092526001600160a01b037f00000000000000000000000000000000000000000000000000000000000000001691635a6bcfda916104ee918b919060248101610ca5565b6020604051808303815f875af115801561050a573d5f803e3d5ffd5b505050506040513d601f19601f8201168201806040525081019061052e9190610d62565b5050505050505050565b5f805f805f61054686610963565b604051631e2eaeaf60e01b8152600481018290529091505f906001600160a01b03891690631e2eaeaf90602401602060405180830381865afa15801561058e573d5f803e3d5ffd5b505050506040513d601f19601f820116820180604052508101906105b29190610d62565b90506001600160a01b03811695508060a01c60020b945062ffffff8160b81c16935062ffffff8160d01c169250505092959194509250565b60020b5f60ff82901d80830118620d89e8811115610613576106136345c3193d60e11b8461099f565b7001fffcb933bd6fad37aa2d162d1a5940016001821602600160801b18600282161561064f576ffff97272373d413259a46990580e213a0260801c5b600482161561066e576ffff2e50f5f656932ef12357cf3c7fdcc0260801c5b600882161561068d576fffe5caca7e10e4e61c3624eaa0941cd00260801c5b60108216156106ac576fffcb9843d60f6159c9db58835c9266440260801c5b60208216156106cb576fff973b41fa98c081472e6896dfb254c00260801c5b60408216156106ea576fff2ea16466c96a3843ec78b326b528610260801c5b6080821615610709576ffe5dee046a99a2a811c461f1969c30530260801c5b610100821615610729576ffcbe86c7900a88aedcffc83b479aa3a40260801c5b610200821615610749576ff987a7253ac413176f2b074cf7815e540260801c5b610400821615610769576ff3392b0822b70005940c7a398e4b70f30260801c5b610800821615610789576fe7159475a2c29b7443b29c7fa6e889d90260801c5b6110008216156107a9576fd097f3bdfd2022b8845ad8f792aa58250260801c5b6120008216156107c9576fa9f746462d870fdf8a65dc1f90e061e50260801c5b6140008216156107e9576f70d869a156d2a1b890bb3df62baf32f70260801c5b618000821615610809576f31be135f97d08fd981231505542fcfa60260801c5b6201000082161561082a576f09aa508b5b7a84e1c677de54f3e99bc90260801c5b6202000082161561084a576e5d6af8dedb81196699c329225ee6040260801c5b62040000821615610869576d2216e584f5fa1ea926041bedfe980260801c5b62080000821615610886576b048a170391f7dc42444e8fa20260801c5b5f841315610892575f19045b63ffffffff0160201c9392505050565b5f836001600160a01b0316856001600160a01b031611156108c1579293925b846001600160a01b0316866001600160a01b0316116108ec576108e58585856109ae565b905061095a565b836001600160a01b0316866001600160a01b0316101561094c575f6109128786866109ae565b90505f610920878986610a1a565b9050806001600160801b0316826001600160801b0316106109415780610943565b815b9250505061095a565b610957858584610a1a565b90505b95945050505050565b6040515f90610982908390600690602001918252602082015260400190565b604051602081830303815290604052805190602001209050919050565b815f528060020b60045260245ffd5b5f826001600160a01b0316846001600160a01b031611156109cd579192915b5f6109ef856001600160a01b0316856001600160a01b0316600160601b610a5e565b9050610a0f610a0a84838888036001600160a01b0316610a5e565b610afa565b9150505b9392505050565b5f826001600160a01b0316846001600160a01b03161115610a39579192915b610a56610a0a83600160601b8787036001600160a01b0316610a5e565b949350505050565b5f838302815f1985870982811083820303915050808411610a7d575f80fd5b805f03610a8f57508290049050610a13565b5f848688095f868103871696879004966002600389028118808a02820302808a02820302808a02820302808a02820302808a02820302808a02909103029181900381900460010186841190950394909402919094039290920491909117919091029150509392505050565b806001600160801b0381168114610b1b57610b1b6393dafdf160e01b610b20565b919050565b805f5260045ffd5b5f805f83850360e0811215610b3b575f80fd5b60a0811215610b48575f80fd5b50929460a0860135945060c08601359350915050565b6001600160a01b0381168114610b72575f80fd5b50565b8035610b1b81610b5e565b5f60208284031215610b90575f80fd5b8135610a1381610b5e565b803562ffffff81168114610b1b575f80fd5b8035600281900b8114610b1b575f80fd5b5f60a0828403128015610bcf575f80fd5b5060405160a0810167ffffffffffffffff81118282101715610bff57634e487b7160e01b5f52604160045260245ffd5b604052610c0b83610b75565b8152610c1960208401610b75565b6020820152610c2a60408401610b9b565b6040820152610c3b60608401610bad565b6060820152610c4c60808401610b75565b60808201529392505050565b5f60208284031215610c68575f80fd5b81518015158114610a13575f80fd5b5f81518084528060208401602086015e5f602082860101526020601f19601f83011685010191505092915050565b5f8435610cb181610b5e565b6001600160a01b031682526020850135610cca81610b5e565b6001600160a01b0316602083015262ffffff610ce860408701610b9b565b166040830152610cfa60608601610bad565b60020b60608301526080850135610d1081610b5e565b6001600160a01b031660808301528351600290810b60a08401526020850151900b60c0830152604084015160e0830152606084015161010083015261014061012083015261095a610140830184610c77565b5f60208284031215610d72575f80fd5b505191905056fea2646970667358221220c42be1d36b79c231e427513ce8ceed3774e31f51ce8c2582122941dd68b0517b64736f6c634300081a003300000000000000000000000000b036b58a818b1bc34d502d3fe730db729e62ac000000000000000000000000ebac7df6b8aa133ea122f7e6faf74d1e0b3c9f9600000000000000000000000031d0220469e10c4e71834a79b1f276d740d3768f0000000000000000000000004200000000000000000000000000000000000006",
        "nonce": "0x6d",
        "chainId": "0x515"
      },
      "additionalContracts": [],
      "isFixedGasLimit": false
    },
    {
      "hash": "0xe55c2fcee03984414d56d18757e0bf0cf0e8e6382bdebcfe95e0d36844e1ddff",
      "transactionType": "CALL",
      "contractName": "IntentStore",
      "contractAddress": "0xf58dfaade0d4df50eecfb0e3211ce898e68852a7",
      "function": "submitIntent((uint64,uint64,uint32,uint32,bytes32[4],uint8,uint256,bytes32),uint256)",
      "arguments": [
        "(43708028, 43708127, 1, 0, [0x941188bea7522e1393a1d9ceab28bb4449060fdfad6f826533e792afcd79060f, 0x0000000000000000000000000000000000000000000000000000000000000000, 0x0000000000000000000000000000000000000000000000000000000000000000, 0x0000000000000000000000000000000000000000000000000000000000000000], 1, 0, 0x0000000000000000000000000000000000000000000000000000000000000000)",
        "5000000000000000"
      ],
      "transaction": {
        "from": "0x95606236867c2d3391f3dd2d3004efab08e819e4",
        "to": "0xf58dfaade0d4df50eecfb0e3211ce898e68852a7",
        "gas": "0x4250c",
        "value": "0x0",
        "input": "0xed82a00e00000000000000000000000000000000000000000000000000000000029aee7c00000000000000000000000000000000000000000000000000000000029aeedf00000000000000000000000000000000000000000000000000000000000000010000000000000000000000000000000000000000000000000000000000000000941188bea7522e1393a1d9ceab28bb4449060fdfad6f826533e792afcd79060f0000000000000000000000000000000000000000000000000000000000000000000000000000000000000000000000000000000000000000000000000000000000000000000000000000000000000000000000000000000000000000000000000000000000000000000000000000000000000000000000000000000000000001000000000000000000000000000000000000000000000000000000000000000000000000000000000000000000000000000000000000000000000000000000000000000000000000000000000000000000000000000000000011c37937e08000",
        "nonce": "0x6e",
        "chainId": "0x515"
      },
      "additionalContracts": [],
      "isFixedGasLimit": false
    },
    {
      "hash": "0xea587ac113b1e142479cfccf260b80ee122b37a6f8a8f1a2388841a11027bb11",
      "transactionType": "CALL",
      "contractName": "PrivacySwapExecutor",
      "contractAddress": "0xef015210c0ceca2d35b571c916dedf4890b27e95",
      "function": "executeIntent(uint256,(address,address,uint24,int24,address),uint160)",
      "arguments": [
        "0",
        "(0x31d0220469e10c4E71834a79b1f276d740d3768F, 0x4200000000000000000000000000000000000006, 3000, 60, 0x123cf503A8aB7956cB9cdB5970BE07bc207b86c0)",
        "158456325028528675187087900672"
      ],
      "transaction": {
        "from": "0x95606236867c2d3391f3dd2d3004efab08e819e4",
        "to": "0xef015210c0ceca2d35b571c916dedf4890b27e95",
        "gas": "0x6d3c7",
        "value": "0x0",
        "input": "0xd9c8ec22000000000000000000000000000000000000000000000000000000000000000000000000000000000000000031d0220469e10c4e71834a79b1f276d740d3768f00000000000000000000000042000000000000000000000000000000000000060000000000000000000000000000000000000000000000000000000000000bb8000000000000000000000000000000000000000000000000000000000000003c000000000000000000000000123cf503a8ab7956cb9cdb5970be07bc207b86c00000000000000000000000000000000000000002000000000000000000000000",
        "nonce": "0x6f",
        "chainId": "0x515"
      },
      "additionalContracts": [],
      "isFixedGasLimit": false
    }
  ],
  "receipts": [
    {
      "status": "0x1",
      "cumulativeGasUsed": "0x16a469",
      "logs": [],
      "logsBloom": "0x00000000000000000000000000000000000000000000000000000000000000000000000000000000000000000000000000000000000000000000000000000000000000000000000000000000000000000000000000000000000000000000000000000000000000000000000000000000000000000000000000000000000000000000000000000000000000000000000000000000000000000000000000000000000000000000000000000000000000000000000000000000000000000000000000000000000000000000000000000000000000000000000000000000000000000000000000000000000000000000000000000000000000000000000000000000",
      "type": "0x2",
      "transactionHash": "0x3085a812bb67db54d3d2bdde684d0171af0dfde8372b6c2a0a924868eda5f5cf",
      "transactionIndex": "0x3",
      "blockHash": "0x2759e837166a094a5a3ab7d350289e5917b341429ed5bcc6779dae1dc10b68a5",
      "blockNumber": "0x29aee9a",
      "gasUsed": "0x142a35",
      "effectiveGasPrice": "0x7a121",
      "blobGasUsed": "0x1433e0",
      "from": "0x95606236867c2d3391f3dd2d3004efab08e819e4",
      "to": "0x4e59b44847b379578588920ca78fbf26c0b4956c",
      "contractAddress": null,
      "daFootprintGasScalar": "0x190",
      "l1BaseFeeScalar": "0x7d0",
      "l1BlobBaseFee": "0x3db9685",
      "l1BlobBaseFeeScalar": "0xdbba0",
      "l1Fee": "0x44744df38b",
      "l1GasPrice": "0x38f18a9e",
      "l1GasUsed": "0xcee1"
    },
    {
      "status": "0x1",
      "cumulativeGasUsed": "0x171387",
      "logs": [],
      "logsBloom": "0x00000000000000000000000000000000000000000000000000000000000000000000000000000000000000000000000000000000000000000000000000000000000000000000000000000000000000000000000000000000000000000000000000000000000000000000000000000000000000000000000000000000000000000000000000000000000000000000000000000000000000000000000000000000000000000000000000000000000000000000000000000000000000000000000000000000000000000000000000000000000000000000000000000000000000000000000000000000000000000000000000000000000000000000000000000000",
      "type": "0x2",
      "transactionHash": "0x977bbb48c17d5af6fbb3df5f0a6260a5ffab27816848d1d3bb3a4ad03ad19f36",
      "transactionIndex": "0x3",
      "blockHash": "0x0000000000000000000000000000000000000000000000000000000000000000",
      "blockNumber": "0x29aee9b",
      "gasUsed": "0x149953",
      "effectiveGasPrice": "0x7a121",
      "blobGasUsed": "0x122b90",
      "from": "0x95606236867c2d3391f3dd2d3004efab08e819e4",
      "to": null,
      "contractAddress": "0xc4fc2c48df2b9c52aaf6fc78af8e4f58fc7726c2",
      "daFootprintGasScalar": "0x190",
      "l1BaseFeeScalar": "0x7d0",
      "l1BlobBaseFee": "0x3db9685",
      "l1BlobBaseFeeScalar": "0xdbba0",
      "l1Fee": "0x2db1e3610",
      "l1GasPrice": "0x38f18a9e",
      "l1GasUsed": "0xba12"
    },
    {
      "status": "0x1",
      "cumulativeGasUsed": "0x2aa576",
      "logs": [],
      "logsBloom": "0x00000000000000000000000000000000000000000000000000000000000000000000000000000000000000000000000000000000000000000000000000000000000000000000000000000000000000000000000000000000000000000000000000000000000000000000000000000000000000000000000000000000000000000000000000000000000000000000000000000000000000000000000000000000000000000000000000000000000000000000000000000000000000000000000000000000000000000000000000000000000000000000000000000000000000000000000000000000000000000000000000000000000000000000000000000000",
      "type": "0x2",
      "transactionHash": "0xd871d454bffb05969f03a7007fc7be197da63a26ef83ffcc8131fa7801c3b5ae",
      "transactionIndex": "0x4",
      "blockHash": "0x0000000000000000000000000000000000000000000000000000000000000000",
      "blockNumber": "0x29aee9b",
      "gasUsed": "0x1391ef",
      "effectiveGasPrice": "0x7a121",
      "blobGasUsed": "0x133530",
      "from": "0x95606236867c2d3391f3dd2d3004efab08e819e4",
      "to": null,
      "contractAddress": "0xebac7df6b8aa133ea122f7e6faf74d1e0b3c9f96",
      "daFootprintGasScalar": "0x190",
      "l1BaseFeeScalar": "0x7d0",
      "l1BlobBaseFee": "0x3db9685",
      "l1BlobBaseFeeScalar": "0xdbba0",
      "l1Fee": "0x2db1e3610",
      "l1GasPrice": "0x38f18a9e",
      "l1GasUsed": "0xc4bd"
    },
    {
      "status": "0x1",
      "cumulativeGasUsed": "0x377a15",
      "logs": [],
      "logsBloom": "0x00000000000000000000000000000000000000000000000000000000000000000000000000000000000000000000000000000000000000000000000000000000000000000000000000000000000000000000000000000000000000000000000000000000000000000000000000000000000000000000000000000000000000000000000000000000000000000000000000000000000000000000000000000000000000000000000000000000000000000000000000000000000000000000000000000000000000000000000000000000000000000000000000000000000000000000000000000000000000000000000000000000000000000000000000000000",
      "type": "0x2",
      "transactionHash": "0x2e3e26f7443dcb7cb5997587cfce276bcdffad6f394f30346ba177d604fbf0c3",
      "transactionIndex": "0x5",
      "blockHash": "0x0000000000000000000000000000000000000000000000000000000000000000",
      "blockNumber": "0x29aee9b",
      "gasUsed": "0xcd49f",
      "effectiveGasPrice": "0x7a121",
      "blobGasUsed": "0xe2c20",
      "from": "0x95606236867c2d3391f3dd2d3004efab08e819e4",
      "to": null,
      "contractAddress": "0xf58dfaade0d4df50eecfb0e3211ce898e68852a7",
      "daFootprintGasScalar": "0x190",
      "l1BaseFeeScalar": "0x7d0",
      "l1BlobBaseFee": "0x3db9685",
      "l1BlobBaseFeeScalar": "0xdbba0",
      "l1Fee": "0x2db1e3610",
      "l1GasPrice": "0x38f18a9e",
      "l1GasUsed": "0x9123"
    },
    {
      "status": "0x1",
      "cumulativeGasUsed": "0x42ac18",
      "logs": [],
      "logsBloom": "0x00000000000000000000000000000000000000000000000000000000000000000000000000000000000000000000000000000000000000000000000000000000000000000000000000000000000000000000000000000000000000000000000000000000000000000000000000000000000000000000000000000000000000000000000000000000000000000000000000000000000000000000000000000000000000000000000000000000000000000000000000000000000000000000000000000000000000000000000000000000000000000000000000000000000000000000000000000000000000000000000000000000000000000000000000000000",
      "type": "0x2",
      "transactionHash": "0x6eec004e5b5e6c57b7e9922c0ee3d69ef5c9c785e33105856e50a6f7841982be",
      "transactionIndex": "0x6",
      "blockHash": "0x0000000000000000000000000000000000000000000000000000000000000000",
      "blockNumber": "0x29aee9b",
      "gasUsed": "0xb3203",
      "effectiveGasPrice": "0x7a121",
      "blobGasUsed": "0xba540",
      "from": "0x95606236867c2d3391f3dd2d3004efab08e819e4",
      "to": null,
      "contractAddress": "0xef015210c0ceca2d35b571c916dedf4890b27e95",
      "daFootprintGasScalar": "0x190",
      "l1BaseFeeScalar": "0x7d0",
      "l1BlobBaseFee": "0x3db9685",
      "l1BlobBaseFeeScalar": "0xdbba0",
      "l1Fee": "0x2db1e3610",
      "l1GasPrice": "0x38f18a9e",
      "l1GasUsed": "0x7742"
    },
    {
      "status": "0x1",
      "cumulativeGasUsed": "0x43580c",
      "logs": [],
      "logsBloom": "0x00000000000000000000000000000000000000000000000000000000000000000000000000000000000000000000000000000000000000000000000000000000000000000000000000000000000000000000000000000000000000000000000000000000000000000000000000000000000000000000000000000000000000000000000000000000000000000000000000000000000000000000000000000000000000000000000000000000000000000000000000000000000000000000000000000000000000000000000000000000000000000000000000000000000000000000000000000000000000000000000000000000000000000000000000000000",
      "type": "0x2",
      "transactionHash": "0x5a37e8096411fd97e9fe9066a6c5dd88abc0dc1deddcbecae73879fe72b55cec",
      "transactionIndex": "0x7",
      "blockHash": "0x0000000000000000000000000000000000000000000000000000000000000000",
      "blockNumber": "0x29aee9b",
      "gasUsed": "0xabf4",
      "effectiveGasPrice": "0x7a121",
      "blobGasUsed": "0x9c40",
      "from": "0x95606236867c2d3391f3dd2d3004efab08e819e4",
      "to": "0xf58dfaade0d4df50eecfb0e3211ce898e68852a7",
      "contractAddress": null,
      "daFootprintGasScalar": "0x190",
      "l1BaseFeeScalar": "0x7d0",
      "l1BlobBaseFee": "0x3db9685",
      "l1BlobBaseFeeScalar": "0xdbba0",
      "l1Fee": "0x2db1e3610",
      "l1GasPrice": "0x38f18a9e",
      "l1GasUsed": "0x640"
    },
    {
      "status": "0x1",
      "cumulativeGasUsed": "0x4410da",
      "logs": [
        {
          "address": "0x123cf503a8ab7956cb9cdb5970be07bc207b86c0",
          "topics": [
            "0x81639ab8f3fbb025b1e08849071d6ba211e0153cc8c447680595775116b67a1a",
            "0x000000000000000000000000c4fc2c48df2b9c52aaf6fc78af8e4f58fc7726c2"
          ],
          "data": "0x",
          "blockHash": "0x0000000000000000000000000000000000000000000000000000000000000000",
          "blockNumber": "0x29aee9b",
          "blockTimestamp": "0x69889be7",
          "transactionHash": "0xb5fba7a10549804bc394e123233059635eb45a91842459680c4b7246b472aafe",
          "transactionIndex": "0x8",
          "logIndex": "0x1",
          "removed": false
        }
      ],
      "logsBloom": "0x00000000000000004000000000000000000000000400000000000000000000000000000000000000000000000000000000000000000000000000000000000000000000000000000400000000000000000000000000000000000000000000000000000000000000000000000000000000000000000000000000000000000000000000000000000000000000000000000000000000000000000000020000000000000000000000000000000000080000000000000000000000000000000000000000000040000000000000000000000000000000100004000000000000000000000000000000000000000000000010000000000000000000000000000000000000",
      "type": "0x2",
      "transactionHash": "0xb5fba7a10549804bc394e123233059635eb45a91842459680c4b7246b472aafe",
      "transactionIndex": "0x8",
      "blockHash": "0x0000000000000000000000000000000000000000000000000000000000000000",
      "blockNumber": "0x29aee9b",
      "gasUsed": "0xb8ce",
      "effectiveGasPrice": "0x7a121",
      "blobGasUsed": "0x9c40",
      "from": "0x95606236867c2d3391f3dd2d3004efab08e819e4",
      "to": "0x123cf503a8ab7956cb9cdb5970be07bc207b86c0",
      "contractAddress": null,
      "daFootprintGasScalar": "0x190",
      "l1BaseFeeScalar": "0x7d0",
      "l1BlobBaseFee": "0x3db9685",
      "l1BlobBaseFeeScalar": "0xdbba0",
      "l1Fee": "0x2db1e3610",
      "l1GasPrice": "0x38f18a9e",
      "l1GasUsed": "0x640"
    },
    {
      "status": "0x1",
      "cumulativeGasUsed": "0x44c9a8",
      "logs": [
        {
          "address": "0x123cf503a8ab7956cb9cdb5970be07bc207b86c0",
          "topics": [
            "0x81639ab8f3fbb025b1e08849071d6ba211e0153cc8c447680595775116b67a1a",
            "0x000000000000000000000000ebac7df6b8aa133ea122f7e6faf74d1e0b3c9f96"
          ],
          "data": "0x",
          "blockHash": "0x0000000000000000000000000000000000000000000000000000000000000000",
          "blockNumber": "0x29aee9b",
          "blockTimestamp": "0x69889be7",
          "transactionHash": "0xfbdffa00ce61c6c68b99e3e724ea9f57c8a8ffe2b83ab234e000fe30edaf43bb",
          "transactionIndex": "0x9",
          "logIndex": "0x2",
          "removed": false
        }
      ],
      "logsBloom": "0x00000000000000004000000000000000000000000000000000000000000000000000000000080000000000000000000000000000000000000000000000000000000000000000000000000000000000000000000000000000000000004000000000000000000000000000000000000000000000000000000000000000000000000000000000000000000000000080000000000000000000000000020000000000000000000000000000000000080000000000000000000000000000000000000000000000000000000000000000000000000000100004000000000000000000000000000000000000000000000010000000000000000000000000000000000000",
      "type": "0x2",
      "transactionHash": "0xfbdffa00ce61c6c68b99e3e724ea9f57c8a8ffe2b83ab234e000fe30edaf43bb",
      "transactionIndex": "0x9",
      "blockHash": "0x0000000000000000000000000000000000000000000000000000000000000000",
      "blockNumber": "0x29aee9b",
      "gasUsed": "0xb8ce",
      "effectiveGasPrice": "0x7a121",
      "blobGasUsed": "0x9c40",
      "from": "0x95606236867c2d3391f3dd2d3004efab08e819e4",
      "to": "0x123cf503a8ab7956cb9cdb5970be07bc207b86c0",
      "contractAddress": null,
      "daFootprintGasScalar": "0x190",
      "l1BaseFeeScalar": "0x7d0",
      "l1BlobBaseFee": "0x3db9685",
      "l1BlobBaseFeeScalar": "0xdbba0",
      "l1Fee": "0x2db1e3610",
      "l1GasPrice": "0x38f18a9e",
      "l1GasUsed": "0x640"
    },
    {
      "status": "0x1",
      "cumulativeGasUsed": "0x453660",
      "logs": [
        {
          "address": "0x4200000000000000000000000000000000000006",
          "topics": [
            "0xe1fffcc4923d04b559f4d29a8bfc6cda04eb5b0d3c460751c2402c5c5cc9109c",
            "0x00000000000000000000000095606236867c2d3391f3dd2d3004efab08e819e4"
          ],
          "data": "0x00000000000000000000000000000000000000000000000000470de4df820000",
          "blockHash": "0x0000000000000000000000000000000000000000000000000000000000000000",
          "blockNumber": "0x29aee9b",
          "blockTimestamp": "0x69889be7",
          "transactionHash": "0xd46794e4f821f543134fcbdc717c12e3d7d6955cc1b4f93289238c9bc5075557",
          "transactionIndex": "0xa",
          "logIndex": "0x3",
          "removed": false
        }
      ],
      "logsBloom": "0x00000001000000000000000000000000000000000040000000040000000000000000000000000000000000100000000000000000000000000000000000000000000000000000000000000000000000000000000000000000000000008000000000000000000000000000000000000000000000000000000000000000000000000000000000000000000000000000000000000001002000000000000000000000000000000000000000000000000000000000000000000000000000000000000000000000000000000000000000000000000000200000000000000000000000000000000000000000000000000000000000000000000000400000000000000000",
      "type": "0x2",
      "transactionHash": "0xd46794e4f821f543134fcbdc717c12e3d7d6955cc1b4f93289238c9bc5075557",
      "transactionIndex": "0xa",
      "blockHash": "0x0000000000000000000000000000000000000000000000000000000000000000",
      "blockNumber": "0x29aee9b",
      "gasUsed": "0x6cb8",
      "effectiveGasPrice": "0x7a121",
      "blobGasUsed": "0x9c40",
      "from": "0x95606236867c2d3391f3dd2d3004efab08e819e4",
      "to": "0x4200000000000000000000000000000000000006",
      "contractAddress": null,
      "daFootprintGasScalar": "0x190",
      "l1BaseFeeScalar": "0x7d0",
      "l1BlobBaseFee": "0x3db9685",
      "l1BlobBaseFeeScalar": "0xdbba0",
      "l1Fee": "0x2db1e3610",
      "l1GasPrice": "0x38f18a9e",
      "l1GasUsed": "0x640"
    },
    {
      "status": "0x1",
      "cumulativeGasUsed": "0x45ebe1",
      "logs": [
        {
          "address": "0x4200000000000000000000000000000000000006",
          "topics": [
            "0x8c5be1e5ebec7d5bd14f71427d1e84f3dd0314c0f7b2291e5b200ac8c7c3b925",
            "0x00000000000000000000000095606236867c2d3391f3dd2d3004efab08e819e4",
            "0x000000000000000000000000c4fc2c48df2b9c52aaf6fc78af8e4f58fc7726c2"
          ],
          "data": "0xffffffffffffffffffffffffffffffffffffffffffffffffffffffffffffffff",
          "blockHash": "0x689c5c441a156b8beea1b3bd02844fd21439b8df255335fae85c8f12a5552d51",
          "blockNumber": "0x29aee9b",
          "blockTimestamp": "0x69889be7",
          "transactionHash": "0xd8e07d3b78dc0fbb09d4d70c7bc7b980d5dc2591c37a91c3b570a7860136a14e",
          "transactionIndex": "0xb",
          "logIndex": "0x4",
          "removed": false
        }
      ],
      "logsBloom": "0x00000001000000000000000000000000000000000440000000040000000000000000000000000000000000100000000000000000000000000000000000200000000000000000000400000000000000000000000000000000000000000000000000000000000000000000000000000000000000000000000000000000000000000000000000000000000000000000000000000000002000000000000000000000020000000000000000000000000000000000000000000000000000000000000000000040000000000000000000000000000000200000000000000000000000000010000000000000000000000000000000000000000000000000000000000000",
      "type": "0x2",
      "transactionHash": "0xd8e07d3b78dc0fbb09d4d70c7bc7b980d5dc2591c37a91c3b570a7860136a14e",
      "transactionIndex": "0xb",
      "blockHash": "0x689c5c441a156b8beea1b3bd02844fd21439b8df255335fae85c8f12a5552d51",
      "blockNumber": "0x29aee9b",
      "gasUsed": "0xb581",
      "effectiveGasPrice": "0x7a121",
      "blobGasUsed": "0x9c40",
      "from": "0x95606236867c2d3391f3dd2d3004efab08e819e4",
      "to": "0x4200000000000000000000000000000000000006",
      "contractAddress": null,
      "daFootprintGasScalar": "0x190",
      "l1BaseFeeScalar": "0x7d0",
      "l1BlobBaseFee": "0x3db9685",
      "l1BlobBaseFeeScalar": "0xdbba0",
      "l1Fee": "0x2116b0cbb",
      "l1GasPrice": "0x38f18a9e",
      "l1GasUsed": "0x640"
    },
    {
      "status": "0x1",
      "cumulativeGasUsed": "0x46c5ca",
      "logs": [
        {
          "address": "0x31d0220469e10c4e71834a79b1f276d740d3768f",
          "topics": [
            "0x8c5be1e5ebec7d5bd14f71427d1e84f3dd0314c0f7b2291e5b200ac8c7c3b925",
            "0x00000000000000000000000095606236867c2d3391f3dd2d3004efab08e819e4",
            "0x000000000000000000000000c4fc2c48df2b9c52aaf6fc78af8e4f58fc7726c2"
          ],
          "data": "0xffffffffffffffffffffffffffffffffffffffffffffffffffffffffffffffff",
          "blockHash": "0x689c5c441a156b8beea1b3bd02844fd21439b8df255335fae85c8f12a5552d51",
          "blockNumber": "0x29aee9b",
          "blockTimestamp": "0x69889be7",
          "transactionHash": "0x3568eff93bd4e5e224abb2fc139562124c10fda4ebea9144275ff74256ed1cc6",
          "transactionIndex": "0xc",
          "logIndex": "0x5",
          "removed": false
        }
      ],
      "logsBloom": "0x00000001000000000000000000000000000000000440000000000000000000000000000000000000000000000000000000000000000000000000000000200000000000000000000400000000000000000000000000001000000000000000000000000000000000000000000000000000000000000000000000000000000000000000000000000000000000000000000000000000000000000000000000000000020000000001000080000000000000000000000000000000000000000000000000000040000000000000000000000000000000200000000000000000000000000010000000000000000000000000000000000000000000000000000000000000",
      "type": "0x2",
      "transactionHash": "0x3568eff93bd4e5e224abb2fc139562124c10fda4ebea9144275ff74256ed1cc6",
      "transactionIndex": "0xc",
      "blockHash": "0x689c5c441a156b8beea1b3bd02844fd21439b8df255335fae85c8f12a5552d51",
      "blockNumber": "0x29aee9b",
      "gasUsed": "0xd9e9",
      "effectiveGasPrice": "0x7a121",
      "blobGasUsed": "0x9c40",
      "from": "0x95606236867c2d3391f3dd2d3004efab08e819e4",
      "to": "0x31d0220469e10c4e71834a79b1f276d740d3768f",
      "contractAddress": null,
      "daFootprintGasScalar": "0x190",
      "l1BaseFeeScalar": "0x7d0",
      "l1BlobBaseFee": "0x3db9685",
      "l1BlobBaseFeeScalar": "0xdbba0",
      "l1Fee": "0x2116b0cbb",
      "l1GasPrice": "0x38f18a9e",
      "l1GasUsed": "0x640"
    },
    {
      "status": "0x1",
      "cumulativeGasUsed": "0x477b4b",
      "logs": [
        {
          "address": "0x4200000000000000000000000000000000000006",
          "topics": [
            "0x8c5be1e5ebec7d5bd14f71427d1e84f3dd0314c0f7b2291e5b200ac8c7c3b925",
            "0x00000000000000000000000095606236867c2d3391f3dd2d3004efab08e819e4",
            "0x000000000000000000000000ebac7df6b8aa133ea122f7e6faf74d1e0b3c9f96"
          ],
          "data": "0xffffffffffffffffffffffffffffffffffffffffffffffffffffffffffffffff",
          "blockHash": "0x0000000000000000000000000000000000000000000000000000000000000000",
          "blockNumber": "0x29aee9b",
          "blockTimestamp": "0x69889be7",
          "transactionHash": "0x5a6794743ba966812d0aa2da61a633f8ec21f953d0c630d9c164d59b2fd9c214",
          "transactionIndex": "0xd",
          "logIndex": "0x6",
          "removed": false
        }
      ],
      "logsBloom": "0x00000001000000000000000000000000000000000040000000040000000000000000000000080000000000100000000000000000000000000000000000200000000000000000000000000000000000000000000000000000000000004000000000000000000000000000000000000000000000000000000000000000000000000000000000000000000000000080000000000000002000000000000000000000020000000000000000000000000000000000000000000000000000000000000000000000000000000000000000000000000000200000000000000000000000000010000000000000000000000000000000000000000000000000000000000000",
      "type": "0x2",
      "transactionHash": "0x5a6794743ba966812d0aa2da61a633f8ec21f953d0c630d9c164d59b2fd9c214",
      "transactionIndex": "0xd",
      "blockHash": "0x0000000000000000000000000000000000000000000000000000000000000000",
      "blockNumber": "0x29aee9b",
      "gasUsed": "0xb581",
      "effectiveGasPrice": "0x7a121",
      "blobGasUsed": "0x9c40",
      "from": "0x95606236867c2d3391f3dd2d3004efab08e819e4",
      "to": "0x4200000000000000000000000000000000000006",
      "contractAddress": null,
      "daFootprintGasScalar": "0x190",
      "l1BaseFeeScalar": "0x7d0",
      "l1BlobBaseFee": "0x3db9685",
      "l1BlobBaseFeeScalar": "0xdbba0",
      "l1Fee": "0x2db1e3610",
      "l1GasPrice": "0x38f18a9e",
      "l1GasUsed": "0x640"
    },
    {
      "status": "0x1",
      "cumulativeGasUsed": "0x485534",
      "logs": [
        {
          "address": "0x31d0220469e10c4e71834a79b1f276d740d3768f",
          "topics": [
            "0x8c5be1e5ebec7d5bd14f71427d1e84f3dd0314c0f7b2291e5b200ac8c7c3b925",
            "0x00000000000000000000000095606236867c2d3391f3dd2d3004efab08e819e4",
            "0x000000000000000000000000ebac7df6b8aa133ea122f7e6faf74d1e0b3c9f96"
          ],
          "data": "0xffffffffffffffffffffffffffffffffffffffffffffffffffffffffffffffff",
          "blockHash": "0x0000000000000000000000000000000000000000000000000000000000000000",
          "blockNumber": "0x29aee9b",
          "blockTimestamp": "0x69889be7",
          "transactionHash": "0xea587ac113b1e142479cfccf260b80ee122b37a6f8a8f1a2388841a11027bb11",
          "transactionIndex": "0xe",
          "logIndex": "0x7",
          "removed": false
        }
      ],
      "logsBloom": "0x00000001000000000000000000000000000000000040000000000000000000000000000000080000000000000000000000000000000000000000000000200000000000000000000000000000000000000000000000001000000000004000000000000000000000000000000000000000000000000000000000000000000000000000000000000000000000000080000000000000000000000000000000000000020000000001000080000000000000000000000000000000000000000000000000000000000000000000000000000000000000200000000000000000000000000010000000000000000000000000000000000000000000000000000000000000",
      "type": "0x2",
      "transactionHash": "0xea587ac113b1e142479cfccf260b80ee122b37a6f8a8f1a2388841a11027bb11",
      "transactionIndex": "0xe",
      "blockHash": "0x0000000000000000000000000000000000000000000000000000000000000000",
      "blockNumber": "0x29aee9b",
      "gasUsed": "0xd9e9",
      "effectiveGasPrice": "0x7a121",
      "blobGasUsed": "0x9c40",
      "from": "0x95606236867c2d3391f3dd2d3004efab08e819e4",
      "to": "0x31d0220469e10c4e71834a79b1f276d740d3768f",
      "contractAddress": null,
      "daFootprintGasScalar": "0x190",
      "l1BaseFeeScalar": "0x7d0",
      "l1BlobBaseFee": "0x3db9685",
      "l1BlobBaseFeeScalar": "0xdbba0",
      "l1Fee": "0x2db1e3610",
      "l1GasPrice": "0x38f18a9e",
      "l1GasUsed": "0x640"
    },
    {
      "status": "0x1",
      "cumulativeGasUsed": "0x490ab5",
      "logs": [
        {
          "address": "0x4200000000000000000000000000000000000006",
          "topics": [
            "0x8c5be1e5ebec7d5bd14f71427d1e84f3dd0314c0f7b2291e5b200ac8c7c3b925",
            "0x00000000000000000000000095606236867c2d3391f3dd2d3004efab08e819e4",
            "0x000000000000000000000000ef015210c0ceca2d35b571c916dedf4890b27e95"
          ],
          "data": "0xffffffffffffffffffffffffffffffffffffffffffffffffffffffffffffffff",
          "blockHash": "0x0000000000000000000000000000000000000000000000000000000000000000",
          "blockNumber": "0x29aee9b",
          "blockTimestamp": "0x69889be7",
          "transactionHash": "0xfba90d9e308195bdcae581349d940b0dd8c31a204e093ac3127e615a052a704c",
          "transactionIndex": "0xf",
          "logIndex": "0x8",
          "removed": false
        }
      ],
      "logsBloom": "0x00000001000000000000000000000000000000000040000000240000000000000000000000000000000000100000000000000000000000000000020000200000000000000000000000000000000000000000000000000000000000000000000000000000000000000000000000000000000000000000000000000000000000000000000000000000000000000000000000000000002000000000000000000000020000000000000000000000800000000000000000000000000000000000000000000000000000000000000000000000000000200000000000000000000000000010000000000000000000000000000000000000000000000000000000000000",
      "type": "0x2",
      "transactionHash": "0xfba90d9e308195bdcae581349d940b0dd8c31a204e093ac3127e615a052a704c",
      "transactionIndex": "0xf",
      "blockHash": "0x0000000000000000000000000000000000000000000000000000000000000000",
      "blockNumber": "0x29aee9b",
      "gasUsed": "0xb581",
      "effectiveGasPrice": "0x7a121",
      "blobGasUsed": "0x9c40",
      "from": "0x95606236867c2d3391f3dd2d3004efab08e819e4",
      "to": "0x4200000000000000000000000000000000000006",
      "contractAddress": null,
      "daFootprintGasScalar": "0x190",
      "l1BaseFeeScalar": "0x7d0",
      "l1BlobBaseFee": "0x3db9685",
      "l1BlobBaseFeeScalar": "0xdbba0",
      "l1Fee": "0x2db1e3610",
      "l1GasPrice": "0x38f18a9e",
      "l1GasUsed": "0x640"
    },
    {
      "status": "0x1",
      "cumulativeGasUsed": "0x49d3d6",
      "logs": [
        {
          "address": "0x00b036b58a818b1bc34d502d3fe730db729e62ac",
          "topics": [
            "0xdd466e674ea557f56295e2d0218a125ea4b4f0f6f3307b95f85e6110838d6438",
            "0x941188bea7522e1393a1d9ceab28bb4449060fdfad6f826533e792afcd79060f",
            "0x00000000000000000000000031d0220469e10c4e71834a79b1f276d740d3768f",
            "0x0000000000000000000000004200000000000000000000000000000000000006"
          ],
          "data": "0x0000000000000000000000000000000000000000000000000000000000000bb8000000000000000000000000000000000000000000000000000000000000003c000000000000000000000000123cf503a8ab7956cb9cdb5970be07bc207b86c000000000000000000000000000000000000000010000000000000000000000000000000000000000000000000000000000000000000000000000000000000000",
          "blockHash": "0x0000000000000000000000000000000000000000000000000000000000000000",
          "blockNumber": "0x29aee9b",
          "blockTimestamp": "0x69889be7",
          "transactionHash": "0xda063c58472388b4510821b24c33af9e8448d3ed588a45c9ab8586c1fafbbbe3",
          "transactionIndex": "0x10",
          "logIndex": "0x9",
          "removed": false
        }
      ],
      "logsBloom": "0x00000000000020000000000000000000000000000000000000000000000000000000000000000080000000000000000000000000000000000020000000000000000000000000000000000000000000000000000000000000000000000000000000000000000000000000000000000000000010000000000000000000000000000000000000000008000000000008000000000001000000000000000000200000000000000000000000000000000000000000000000000000000000000000000000000000000004008002000000000000000000000000800000000000000000000000000000001000000000000000000000000000000002000000000000000010",
      "type": "0x2",
      "transactionHash": "0xda063c58472388b4510821b24c33af9e8448d3ed588a45c9ab8586c1fafbbbe3",
      "transactionIndex": "0x10",
      "blockHash": "0x0000000000000000000000000000000000000000000000000000000000000000",
      "blockNumber": "0x29aee9b",
      "gasUsed": "0xc921",
      "effectiveGasPrice": "0x7a121",
      "blobGasUsed": "0xcb20",
      "from": "0x95606236867c2d3391f3dd2d3004efab08e819e4",
      "to": "0x00b036b58a818b1bc34d502d3fe730db729e62ac",
      "contractAddress": null,
      "daFootprintGasScalar": "0x190",
      "l1BaseFeeScalar": "0x7d0",
      "l1BlobBaseFee": "0x3db9685",
      "l1BlobBaseFeeScalar": "0xdbba0",
      "l1Fee": "0x2db1e3610",
      "l1GasPrice": "0x38f18a9e",
      "l1GasUsed": "0x829"
    },
    {
      "status": "0x1",
      "cumulativeGasUsed": "0x4e9c1a",
      "logs": [
        {
          "address": "0x00b036b58a818b1bc34d502d3fe730db729e62ac",
          "topics": [
            "0xf208f4912782fd25c7f114ca3723a2d5dd6f3bcc3ac8db5af63baa85f711d5ec",
            "0x941188bea7522e1393a1d9ceab28bb4449060fdfad6f826533e792afcd79060f",
            "0x000000000000000000000000ebac7df6b8aa133ea122f7e6faf74d1e0b3c9f96"
          ],
          "data": "0xffffffffffffffffffffffffffffffffffffffffffffffffffffffffffffff88000000000000000000000000000000000000000000000000000000000000007800000000000000000000000000000000000000000000000000000000773594000000000000000000000000000000000000000000000000000000000000000000",
          "blockHash": "0x0000000000000000000000000000000000000000000000000000000000000000",
          "blockNumber": "0x29aee9b",
          "blockTimestamp": "0x69889be7",
          "transactionHash": "0x769084457233cd517d7899bd678b518279c71c1b45b2a928876cb4a36f082fc9",
          "transactionIndex": "0x11",
          "logIndex": "0xa",
          "removed": false
        },
        {
          "address": "0x123cf503a8ab7956cb9cdb5970be07bc207b86c0",
          "topics": [
            "0xbfa58399b4447e933d353f718fb884c25d8d9937694b69fac7df73e7c677fb33",
            "0x941188bea7522e1393a1d9ceab28bb4449060fdfad6f826533e792afcd79060f",
            "0x000000000000000000000000ebac7df6b8aa133ea122f7e6faf74d1e0b3c9f96"
          ],
          "data": "0xffffffffffffffffffffffffffffffffffffffffffffffffffffffffffffff8800000000000000000000000000000000000000000000000000000000000000780000000000000000000000000000000000000000000000000000000000000000",
          "blockHash": "0x0000000000000000000000000000000000000000000000000000000000000000",
          "blockNumber": "0x29aee9b",
          "blockTimestamp": "0x69889be7",
          "transactionHash": "0x769084457233cd517d7899bd678b518279c71c1b45b2a928876cb4a36f082fc9",
          "transactionIndex": "0x11",
          "logIndex": "0xb",
          "removed": false
        },
        {
          "address": "0x31d0220469e10c4e71834a79b1f276d740d3768f",
          "topics": [
            "0xddf252ad1be2c89b69c2b068fc378daa952ba7f163c4a11628f55a4df523b3ef",
            "0x00000000000000000000000095606236867c2d3391f3dd2d3004efab08e819e4",
            "0x00000000000000000000000000b036b58a818b1bc34d502d3fe730db729e62ac"
          ],
          "data": "0x0000000000000000000000000000000000000000000000000000000000b68c54",
          "blockHash": "0x0000000000000000000000000000000000000000000000000000000000000000",
          "blockNumber": "0x29aee9b",
          "blockTimestamp": "0x69889be7",
          "transactionHash": "0x769084457233cd517d7899bd678b518279c71c1b45b2a928876cb4a36f082fc9",
          "transactionIndex": "0x11",
          "logIndex": "0xc",
          "removed": false
        },
        {
          "address": "0x4200000000000000000000000000000000000006",
          "topics": [
            "0xddf252ad1be2c89b69c2b068fc378daa952ba7f163c4a11628f55a4df523b3ef",
            "0x00000000000000000000000095606236867c2d3391f3dd2d3004efab08e819e4",
            "0x00000000000000000000000000b036b58a818b1bc34d502d3fe730db729e62ac"
          ],
          "data": "0x0000000000000000000000000000000000000000000000000000000000b68c54",
          "blockHash": "0x0000000000000000000000000000000000000000000000000000000000000000",
          "blockNumber": "0x29aee9b",
          "blockTimestamp": "0x69889be7",
          "transactionHash": "0x769084457233cd517d7899bd678b518279c71c1b45b2a928876cb4a36f082fc9",
          "transactionIndex": "0x11",
          "logIndex": "0xd",
          "removed": false
        }
      ],
      "logsBloom": "0x00000001000020000000000000000000000800000040000000040000000000000000000000080000000000100000000000000000001000000000000000000000000000000000000000000008000000000000000000001000000000004000000000000000000000000000000002004000000000000000000000000010000000000000000001000000000000000088000000000000002000000000020000000000000004000041000080000000000000000000000000000020000000000000000000000002000000000002000000000000000000200004800000000000000000000000000000000000000000000010000004000000000002000000000000000010",
      "type": "0x2",
      "transactionHash": "0x769084457233cd517d7899bd678b518279c71c1b45b2a928876cb4a36f082fc9",
      "transactionIndex": "0x11",
      "blockHash": "0x0000000000000000000000000000000000000000000000000000000000000000",
      "blockNumber": "0x29aee9b",
      "gasUsed": "0x4c844",
      "effectiveGasPrice": "0x7a121",
      "blobGasUsed": "0xef10",
      "from": "0x95606236867c2d3391f3dd2d3004efab08e819e4",
      "to": "0xebac7df6b8aa133ea122f7e6faf74d1e0b3c9f96",
      "contractAddress": null,
      "daFootprintGasScalar": "0x190",
      "l1BaseFeeScalar": "0x7d0",
      "l1BlobBaseFee": "0x3db9685",
      "l1BlobBaseFeeScalar": "0xdbba0",
      "l1Fee": "0x2db1e3610",
      "l1GasPrice": "0x38f18a9e",
      "l1GasUsed": "0x992"
    },
    {
      "status": "0x1",
      "cumulativeGasUsed": "0x5b00e9",
      "logs": [],
      "logsBloom": "0x00000000000000000000000000000000000000000000000000000000000000000000000000000000000000000000000000000000000000000000000000000000000000000000000000000000000000000000000000000000000000000000000000000000000000000000000000000000000000000000000000000000000000000000000000000000000000000000000000000000000000000000000000000000000000000000000000000000000000000000000000000000000000000000000000000000000000000000000000000000000000000000000000000000000000000000000000000000000000000000000000000000000000000000000000000000",
      "type": "0x2",
      "transactionHash": "0xe98af87b79ce6eb4b9b73e34841715d5131fe26808cb46981534ab50a370212f",
      "transactionIndex": "0x12",
      "blockHash": "0x0000000000000000000000000000000000000000000000000000000000000000",
      "blockNumber": "0x29aee9b",
      "gasUsed": "0xc64cf",
      "effectiveGasPrice": "0x7a121",
      "blobGasUsed": "0xe0060",
      "from": "0x95606236867c2d3391f3dd2d3004efab08e819e4",
      "to": null,
      "contractAddress": "0xc95236c816399d34d19b0eb7aebb81a8062cfc7f",
      "daFootprintGasScalar": "0x190",
      "l1BaseFeeScalar": "0x7d0",
      "l1BlobBaseFee": "0x3db9685",
      "l1BlobBaseFeeScalar": "0xdbba0",
      "l1Fee": "0x2db1e3610",
      "l1GasPrice": "0x38f18a9e",
      "l1GasUsed": "0x8f69"
    },
    {
      "status": "0x1",
      "cumulativeGasUsed": "0x5e0118",
      "logs": [
        {
          "address": "0xf58dfaade0d4df50eecfb0e3211ce898e68852a7",
          "topics": [
            "0x69ed47713df78c91050b377d2f52abaea3dbc2bbe31c32b290c288c61ce079fc",
            "0x0000000000000000000000000000000000000000000000000000000000000000",
            "0x00000000000000000000000095606236867c2d3391f3dd2d3004efab08e819e4"
          ],
          "data": "0x00000000000000000000000000000000000000000000000000000000029aee7c00000000000000000000000000000000000000000000000000000000029aeedf",
          "blockHash": "0x0000000000000000000000000000000000000000000000000000000000000000",
          "blockNumber": "0x29aee9b",
          "blockTimestamp": "0x69889be7",
          "transactionHash": "0x762617b59f61fed468c35fed046a5390e8a0e79195bf389adcbc6dc3accd5afb",
          "transactionIndex": "0x13",
          "logIndex": "0xe",
          "removed": false
        }
      ],
      "logsBloom": "0x00000001000000000000000000000000000000000040000000000000000000000000000000000000000000000000000000000000000000000000000000000000000000000000000000000000000000000000000000000000000000000000000000000000020020000000000000000800000000000000000000000000000000000000000000000000000000000000000000000000000000000000000000000000000000000000000000008000000000000000000000000000200000000000000000010000000000000000000000000000000000200000000000000000000020000000002000000000000000000000000000000000080000000000000000000000",
      "type": "0x2",
      "transactionHash": "0x762617b59f61fed468c35fed046a5390e8a0e79195bf389adcbc6dc3accd5afb",
      "transactionIndex": "0x13",
      "blockHash": "0x0000000000000000000000000000000000000000000000000000000000000000",
      "blockNumber": "0x29aee9b",
      "gasUsed": "0x3002f",
      "effectiveGasPrice": "0x7a121",
      "blobGasUsed": "0xc030",
      "from": "0x95606236867c2d3391f3dd2d3004efab08e819e4",
      "to": "0xf58dfaade0d4df50eecfb0e3211ce898e68852a7",
      "contractAddress": null,
      "daFootprintGasScalar": "0x190",
      "l1BaseFeeScalar": "0x7d0",
      "l1BlobBaseFee": "0x3db9685",
      "l1BlobBaseFeeScalar": "0xdbba0",
      "l1Fee": "0x2db1e3610",
      "l1GasPrice": "0x38f18a9e",
      "l1GasUsed": "0x7b0"
    },
    {
      "status": "0x1",
      "cumulativeGasUsed": "0x62f275",
      "logs": [
        {
          "address": "0x4200000000000000000000000000000000000006",
          "topics": [
            "0xddf252ad1be2c89b69c2b068fc378daa952ba7f163c4a11628f55a4df523b3ef",
            "0x00000000000000000000000095606236867c2d3391f3dd2d3004efab08e819e4",
            "0x000000000000000000000000ef015210c0ceca2d35b571c916dedf4890b27e95"
          ],
          "data": "0x0000000000000000000000000000000000000000000000000011c37937e08000",
          "blockHash": "0x0000000000000000000000000000000000000000000000000000000000000000",
          "blockNumber": "0x29aee9b",
          "blockTimestamp": "0x69889be7",
          "transactionHash": "0xe55c2fcee03984414d56d18757e0bf0cf0e8e6382bdebcfe95e0d36844e1ddff",
          "transactionIndex": "0x14",
          "logIndex": "0xf",
          "removed": false
        },
        {
          "address": "0x4200000000000000000000000000000000000006",
          "topics": [
            "0x8c5be1e5ebec7d5bd14f71427d1e84f3dd0314c0f7b2291e5b200ac8c7c3b925",
            "0x000000000000000000000000ef015210c0ceca2d35b571c916dedf4890b27e95",
            "0x000000000000000000000000c4fc2c48df2b9c52aaf6fc78af8e4f58fc7726c2"
          ],
          "data": "0x0000000000000000000000000000000000000000000000000011c37937e08000",
          "blockHash": "0x0000000000000000000000000000000000000000000000000000000000000000",
          "blockNumber": "0x29aee9b",
          "blockTimestamp": "0x69889be7",
          "transactionHash": "0xe55c2fcee03984414d56d18757e0bf0cf0e8e6382bdebcfe95e0d36844e1ddff",
          "transactionIndex": "0x14",
          "logIndex": "0x10",
          "removed": false
        },
        {
          "address": "0x00b036b58a818b1bc34d502d3fe730db729e62ac",
          "topics": [
            "0x40e9cecb9f5f1f1c5b9c97dec2917b7ee92e57ba5563708daca94dd84ad7112f",
            "0x941188bea7522e1393a1d9ceab28bb4449060fdfad6f826533e792afcd79060f",
            "0x000000000000000000000000c4fc2c48df2b9c52aaf6fc78af8e4f58fc7726c2"
          ],
          "data": "0x0000000000000000000000000000000000000000000000000000000000b68c53ffffffffffffffffffffffffffffffffffffffffffffffffffffffffff47ccfb0000000000000000000000000000000000000002000000000000000000000000000000000000000000000000000000000000000000000000000000000000000000000000000000000000000000000000000000000000000000000000000036270000000000000000000000000000000000000000000000000000000000000bb8",
          "blockHash": "0x0000000000000000000000000000000000000000000000000000000000000000",
          "blockNumber": "0x29aee9b",
          "blockTimestamp": "0x69889be7",
          "transactionHash": "0xe55c2fcee03984414d56d18757e0bf0cf0e8e6382bdebcfe95e0d36844e1ddff",
          "transactionIndex": "0x14",
          "logIndex": "0x11",
          "removed": false
        },
        {
          "address": "0x123cf503a8ab7956cb9cdb5970be07bc207b86c0",
          "topics": [
            "0x22421962bfaa39dd537a12f6e9a519f79eea832ac6dfd20e0dc3d125c8eac299",
            "0x941188bea7522e1393a1d9ceab28bb4449060fdfad6f826533e792afcd79060f",
            "0x000000000000000000000000c4fc2c48df2b9c52aaf6fc78af8e4f58fc7726c2"
          ],
          "data": "0x00000000000000000000000000000000000000000000000000000000029aee9b",
          "blockHash": "0x0000000000000000000000000000000000000000000000000000000000000000",
          "blockNumber": "0x29aee9b",
          "blockTimestamp": "0x69889be7",
          "transactionHash": "0xe55c2fcee03984414d56d18757e0bf0cf0e8e6382bdebcfe95e0d36844e1ddff",
          "transactionIndex": "0x14",
          "logIndex": "0x12",
          "removed": false
        },
        {
          "address": "0x4200000000000000000000000000000000000006",
          "topics": [
            "0xddf252ad1be2c89b69c2b068fc378daa952ba7f163c4a11628f55a4df523b3ef",
            "0x000000000000000000000000ef015210c0ceca2d35b571c916dedf4890b27e95",
            "0x00000000000000000000000000b036b58a818b1bc34d502d3fe730db729e62ac"
          ],
          "data": "0x0000000000000000000000000000000000000000000000000000000000b83305",
          "blockHash": "0x0000000000000000000000000000000000000000000000000000000000000000",
          "blockNumber": "0x29aee9b",
          "blockTimestamp": "0x69889be7",
          "transactionHash": "0xe55c2fcee03984414d56d18757e0bf0cf0e8e6382bdebcfe95e0d36844e1ddff",
          "transactionIndex": "0x14",
          "logIndex": "0x13",
          "removed": false
        },
        {
          "address": "0x31d0220469e10c4e71834a79b1f276d740d3768f",
          "topics": [
            "0xddf252ad1be2c89b69c2b068fc378daa952ba7f163c4a11628f55a4df523b3ef",
            "0x00000000000000000000000000b036b58a818b1bc34d502d3fe730db729e62ac",
            "0x000000000000000000000000ef015210c0ceca2d35b571c916dedf4890b27e95"
          ],
          "data": "0x0000000000000000000000000000000000000000000000000000000000b68c53",
          "blockHash": "0x0000000000000000000000000000000000000000000000000000000000000000",
          "blockNumber": "0x29aee9b",
          "blockTimestamp": "0x69889be7",
          "transactionHash": "0xe55c2fcee03984414d56d18757e0bf0cf0e8e6382bdebcfe95e0d36844e1ddff",
          "transactionIndex": "0x14",
          "logIndex": "0x14",
          "removed": false
        },
        {
          "address": "0xf58dfaade0d4df50eecfb0e3211ce898e68852a7",
          "topics": [
            "0xf0c6c99b11035113bf510013043afc18365a61a112c542b9f7491fd1574cfc5b",
            "0x0000000000000000000000000000000000000000000000000000000000000000"
          ],
          "data": "0x",
          "blockHash": "0x0000000000000000000000000000000000000000000000000000000000000000",
          "blockNumber": "0x29aee9b",
          "blockTimestamp": "0x69889be7",
          "transactionHash": "0xe55c2fcee03984414d56d18757e0bf0cf0e8e6382bdebcfe95e0d36844e1ddff",
          "transactionIndex": "0x14",
          "logIndex": "0x15",
          "removed": false
        },
        {
          "address": "0x31d0220469e10c4e71834a79b1f276d740d3768f",
          "topics": [
            "0xddf252ad1be2c89b69c2b068fc378daa952ba7f163c4a11628f55a4df523b3ef",
            "0x000000000000000000000000ef015210c0ceca2d35b571c916dedf4890b27e95",
            "0x00000000000000000000000095606236867c2d3391f3dd2d3004efab08e819e4"
          ],
          "data": "0x0000000000000000000000000000000000000000000000000000000000b68c53",
          "blockHash": "0x0000000000000000000000000000000000000000000000000000000000000000",
          "blockNumber": "0x29aee9b",
          "blockTimestamp": "0x69889be7",
          "transactionHash": "0xe55c2fcee03984414d56d18757e0bf0cf0e8e6382bdebcfe95e0d36844e1ddff",
          "transactionIndex": "0x14",
          "logIndex": "0x16",
          "removed": false
        }
      ],
      "logsBloom": "0x00000001000020000000000000000000800000000440000000240000000000000040000000000000000000120000000000000000041000000000020000200000000000000000000400000008000000000000400000001020000000000000000000000000020020000000000000004800000000000000000000000010000000000000000000000000000000000008000000000000002000000000020000000000020000000001000080008000800000000000004000000020008000000000000000010042000000000002000000000000000000200004800000000000000020000010000000000000004000000010000000000000000002000000000000000010",
      "type": "0x2",
      "transactionHash": "0xe55c2fcee03984414d56d18757e0bf0cf0e8e6382bdebcfe95e0d36844e1ddff",
      "transactionIndex": "0x14",
      "blockHash": "0x0000000000000000000000000000000000000000000000000000000000000000",
      "blockNumber": "0x29aee9b",
      "gasUsed": "0x4f15d",
      "effectiveGasPrice": "0x7a121",
      "blobGasUsed": "0xc800",
      "from": "0x95606236867c2d3391f3dd2d3004efab08e819e4",
      "to": "0xef015210c0ceca2d35b571c916dedf4890b27e95",
      "contractAddress": null,
      "daFootprintGasScalar": "0x190",
      "l1BaseFeeScalar": "0x7d0",
      "l1BlobBaseFee": "0x3db9685",
      "l1BlobBaseFeeScalar": "0xdbba0",
      "l1Fee": "0x2db1e3610",
      "l1GasPrice": "0x38f18a9e",
      "l1GasUsed": "0x80e"
    }
  ],
  "libraries": [],
  "pending": [],
  "returns": {},
  "timestamp": 1770560488313,
  "chain": 1301,
  "commit": null
}